:100000000C94B4040C94551F0C942E1F0C94CB210B
:100010000C94CB210C94CB210C94DC040C947C1F0D
:100020000C94DC040C94DC040C94DC040C94DC04D0
:100030000C94DC040C94DC040C94DC040C94DC04C0
:100040000C94720F0C94DC040C9432200C940C2051
:100050000C94DC040C94DC040C94DC040C94DC04A0
:100060000C9464200C94DC04B105CE058805960937
:1000700096099609960996099609EF0531065006E4
:100080006F068E0696099609960996099609AD0699
:10009000CB06E9060707FF07230896099609960984
:1000A0009609410870088E089609960996099609DE
:1000B000960996099609AC08010946099609960918
:1000C000960996099609960996096D097309000023
:1000D0000000240027002A000000000800020100A0
:1000E0000003040700000000000000000200000000
:1000F0000000000000000000000000000000000000
:1001000000000000000000000000000000000000EF
:1001100000000000000000000000000000000000DF
:1001200000000000000000000000000000000020AF
:1001300000000000000000000000F88100000070D6
:100140000080FFFF07C0FFFFFF01FE8F000000706F
:100150000000FCFF3FC0FFFFFF010FFE0000007822
:100160000000F8037FC0077FF08107F8000000F867
:100170000000F803FEC0017FC0C103F0000000FCD6
:100180000000F803FCC1007F80C103E0000000FC18
:100190000100F803F8C3007F80E103C0000000FC09
:1001A0000100F803F843007F00E103C0000000FEF7
:1001B0000100F803F843007F00E10780000000FE23
:1001C0000300F803F803007F00E00F80000000FB4D
:1001D0000300F803F803007F00E01F00000000FBAD
:1001E0000700F803F803007F00E07F00000080F1C3
:1001F0000700F803F801007F00C0FF01000080F154
:100200000F00F803FC01007F00C0FF07000080F032
:100210000F00F803FE00007F0080FF0F0000C0E029
:100220000F00F8037F00007F0000FF3F0000C0E0E8
:100230001F00F8FF1F00007F0000FE7F000060C06D
:100240001F00F8FF0F00007F0000FCFF000060C0EF
:100250003F00F8F31F00007F0000F0FF0100308036
:100260003F00F8E31F00007F0000C0FF0100F0FF27
:100270003F00F8C33F00007F000000FF0300F8FFCD
:100280007F00F8C37F00007F000000FC030018001F
:100290007F00F8837F00007F002000F80300180033
:1002A000FF00F803FF00007F002000F003000C00B7
:1002B000FE00F803FF01007F006000E003000C0077
:1002C000FE01F803FE01007F006000E0030006006D
:1002D000FE01F803FC03007F00E000E001000600DF
:1002E000FC01F803FC07007F00E001E001000700CB
:1002F000FC03F803F807007F00E003F000000700AC
:10030000FC03F803F00F007F00E007F000800F000F
:10031000FC07FC07F01F80FF00E01F7C00E07F80EF
:10032000FF9FFF3FE07FF0FF0760FC1F0000000021
:1003300000000000000000000020F00700000000A6
:1003400000000000000000000000000000000000AD
:10035000000000000000000000000000000000009D
:1003600000000000000000000000000000F08173A9
:10037000E0C1033CF0810F7870077E800360033397
:10038000C080011860031B3060024CC00260033360
:10039000C080011860031B30E0022CC000E0013F68
:1003A000C0800118E0010F30A0023C8001600033E2
:1003B000C080011860000330A0032C0003600033EC
:1003C000C08009186000033020034C4003F08073A4
:1003D000E0C10F3CF080077870037EC00100000090
:1003E000000000000000000000000000000000000D
:1003F00000000000000000000000000000000000FD
:1004000000000000000000000000000000000000EC
:1004100000000000000000000000000000C005CF48
:100420008107C0837F00F00778C005F8006006866A
:10043000000380814C00600C3060068C01600486F3
:10044000000380010C00600C3060040603E00086AD
:10045000000380010C00600C30E0000603C0018640
:10046000000380010C00600C30C00106038003868D
:10047000000380010C00E0073080030603000786BC
:10048000004380010C006000300007060320068650
:10049000004380010C0060003020060603600686E1
:1004A000006380010C0060003060068C01A0037CBA
:1004B000807FC0031E00F00078A003F80000000059
:1004C000000000000000000000000000000000002C
:1004D000000000000000000000000000000000001C
:1004E00000000000000000000000000000600003A9
:1004F000020304030404060B00FE07FE08FF013E8E
:10050000028103AA200500A203210739A363500238
:1005100022079BB623B104230B2DAAA732289541AD
:10052000A900240E4D9E2B5B2A4AB6254A658B00F6
:10053000250E3DA26750125312294A222500260C8F
:100540003DA247AAD42A89142901270519B763288F
:1005500008CB9E2B29752B2909CB9E232B752901AE
:100560002A0A2DAAAB52599A22002B0A2DA62B8CAF
:1005700006298C002C08A29A634814002D058BAE26
:10058000632E0612A363082F0C559AB316666116E4
:10059000666108300C3DA267C9A42599B464013195
:1005A000093DA22B1A3B0D02320A3DA267C9C2AC1B
:1005B0006D10330B3DA267C9C248D59205340C3D7E
:1005C000A22F9392523268D900350B3DA2E338A492
:1005D000A1962C00360C3DA267098724B3250B0099
:1005E000370A3DA263106BC51200380C3DA267C9E3
:1005F000B464C9B46401390C3DA267C96CC9102642
:100600000B003A082AA3638886003B09BA9A6388DC
:100610008644013C07BCA22F6A6C3D081DAA6350AA
:1006200007013E08BCA2236C6A033F0B3DA267C9C9
:10063000C2AC0E4500400D3DA267C99421499421EA
:100640001D02410C3DA22B4BA2A4360C9916420D63
:100650003DA26348326D50326D5000430A3DA2679F
:10066000C9C4B66401440A3DA26348326F8302459F
:100670000B3DA2E3180E49180E02460A3DA2E318EC
:100680000E495804470B3DA267C9C468D392054878
:100690000A3DA223B30D43660B490A3DA26390C2F3
:1006A0004E83004A093DA2B351D392054B0C3DA2A3
:1006B000239392929644952C4C083DA223EC711002
:1006C0004D0C3DA2235B964449345B004E0B3DA28A
:1006D000239B9444DA6C014F0A3DA267C9BC250BE9
:1006E00000500C3DA26348326D50C22200510A45B1
:1006F0009E67C9BC54D600520C3DA26348326D506F
:10070000325B00530B3DA267C9D4554B1600540908
:100710003DA26390C29E0055093DA223F32D5900CE
:10072000560C3DA223B325A5240B2300570A3DA256
:1007300023734994E416580B3DA223D3925AA5A6DD
:1007400005590A3DA223B325B5B0045A0A3DA26358
:1007500010B38E83005B084A9F63E98B005C0CD565
:100760009A234CC3344CC3340C5D08CA9E43E9CB76
:10077000005E081DB22B4B6A015F060E9AE3006013
:100780000692BA230A61092DA267D04C8A12620C24
:100790003DA2230C8724B30D0A0063092DA267C96B
:1007A000C47408640A3DA2B33268B66408650A2DB1
:1007B000A267C986211D026609BCA24B89A6AC09A5
:1007C000670C3D9A67D06CC910260B00680A3DA2E1
:1007D000230C8724730B6908BBA227945A066A0965
:1007E0004B9A2B943A2D006B0B3DA2232C25A5A9E7
:1007F00092056C07BBA243EA656D0C2DA263482AE3
:100800004AA2244A016E092DA2233169B6006F095C
:100810002DA267C96CC902700C3D9A634832DBA0F7
:10082000842100710A3D9A67D06CC9101672092D97
:10083000A2233189450073092DA267500F0A007465
:1008400009BCA2278BA6AC2875092DA2237352944C
:1008500000760B2DA223D39252924500770C2DA245
:100860002349944449942E00780A2DA2234B6A957B
:100870005A00790B3D9A23734B863059007A092D23
:10088000A263D0DA06017B0ADB9A2B895AB2A82D23
:100890007C06499FE3017D0BDB9A238BDA92A82526
:1008A000027E0615AEC7057F0500A2030000000406
:1008B000FFFF0000506F7765720053657276650028
:1008C00043726564697400416D6F756E7400547293
:1008D000616E73004C696D69740046726565005401
:1008E000696D6500566163616E7400436F696E00E7
:1008F0005465726D696E616C005068696C697070E6
:10090000696E657300412E522E542E53000509F96D
:1009100008F008EB08E408DF08DA08D408CE08C7B6
:1009200008C008BA08B40800000000230026002907
:100930000000000000250028002B0004040404042B
:10094000040404020202020202030303030303017C
:100950000204081020408001020408102001020453
:1009600008102000292CD52B11241FBECFEFD8E072
:10097000DEBFCDBF25E0A4EDB1E001C01D92A93ED0
:10098000B207E1F711E0A0E0B1E0EAE6FAE602C062
:1009900005900D92A43DB107D9F714E0C3EBD4E064
:1009A00004C02197FE010E943E30C23BD107C9F727
:1009B0000E9480290C9428350C9400004F925F927D
:1009C0006F927F928F929F92AF92BF92CF92DF925F
:1009D000EF92FF920F931F93CF93DF93CDB7DEB7C4
:1009E000C454D1090FB6F894DEBF0FBECDBF80E06E
:1009F00090E00E941D293C01772443018FEF881A63
:100A0000980AC4010E941D297C01FF245701EFEFC1
:100A1000AE1ABE0AC5010E941D298C01112768016A
:100A2000FFEFCF1ADF0AC6010E941D292C01A30186
:100A300060E070E0CE0101960E943C29CE01019653
:100A40000E94B72860931604CE0101960E94141FDD
:100A5000A701B401CE0101960E943C29CE01019666
:100A60000E94B72860931704CE0101960E94141FBC
:100A7000A801B501CE0101960E943C29CE01019644
:100A80000E94B728609318047093190480931A0485
:100A900090931B04CE0101960E94141F5524A201BD
:100AA000B601CE0101960E943C29CE0101960E941A
:100AB000B72860931C0470931D0480931E049093C8
:100AC0001F04CE0101960E94141F409114045091FE
:100AD0001504B2016F5F7F4FCE0101960E943C2941
:100AE000CE0101960E94B72860932004CE010196A2
:100AF0000E94141FE09116048E2F90E0FC013197A4
:100B0000E333F10508F012C4EC5CFF4F0C943E3067
:100B100080911704813071F40E94DC2460931804E2
:100B20007093190480931A0490931B0431C084308D
:100B300009F476C080912A0490E0A0E0B0E08093B0
:100B4000180490931904A0931A04B0931B04809383
:100B50001C0490931D04A0931E04B0931F0484E30F
:100B6000FDC380911704813029F7BE016F5F7F4F6D
:100B700088E090E00E945B2289819A81AB81BC81F0
:100B80008093180490931904A0931A04B0931B0443
:100B900080912A0490E0A0E0B0E0BEC380911704E9
:100BA000813031F4BE016F5F7F4F8CE090E0E2CF87
:100BB000823009F0BFCF8091180490911904A09160
:100BC0001A04B0911B0425968CAF9DAFAEAFBFAF9A
:100BD0002597BE016F5B7F4F8CE090E054C38091FE
:100BE0001704813031F4BE016F5F7F4F80E190E0E8
:100BF000C1CF823009F09BCF8091180490911904E5
:100C0000A0911A04B0911B0421968CAF9DAFAEAF9A
:100C1000BFAF2197BE01635C7F4F80E190E033C39B
:100C2000C0901804D0901904E0901A04F0901B04AE
:100C3000BE016F5F7F4F80E190E00E945B2249819F
:100C40005A816B817C8181E090E0A0E0B0E0C41625
:100C5000D506E606F70609F093CF80E090E0DC01C8
:100C60008FCF80911704813031F4BE016F5F7F4FC9
:100C700084E190E07FCF823009F05CCF809118044E
:100C800090911904A0911A04B0911B0489AF9AAFF6
:100C9000ABAFBCAFBE01675C7F4F84E190E0F3C2B5
:100CA00080911704813031F4BE016F5F7F4F88E17E
:100CB00090E060CF823009F03DCF80911804909190
:100CC0001904A0911A04B0911B048DAB9EABAFAB7D
:100CD000B8AFBE016B5C7F4F88E190E0D4C28091D9
:100CE0001704813031F4BE016F5F7F4F8CE190E0DB
:100CF00041CF823009F01ECF8091180490911904E1
:100D0000A0911A04B0911B0489AB9AABABABBCABFE
:100D1000BE016F5C7F4F8CE190E0B5C280911704FB
:100D2000813031F4BE016F5F7F4F80E290E022CFCF
:100D3000823009F0FFCE8091180490911904A0919F
:100D40001A04B0911B048DA79EA7AFA7B8ABBE0134
:100D5000635D7F4F80E290E096C2809117048130FE
:100D600009F0E8CEBE016F5F7F4F80E390E00E9404
:100D70005B2289819A81AB81BC8180931804909316
:100D80001904A0931A04B0931B04BE016F5F7F4F38
:100D900084E590E051C180911704813009F0CACEFA
:100DA000BE016F5F7F4F84E390E00E945B228981E8
:100DB0009A81AB81BC818093180490931904A0930D
:100DC0001A04B0931B04BE016F5F7F4F88E590E06B
:100DD00033C180911704813009F0ACCEBE016F5F42
:100DE0007F4F88E390E00E945B2289819A81AB81EA
:100DF000BC818093180490931904A0931A04B093B3
:100E00001B04BE016F5F7F4F8CE590E015C18091A0
:100E100017048130C9F4BE016F5F7F4F8CE390E00F
:100E20000E945B2289819A81AB81BC8180931804E6
:100E300090931904A0931A04B0931B04BE016F5F32
:100E40007F4F80E690E0F8C0833009F073CE809049
:100E50001C0490901D04A0901E04B0901F048114E7
:100E60009104A104B10409F4ACC0BE01695F7F4FD5
:100E70008CE390E00E945B2275016401EE24FF2464
:100E80008F819885A985BA858C0D9D1DAE1DBF1DCE
:100E90008F839887A987BA87BE01695F7F4F8CE3EC
:100EA00090E00E948122BE01695F7F4F80E690E062
:100EB0000E945B228F819885A985BA85C80ED91EAC
:100EC000EA1EFB1ECF82D886E986FA86BE01695FDC
:100ED0007F4F80E690E00E948122BE016F5F7F4FCE
:100EE00088E390E00E945B2289819A81AB81BC817A
:100EF0000196A11DB11D89839A83AB83BC83BE017A
:100F00006F5F7F4F88E390E00E948122BE016F5F98
:100F10007F4F8CE590E00E945B2289819A81AB81B2
:100F2000BC810196A11DB11D89839A83AB83BC83CB
:100F3000BE016F5F7F4F8CE590E00E948122BE0171
:100F40006F5F7F4F84E190E00E945B2289819A81EC
:100F5000AB81BC81889EB001899E700D989E700DFA
:100F600011248BE294E00E94E023C0901C04D090F6
:100F70001D04E0901E04F0901F04BE016F5F7F4FC0
:100F800084E190E00E945B2269817A818B819C815F
:100F9000A70196010E94D92FAB01BC012091180432
:100FA00030911904EFE0E29FC001E39F900D1124FE
:100FB00020910E0430910F04820F931F0E94F024A1
:100FC0007EC120911804309119044FE0429FC00166
:100FD000439F900D1124E0910E04F0910F04E80F4F
:100FE000F91F1086118612861386108211821282D2
:100FF00013821482158216821782168660C1809130
:101000001704813009F096CDBE016F5F7F4F80E4F9
:1010100090E00E945B2289819A81AB81BC818093A0
:10102000180490931904A0931A04B0931B04BE01F2
:101030006F5F7F4F84E690E00E945B2289819A81F6
:10104000AB81BC8169C180911704813009F072CDF8
:10105000BE016F5F7F4F84E490E00E945B22898134
:101060009A81AB81BC818093180490931904A0935A
:101070001A04B0931B04BE016F5F7F4F88E690E0B7
:10108000DBCF80911704813009F054CD8AE0809342
:101090002004BE016F5F7F4F8CE490E00E945B22D2
:1010A00089819A81AB81BC81809318049093190443
:1010B000A0931A04B0931B04BE016F5F7F4F80E7BB
:1010C00090E00E945B2289819A81AB81BC818093F0
:1010D0001C0490931D04A0931E04B0931F0440C1F0
:1010E00080911704813009F025CDBE016F5F7F4FDD
:1010F00080E590E00E945B2289819A81AB81BC816E
:101100008093180490931904A0931A04B0931B04BD
:10111000BE016F5F7F4F84E790E08ECF8091170410
:10112000813009F007CDBE016F5F7F4F88E490E00A
:101130000E945B2289819A81AB81BC8180931804D3
:1011400090931904A0931A04B0931B04BE016F5F1F
:101150007F4F8CE690E070CF80911704813031F49E
:10116000BE016F5F7F4F84E290E004CD833009F0D1
:10117000E1CC8091180490911904A0911A04B091C7
:101180001B0489A79AA7ABA7BCA767E374E080E319
:1011900090E00E94812267E374E084E390E00E9483
:1011A000812267E374E088E390E00E94812267E394
:1011B00074E08CE390E00E94812267E374E080E4B5
:1011C00090E00E94812267E374E084E490E00E9452
:1011D000812267E374E08CE490E00E94812267E35F
:1011E00074E080E590E00E94812267E374E088E487
:1011F00090E00E948122BE01675D7F4F84E290E013
:1012000042C080911704813031F4BE016F5F7F4F7F
:1012100088E290E0AFCC833009F08CCC8091180448
:1012200090911904A0911A04B0911B048DA39EA360
:10123000AFA3B8A767E374E08CE090E00E9481223E
:101240006BE274E080E190E00E9481226FE274E042
:1012500084E190E00E94812267E374E088E190E0FD
:101260000E94812263E374E08CE190E00E9481227D
:101270006BE374E080E290E00E948122BE016B5D2E
:101280007F4F88E290E00E94812219C0809117046C
:10129000813031F4BE016F5F7F4F8CE290E06ACC09
:1012A000833009F047CC40911804509119046091A3
:1012B0001A0470911B048BE294E00E942C2480910C
:1012C0002A0490E0A0E0B0E0809318049093190401
:1012D000A0931A04B0931B041FC08091170483309D
:1012E00009F028CCFFCF80911704813009F022CC7F
:1012F00020911804309119044FE0429FC001439F90
:10130000900D1124E0910E04F0910F04E80FF91FE5
:1013100080859185A285B38580931C0490931D04DC
:10132000A0931E04B0931F048AE018C080912A0481
:101330008093170490E0A0E0B0E0809318049093AD
:101340001904A0931A04B0931B0480931C04909377
:101350001D04A0931E04B0931F0483E38093200414
:1013600060912004CE014F960E945D2840911C049C
:1013700050911D0460911E0470911F04CE01499686
:101380000E948A28409118045091190460911A040F
:1013900070911B04CE0143960E948A286091170425
:1013A000CE010D960E945D2860911604CE01019633
:1013B0000E945D2818861F821A8619861C861B8645
:1013C00069817A816115710531F04D815E81CE01AF
:1013D00007960E94DC1E61E274E0CE0107960E942F
:1013E000BC0FBE01635F7F4F0E94BC0F61E274E0DF
:1013F0000E94BC0FBE016D5E7F4F0E94BC0F61E278
:1014000074E00E94BC0FBE01675E7F4F0E94BC0F5C
:1014100061E274E00E94BC0FBE01615E7F4F0E94DA
:10142000BC0F8C0141E050E064EA71E00E94891E2B
:10143000882309F445C084E00031180789F0F801D9
:10144000608171816115710539F04481558180E1B8
:1014500094E00E94DC1E04C080E194E00E94CA1E59
:10146000CE0107960E94141FCE0101960E94141F00
:10147000CE010D960E94141FCE0143960E94141FA8
:10148000CE0149960E94141FCE014F960E94141F50
:10149000CC5BDF4F0FB6F894DEBF0FBECDBFDF9140
:1014A000CF911F910F91FF90EF90DF90CF90BF9061
:1014B000AF909F908F907F906F905F904F90089526
:1014C000C8010E94CA1EB7CFCF93DF93EC016CAF67
:1014D000EFA9F8AD0190F081E02D0995EFA9F8ADE5
:1014E0000280F381E02DCE01DF91CF910994AF927C
:1014F000BF92CF92DF92EF92FF920F931F93CF9301
:10150000DF9300D000D01F92CDB7DEB78C01DC0195
:10151000DB96AC90DB97DC96EC90DC97ED91FC9140
:10152000B188FE2CC12CD12CD801ED91FC911197E2
:101530008089D9964D915C91DA971C82FD828B83CC
:10154000B8E08B9FC00111248C9D90018D9D300DC2
:101550009C9D300D1124CA01820F931F9A838983A9
:10156000D8011496ED91FC9115979E012F5F3F4F86
:1015700041E06FE0C8010995F3948F2D8E198A150B
:1015800028F4BFEFCB1ADB0AFB1470F20F900F9018
:101590000F900F900F90DF91CF911F910F91FF90BF
:1015A000EF90DF90CF90BF90AF9008958230F8F425
:1015B000E82FF0E0EE0FFF1FE050FF4F28E832E188
:1015C00031832083813041F0809169008C7F682BCA
:1015D00060936900E89A089580916900837F660F9F
:1015E000771F660F771F682B60936900E99A08954B
:1015F000833081F028F4813099F08230A1F0089591
:101600008730A9F08830B9F08430D1F4809180001F
:101610008F7D03C0809180008F7780938000089534
:1016200084B58F7702C084B58F7D84BD0895809185
:10163000B0008F7703C08091B0008F7D8093B000A1
:101640000895FC01A081B18150969C9143AD949F77
:10165000A001112483E0440F551F8A95E1F760E053
:1016600070E081AD92AD0C944D32009769F0FC01B1
:1016700001900020E9F73197AF01481B590BBC01DD
:1016800085ED94E00C94B11680E090E008950E94FE
:101690003F321F93CF93DF93EC010E94770A1CAD7A
:1016A0008BAD180FE881F9818189181750F0EC8112
:1016B000FD8120E030E040E060E1CE01099580E06E
:1016C0000EC0FE01E558FF4F8081882319F0CE013E
:1016D0000E94210B612FCE010E94640A81E0DF91FC
:1016E000CF911F910895CF93DF93EC01FC01E55852
:1016F000FF4F8081882319F0CE010E94210B60E00A
:10170000CE01DF91CF910C94640AFF920F931F9347
:10171000CF93DF93C82FD62F1092F2048A01F12CB9
:10172000F80161918F01E091DB04F091DC0489ED17
:1017300094E009958F3FFFEF9F07E9F08E3F2FEF71
:10174000920771F39C014D2F6C2F89ED94E00E945C
:10175000861490913505913049F030F0923041F087
:10176000933039F4D81B05C0C80F03C0D80F01C08F
:10177000C81BF80ED5CF8F2DDF91CF911F910F9100
:10178000FF9008950C94350B8F929F92AF92BF9269
:101790000F931F93CF93DF93CDB7DEB7A1970FB60B
:1017A000F894DEBF0FBECDBF19A2423008F44AE064
:1017B0008E010F5D1F4F842E912CA12CB12CA50101
:1017C00094010E94FD2FE62FB901CA0101501109B1
:1017D000EA3014F4E05D01C0E95CD801EC93232BFE
:1017E000242B252B61F7C8010E94350BA1960FB65B
:1017F000F894DEBF0FBECDBFDF91CF911F910F9147
:10180000BF90AF909F908F900895CF93DF93282F34
:1018100030E0F901E852FF4F8491F901E15BF64FA6
:10182000D491F901E55CF64FC491CC2391F081117C
:101830000E94F80AEC2FF0E0EE0FFF1FE95DF64F73
:10184000A591B491EC91ED2381E090E021F480E04A
:1018500002C080E090E0DF91CF9108951F93CF9375
:10186000DF93282F30E0F901E852FF4F8491F9010E
:10187000E15BF64FD491F901E55CF64FC491CC23BE
:10188000C1F0162F81110E94F80AEC2FF0E0EE0F44
:10189000FF1FEF5CF64FA591B4919FB7F89411111B
:1018A00004C08C91D095D82302C0EC91DE2BDC9340
:1018B0009FBFDF91CF911F910895CF93DF9390E069
:1018C000FC01E15BF64F2491FC01E55CF64F84914D
:1018D000882361F190E0880F991FFC01E253FF4FCC
:1018E000C591D491FC01EF5CF64FA591B4916111C3
:1018F00009C09FB7F8948881209582238883EC9152
:101900002E230BC0623061F49FB7F8948881322F88
:10191000309583238883EC912E2B2C939FBF06C098
:101920008FB7F894E8812E2B28838FBFDF91CF915A
:1019300008952F923F924F925F926F927F928F9273
:101940009F92AF92BF92CF92DF92EF92FF920F934E
:101950001F93CF93DF9300D000D01F92CDB7DEB797
:1019600020905F0430906004C101A0E0B0E0898362
:101970009A83AB83BC8300915D0410915E048091D7
:101980005C0490910401891721F09F3F09F033C254
:1019900005C0ECEEF0E094919D837CC0809304013F
:1019A000ECEEF0E0A491AD83AF3F09F424C2A13086
:1019B00009F449C058F1A23009F06CC01092B0008F
:1019C0001092B1009091B00092609093B00090910D
:1019D000B10091609093B100282F30E0F901E55CEF
:1019E000F64FE491F0E0EE0FFF1FEF5CF64F4591EC
:1019F00054915093DF014093DE01F901E15BF64F12
:101A0000E491E093DD0122E02D83F1C114BC15BC0B
:101A100094B5926094BD95B5916095BD282F30E046
:101A2000F901E55CF64FE491F0E0EE0FFF1FEF5C8B
:101A3000F64F45915491F901E15BF64FE491E09343
:101A4000EA011D82D4C11092800010928100909111
:101A500081009860909381009091810091609093B3
:101A60008100282F30E0F901E55CF64FE491F0E0C9
:101A7000EE0FFF1FEF5CF64F45915491F901E15BCA
:101A8000F64FE491E093E90161E00E945D0CB1E062
:101A9000BD83B4C09D8197FDAEC161E00E945D0C25
:101AA0008D818D7F09F0AAC04801A12CB12C60E086
:101AB00072E18AE790E0A50194010E941F3029019C
:101AC0003A0169017A01A1E0CA1AD108E108F108D6
:101AD000BFEFCB16D104E104F10409F008F44DC0C6
:101AE00060E472E48FE090E0A50194010E941F3051
:101AF00069017A0181E0C81AD108E108F1089D81E5
:101B0000923001F5AFEFCA16D104E104F10409F0F7
:101B100008F405C160E970ED83E090E0A50194014F
:101B20000E941F3069017A01B1E0CB1AD108E108A7
:101B3000F1082FEFC216D104E104F10409F040F5D9
:101B400083E055C08FEFC816D104E104F104B9F069
:101B5000B0F068E478EE81E090E0A50194010E9485
:101B60001F3069017A0191E0C91AD108E108F10832
:101B7000AD81AA2309F4D5C031C181E001C082E062
:101B80009D81911134C095B5987F892B85BD75C015
:101B900068E478EE81E090E0A50194010E941F3096
:101BA00069017A01A1E0CA1AD108E108F108BFEF82
:101BB000CB16D104E104F10409F008F4AEC064E2EC
:101BC00074EF80E090E0A50194010E941F3069014C
:101BD0007A01B1E0CB1AD108E108F1082FEFC21663
:101BE000D104E104F10411F008F0CEC085E0909139
:101BF000B100987F892B8093B1003FC04801A12C90
:101C0000B12C60E072E18AE790E0A50194010E94A6
:101C10001F3069017A01A1E0CA1AD108E108F10870
:101C2000C114D104B1E0EB06F10488F068E478EE69
:101C300081E090E0A50194010E941F3069017A01C2
:101C400081E0C81AD108E108F10883E001C081E011
:101C50009D81913091F490918100987F892B8093A0
:101C6000810089819A81AB81BC81892B8A2B8B2B46
:101C700061F42FEF3FEFA9012EC089819A81AB81DA
:101C8000BC81892B8A2B8B2B69F0D801AA0FBB1F33
:101C900091010E94CA2F28EE33E040E050E00E94FC
:101CA000FD2F03C02FEF3FEFA9019D81913099F0E7
:101CB000923019F191119FC0C7BC2093EF0130936E
:101CC000F0014093F1015093F20180916E00826027
:101CD00080936E0090C0D0928900C09288002093BB
:101CE000EB013093EC014093ED015093EE018091B4
:101CF0006F00826080936F007EC0C092B30020931B
:101D0000E0013093E1014093E2015093E3018091BF
:101D100070008260809370006EC084E068CF82E0C3
:101D200066CFBFEFCB16D104E104F10459F150F1B5
:101D300062E17AE780E090E0A50194010E941F3003
:101D400069017A0191E0C91AD108E108F108AFEF01
:101D5000CA16D104E104F10499F090F0D301C20154
:101D60003AE0B595A795979587953A95D1F76C0187
:101D70007D0121E0C21AD108E108F10885E003CF16
:101D800084E001CF83E0FFCE62E17AE780E090E07B
:101D9000A50194010E941F3069017A0181E0C81AEF
:101DA000D108E108F1088FEFC816D104E104F1046D
:101DB00099F090F0D301C2012AE0B595A7959795C7
:101DC00087952A95D1F76C017D0121E0C21AD108CF
:101DD000E108F10887E00BCF86E009CF9FEFC91635
:101DE000D104E104F10409F078F684E0C9CE61E0A1
:101DF0000E945D0C59CE0F900F900F900F900F9096
:101E0000DF91CF911F910F91FF90EF90DF90CF90D6
:101E1000BF90AF909F908F907F906F905F904F900A
:101E20003F902F9008953FB7F8948091E5019091ED
:101E3000E601A091E701B091E80126B5A89B05C095
:101E40002F3F19F00196A11DB11D3FBFBA2FA92F39
:101E5000982F8827820F911DA11DB11DBC01CD01B6
:101E600042E0660F771F881F991F4A95D1F70895A2
:101E70008F929F92AF92BF92CF92DF92EF92FF929A
:101E80006B017C010E94130F4B015C01C114D10452
:101E9000E104F104F1F00E94130FDC01CB01881979
:101EA0009909AA09BB09883E9340A105B10570F3C1
:101EB00021E0C21AD108E108F10888EE880E83E01B
:101EC000981EA11CB11CC114D104E104F10419F73E
:101ED000DDCFFF90EF90DF90CF90BF90AF909F90BD
:101EE0008F9008951F920F920FB60F9211242F9387
:101EF0003F938F939F93AF93BF938091D90190911C
:101F0000DA01A091DB01B091DC013091E40123E022
:101F1000230F2D3720F40196A11DB11D05C026E821
:101F2000230F0296A11DB11D2093E4018093D901D6
:101F30009093DA01A093DB01B093DC018091E5017D
:101F40009091E601A091E701B091E8010196A11DF1
:101F5000B11D8093E5019093E601A093E701B09352
:101F6000E801BF91AF919F918F913F912F910F9079
:101F70000FBE0F901F901895CF93DF93EC01FB01DC
:101F800044815581608171810E94891E811103C045
:101F9000CE010E94CA1ECE01DF91CF9108958F928B
:101FA0009F92AF92BF92CF92DF92EF92FF920F93E8
:101FB0001F93CF93DF938C016A017B01CBE8D3E0C1
:101FC00084E1FE0111928A95E9F78CE3882E912C29
:101FD000A12CB12CCB01BA01A50194010E94FD2FC7
:101FE0007F936F93CA01B901A50194010E94FD2F4F
:101FF0007F936F93C701B60120E13EE040E050E0DF
:102000000E94FD2F1F922F9386EA91E09F938F935A
:10201000DF93CF930E947532BE01C8010E94191F41
:10202000EDB7FEB73A960FB6F894FEBF0FBEEDBF00
:10203000C801DF91CF911F910F91FF90EF90DF903A
:10204000CF90BF90AF909F908F900895CF93DF93E4
:10205000EC01EBE8F3E084E1DF011D928A95E9F7FA
:102060007F936F935F934F9385EB91E09F938F9353
:10207000FF93EF930E9475326BE873E0CE010E94EC
:10208000191F8DB79EB708960FB6F8949EBF0FBE66
:102090008DBFCE01DF91CF910895213039F020F02E
:1020A000223031F4861B0895860F0895841B08950D
:1020B000840F0895213039F020F0223031F4841B50
:1020C0000895840F0895860F0895861B0895DC01F6
:1020D00018964C911897ED91FC911197249130E04E
:1020E000042E02C0359527950A94E2F7842F860FB7
:1020F000883010F4E22F0DC031961196FC93EE93C8
:10210000E49198E0941B01C0EE0F9A95EAF7E22B58
:10211000885018968C9381E090E001C0880F6A95F2
:10212000EAF781508E2308955F926F927F928F928B
:102130009F92AF92BF92CF92DF92EF92FF920F9356
:102140001F93CF93DF935C01F62E642EEC01C05BEE
:10215000DF4F1C81DD804C018AE7880E911CEE80E8
:10216000E11ACF2CEF1408F4CE2C5B800C85202FC5
:102170004D2D612F8A810E944D10782E202F4D2DDC
:10218000612F852D0E945A10482F662011F08A85F4
:1021900004C08985811108C08B85F40180832C2DB2
:1021A000672DC5010E94A227FE1420F0FE18D394CB
:1021B00010E0D5CF1F0D1C83DD82DF91CF911F91E1
:1021C0000F91FF90EF90DF90CF90BF90AF909F90D6
:1021D0008F907F906F905F9008951F93CF93DF93C0
:1021E000EC01A881B981683109F493C030F46431FD
:1021F00009F484C0673149F0E1C0693109F4CDC008
:10220000603209F0DBC06AE4D4C01C968C9180FD7A
:102210005EC0442309F4D0C0F90181919F0141506F
:10222000DFB7F894A091F901B091FA019091F8010B
:10223000E091F601F091F701C091F5017091F40180
:1022400081110EC08C9198239C9388E090819C2BE7
:1022500090839081972390838150C1F7DFBFD9CFBE
:102260001091F30158E06C9187FF02C0612B01C00F
:1022700069236C9360816C2B6083880F6081672376
:102280006083515081F7EACFF90181919F0141505C
:10229000DFB7F894A091F901B091FA019091F8019B
:1022A000E091F601F091F7017091F501C091F40110
:1022B000811110C08C9198239C9388E090819C237D
:1022C00090839081972B90838150C1F7DFBF41119C
:1022D000DBCF72C01091F30158E06C9187FF02C010
:1022E000612B01C069236C9360816C236083880F2C
:1022F0006081672B6083515081F7E8CF11964C9134
:1023000069E40E947725E881F9814485417060E4A1
:1023100050C04C9169E40E947725A881B981EA8573
:10232000FB8520E030E012964C916CE2CE010995DD
:102330008F8D90E0FC01E55CF64FE491F0E0EE0F4C
:10234000FF1FEF5CF64F259134913093F7012093F6
:10235000F601FC01E15BF64FE491E093F501E095B5
:10236000E093F40188A190E0FC01E55CF64FE49174
:10237000F0E0EE0FFF1FEF5CF64F259134913093A4
:10238000FA012093F901FC01E15BF64FE491E0933F
:10239000F301E095E093F8010FC0EA85FB8520E0AA
:1023A00030E013964C916CE20995E881F981418106
:1023B00069E4CE010E94772581E001C080E0DF91D1
:1023C000CF911F9108950F931F93CF93DF93EC014B
:1023D000862F642F8C3270F48A3208F05DC0883208
:1023E00089F0893209F042C070E080E090E00E94FC
:1023F000380F52C08D32D1F0C8F194EB980F923063
:1024000020F134C08E01015E1F4FD0E0F8018191B0
:102410008F018F3F39F0D03110F461E001C062E0EC
:102420000E945D0CDF5FD63189F736C0433018F06B
:1024300082E090E002C085E090E0880F991F880F4D
:10244000991F05970197F1F727C08F73C80FD11D0A
:10245000411107C061E08F8D0E945D0C60E08F8D9F
:1024600011C062E08F8D0E945D0C16C08034B0F008
:10247000982F9F73FE01E90FF11D878D8F3F61F04B
:10248000903118F40E942E0C07C00E94050C21E028
:10249000892B09F420E02A8F81E001C080E0DF91E0
:1024A000CF911F910F9108951F93CF93DF93C82F62
:1024B0001092D801D4E11FE0E091D801E43020F57A
:1024C000DE9FF0011124E156FC4F8481C81316C031
:1024D0000E94990CE091D8011E9FF0011124EF5940
:1024E000FB4F10861186128613861082118212828B
:1024F0001382148215821682178216868091D80163
:102500008F5F8093D801D8CFDF91CF911F9108952D
:102510000E94990C10925B0480915B0490E02091E2
:1025200056043091570482179307B0F480915904F0
:102530000E94050C20915A0430E082179307C1F4E1
:1025400061E070E080E090E00E94380F80915B04D1
:102550008F5F80935B04E0CF2091580480915404F6
:1025600090915504820F911D9093550480935404CB
:1025700008954F925F926F927F928F929F92AF9247
:10258000BF92CF92DF92EF92FF920F931F93CF9360
:10259000DF93CDB7DEB728970FB6F894DEBF0FBE36
:1025A000CDBF682E1092D80184E1582E9FE0792E7D
:1025B00026E0422E8091D801843008F084C190E05A
:1025C000589EF001599EF00D1124E156FC4F2481D4
:1025D000621273C1789EF001799EF00D1124EF59BB
:1025E000FB4F8685882341F10091540410915504D6
:1025F0006801E12CF12CBE016F5F7F4F84E190E018
:102600000E945B2269817A818B819C81A70196015E
:102610000E94D92F4B015C01BE016F5F7F4F8CE0A0
:1026200090E00E945B2289819A81AB81BC81892BD9
:102630008A2B8B2BC9F09BC0C0905404D0905504BA
:10264000E12CF12CBE016F5F7F4F88E190E00E948A
:102650005B2289819A81AB81BC81C816D906EA06C2
:10266000FB0608F42AC1C0CF809154049091550410
:10267000892B09F428C1BE016B5F7F4F84E390E092
:102680000E945B228D819E81AF81B8858C0D9D1D3E
:10269000AE1DBF1D8D839E83AF83B887BE016B5F68
:1026A0007F4F84E390E00E948122BE016B5F7F4FE9
:1026B00088E590E00E945B228D819E81AF81B88584
:1026C000C80ED91EEA1EFB1ECD82DE82EF82F8867E
:1026D000BE016B5F7F4F88E590E00E948122BE01C2
:1026E0006F5F7F4F80E390E00E945B2289819A8137
:1026F000AB81BC810196A11DB11D89839A83AB83F7
:10270000BC83BE016F5F7F4F80E390E00E94812217
:10271000BE016F5F7F4F84E590E00E945B2289815C
:102720009A81AB81BC810196A11DB11D89839A83D9
:10273000AB83BC83BE016F5F7F4F84E590E00E9456
:102740008122BE016F5F7F4F84E190E00E945B2297
:1027500089819A81AB81BC81089FB001099F700D6E
:10276000189F700D112485E091E00E94E023BE01C6
:102770006F5F7F4F8CE090E00E945B2289819A819D
:10278000AB81BC810197A105B10509F07EC0BE01F6
:102790006B5F7F4F84E490E00E945B228D819E817D
:1027A000AF81B8850196A11DB11D8D839E83AF8336
:1027B000B887BE016B5F7F4F84E490E00E94812266
:1027C000BE016B5F7F4F88E690E00E945B228D81A7
:1027D0009E81AF81B8850196A11DB11D8D839E8319
:1027E000AF83B887BE016B5F7F4F88E690E00E94A1
:1027F0008122BE016F5F7F4F80E490E00E945B22E8
:1028000089819A81AB81BC810196A11DB11D89830B
:102810009A83AB83BC83BE016F5F7F4F80E490E0FF
:102820000E948122BE016F5F7F4F84E690E00E948C
:102830005B2289819A81AB81BC810196A11DB11D6A
:1028400089839A83AB83BC83BE016F5F7F4F84E62D
:1028500090E00E948122BE016F5F7F4F84E190E093
:102860000E945B2269817A818B819C8185E091E065
:102870000E94E023BE016F5F7F4F84E190E00E94E1
:102880005B2289809A80AB80BC800E94990C489C16
:10289000C001499C900D11240E9411288091D801FB
:1028A000789EC0011124B501A4018F599B4F0E944D
:1028B000F02410925504109254048091D8018F5F37
:1028C0008093D80177CE28960FB6F894DEBF0FBE5E
:1028D000CDBFDF91CF911F910F91FF90EF90DF90CF
:1028E000CF90BF90AF909F908F907F906F905F90B0
:1028F0004F900895FC01E60FF11D849190E0982F10
:1029000088273196E4918E0F911D08956F927F92E2
:102910008F929F92AF92BF92CF92DF92EF92FF92EF
:102920000F931F93CF93DF93EC01062F142F7901A0
:10293000FC01E45AFF4F80818130C9F070F0823091
:1029400001F1833039F5FE01E25BFF4F0190F08128
:10295000E02DCE010995080F1DC0FE01E25BFF4F7F
:102960000190F081E02DCE010995180F13C0FE01F2
:10297000E25BFF4F0190F081E02DCE010995081B2D
:1029800009C0FE01E25BFF4F0190F081E02DCE0116
:102990000995181BFE01EE5AFF4F008331961083F4
:1029A00037978081918147962FEFE216F10409F065
:1029B00040F5E1E6EE16F10420F0FE01E059FF4F8C
:1029C00007C0F1E4EF16F10438F0FE01E259FF4FC1
:1029D00020813181820F931F9C012F5F3F4FF901AE
:1029E0004491442309F40EC1FC01449150E0E416E3
:1029F000F50611F4029634C0F9012491820F911D5D
:102A0000EBCFFE01EE58FF4FC080D180C80ED91E1B
:102A1000860160E0C6010E947A14080F191F62E067
:102A2000C6010E947A14F4E0CF0ED11C8E159F05CA
:102A300080F3F801849190E0982F88273196E491F3
:102A40008E2B009709F4DEC0E816F90619F4C801C8
:102A5000039606C0F8013296E4910E0F111DE9CFDE
:102A6000009709F4CFC07E01F0E5EF0EF11CF701ED
:102A700091838083108671966081C7010E946710E0
:102A8000F701868372966081C7010E946710D82E75
:102A9000F70187835E01FAE7AF0EB11CF501908163
:102AA000F701928781E0911180E0F7018387FE01B1
:102AB000ED59FF4F1081612FC7010E9467109FEFF2
:102AC000910F01E010E0980101C0220F9A95EAF7FA
:102AD000782E721AFE01EC59FF4FC0806C2DC70191
:102AE0000E946710CA94480101C0880CCA94EAF792
:102AF000682E6D0CFE01EB59FF4FC0806C2DC70195
:102B00000E946710CA9401C0000FCA94EAF7C82E49
:102B1000C01AF701068110160CF075C0948486184F
:102B2000292D482D672D82810E944D10182FF70105
:102B30008283292D482D672D83810E945A10F70129
:102B40008383F1E09F16B1F09F1678F022E0921691
:102B5000B9F093E099121FC0212F2D0D982F901BD3
:102B600001E0080F81E0890F18C0202F210F082FE6
:102B70000D0D13C09D1821E0210F080F190D0DC078
:102B800091E0392F301B21E0210F9D1901E0080F42
:102B9000890F130F02C0082F212F482F612FCE015C
:102BA0000E941127882379F1F701148215828E0182
:102BB000015A1F4F4E01F0E68F0E911CF801608103
:102BC000C7010E946710682EF4016081C7010E944E
:102BD0006710782E40E0662DCE010E94941041E0EF
:102BE000672DCE010E94941061E0C7010E9467101A
:102BF0008111F0CFF70185818D1504F38285F501F0
:102C0000808301C0C12C8C2DDF91CF911F910F913A
:102C1000FF90EF90DF90CF90BF90AF909F908F90FC
:102C20007F906F900895CF93DF9300D000D000D0B5
:102C3000CDB7DEB76BEB71E0CE0101960E94191F94
:102C400060E174E0CE0101960E94BC0FBC0187EEEA
:102C500092E00E94FE1FCE0101960E94141F0E9466
:102C6000DE046EEB71E0CE0101960E94191F60E157
:102C700074E0CE0101960E94BC0FBC0187EE92E089
:102C80000E94FE1FCE0101960E94141F60E174E0B5
:102C90008FEE93E00E94FE1F65EA71E080E194E010
:102CA0000E94FD1E26960FB6F894DEBF0FBECDBF64
:102CB000DF91CF9108951F93CF93DF9300D000D081
:102CC00000D0CDB7DEB787EE92E00E94B81C892B0A
:102CD000F1F187EE92E00E94961C182F682F80E198
:102CE00094E00E94B71E1A3091F56BEB71E0CE01B3
:102CF00001960E94191F60E174E0CE0101960E94C6
:102D0000BC0FBC0187EE92E00E94FE1FCE0101962F
:102D10000E94141F0E94DE046EEB71E0CE0101964A
:102D20000E94191F60E174E0CE0101960E94BC0F61
:102D3000BC0187EE92E00E94FE1FCE0101960E9428
:102D4000141F65EA71E080E194E00E94FD1E269662
:102D50000FB6F894DEBF0FBECDBFDF91CF911F91AC
:102D60000895CF92DF92EF92FF920F931F93CF932C
:102D7000DF936C01EB017B01E40EF51E00E010E037
:102D8000CE15DF0561F06991D601ED91FC910190BE
:102D9000F081E02DC6010995080F191FF1CFC80178
:102DA000DF91CF911F910F91FF90EF90DF90CF9027
:102DB0000895089580E090E008958F929F92AF92D9
:102DC000BF92CF92DF92EF92FF920F931F93CF9318
:102DD000DF931092D80184E1D82E9FE0C92E809114
:102DE000D801843008F0C6C0E82EF12CDE9CE0014A
:102DF000DF9CD00D1124C156DC4FCE010E94BA21B8
:102E00009F81891709F456C0CE010E94BA218823F8
:102E100009F450C02FB7F8948091D9019091DA014C
:102E2000A091DB01B091DC012FBF88879987AA8729
:102E3000BB87CE010E94BA21DE9CF001DF9CF00D21
:102E40001124E156FC4F8783C091D801CC9EE0014C
:102E50001124CF59DB4F8E85882331F18C809D80E2
:102E6000AE80BF800E94DC24861A970AA80AB90A9D
:102E700088869986AA86BB860E94DC240C811D81E7
:102E80002E813F81601771078207930768F01886CB
:102E900019861A861B86188219821A821B821C8246
:102EA0001D821E821F821E868091D8018F5F8093B3
:102EB000D80195CFCE010E94BA21DE9C8001DF9C13
:102EC000100D112401561C4FF8019781891709F440
:102ED000B0CFCE010E94BA218111ABCF2FB7F894A9
:102EE0008091D9019091DA01A091DB01B091DC01D0
:102EF0002FBFF8014085518562857385841B950B32
:102F0000A60BB70B44855585668577854817590705
:102F10006A077B0790F4F8014089518962897389B7
:102F200084179507A607B70740F40190F081E02DBC
:102F3000309709F47ECFD80119C0DE9C9001DF9C48
:102F4000300D112421563C4FF90140895189628985
:102F50007389481759076A077B0708F06ACF028010
:102F6000F381E02D309709F464CFD90114968C9148
:102F700009955FCFDF91CF911F910F91FF90EF9057
:102F8000DF90CF90BF90AF909F908F900895CF9299
:102F9000DF92EF92FF92CF93DF9300D000D0CDB7B6
:102FA000DEB7BE016F5F7F4F84E390E00E945B223B
:102FB000C980DA80EB80FC80BE016F5F7F4F8CE1BF
:102FC00090E00E945B2289819A81AB81BC81C81606
:102FD000D906EA06FB0620F081E080931F0202C0BA
:102FE00010921F020F900F900F900F90DF91CF91D2
:102FF000FF90EF90DF90CF900895CF93DF9300D0B4
:1030000000D0CDB7DEB788EB9BE00E941128BE014F
:103010006F5F7F4F80E590E00E945B2289819A81FB
:10302000AB81BC81805F914FAF4FBF4F89839A8343
:10303000AB83BC83BE016F5F7F4F80E590E00E9451
:103040008122BE016F5F7F4F84E790E00E945B2288
:1030500089819A81AB81BC81805F914FAF4FBF4F17
:1030600089839A83AB83BC83BE016F5F7F4F84E704
:1030700090E00E9481220F900F900F900F90DF91AF
:10308000CF9108950F931F93CF93DF93EC018C01A1
:103090000C5F1F4FFC01E058FF4F0190F081E02DC5
:1030A000C80109958E3F2FEF920770F4FE01ED578E
:1030B000FF4FCE57DF4F9C0140816881C8010E94BD
:1030C00086149881890F888381E090E0DF91CF9109
:1030D0001F910F9108952F923F924F925F926F929E
:1030E0007F928F929F92AF92BF92CF92DF92EF9298
:1030F000FF920F931F93CF93DF9300D000D000D0A7
:10310000CDB7DEB789ED94E00E94730B6DEEA62E6D
:1031100064E0B62E74EF872E74E0972EE5EF6E2EE6
:10312000E4E07E2E80912505909126058D5E9440E9
:1031300009F4ABC0B0922605A0922505F501849153
:1031400080933605EEEEF4E0849180933705EFEE40
:10315000F4E0849180933805E0EFF4E0849180936B
:103160003905E1EFF4E0849180933A05E2EFF4E071
:10317000849180933B05E3EFF4E0849180933C05D8
:10318000F401849180933D05F301849180933E0581
:10319000E6EFF4E0E491E0933F05E7EFF4E0E4913B
:1031A000E0934005E8EFF4E0E491E0934105E9EFB6
:1031B000F4E0E491E0934205EAEFF4E0E491E09377
:1031C0004305EBEFF4E0E491E0934405ECEFF4E029
:1031D000E491E0934505EDEFF4E0E491E0934605DA
:1031E00061E18DEE94E00E947A14909348058093FB
:1031F000470563E18DEE94E00E947A1490934A05AE
:103200008093490565E18DEE94E00E947A149093D5
:103210004C0580934B058091250590912605892BBF
:10322000A1F18091430580934F054091440540935F
:10323000500590914E05992341F1913069F4909198
:103240004505891714F490934F058091460584171E
:10325000E4F48093500519C0309140052091420557
:10326000082E000C990B622F022E000C770B630FB7
:10327000711D37FD7A95861797071CF4320F30932E
:103280004F05241714F4209350050E94DC2463306A
:1032900071058105910508F050C000E420E840E088
:1032A00060E089ED94E00E941127882309F450C161
:1032B0005DEEE52E50E0F52E10E022242394210E41
:1032C000022D20E8412F60E089ED94E00E94112753
:1032D000882359F1309053056701512C44244394BD
:1032E000F6018491842119F03092530509C0809130
:1032F000520581110DC081E0311080E080935305AB
:1033000000E021E0412F652D89ED94E00E94A22785
:103310005394440C29F4FFEFCF1ADF0A442443945A
:1033200020E85212DDCF3092530580E1E80EF11C07
:10333000122D103409F0C1CF0BC10E94DC24633080
:1033400071058105910508F422C10E94DC246C30CE
:1033500071058105910508F01AC188E0E82EE09218
:1033600057051AE0109358050E948E210E94C20B47
:1033700089EC91E00E94C20B98E3F92EF092570578
:1033800010935805BE016F5F7F4F80E390E00E946D
:103390005B2269817A818B819C814AE00E94C40B07
:1033A000EFE1F9E06591749180E292E00E940A2FCA
:1033B0000EEE12E21093DC040093DB0440E252E0D4
:1033C00064E188E00E94850BF092570584E18093C8
:1033D0005805BE016F5F7F4F84E390E00E945B223F
:1033E00049815A816B817C81CE0101960E94261011
:1033F000BE016F5F7F4F85ED94E00E94FE1FCE01FE
:1034000001960E94141FE09257052EE1D22ED09211
:1034100058050E948E210E94C20B8BEC91E00E9405
:10342000C20BF0925705D0925805BE016F5F7F4FD7
:1034300088E390E00E945B2269817A818B819C8184
:103440004AE00E94C40BE1E2F9E06591749180E2E8
:1034500092E00E940A2F1093DC040093DB0440E208
:1034600052E068E288E00E94850BF092570588E2FE
:1034700080935805BE016F5F7F4F8CE390E00E9400
:103480005B2249815A816B817C81CE0101960E9429
:103490002610BE016F5F7F4F85ED94E00E94FE1FF6
:1034A000CE0101960E94141FE092570532E3E32EED
:1034B000E09258050E948E210E94C20B8DEC91E093
:1034C0000E94C20BF0925705E0925805BE016F5F53
:1034D0007F4F80E490E00E945B2269817A818B813A
:1034E0009C814AE00E94C40B0E9499211093DC0445
:1034F0000093DB04AC016CE388E00E94850BF09242
:1035000057058CE380935805BE016F5F7F4F84E4BD
:1035100090E00E945B2249815A816B817C81CE01BF
:1035200001960E94261074C1BE016F5F7F4F8CE030
:1035300090E00E945B2289819A81AB81BC81892BBA
:103540008A2B8B2B09F0B5C10E94A4210E94C20BCB
:1035500089ED94E00E94490B8111E4CD26960FB6C7
:10356000F894DEBF0FBECDBFDF91CF911F910F91B9
:10357000FF90EF90DF90CF90BF90AF909F908F9093
:103580007F906F905F904F903F902F90089588E0CC
:103590008093570589E080935805E3E1F9E0659150
:1035A000749180E292E00E940A2F80E292E00E94F1
:1035B000C20B80911F028823C1F00E94DC2460FFAF
:1035C00014C0EBE1F9E06591749180E292E00E9411
:1035D0000A2F8EEE92E29093DC048093DB0440E2AB
:1035E00052E069E086E20E94850B1AE410935705C9
:1035F00089E080935805409154045091550460E04F
:1036000070E0CE0101960E942610BE016F5F7F4FD1
:1036100085ED94E00E94FE1FCE0101960E94141FCA
:1036200048E0542E5092570503E100935805E7E116
:10363000F9E06591749180E292E00E940A2F80E2A5
:1036400092E00E94C20B1093570500935805C0905A
:103650005404D0905504E12CF12CBE016F5F7F4FD4
:1036600084E190E00E945B2269817A818B819C8158
:10367000A70196010E94D92FAB01BC01CE01019692
:103680000E94CF0FBE016F5F7F4F85ED94E00E94D7
:10369000FE1FCE0101960E94141F00E020E846E1C3
:1036A00060E089ED94E00E94A2275092570500E265
:1036B000009358050E94AF210E94C20B81EC91E05B
:1036C0000E94C20B1093570500935805409169045E
:1036D00050916A0460916B0470916C04411551051E
:1036E0006105710509F4A0C0CE0101960E94CF0FBB
:1036F000BE016F5F7F4F85ED94E00E94FE1FCE01FB
:1037000001960E94141F88E0809357051AE21093D7
:1037100058050E94AF210E94C20B83EC91E00E94E9
:10372000C20B8AE4809357051093580540917804A2
:103730005091790460917A0470917B044115510590
:103740006105710509F487C0CE0101960E94CF0F73
:10375000BE016F5F7F4F85ED94E00E94FE1FCE019A
:1037600001960E94141F88E08093570514E310937C
:1037700058050E94AF210E94C20B85EC91E00E9487
:10378000C20B8AE480935705109358054091870433
:10379000509188046091890470918A044115510503
:1037A0006105710509F46EC0CE0101960E94CF0F2C
:1037B000BE016F5F7F4F85ED94E00E94FE1FCE013A
:1037C00001960E94141F88E0809357051EE3109312
:1037D00058050E94AF210E94C20B87EC91E00E9425
:1037E000C20B8AE4809357051093580540919604C4
:1037F0005091970460919804709199044115510576
:103800006105710509F490CECE0101960E94CF0F9B
:10381000BE016F5F7F4F85ED94E00E94FE1FCE01D9
:1038200001960E94141F94CEBE016F5F7F4F8CE003
:1038300090E00E945B2289819A81AB81BC81892BB7
:103840008A2B8B2B19F40E94A42102C00E9499217B
:103850000E94C20B58CFBE016F5F7F4F8CE090E09B
:103860000E945B2289819A81AB81BC81892B8A2B42
:103870008B2B19F40E94A42102C00E9499210E945E
:10388000C20B71CFBE016F5F7F4F8CE090E00E9452
:103890005B2289819A81AB81BC81892B8A2B8B2BFE
:1038A00019F40E94A42102C00E9499210E94C20B17
:1038B0008ACF0E9499214ACE0895CF92DF92EF924B
:1038C000FF920F931F93CF93DF936C017A018B01CB
:1038D000C0E0D0E0CE15DF0581F0D8016D918D01FB
:1038E000D601ED91FC910190F081E02DC601099582
:1038F000892B11F02196EECF7E01C701DF91CF9188
:103900001F910F91FF90EF90DF90CF900895FC01F1
:10391000538D448D252F30E0842F90E0821B930B34
:10392000541710F0CF96089501970895FC01918DDA
:10393000828D981761F0828DDF01A80FB11D5D9611
:103940008C91928D9F5F9F73928F90E008958FEF7F
:103950009FEF0895FC01918D828D981731F0828D33
:10396000E80FF11D858D90E008958FEF9FEF08958A
:10397000FC01918D228D892F90E0805C9F4F821BEE
:1039800091098F739927089587EE92E00E94B81CE1
:1039900021E0892B09F420E0822F0895FC01848D19
:1039A000DF01A80FB11DA35ABF4F2C91848D90E069
:1039B00001968F739927848FA689B7892C93A08944
:1039C000B1898C91837080648C93938D848D9813CE
:1039D00006C00288F389E02D80818F7D8083089561
:1039E000EF92FF920F931F93CF93DF93EC0181E04F
:1039F000888F9B8D8C8D981305C0E889F98980810B
:103A000085FD26C0F62E0B8D10E00F5F1F4F0F7344
:103A10001127E02E8C8DE8120CC00FB607FCFACFF0
:103A2000E889F989808185FFF5CFCE010E94CE1CFF
:103A3000F1CF8B8DFE01E80FF11DE35AFF4FF082AD
:103A40009FB7F8940B8FEA89FB89808180620AC056
:103A50009FB7F894EE89FF896083E889F9898081AE
:103A60008370806480839FBF81E090E0DF91CF917D
:103A70001F910F91FF90EF900895CF93DF93EC018A
:103A8000888D8823C9F0EA89FB89808185FD05C07E
:103A9000A889B9898C9186FD0FC00FB607FCF5CFB8
:103AA000808185FFF2CFA889B9898C9185FFEDCF00
:103AB000CE010E94CE1CE7CFDF91CF9108950E94E6
:103AC000C41C81110C945B16089585ED8093BC0095
:103AD0008091BC0084FDFCCF1092B102089540910A
:103AE0008D02262F30E0240F311D21323105DCF408
:103AF0002091B1022430C9F4FC0180E090E08617E7
:103B000058F430918D022191DC01A359BD4FA30FD0
:103B1000B11D2C930196F3CF80918D02680F6093B5
:103B20008D0280E0089581E0089582E0089508956F
:103B30008FEF9FEF08958FEF9FEF089580916C02B4
:103B400090E09195819591090895CF93DF93CB01F2
:103B5000EA01642F0E946F1DCE01DF91CF9108957D
:103B6000CF93DF931F92CDB7DEB7698361E0CE01BB
:103B700001960E946F1D81E090E00F90DF91CF9140
:103B800008952091D6013091D7012817390771F493
:103B90009091D4018091D501981741F0E091D40122
:103BA000F0E0E45DFD4F808190E008958FEF9FEF9E
:103BB00008951F93CF93DF93DC015C968D919C91C8
:103BC0005D97009739F421E030E013963C932E93F3
:103BD00012973BC05196ED91FC91529750962C91C3
:103BE0005097322F30951FB75E964C915E97742F89
:103BF000727041FD6095F8944081772311F0422B5B
:103C000001C043234083EC012197F1F748E0508144
:103C100060FF02C0522B01C053235083EC01219757
:103C2000F1F76695415099F78081772319F0832346
:103C3000808302C0282B20831FBF5C968D919C91AE
:103C40005D970197F1F781E090E0DF91CF911F91AF
:103C500008952091D6013091D7012817390771F4C2
:103C60008091D5012091D40190E0805C9F4F821B10
:103C7000910960E470E00E94E92F089580E090E0EF
:103C800008952091D6013091D70128173907B9F44A
:103C90009091D4018091D501981789F0E091D401D9
:103CA000F0E0E45DFD4F80812091D40130E02F5F92
:103CB0003F4F2F7333272093D40190E008958FEF67
:103CC0009FEF08950F931F93CF93DF93EC018881AB
:103CD0009981009729F02A813B812617370788F4BC
:103CE0008B016F5F7F4F0E947931009761F099835C
:103CF00088831B830A832C813D81232B11F4FC01D3
:103D0000108281E001C080E0DF91CF911F910F917F
:103D10000895EF92FF920F931F93CF93DF93611556
:103D2000710511F480E01CC041155105C1F07B0103
:103D3000EC018C819D818A01080F191FB801CE0109
:103D40000E94621E882371F3288139818C819D81B4
:103D5000B701820F931F0E9454321D830C8381E0B0
:103D6000DF91CF911F910F91FF90EF900895CF9326
:103D7000DF9300D0CDB7DEB769831A8241E050E00F
:103D8000BE016F5F7F4F0E94891E0F900F90DF91E1
:103D9000CF910895CF93DF93EC01888199810097AB
:103DA00011F00E94F030198218821D821C821B8241
:103DB0001A82DF91CF910895EF92FF920F931F9394
:103DC000CF93DF93EC017B018A01BA010E94621E4E
:103DD000811104C0CE010E94CA1E07C01D830C833E
:103DE000B701888199810E945432CE01DF91CF9131
:103DF0001F910F91FF90EF900895CF93DF93EC0107
:103E00006115710559F0FB0101900020E9F7319728
:103E1000AF01461B570B0E94DC1E02C00E94CA1E47
:103E2000CE01DF91CF910895FC01808191810C94A6
:103E3000F030FC01118210821382128215821482EA
:103E40006115710551F0FB0101900020E9F73197F0
:103E5000AF01461B570B0C94DC1E08951F920F9266
:103E60000FB60F9211242F933F934F935F936F934D
:103E70007F938F939F93AF93BF93EF93FF93E091C3
:103E80000201F09103010995FF91EF91BF91AF916C
:103E90009F918F917F916F915F914F913F912F9162
:103EA0000F900FBE0F901F9018951F920F920FB694
:103EB0000F9211242F933F934F935F936F937F93B0
:103EC0008F939F93AF93BF93EF93FF93E091000184
:103ED000F09101010995FF91EF91BF91AF919F91F1
:103EE0008F917F916F915F914F913F912F910F90A3
:103EF0000FBE0F901F9018951F920F920FB60F9242
:103F000011242F933F934F935F936F937F938F93DE
:103F10009F93AF93BF93EF93FF938091E0019091B4
:103F2000E101A091E201B091E301892B8A2B8B2B57
:103F300059F19091DD01E091DE01F091DF01808186
:103F4000892780838091E0019091E101A091E201B5
:103F5000B091E301181619061A061B060CF03DC0B5
:103F60008091E0019091E101A091E201B091E30123
:103F70000197A109B1098093E0019093E101A09319
:103F8000E201B093E30129C080910401ECEEF0E07E
:103F9000E4919FEF90930401E130B9F098F0E230A2
:103FA000C9F4909170009D7F9093700091E0909380
:103FB000B0009091B100987F94609093B1001092FE
:103FC000B30008C010926E0005C090916F009D7FF5
:103FD00090936F0060E00E942E0CFF91EF91BF91D3
:103FE000AF919F918F917F916F915F914F913F9191
:103FF0002F910F900FBE0F901F901895DB01149614
:104000004D915C9115976D917C91DC01ED91FC9146
:104010000280F381E02D09941F920F920FB60F9248
:1040200011242F933F934F935F936F937F938F93BD
:104030009F93AF93BF93EF93FF9387EE92E00E941D
:10404000CE1CFF91EF91BF91AF919F918F917F9186
:104050006F915F914F913F912F910F900FBE0F90F5
:104060001F9018951F920F920FB60F9211242F9345
:104070008F939F93EF93FF93E091F702F091F802F3
:104080008081E091FD02F091FE0282FD12C09081DC
:10409000809100038F5F8F7320910103821751F08D
:1040A000E0910003F0E0E951FD4F958F809300030C
:1040B00001C08081FF91EF919F918F912F910F907F
:1040C0000FBE0F901F9018951F920F920FB60F9270
:1040D00011242F933F934F935F936F937F938F930D
:1040E0009F93AF93BF93EF93FF938091B900887F25
:1040F000803609F49CC068F5883209F45BC090F4FE
:10410000803109F454C038F4882309F4F2C08830AF
:1041100009F44DC0F2C0883109F44CC0803209F472
:104120005DC0EBC0803409F468C048F4803309F402
:1041300055C0883309F0E1C08093B002D4C0803507
:1041400009F44FC0883509F45DC0883409F0D5C042
:10415000D2C0883909F4C3C0A8F4883709F467C00D
:1041600038F4883609F463C0803709F460C0C5C0EC
:10417000883809F4B4C0803909F45FC0803809F088
:10418000BCC05BC0803B09F484C038F4803A09F4B9
:1041900066C0883A09F47DC0B0C0803C09F4A3C071
:1041A000883C09F4A0C0883B09F486C0A6C0809171
:1041B000D60210C09091D5028091D402981770F564
:1041C000E091D50281E08E0F8093D502F0E0EC54AF
:1041D000FD4F80818093BB0085EC82C08093B0024C
:1041E0008AC0E091D50281E08E0F8093D502809144
:1041F000BB00F0E0EC54FD4F80839091D50280919C
:10420000D4026AC0E091D50281E08E0F8093D5027E
:104210008091BB00F0E0EC54FD4F80838091B302AD
:10422000811169C081E08093B20284EA5DC083E0BD
:104230008093B1021092AF02CFCF8091AF02803253
:1042400008F04DC0E091AF0281E08E0F8093AF0285
:104250008091BB00F0E0E157FD4F8083BDCF85EC3E
:104260008093BC001092B1028091AF02803230F492
:10427000E091AF02F0E0E157FD4F10826091AF0294
:1042800070E08FE892E0E0E0F0E009951092AF0274
:1042900034C084E08093B10210928E0210928D029D
:1042A000E0E0F0E0099580918D02811105C081E088
:1042B00080938D0210926D02E0918E0281E08E0F4C
:1042C00080938E02F0E0E359FD4F80818093BB0024
:1042D00090918E0280918D02981708F47DCF85E829
:1042E0008093BC000AC085EC8093BC001092B102A0
:1042F00004C01092B0020E94651DFF91EF91BF9122
:10430000AF919F918F917F916F915F914F913F916D
:104310002F910F900FBE0F901F901895EDE1F9E0CF
:104320006591749180E292E00E940A2F80E292E00F
:104330000895E9E1F9E06591749180E292E00E94CC
:104340000A2F80E292E00895E5E1F9E06591749129
:1043500080E292E00E940A2F80E292E00895E1E17B
:10436000F9E06591749180E292E00E940A2F80E268
:1043700092E00895CF93DF93EC018C810E94050CAD
:104380002E8130E041E02817390709F040E0842F02
:10439000DF91CF9108951F920F920FB60F921124C3
:1043A0002F933F934F935F936F937F938F939F933D
:1043B000AF93BF93EF93FF93E091D601F091D701B4
:1043C000309709F451C0968DA685B785858591FFF4
:1043D00004C09C91892329F447C09C91892309F04A
:1043E00043C0A389B4899C918589809589238C9346
:1043F000868997890197F1F7608D718DA685B785BC
:10440000558538E020E0CB010197F1F7822F90E04D
:1044100095958795282F4C91452309F020683150B8
:1044200091F7868D81FD20958091D50190E00196D0
:104430008F7399273091D401381749F0A091D50195
:10444000B0E0A45DBD4F2C938093D50103C0868D51
:104450008160868F828D938D0197F1F7A389B4894E
:104460009C918589892B8C93FF91EF91BF91AF919E
:104470009F918F917F916F915F914F913F912F917C
:104480000F900FBE0F901F901895E091D601F091FC
:10449000D701E817F90769F4A389B4899C91858944
:1044A000809589238C931092D7011092D60181E0D8
:1044B000089580E00895CF92DF92EF92FF920F93DC
:1044C0001F93CF93DF93EB017B0124E0E20EF11CFD
:1044D0008B016C01C61AD70AC601800F911F0E947A
:1044E000722FF80181938F01EE15FF05A9F7CE0118
:1044F000DF91CF911F910F91FF90EF90DF90CF90C0
:104500000895AF92BF92DF92EF92FF920F931F93A5
:10451000CF93DF93EC017B018B015C0184E0A80E5B
:10452000B11CF801D1908F01CE010E94722FD816D4
:1045300021F06D2DCE010E947A2F2196CA15DB0540
:1045400081F7C701DF91CF911F910F91FF90EF90FD
:10455000DF90BF90AF90089580E00895DC0116963B
:10456000ED91FC91179720E030E040E069E109947B
:10457000DC011696ED91FC91179720E030E040E0C9
:1045800068E109949A01DC011696ED91FC91179768
:10459000462F67E10994462FDC011696ED91FC91B8
:1045A000179720E030E065E109949A01DC01189644
:1045B000ED91FC911997462F67E10994CF93DF9312
:1045C0001F92CDB7DEB76983AE014F5F5F4F61E0E9
:1045D0000E94D5220F90DF91CF910895FC016623B0
:1045E000D9F16A30C9F1818D811124C06C3F20F06E
:1045F00085E0818F61701AC0683F20F084E0818F70
:10460000637014C0603F20F083E0818F67700EC03C
:10461000603E20F082E0818F6F7008C0603C20F027
:1046200081E0818F6F7102C070E01BC070E0738BFE
:10463000628B15C08150818F2289338996E0220FC9
:10464000331F9A95E1F76F73A901462BBA01738B5B
:10465000628B811104C005C06FEF7FEF02C06EEF67
:104660007FEFCB010895662329F06A3019F0862F79
:1046700090E008958FEF9FEF08950F93DC01DF9690
:104680003C91DF97431BD596ED91FC91D697099508
:104690000F910895CF93DF93FC01A081B18193AD79
:1046A000892F880F880F880F86AF50968C9150976E
:1046B000803208F08FE1880F880F880F85AF24AD16
:1046C000822F880F880F880F87AF51963C915197A2
:1046D000422F50E0490F511D632F70E0641775079A
:1046E00014F4932F921BEF01C05CDF4F8883219657
:1046F00028E0929F800D11248883219680EF888383
:1047000054968D919C915597813F910508F488832B
:10471000ED5BFF4F56968C918083DF91CF9108958A
:104720000F93CF93DF93DC01ED91FC915089362FED
:104730003770E0E8F0E002C0F595E7953A95E2F7CA
:104740003E2FA52FB0E0FC01C1ADD2AD66956695B8
:104750006695E62FF0E0459FE00DF11D1124EC0F6A
:10476000FD1FEC01C658DF4F01111DC0888182304A
:1047700018F49081932B90838881813019F0908177
:1047800093279083369511F4319630E8215071F7D4
:1047900011C08881813019F0908193279083EA0FAE
:1047A000FB1F215039F08881823098F79081932B3C
:1047B0009083EFCFDF91CF910F91089580E008951E
:1047C000CF92DF92EF92FF92CF93DF9300D000D091
:1047D000CDB7DEB76B01BE016F5F7F4F8CE490E019
:1047E0000E945B22E12CF12C89819A81AB81BC81F2
:1047F0008C0D9D1DAE1DBF1D89839A83AB83BC8329
:10480000BE016F5F7F4F8CE490E00E948122BE0169
:104810006F5F7F4F80E790E00E945B2289819A81E1
:10482000AB81BC81C80ED91EEA1EFB1EC982DA828A
:10483000EB82FC82BE016F5F7F4F80E790E00E94B9
:1048400081220F900F900F900F90DF91CF91FF90EA
:10485000EF90DF90CF900895EF92FF920F931F9308
:10486000CF93DF9300D000D0CDB7DEB77C01498372
:104870005A836B837C838C01045F1F4FB8018CE0EB
:1048800090E00E948122B70180E190E00E948122A5
:10489000B7016C5F7F4F84E190E00E948122B801F4
:1048A00088E190E00E948122B701685F7F4F8CE130
:1048B00090E00E948122B701605F7F4F80E290E02C
:1048C0000E948122B80180E390E00E948122B80119
:1048D00084E390E00E948122B80188E390E00E9486
:1048E0008122B8018CE390E00E948122B80180E42B
:1048F00090E00E948122B80184E490E00E9481222D
:10490000B8018CE490E00E948122B80180E590E03B
:104910000E948122B80188E490E00E948122B801BF
:1049200084E590E00E948122B80188E590E00E9431
:104930008122B8018CE590E00E948122B80180E6D6
:1049400090E00E948122B80184E690E00E948122DA
:10495000B80188E690E00E948122B80180E790E0EB
:104960000E948122B80184E790E00E948122B80170
:104970008CE690E00E948122BE016F5F7F4F84E24F
:1049800090E00E948122BE016F5F7F4F88E290E03D
:104990000E948122BE016F5F7F4F8CE290E00E94F7
:1049A00081220F900F900F900F90DF91CF911F9168
:1049B0000F91FF90EF9008952FB7F8946091D9016F
:1049C0007091DA018091DB019091DC012FBF28EE1C
:1049D00033E040E050E00E94FD2FCA01B901089584
:1049E000CF92DF92EF92FF92CF93DF93EC016A01B7
:1049F0007B018E85882329F08C819D81AE81BF81CA
:104A00000AC00E94DC24688379838A839B830E9486
:104A1000DC24DC01CB018C0D9D1DAE1DBF1D8C83E4
:104A20009D83AE83BF8381E08E876D858C85DF910A
:104A3000CF91FF90EF90DF90CF900C942E0CFC0163
:104A40008081811102C00C94130F813079F48FB7EB
:104A5000F8944091D9015091DA016091DB01709195
:104A6000DC018FBF342F252FCB0104C0823011F41D
:104A70000C94DC24632F722F08950F931F93CF9310
:104A8000DF93EC010E941F250C811D812E813F8147
:104A9000DC01CB01801B910BA20BB30B08851985A0
:104AA0002A853B8580179107A207B307D8F0CE016E
:104AB0000E941F256C837D838E839F838981882339
:104AC00089F09A81992371F09F3F29F08B81891792
:104AD00048F48F5F8B83EC85FD85DF91CF911F912B
:104AE0000F910994DF91CF911F910F910895DC01EF
:104AF0001A96ED91FC911B9720E030E00994CF923B
:104B0000DF92EF92FF920F931F93CF93DF93EC010D
:104B1000142F7901663131F1F8F4643109F47BC066
:104B2000653109F086C068EF0E94DE2241E06CE248
:104B3000CE010E947725612F607FCE010E94DE2288
:104B400041E06CE2CE010E947725612F6295607F83
:104B5000CE010E94DE2258C0673199F06A3108F018
:104B600068C059C068EF0E94DE22612F607FCE01CD
:104B70000E94DE22612F6295607FCE010E94DE22BC
:104B800048C06AEF0E94DE2241E06CE2CE010E9442
:104B900077256701012F083058F4812F8695869577
:104BA00086951770E8E08E9FE00CF11C11241AC066
:104BB000E7EDF2E0D6018D91982F907F908382955A
:104BC000807F8183329682E0E73EF807A1F798E084
:104BD000C90ED11C085047ED52E060E1CE010E94A1
:104BE000D522D9CF112381F0F70101917F01602FE8
:104BF000607FCE010E94DE22602F6295607FCE0131
:104C00000E94DE221150EECF41E06CE2CE010E9404
:104C1000772581E00FC0E885F9859701412FCE0106
:104C2000DF91CF911F910F91FF90EF90DF90CF9088
:104C3000099480E0DF91CF911F910F91FF90EF9049
:104C4000DF90CF900895EF92FF920F931F93CF9331
:104C5000DF931F92CDB7DEB77C018B01D8016C9139
:104C60006731E1F078F46531A0F1F80141814983C1
:104C7000D7011696ED91FC91179720E030E0C7011F
:104C8000099524C06A31A8F06E3F19F5F8014181F9
:104C9000498369E2C7010E94772518C0F801818124
:104CA0008983AE014F5F5F4F61E0C7010E94C2225E
:104CB0000DC00F5F1F4FD7011696ED91FC9117970E
:104CC00020E030E040E0C7010995C8CF0E5F1F4FDC
:104CD000C5CF0F90DF91CF911F910F91FF90EF9073
:104CE0000895AF92BF92CF92DF92EF92FF920F930F
:104CF0001F93CF93DF93EC01693031F484E491E0AA
:104D0000998388831C8A7FC079016B30E1F16F3011
:104D100009F444C06A3009F078C0EA85FB8520E0D8
:104D200030E040E068E20995EE81FF8120E030E06C
:104D300040E064E1CE01099541E06BE4CE010E94C0
:104D40007725E881F981448169E2CE010E947725C7
:104D500040E06BE4CE010E947725E881F98144812F
:104D600069E2CE010E94772541E06BE4CE010E940A
:104D70007725E881F981458169E2CE010E94772596
:104D800061E371E007C0411103C06AE271E002C053
:104D90006FE171E0CE010E94232635C0F901048144
:104DA000000F000F000F13811695003210F0005213
:104DB000185FCE010E94B822F701A080B1806EE397
:104DC000CE010E94CB226EE3CE010E94CB22D12CD9
:104DD00010686D2D600F6068CE010E94CB22612F9C
:104DE000CE010E94CB22F701C280A5016C2DCE011D
:104DF0000E94C222AC0CB11CD394F8E0DF12E9CFC0
:104E0000CE010E94AE2281E001C080E0DF91CF910F
:104E10001F910F91FF90EF90DF90CF90BF90AF90D8
:104E200008950F93FC01EA5BFF4F3081319650816A
:104E3000451728F4301730F0041720F010C0301751
:104E4000D8F30DC0FC01EC5BFF4F308131968081BF
:104E5000681738F4321740F081E0261730F080E010
:104E600004C03217C8F3FBCF81E00F9108952F9251
:104E70003F924F925F926F927F928F929F92AF92EA
:104E8000BF92CF92DF92EF92FF920F931F93CF9337
:104E9000DF93EC014C0184E4880E911CF401108234
:104EA000329720805E01F5E4AF0EB11CF50120823F
:104EB000359730806E01F6E4CF0ED11CF6013082BA
:104EC000359740807E01F7E4EF0EF11CF701408238
:104ED000349610813297608031967080329750807E
:104EE000012F262D472D652DCE010E941127CC586C
:104EF000DF4F811102C0188212C081E088835520E3
:104F000011F0F4015082621410F4F501608237143C
:104F100010F4F6017082141510F4F7011083DF917C
:104F2000CF911F910F91FF90EF90DF90CF90BF90A6
:104F3000AF909F908F907F906F905F904F903F9039
:104F40002F9008950F93DC01802FFD01EC58FF4F47
:104F50009081992309F463C0222309F460C02230B0
:104F600048F0023019F46F5F621B04C0033011F483
:104F70004F5F421B082F0170FD0180FD25C0EA5BD9
:104F8000FF4F8081481708F44AC031968081481746
:104F900008F045C03297908131978081260F2617FF
:104FA00030F4691718F42FEF290F03C0682F691721
:104FB000B0F58217A0F5681708F4682F291708F4D0
:104FC000922F292F261B22C0EC5BFF4F8081681790
:104FD00030F131968081681710F5329690813197C3
:104FE0008081240F241730F4491718F42FEF290F6C
:104FF00003C0482F491798F4821788F4481708F41B
:10500000482F291708F4922F292F241BD796ED91AA
:10501000FC91D8970480F581E02DCD0109950F9181
:105020000895CF92DF92EF92FF92CF93DF9300D05B
:1050300000D0CDB7DEB76C01BE016F5F7F4F88E453
:1050400090E00E945B22E12CF12C89819A81AB8156
:10505000BC818C0D9D1DAE1DBF1D89839A83AB83C2
:10506000BC83BE016F5F7F4F88E490E00E94812285
:10507000BE016F5F7F4F8CE690E00E945B228981CA
:105080009A81AB81BC81C80ED91EEA1EFB1EC98263
:10509000DA82EB82FC82BE016F5F7F4F8CE690E08C
:1050A0000E9481220F900F900F900F90DF91CF916F
:1050B000FF90EF90DF90CF9008950F931F93CF93C1
:1050C000DF93CDB7DEB729970FB6F894DEBF0FBEDA
:1050D000CDBF8C01862FF8011182108213821282BB
:1050E000158214824AE0BE016F5F7F4F90E00E94FC
:1050F000482FBE016F5F7F4FC8010E94FD1E299699
:105100000FB6F894DEBF0FBECDBFDF91CF911F91D8
:105110000F9108950F931F93CF93DF93CDB7DEB711
:10512000A1970FB6F894DEBF0FBECDBF8C01CB01A7
:10513000BA01F80111821082138212821582148240
:105140002AE0AE014F5F5F4F0E94262FBE016F5FC6
:105150007F4FC8010E94FD1EA1960FB6F894DEBFD6
:105160000FBECDBFDF91CF911F910F910895CF92C8
:10517000DF92EF92FF920F931F93CF93DF9300D0B4
:1051800000D000D0CDB7DEB78C0165EA71E0CE016A
:1051900001960E94191F10923F0480913F0490E0F5
:1051A000F801248135818217930730F540815181C0
:1051B0004115510529F0FA01E80FF91F208101C0BE
:1051C00020E0022E000C330B205331092A30310528
:1051D00068F44115510529F0FA01E80FF91F6081C3
:1051E00001C060E0CE0101960E94B71E80913F048D
:1051F0008F5F80933F04D1CF89819A81009729F0F6
:105200000E94E32E6B017C0103C0C12CD12C7601DE
:10521000CE0101960E94141FC701B60126960FB653
:10522000F894DEBF0FBECDBFDF91CF911F910F91DC
:10523000FF90EF90DF90CF900895CF93DF93209170
:105240001404309115048217930788F4C091100458
:10525000D091110460912104709122048C0F9D1F44
:105260000E945B32009719F08C1B9D0B02C08FEFE0
:105270009FEFDF91CF910895CF92DF92EF92FF924F
:105280000F931F93CF93DF936C018B017A01461725
:10529000570720F4812F8A01E62EF82E65EA71E087
:1052A000C6010E94191FC0911404D09115040C1757
:1052B0001D07E0F4EC16FD0608F4E701E091100488
:1052C000F0911104EC0FFD1FF0801082609110042A
:1052D00070911104600F711FC6010E94FD1E809124
:1052E000100490911104C80FD91FF882C601DF91F4
:1052F000CF911F910F91FF90EF90DF90CF90089585
:10530000CF93DF93CDB7DEB728970FB6F894DEBF03
:105310000FBECDBF789484B5826084BD84B58160B2
:1053200084BD85B5826085BD85B5816085BD809170
:105330006E00816080936E001092810080918100E8
:1053400082608093810080918100816080938100E0
:10535000809180008160809380008091B1008460A2
:105360008093B1008091B00081608093B000809103
:105370007A00846080937A0080917A0082608093C2
:105380007A0080917A00816080937A0080917A001F
:10539000806880937A001092C100BE016F5F7F4FDA
:1053A00084E090E00E945B2289819A81AB81BC817C
:1053B0000197A105B10531F147E559EE62E070E0D2
:1053C00085E091E00E942C2489E190E0A0E0B0E02B
:1053D00089839A83AB83BC83BE016F5F7F4F88E074
:1053E00090E00E94812281E090E0A0E0B0E08D8317
:1053F0009E83AF83B887BE016B5F7F4F84E090E0F0
:105400000E9481220E94990CE091F702F091F8022B
:1054100082E08083E091F302F091F4021082E09147
:10542000F502F091F6028FEC80831092FF02E0917A
:10543000FB02F091FC0286E08083E091F902F0919A
:10544000FA02808180618083E091F902F091FA0292
:10545000808188608083E091F902F091FA02808176
:1054600080688083E091F902F091FA0280818F7D5B
:10547000808383E196E1909328048093270410921F
:105480000A04109209041092080410920704109262
:105490000604109205048DE991E090930C0480932A
:1054A0000B049091FB03963108F058C02DEB30E0CF
:1054B00030930604209305042BE931E0309308046F
:1054C000209307042CE231E030930A04209309046E
:1054D00040916800983058F031E09E3008F430E098
:1054E00021E0822F01C0880F3A95EAF701C084E0DD
:1054F000842B80936800983038F09E3040F09631CD
:1055000048F020E030E008C02DE630E005C02BE692
:1055100030E002C02CE630E0309303042093020414
:10552000983030F481E001C0880F9A95EAF70EC0F8
:10553000292F30E09E3018F42850310902C02E5037
:10554000310981E001C0880F2A95EAF780930404AD
:1055500080910B0490910C040197F1F7809109045C
:1055600090910A04892B21F18091D6019091D70165
:1055700023E08F3E9207E1F0009711F00E94452250
:1055800080910D048E7F80930D041092D5011092AE
:10559000D4018FEE93E09093D7018093D601E091F0
:1055A0000204F0910304908180910404892B80838C
:1055B000E091DD04F091DE0420E030E040E06AE0BC
:1055C00089ED94E0099589ED94E00E94730B89EDD3
:1055D00094E00E94490B182F8111F9CF60E089ED0A
:1055E00094E00E94640AE091DD04F091DE0420E082
:1055F00030E040E06BE089ED94E009958EEE92E2B8
:10560000909356058093550580915A0490915904C2
:10561000882361F0923021F0933021F08FEF03C0A6
:1056200080E001C081E063E070E009C0923029F0C1
:10563000933011F08FEF01C081E062E070E00E94D2
:10564000D60A81E694E090930F0480930E0488EECE
:1056500093E0A0E0B0E08093CF049093D004A093B7
:10566000D104B093D2048FEF8093C9042BE638E1C4
:105670003093D4042093D30449E150E060E070E01B
:105680004093C1045093C2046093C3047093C40454
:105690008093BB042DED36E13093C6042093C504FE
:1056A00040E157E260E070E04093B3045093B404EB
:1056B0006093B5047093B6048093AD0427EC37E192
:1056C0003093B8042093B70440E15EE060E070E0FE
:1056D0004093A5045093A6046093A7047093A80474
:1056E00080939F048DEF97E19093AA048093A9047F
:1056F00081E08093C8048093BA048093AC048093C3
:105700009E0444E129EB32E184E592E1419FF001FE
:105710001124E156FC4F31832083938382831F5FE2
:105720001430A1F71093D8019FE088E10FB6F894E8
:10573000A895809360000FBE9093600087EC94E082
:105740000E943D2589EB94E00E943D258BEA94E080
:105750000E943D258DE994E00E943D258FEE93E067
:105760000E94291E892BE9F08FEE93E00E94291EEA
:10577000892BB9F08FEE93E00E94411E182F682FFD
:1057800080E194E00E94B71E1A3059F4E09127049A
:10579000F0912804099565EA71E080E194E00E94A7
:1057A000FD1EA8950E945F1DC9CFCF93DF9384E8AB
:1057B00093E00E94141FCFEED3E084E891E0998338
:1057C000888381E294E00E94141F80E194E00E94AB
:1057D000141F84E891E099838883CE01DF91CF91F3
:1057E0000C944522FC01862F1582168217821086A2
:1057F00011861286138614861586168617864CED3A
:1058000055E060E070E0408B518B628B738B84833A
:1058100062E00C945D0CCF93DF93EC01862F18822D
:1058200019821A821B821C821D821E821F82188688
:1058300019861A861B861D861E866C8761E00E946B
:105840005D0C6D8581E068278C85DF91CF910C948C
:105850002E0C0F931F93CF93DF93CDB7DEB76597D1
:105860000FB6F894DEBF0FBECDBF1092EA021092C1
:10587000E90288EE93E0A0E0B0E08093EB02909321
:10588000EC02A093ED02B093EE0220E631E03093FB
:10589000E8022093E70225EC30E03093F4022093F5
:1058A000F30224EC30E03093F6022093F50220EC72
:1058B00030E03093F8022093F70221EC30E030938F
:1058C000FA022093F90222EC30E03093FC0220939C
:1058D000FB0226EC30E03093FE022093FD02109292
:1058E000000310920103109202031092030310921E
:1058F0005C0510925B0580935D0590935E05A09317
:105900005F05B093600582E791E090935A0580931C
:1059100059051092D8041092D70483E393E2909330
:105920005605809355051092570510925805109210
:10593000F20486E991E09093D6048093D504109206
:10594000DA041092D9041092EE041092F10410922D
:10595000E5041092E6041092E7041092E8048FEF39
:105960008093EF048093F404E8EFF4E08EE095E098
:105970002FEF0FEF21938E179F07D9F781E796E25C
:105980009093DE048093DD048FE795E29093E0042A
:105990008093DF048DEE90E19093E2048093E10424
:1059A00083EE91E19093E4048093E30420E030E0FF
:1059B00040E069E089ED94E00E947126109226058E
:1059C0001092250580E993E290930F0580930E05D0
:1059D00085E695E0909313058093120511E01093EE
:1059E000140510921505109232051092520510936D
:1059F0005305109354058EE991E09093110580931F
:105A0000100589ED94E00E944A231092210510921E
:105A100023050093220500932405E0911005F091E1
:105A200011050280F381E02D89ED94E009958EED5A
:105A300093E29093280580932705109235058CE01A
:105A40008093F8048BE08093F9048AE08093010549
:105A500084E6809303051092C8041092C904109242
:105A6000CA041092CB041092CC041092CD04109270
:105A7000CE041092CF041092D0041092D104109250
:105A8000D2041092D4041092D3041093C70410923D
:105A9000BA041092BB041092BC041092BD04109280
:105AA000BE041092BF041092C0041092C104109260
:105AB000C2041092C3041092C4041092C60410923F
:105AC000C5041093B9041092AC041092AD04109266
:105AD000AE041092AF041092B0041092B104109270
