:100000000C9481040C9420280C94F9270C946229F8
:100010000C9462290C9462290C94A9040C94D526A2
:100020000C94A9040C94A9040C94A9040C94A9049C
:100030000C94A9040C94A9040C94A9040C94A9048C
:100040000C94AF270C94A9040C947D270C9457278B
:100050000C94A9040C94A9040C94A9040C94A9046C
:100060000C9447280C94A904506F7765720053656F
:100070007276650043726564697400416D6F756ED8
:1000800074005472616E73004C696D69740046723D
:1000900065650054696D6500566163616E74004367
:1000A0006F696E005465726D696E616C00506869AD
:1000B0006C697070696E657300412E522E542E5318
:1000C0000000000000000000000000000000000030
:1000D0000000000000000000000000000000000020
:1000E0000000000000000000000000000000000010
:1000F0000000000000000000000000000000000000
:100100000000002000000000000000000000F88156
:10011000000000700080FFFF07C0FFFFFF01FE8F9F
:10012000000000700000FCFF3FC0FFFFFF010FFE5A
:10013000000000780000F8037FC0077FF08107F817
:10014000000000F80000F803FEC0017FC0C103F00A
:10015000000000FC0000F803FCC1007F80C103E048
:10016000000000FC0100F803F8C3007F80E103C039
:10017000000000FC0100F803F843007F00E103C029
:10018000000000FE0100F803F843007F00E1078053
:10019000000000FE0300F803F803007F00E00F807A
:1001A000000000FB0300F803F803007F00E01F00DD
:1001B000000000FB0700F803F803007F00E07F0069
:1001C000000080F10700F803F801007F00C0FF0184
:1001D000000080F10F00F803FC01007F00C0FF0762
:1001E000000080F00F00F803FE00007F0080FF0F8A
:1001F0000000C0E00F00F8037F00007F0000FF3F19
:100200000000C0E01F00F8FF1F00007F0000FE7F1D
:10021000000060C01F00F8FF0F00007F0000FCFF1F
:10022000000060C03F00F8F31F00007F0000F0FFF7
:10023000010030803F00F8E31F00007F0000C0FF96
:100240000100F0FF3F00F8C33F00007F000000FF07
:100250000300F8FF7F00F8C37F00007F000000FC70
:10026000030018007F00F8837F00007F002000F863
:1002700003001800FF00F803FF00007F002000F0DB
:1002800003000C00FE00F803FF01007F006000E0A7
:1002900003000C00FE01F803FE01007F006000E097
:1002A00003000600FE01F803FC03007F00E000E00D
:1002B00001000600FC01F803FC07007F00E001E0FC
:1002C00001000700FC03F803F807007F00E003F0DB
:1002D00000000700FC03F803F00F007F00E007F0C8
:1002E00000800F00FC07FC07F01F80FF00E01F7C70
:1002F00000E07F80FF9FFF3FE07FF0FF0760FC1F73
:100300000000000000000000000000000020F007D6
:1003100000000000000000000000000000000000DD
:1003200000000000000000000000000000000000CD
:1003300000000000000000000000000000000000BD
:1003400000F08173E0C1033CF0810F7870077E807C
:1003500003600333C080011860031B3060024CC08F
:1003600002600333C080011860031B30E0022CC020
:1003700000E0013FC0800118E0010F30A0023C8086
:1003800001600033C080011860000330A0032C001E
:1003900003600033C08009186000033020034C4024
:1003A00003F08073E0C10F3CF080077870037EC0DB
:1003B000010000000000000000000000000000003C
:1003C000000000000000000000000000000000002D
:1003D000000000000000000000000000000000001D
:1003E000000000000000000000000000000000000D
:1003F00000C005CF8107C0837F00F00778C005F8F3
:1004000000600686000380814C00600C3060068C22
:1004100001600486000380010C00600C306004065B
:1004200003E00086000380010C00600C30E0000651
:1004300003C00186000380010C00600C30C001067F
:1004400003800386000380010C00E0073080030670
:1004500003000786004380010C006000300007069F
:1004600003200686004380010C0060003020060651
:1004700003600686006380010C0060003060068C1B
:1004800001A0037C807FC0031E00F00078A003F869
:10049000000000000000000000000000000000005C
:1004A000000000000000000000000000000000004C
:1004B000000000000000000000000000000000003C
:1004C00000B900AD00A4009F00980093008E008842
:1004D0000082007B0074006E0068000000000024B1
:1004E0000027002A000000000800020100000304A9
:1004F00007000000000000000002000000002300D0
:100500002600290000000000250028002B0004041C
:1005100004040404040402020202020203030303AB
:100520000303010204081020408001020408102087
:1005300001020408102060000302030403040406FF
:100540000B00FE07FE08FF013E028103AA20050002
:10055000A203210739A363500222079BB623B104EB
:10056000230B2DAAA732289541A900240E4D9E2BBE
:100570005B2A4AB6254A658B00250E3DA2675012BC
:100580005312294A222500260C3DA247AAD42A89C3
:10059000142901270519B7632808CB9E2B29752B31
:1005A0002909CB9E232B7529012A0A2DAAAB525962
:1005B0009A22002B0A2DA62B8C06298C002C08A22F
:1005C0009A634814002D058BAE632E0612A36308B0
:1005D0002F0C559AB316666116666108300C3DA261
:1005E00067C9A42599B4640131093DA22B1A3B0DBA
:1005F00002320A3DA267C9C2AC6D10330B3DA2673F
:10060000C9C248D59205340C3DA22F93925232684C
:10061000D900350B3DA2E338A4A1962C00360C3D41
:10062000A267098724B3250B00370A3DA263106B2C
:10063000C51200380C3DA267C9B464C9B46401395D
:100640000C3DA267C96CC910260B003A082AA363A7
:100650008886003B09BA9A63888644013C07BCA29D
:100660002F6A6C3D081DAA635007013E08BCA223F7
:100670006C6A033F0B3DA267C9C2AC0E4500400D3A
:100680003DA267C994214994211D02410C3DA22B32
:100690004BA2A4360C9916420D3DA26348326D5010
:1006A000326D5000430A3DA267C9C4B66401440AD2
:1006B0003DA26348326F8302450B3DA2E3180E4909
:1006C000180E02460A3DA2E3180E495804470B3D96
:1006D000A267C9C468D39205480A3DA223B30D435B
:1006E000660B490A3DA26390C24E83004A093DA2AF
:1006F000B351D392054B0C3DA2239392929644950D
:100700002C4C083DA223EC71104D0C3DA2235B96AE
:100710004449345B004E0B3DA2239B9444DA6C01A8
:100720004F0A3DA267C9BC250B00500C3DA263488F
:10073000326D50C22200510A459E67C9BC54D60092
:10074000520C3DA26348326D50325B00530B3DA208
:1007500067C9D4554B160054093DA26390C29E0050
:1007600055093DA223F32D5900560C3DA223B32574
:10077000A5240B2300570A3DA223734994E416587D
:100780000B3DA223D3925AA5A605590A3DA223B335
:1007900025B5B0045A0A3DA26310B38E83005B08EE
:1007A0004A9F63E98B005C0CD59A234CC3344CC33D
:1007B000340C5D08CA9E43E9CB005E081DB22B4B8A
:1007C0006A015F060E9AE300600692BA230A610985
:1007D0002DA267D04C8A12620C3DA2230C8724B351
:1007E0000D0A0063092DA267C9C47408640A3DA2FA
:1007F000B33268B66408650A2DA267C986211D0256
:100800006609BCA24B89A6AC09670C3D9A67D06CFF
:10081000C910260B00680A3DA2230C8724730B69BC
:1008200008BBA227945A066A094B9A2B943A2D00CA
:100830006B0B3DA2232C25A5A992056C07BBA243F7
:10084000EA656D0C2DA263482A4AA2244A016E096A
:100850002DA2233169B6006F092DA267C96CC902A8
:10086000700C3D9A634832DBA0842100710A3D9AE6
:1008700067D06CC9101672092DA223318945007307
:10088000092DA267500F0A007409BCA2278BA6ACE1
:100890002875092DA22373529400760B2DA223D321
:1008A0009252924500770C2DA22349944449942EEC
:1008B00000780A2DA2234B6A955A00790B3D9A23A2
:1008C000734B863059007A092DA263D0DA06017B7A
:1008D0000ADB9A2B895AB2A82D7C06499FE3017D39
:1008E0000BDB9A238BDA92A825027E0615AEC7058C
:1008F0007F0500A20300000004FFFF000000142A8F
:100900001F2F11241FBECFEFD8E0DEBFCDBF25E0E3
:10091000A2ECB1E001C01D92A83DB207E1F711E0E1
:10092000A0E0B1E0E4EEFAE602C005900D92A23C30
:10093000B107D9F714E0C0E8D4E004C02197FE0164
:100940000E949730CF37D107C9F70E94B82C0C947A
:1009500065350C940000662329F06A3019F0862F63
:1009600090E008958FEF9FEF08950F93CF93DF935B
:10097000DC01ED91FC915089362F3770E0E8F0E012
:1009800002C0F595E7953A95E2F73E2FA52FB0E026
:10099000FC01C1ADD2AD669566956695E62FF0E097
:1009A000549FE00DF11D1124EC0FFD1FEC01C65802
:1009B000DF4F011116C08881823018F49081932B8B
:1009C00090838881813019F09081932790833695A8
:1009D00011F4319630E8215071F7DF91CF910F91EA
:1009E00008958881823018F49081932B90838881B8
:1009F000813019F0908193279083EA0FFB1F2150DB
:100A000081F7EBCF80E0089580E008958230F8F41C
:100A1000E82FF0E0EE0FFF1FE050FF4F29E933E130
:100A200031832083813041F0809169008C7F682B75
:100A300060936900E89A089580916900837F660F4A
:100A4000771F660F771F682B60936900E99A0895F6
:100A5000DB0114964D915C9115976D917C91DC01B1
:100A6000ED91FC910280F381E02D0994AF92BF9249
:100A7000CF92DF92EF92FF920F931F93CF93DF936A
:100A80006C017B018B01040F151FEB015E01AE1899
:100A9000BF08C017D10759F06991D601ED91FC91BB
:100AA0000190F081E02DC6010995892B79F7C501E8
:100AB000DF91CF911F910F91FF90EF90DF90CF903A
:100AC000BF90AF900895FC01538D448D252F30E0E9
:100AD000842F90E0821B930B541710F0CF9608954B
:100AE00001970895FC01918D828D981761F0A28D78
:100AF000AE0FBF2FB11D5D968C91928D9F5F9F733E
:100B0000928F90E008958FEF9FEF0895FC01918DF3
:100B1000828D981731F0828DE80FF11D858D90E060
:100B200008958FEF9FEF0895FC01918D228D892FFD
:100B300090E0805C9F4F821B91098F7399270895E5
:100B40008BED92E00E94940521E0892B09F420E0CE
:100B5000822F0895FC01A48DA80FB92FB11DA35AAF
:100B6000BF4F2C91848D90E001968F739927848FCD
:100B7000A689B7892C93A089B1898C9183708064F0
:100B80008C93938D848D981306C00288F389E02D91
:100B900080818F7D80830895EF92FF920F931F9342
:100BA000CF93DF93EC0181E0888F9B8D8C8D981320
:100BB0001AC0E889F989808185FF15C09FB7F8942C
:100BC000EE89FF896083E889F98980818370806478
:100BD00080839FBF81E090E0DF91CF911F910F91C3
:100BE000FF90EF900895F62E0B8D10E00F5F1F4FD2
:100BF0000F731127E02E8C8D8E110CC00FB607FCE1
:100C0000FACFE889F989808185FFF5CFCE010E946E
:100C1000AA05F1CFEB8DEC0FFD2FF11DE35AFF4F2D
:100C2000F0829FB7F8940B8FEA89FB8980818062FC
:100C3000CFCFCF93DF93EC01888D8823B9F0AA89B9
:100C4000BB89E889F9898C9185FD03C0808186FD87
:100C50000DC00FB607FCF7CF8C9185FFF2CF8081D6
:100C600085FFEDCFCE010E94AA05E9CFDF91CF919C
:100C70000895833081F028F4813099F08230A9F012
:100C800008958730A9F08830C9F08430B1F480919C
:100C900080008F7D03C0809180008F7780938000DB
:100CA000089584B58F7784BD089584B58F7DFBCF7B
:100CB0008091B0008F778093B00008958091B0004C
:100CC0008F7DF9CFCF93DF93282F30E0F901EB51DF
:100CD000FB4F8491F901EE5DFA4FD491F901E25F87
:100CE000FA4FC491CC23A1F081110E943906EC2F58
:100CF000F0E0EE0FFF1FE650FB4FA591B491EC9191
:100D0000ED2381E090E009F480E0DF91CF91089538
:100D100080E090E0FACF1F93CF93DF93282F30E04D
:100D2000F901EB51FB4F8491F901EE5DFA4FD4913B
:100D3000F901E25FFA4FC491CC23A9F0162F81117B
:100D40000E943906EC2FF0E0EE0FFF1FEC5FFA4F28
:100D5000A591B4918FB7F894EC91111108C0D0957A
:100D6000DE23DC938FBFDF91CF911F910895DE2B9F
:100D7000F8CFCF93DF9390E0FC01EE5DFA4F249122
:100D8000825F9A4FFC0184918823C9F090E0880F1C
:100D9000991FFC01E552FB4FA591B491FC01EC5F5A
:100DA000FA4FC591D49161110DC09FB7F8948C9101
:100DB000209582238C938881282328839FBFDF91ED
:100DC000CF910895623051F49FB7F8943C91822FEF
:100DD000809583238C93E8812E2BEFCF8FB7F894E7
:100DE000EC912E2B2C938FBFEACF2F923F924F92F4
:100DF0005F926F927F928F929F92AF92BF92CF92AB
:100E0000DF92EF92FF920F931F93CF93DF9300D067
:100E100000D01F92CDB7DEB78091D2049091D30459
:100E200091111AC061E00F900F900F900F900F90EA
:100E3000DF91CF911F910F91FF90EF90DF90CF90B6
:100E4000BF90AF909F908F907F906F905F904F90EA
:100E50003F902F900C948B062090D6043090D704AE
:100E6000910150E040E029833A834B835C830091F9
:100E7000D4041091D504909104019817D9F09F3FA4
:100E800009F491C00F900F900F900F900F90DF9189
:100E9000CF911F910F91FF90EF90DF90CF90BF9077
:100EA000AF909F908F907F906F905F904F903F900A
:100EB0002F900895E9EFF4E034913D8337FDE2CFC0
:100EC00061E00E94B9065D81552321F08D81823059
:100ED00009F069C14801B12CA12C60E072E18AE7F8
:100EE00090E0A50198010E94783029013A017A0129
:100EF000690191E0C91AD108E108F108AFEFCA16FB
:100F0000D104E104F10409F00CF414C160E472E4CA
:100F10008FE090E0A50198010E94783069017A0184
:100F2000B1E0CB1AD108E108F1082D81223009F097
:100F3000B5C082E03FEFC316D104E104F10409F02B
:100F40000CF4DDC160E970ED83E090E0A50198014B
:100F50000E94783069017A0181E0C81AD108E1085D
:100F6000F10883E09FEFC916D104E104F10409F010
:100F70000CF4C5C168E478EE81E090E0A501980129
:100F80000E94783069017A0181E0C81AD108E1082D
:100F9000F1089FEFC916D104E104F10411F00CF03F
:100FA000A1C084E0ACC180930401E9EFF4E0449176
:100FB0004D834F3F09F466CF413041F150F042304C
:100FC00009F446C0AD81A7FD5DCF61E00E94B9067E
:100FD0007DCF14BC15BC94B5926094BD95B591605D
:100FE00095BD282F30E0F901E25FFA4FE491F0E07F
:100FF000EE0FFF1FEC5FFA4F45915491F901EE5D42
:10100000FA4FE491E093CE021D825ACF10928000F5
:10101000109281009091810098609093810090914E
:101020008100916090938100282F30E0F901E25F08
:10103000FA4FE491F0E0EE0FFF1FEC5FFA4F45919D
:101040005491F901EE5DFA4FE491E093CD0238CF6F
:101050001092B0001092B1009091B0009260909305
:10106000B0009091B10091609093B100282F30E0D2
:10107000F901E25FFA4FE491F0E0EE0FFF1FEC5F41
:10108000FA4F459154915093CC024093CB02F90111
:10109000EE5DFA4FE491E093CA0212CFAFEFCA16A9
:1010A000D104E104F10409F00CF47BC068E478EEAB
:1010B00081E090E0A50198010E94783069017A01F1
:1010C000B1E0CB1AD108E108F1082D81222309F4FF
:1010D000E4C02FEFC216D104E104F10411F00CF0CA
:1010E000E5C05FCF64E274EF80E090E0A501940179
:1010F0000E94783069017A0181E0C81AD108E108BC
:10110000F10885E09FEFC916D104E104F10409F06C
:1011100008F4F5C062E17AE780E090E0A50194016F
:101120000E94783069017A01A1E0CA1AD108E10869
:10113000F108CEC081E02D812111E1C095B5987FE5
:10114000892B85BD89819A81AB81BC812FEF3FEFCF
:10115000A901892B8A2B8B2B61F09801220F331F59
:10116000D1010E94233028EE33E040E050E00E949D
:1011700056309D81913009F444C0923009F464C026
:10118000911180CEC7BC2093D7023093D8024093F0
:10119000D9025093DA0280916E00826080936E00D3
:1011A00071CE82E0C8CFB12CA12C60E072E18AE759
:1011B00090E0A50198010E94783069017A0181E0F0
:1011C000C81AD108E108F108C114D10491E0E90678
:1011D000F1044CF591E0BD81B13009F0B3CF8091BD
:1011E0008100887F892B8093810029813A814B81FE
:1011F0005C81232B242B252B09F0AFCF2FEF3FEF62
:10120000A901D0928900C09288002093D302309324
:10121000D4024093D5025093D60280916F00826031
:1012200080936F002FCE68E478EE81E090E0A50116
:1012300098010E94783069017A01A1E0CA1AD108A8
:10124000E108F10893E0C7CFC092B3002093CF022A
:101250003093D0024093D1025093D202809170001B
:101260008260809370000ECE84E04FEFC416D104EC
:10127000E104F10409F008F461CF730162018AE02E
:10128000F594E794D794C7948A95D1F731E0C31ABF
:10129000D108E108F10885E051CF83E0BFEFCB161C
:1012A000D104E104F10409F00CF448CF62E17AE7DB
:1012B00080E090E0A50194010E94783069017A01F4
:1012C000A1E0CA1AD108E108F108BD81BB2361F28F
:1012D00086E02FEFC216D104E104F10481F078F02A
:1012E000730162019AE0F594E794D794C7949A95B4
:1012F000D1F7B1E0CB1AD108E108F10887E090916D
:10130000B100987F892B8093B1001CCF3FB7F89430
:101310008091C1029091C202A091C302B091C40217
:1013200026B5A89B05C02F3F19F00196A11DB11D40
:101330003FBFBA2FA92F982F8827BC01CD01620F7C
:10134000711D811D911D42E0660F771F881F991F37
:101350004A95D1F708958F929F92AF92BF92CF9204
:10136000DF92EF92FF926B017C010E9486094B0194
:101370005C01C114D104E104F104B9F00E948609B2
:10138000681979098A099B09683E734081059105AE
:1013900080F321E0C21AD108E108F10888EE880E36
:1013A00083E0981EA11CB11CE4CFFF90EF90DF906A
:1013B000CF90BF90AF909F908F9008950895209107
:1013C0007202260F3327331F21323105ECF42091AE
:1013D0009602FC0190E080E0243069F082E00895FC
:1013E000A09172022191AC014E5A5D4FA40FB52F0E
:1013F000B11D2C930196861798F380917202680FA5
:101400006093720280E0089581E0089508958FEF5F
:101410009FEF08958FEF9FEF089580914B0290E02A
:101420009195819591090895CF93DF93CB01EA01BE
:10143000642F0E94DF09CE01DF91CF910895CF93F1
:10144000DF931F92CDB7DEB7698361E0CE010196CD
:101450000E94DF0981E090E00F90DF91CF91089525
:10146000CF93DF93EC018C810E9462063E8121E0E4
:101470003817190609F020E0822FDF91CF910895E7
:101480002091C7023091C8022817390771F4909152
:10149000C5028091C602981741F0E091C502F0E0C4
:1014A000E150FE4F808190E008958FEF9FEF089507
:1014B000EF92FF920F931F93CF93DF93DC015C9623
:1014C000ED90FC905D97E114F10479F481E090E0F7
:1014D00013969C938E93129790E080E0DF91CF91CA
:1014E0001F910F91FF90EF9008955196ED91FC910F
:1014F000529750968C915097982F90950FB75E9673
:101500002C915E97122F127021FD6095F894208126
:10151000112319F1282B2083E7012197F1F728E007
:10152000462F50E0308160FF1AC0382B3083E7012E
:101530002197F1F7BA0175956795215089F7112325
:1015400081F08081892380830FBF5C968D919C916F
:101550000197F1F781E090E0C1CF2923DCCF392357
:10156000E5CF9081892BEFCF2091C7023091C8023F
:101570002817390771F48091C6022091C50290E0C6
:10158000805C9F4F821B910960E470E00E944230B2
:10159000089590E080E008952091C7023091C8023C
:1015A00028173907B9F49091C5028091C60298179F
:1015B00089F0E091C502F0E0E150FE4F808120917A
:1015C000C50230E02F5F3F4F2F7333272093C502B2
:1015D00090E008958FEF9FEF0895E091C702F0919A
:1015E000C802E817F90769F4A389B4899C91858931
:1015F000809589238C931092C8021092C70281E0D3
:10160000089580E00895CF93DF93EC011886198642
:101610001A861B86188219821A821B821C821D82DE
:101620001E821F821E866D8581E068278C850E9440
:101630008B061F86DF91CF9108952FB7F8946091A4
:10164000BD027091BE028091BF029091C0022FBF77
:1016500028EE33E040E050E00E945630CA01B90164
:101660000895CF92DF92EF92FF921F93CF93DF9373
:10167000EC016A017B018E858823D9F08C819D81E4
:10168000AE81BF81C80ED91EEA1EFB1ECC82DD8250
:10169000EE82FF8211E01E876D858C850E948B068D
:1016A0001F87DF91CF911F91FF90EF90DF90CF9038
:1016B00008950E941D0B688379838A839B830E940F
:1016C0001D0BC60ED71EE81EF91EE0CFFC0180815F
:1016D000811102C00C948609813061F42FB7F8940F
:1016E0006091BD027091BE028091BF029091C002D4
:1016F0002FBF0895823011F40C941D0B08950F93A1
:101700001F93CF93DF93EC010E94660B0C811D8128
:101710002E813F81601B710B820B930B088519850D
:101720002A853B856017710782079307E0F0CE0199
:101730000E94660B6C837D838E839F8389818823BF
:1017400091F09A81992379F09F3F39F4EC85FD85DA
:10175000DF91CF911F910F9109948B81891718F414
:101760008F5F8B83F3CFDF91CF911F910F910895FE
:10177000DC011A96ED91FC9130E020E009941F9372
:10178000CF93DF93EC01A881B981683109F49BC044
:1017900038F4643109F489C0673149F080E00EC043
:1017A000693109F4D4C06032C9F76AE488C01C9674
:1017B0008C9180FD3FC0411105C081E0DF91CF9148
:1017C0001F910895F90181919F014150DFB7F8946D
:1017D000A091ED01B091EE01C091EC01E091EA0120
:1017E000F091EB017091E9016091E80181110EC067
:1017F0008C918C238C9388E09081972B908390819F
:10180000962390838150C1F7DFBFD5CF1091E701B8
:1018100098E05C9187FF0CC0512B5C935081572B53
:101820005083880F508156235083915091F7ECCF0D
:101830005C23F3CF442309F4C0CFF90181919F01C8
:101840004150DFB7F894A091ED01B091EE01C09145
:10185000EC01E091EA01F091EB016091E9017091F6
:10186000E80181110EC08C918C238C9388E09081CB
:10187000972390839081962B90838150C1F7DFBF8F
:10188000D9CF1091E70198E05C9187FF0CC0512BF4
:101890005C93508157235083880F5081562B50837F
:1018A000915091F7ECCF5C23F3CF11964C9169E402
:1018B0000E94B80BE881F9814485417060E4CE0153
:1018C0000E94B80B7ACF4C9169E40E94B80BA881B2
:1018D000B981EA85FB8530E020E012964C916CE2FC
:1018E000CE0109958F8D90E0FC01E25FFA4FE49103
:1018F000F0E0EE0FFF1FEC5FFA4F2591349130932B
:10190000EB012093EA01FC01EE5DFA4FE491E093D4
:10191000E901E095E093E80188A190E0FC01E25F35
:10192000FA4FE491F0E0EE0FFF1FEC5FFA4F2591C4
:1019300034913093EE012093ED01FC01EE5DFA4FFE
:10194000E491E093E701E095E093EC0136CFEA857E
:10195000FB8530E020E013964C916CE20995E8811C
:10196000F981418169E4ABCFDC011696ED91FC91E0
:1019700030E020E040E069E10994DC011696ED9149
:10198000FC9130E020E040E068E109949A01DC013C
:101990001696ED91FC91462F67E10994EF92FF9224
:1019A0000F931F93CF93DF931F92CDB7DEB77C01C8
:1019B0008B01D8016C91673129F150F46531A0F4A5
:1019C0000F90DF91CF911F910F91FF90EF900895AD
:1019D0006A3118F16E3FA1F7F8014181498369E24C
:1019E000C7010E94B80B0BC0F80141814983D701A0
:1019F0001696ED91FC9130E020E0C70109950E5F4D
:101A00001F4FD7CFF80181818983AE014F5F5F4FB0
:101A100061E0C7010E94C60CF2CF0F5F1F4FD701D4
:101A20001696ED91FC9130E020E040E0C701099569
:101A3000C0CF462FDC011696ED91FC9130E020E0FE
:101A400065E10994AF92BF92CF92DF92EF92FF923D
:101A50000F931F93CF93DF93EC01693089F484E4F3
:101A600091E0998388831C8A81E0DF91CF911F9157
:101A70000F91FF90EF90DF90CF90BF90AF900895BF
:101A800079016B3009F440C06F3009F444C080E044
:101A90006A3059F7EA85FB8530E020E040E068E2F3
:101AA000CE010995EE81FF8130E020E040E064E165
:101AB000CE01099541E06BE4CE010E94B80BE881AC
:101AC000F981448169E2CE010E94B80B40E06BE4E9
:101AD000CE010E94B80BE881F981448169E2CE0110
:101AE0000E94B80B41E06BE4CE010E94B80BE88184
:101AF000F981458169E2CE010E94B80B61E371E092
:101B0000CE010E94CE0CB0CF6AE271E04423C1F353
:101B10006FE171E0F5CFF9010481000F000F000FB4
:101B200013811695003210F00052185FCE010E940A
:101B3000BD0CF701A080B1806EE3CE010E94190DAB
:101B40006EE3CE010E94190DD12C1068602F6D0D2F
:101B50006068CE010E94190D612FCE010E94190DFF
:101B6000F701C280A5016C2DCE010E94C60CAC0C01
:101B7000B11CD394F8E0DF12E9CFCE010E94B40C7F
:101B800073CF9A01DC011896ED91FC91462F67E125
:101B90000994CF93DF931F92CDB7DEB76983AE016F
:101BA0004F5F5F4F61E00E94C10D0F90DF91CF91B9
:101BB0000895CF92DF92EF92FF920F931F93CF93EE
:101BC000DF93EC01142F79016631C1F130F46431F7
:101BD00049F06531A9F080E040C0673109F446C0A2
:101BE0006A31C8F7E885F9859701412FCE01DF9169
:101BF000CF911F910F91FF90EF90DF90CF900994BC
:101C000068EF0E94C90D41E06CE2CE010E94B80B62
:101C1000612F607FCE010E94C90D41E06CE2CE01D0
:101C20000E94B80B612F6295607FCE010E94C90DA2
:101C300041E06CE2CE010E94B80B0EC068EF0E943A
:101C4000C90D612F607FCE010E94C90D612F629581
:101C5000607FCE010E94C90D81E0DF91CF911F917D
:101C60000F91FF90EF90DF90CF9008956AEF0E9460
:101C7000C90D41E06CE2CE010E94B80BDE2CCF2CE6
:101C8000012F083008F5012F069506950695D12EEF
:101C900088EF089FD00C1124E8E00E9F80011124EA
:101CA0000E0D1F1DDD2021F2F801F1908F016F2D27
:101CB000607FCE010E94C90D6F2D6295607FCE01BD
:101CC0000E94C90DDA94EECFAFEEB1E0ED2DFC2D00
:101CD0009F01285F3F4F8191982F907F9C93829521
:101CE000807F11968C9311971296E217F30799F75C
:101CF000DE2ECF2E08504FEE51E060E1CE010E9463
:101D0000C10DBFCFFC016623D9F16A30C9F1818DC5
:101D1000811125C06C3F48F085E0818F617070E0D3
:101D2000738B628B2EEF3FEF29C0683F20F084E079
:101D3000818F6370F4CF603F20F083E0818F677004
:101D4000EECF603E20F082E0818F6F70E8CF262FCB
:101D500030E0603C98F081E0818F6F71E0CF81507E
:101D6000818F2289338996E0220F331F9A95E1F7FC
:101D70006F73262B338B228B8111D4CFC901089529
:101D80002FEF3FEFFBCF0F93DC01DF963C91DF9706
:101D9000431BD596ED91FC9109950F910895CF9332
:101DA000DF93FC01A081B18183AD982F990F990F2A
:101DB000990F96AF50969C915097903208F09FE102
:101DC000990F990F990F95AF24AD922F990F990FF5
:101DD000990F97AF51963C915197682F620F7727D3
:101DE000771F3617170614F4832F821BEF01C05C90
:101DF000DF4F98832196880F880F880F890F88837B
:101E0000219680EF888354968D919C915597813FC0
:101E1000910508F48883ED5BFF4F56968C91808383
:101E2000DF91CF9108950F93FC01EA5BFF4F308162
:101E300031965081451730F4301738F0041728F0E8
:101E400080E013C03017D0F3FBCFFC01EC5BFF4FF9
:101E500030818B5B9F4FFC018081681740F481E0EB
:101E6000321718F081E0261758F70F9108953217AE
:101E7000C8F3E6CF2F923F924F925F926F927F927C
:101E80008F929F92AF92BF92CF92DF92EF92FF928A
:101E90000F931F93CF93DF93EC014C0184E4880EE2
:101EA000911CF4011082329720805E01F5E4AF0EA0
:101EB000B11CF5012082359730806E01F6E4CF0E1B
:101EC000D11CF6013082359740807E01F7E4EF0E99
:101ED000F11CF70140823496108132976080319670
:101EE000708032975080012F262D472D652DCE0111
:101EF0000E94130FCC58DF4F811114C01882DF915C
:101F0000CF911F910F91FF90EF90DF90CF90BF90F6
:101F1000AF909F908F907F906F905F904F903F9089
:101F20002F90089581E08883552011F0F4015082AC
:101F3000621410F4F5016082371410F4F601708217
:101F40001415E8F6F7011083DACF0F93DC01802F28
:101F5000FD01EC58FF4F90819923E9F12223D9F13B
:101F6000223020F0023079F56F5F621B082F01707C
:101F7000FD0180FD32C0EA5BFF4F8081481758F1B8
:101F800031968081481738F532979081319780815A
:101F9000260F2617F0F46917D8F42FEF290F8217B0
:101FA000D0F4681708F4682F291708F4922F961BAD
:101FB000D796ED91FC91D8970480F581E02D292FDB
:101FC000CD01099508C0033089F64F5F421BCECF83
:101FD000682F691720F30F910895EC5BFF4F808104
:101FE0006817C8F3319680816817A8F732969081F8
:101FF00031978081240F241778F4491760F42FEF6C
:10200000290F821740F7481708F4482F291708F4BA
:10201000922F941BCDCF482F4917E8F6F2CF2130ED
:1020200039F020F0223031F0840F0895860F0895A2
:10203000841B0895861B0895213039F020F022304A
:1020400031F0861B0895840F0895860F0895841B30
:1020500008955F926F927F928F929F92AF92BF92FC
:10206000CF92DF92EF92FF920F931F93CF93DF9364
:102070005C01162F642EEC01C05BDF4FDC80ED802D
:102080004C018AE7880E911CFE80FD18C12EF116C6
:1020900008F4CF2C5B800C85202F4E2D6D2D8A816E
:1020A0000E940F10782E202F4E2D6D2D852D0E9411
:1020B0001C10482F662071F08A85F40180832C2D36
:1020C000672DC5010E94A50F1F1548F01F19E39445
:1020D000D12CDACF89858111F7CF8B85EECF1D0DFD
:1020E0001C83ED82DF91CF911F910F91FF90EF90B4
:1020F000DF90CF90BF90AF909F908F907F906F9028
:102100005F900895DC0118964C911897ED91FC9121
:102110001197249130E0042E02C0359527950A943A
:10212000E2F7842F860F883068F031961196FC9381
:10213000EE93E49198E0941B01C0EE0F9A95EAF7B4
:102140002E2B885018968C938FEF9FEF01C0880F2D
:102150006A95EAF7809582230895FC01E60FF11D48
:10216000849190E0982F88273196E4918E0F911DED
:1021700008956F927F928F929F92AF92BF92CF926B
:10218000DF92EF92FF920F931F93CF93DF93EC01B7
:10219000062F142F7901FC01E45AFF4F8081813012
:1021A00009F445C0D0F1823009F44BC0833009F402
:1021B00052C0FE01EE5AFF4F0083319610833797CD
:1021C0008081918147962FEFE216F10411F008F01B
:1021D000E6C0E1E6EE16F10408F447C0FE01E0595E
:1021E000FF4F20813181820F931F9C012F5F3F4F52
:1021F000F9014491411142C0712C872DDF91CF919B
:102200001F910F91FF90EF90DF90CF90BF90AF9014
:102210009F908F907F906F900895FE01E25BFF4F3B
:102220000190F081E02DCE010995180FC2CFFE017B
:10223000E25BFF4F0190F081E02DCE010995081B74
:10224000B8CFFE01E25BFF4F0190F081E02DCE019F
:102250000995181BAECFFE01E25BFF4F0190F081A4
:10226000E02DCE010995080FA4CFF1E4EF16F1049B
:1022700008F4BBCFFE01E259FF4FB3CFFC014491FC
:102280004E151F0409F086C00296009709F4B4CFDA
:102290007E01F0E5EF0EF11CF7019183808310863B
:1022A00071966081C7010E948210F7018683729641
:1022B0006081C7010E948210A82EF70187836E01FA
:1022C000FAE7CF0ED11CF6019081F701928781E0E9
:1022D000911180E0F7018387FE01ED59FF4FB08037
:1022E0006B2DC7010E948210882EFE01EC59FF4F12
:1022F0001081612FC7010E948210982EFE01EB59B8
:10230000FF4F0081602FC7010E948210015041E001
:1023100050E09A0101C0220F0A95EAF7782E721A4E
:10232000F701068110160CF068CFBA94CA0101C0FB
:10233000880FBA94EAF7881AB4849A0C115001C035
:10234000440F1A95EAF7F42FF9199F2E2B2D4F2FD2
:10235000682DF70182810E940F10182FF7018283E8
:102360002B2D492D682D83810E941C10F70183833A
:10237000F1E0BF1609F47CC0BF1608F43FC022E0AC
:10238000B21609F47BC093E0B91609F482C0082F95
:10239000212F38C0F9012491820F911D26CFFE0113
:1023A000EE58FF4F00811181080F191F680160E08E
:1023B000C6010E94AD10080F191F62E0C6010E94FD
:1023C000AD10F4E0CF0ED11C8E159F0580F3F801FF
:1023D000849190E0982F88273196E4918E2B009776
:1023E00009F40ACFE816F90619F4C80103964DCF8F
:1023F000F8013296E4910E0F111DE9CF202F210F25
:10240000082F0A0D482F612FCE010E94130F882339
:1024100009F4F3CEF701148215828E01015A1F4F81
:102420004E01F0E68F0E911CF8016081C7010E94F9
:102430008210682EF4016081C7010E948210B82EBC
:1024400040E0662DCE010E94291041E06B2DCE01A7
:102450000E94291061E0C7010E9482108111F0CF13
:10246000F70185818A1504F38285F6018083C5CE44
:10247000BA1821E0210F080F1B0DC4CF91E0392FAE
:10248000301B21E0210F9A1901E0080F890F130F6B
:10249000B9CF212F2A0D982F901B01E0080F81E062
:1024A000890FB0CFFF920F931F93CF93DF93C82F65
:1024B000D62F10926D058A01F12CF80161918F01E0
:1024C000E0915605F091570584E595E009958F3F19
:1024D0009807F1F08E3F2FEF920779F39C014D2F73
:1024E0006C2F84E595E00E94B9109091B005913071
:1024F00049F030F0923041F0933041F0F80EDDCFEA
:10250000C80FFCCFD80FFACFC81BF8CFD81BF6CF17
:102510008F2DDF91CF911F910F91FF900895CF9351
:10252000DF93EC016CAFEFA9F8AD0190F081E02DE5
:102530000995EFA9F8AD0280F381E02DCE01DF917E
:10254000CF910994AF92BF92CF92DF92EF92FF9218
:102550000F931F93CF93DF9300D000D01F92CDB77E
:10256000DEB78C01DC01DB96AC90DB97DC96EC905F
:10257000DC97ED91FC91B188FE2CD12CC12CD801B7
:10258000ED91FC9111978089D9962D913C911C82F7
:10259000FD828B83B8E08B9FC00111248C9DA0012C
:1025A0008D9D500D9C9D500D1124240F351F3A8395
:1025B0002983D8011496ED91FC919E012F5F3F4F26
:1025C00041E06FE0C8010995F3948F2D8E198A15AB
:1025D00028F4BFEFCB1ADB0AFB1488F20F900F90A0
:1025E0000F900F900F90DF91CF911F910F91FF905F
:1025F000EF90DF90CF90BF90AF9008950F931F930F
:10260000CF93DF938C01C62F642FCC32E8F4CA320B
:1026100008F041C0C83271F1C93209F442C080E00B
:10262000C034D0F1CF73F801EC0FF11D878D8F3FCF
:1026300091F1C031E0F00E94620621E0892B09F49B
:1026400020E0F801228F27C0CD3289F140F384EBDE
:102650008C0F823020F7CF73C00FD12FD11D8F8DFB
:10266000411133C061E00E94B90660E08F8D0E9485
:102670008B0611C0015E1F4FD0E0F80181918F01E0
:102680008F3F31F061E0D03108F062E00E94B9067E
:10269000DF5FD63191F781E0DF91CF911F910F91EC
:1026A000089570E090E080E00E94AB09F4CF85E0EF
:1026B00090E0433010F082E090E0880F991F880F7F
:1026C000991F05970197F1F7E6CF62E00E94B906DE
:1026D000E2CFFF920F931F93CF93DF93D82F1092E7
:1026E000C90234E1F32EC091C902C430E0F40C2FCA
:1026F00010E0F09EF001F19EF00D1124ED5EFB4F15
:102700008481D8130CC00E94F506C80124E0880F0C
:10271000991F2A95E1F788529B4F0E94030BCF5FC8
:10272000C093C902E0CFDF91CF911F910F91FF902D
:1027300008950E94F5061092D1042091D104809151
:10274000CC049091CD0428171906A8F48091CF04E9
:102750000E9462062091D0042817190601F561E055
:1027600070E080E090E00E94AB098091D1048F5F1F
:102770008093D104E2CF8091C8049091C90401965E
:102780009093C9048093C8044091CE04489F90015F
:10279000499F300D11243093CB042093CA0408952F
:1027A0008F929F92AF92BF92DF92EF92FF920F9320
:1027B0001F93CF93DF931092C90284E1D82EC0916A
:1027C000C902C43008F0B9C0EC2EF12CCD9DE00157
:1027D0001124CD5EDB4FCE010E94300A9F81891704
:1027E00009F44BC0CE010E94300A882309F445C089
:1027F0002FB7F8948091BD029091BE02A091BF02C4
:10280000B091C0022FBF88879987AA87BB87CE0166
:102810000E94300ADE9CF001DF9CF00D1124ED5E79
:10282000FB4F87831091C902B0E11B9FE001112487
:10283000C852DB4F8E858823E1F08C809D80AE806E
:10284000BF800E941D0B861A970AA80AB90A8886BB
:102850009986AA86BB860E941D0B8C809D80AE80C7
:10286000BF80681579058A059B0518F0CE010E9486
:10287000030B1F5F1093C902A2CFCE010E94300A42
:10288000DE9C8001DF9C100D11240D5E1B4FD801D2
:1028900017969C91891709F4BACFCE010E94300A8D
:1028A0008111B5CF8FB7F8944091BD025091BE020F
:1028B0006091BF027091C0028FBFF8018085918541
:1028C000A285B385481B590B6A0B7B0B84859585C4
:1028D000A685B78584179507A607B707A0F4808952
:1028E0009189A289B389481759076A077B0758F469
:1028F0000190F081E02DD801309709F488CF14962B
:102900008C91099584CFDE9CD001DF9CB00D112401
:10291000AD5EBB4F50960D911D912D913C915397FB
:10292000041715072607370708F071CF1296ED91A7
:10293000FC911397309719F76ACFDF91CF911F91D0
:102940000F91FF90EF90DF90BF90AF909F908F908E
:102950000895CF92DF92EF92FF920F931F93CF9340
:10296000DF936C01EB017B01E40EF51E10E000E04B
:10297000CE15DF0561F06991D601ED91FC910190D2
:10298000F081E02DC6010995080F191FF1CFC8018C
:10299000DF91CF911F910F91FF90EF90DF90CF903B
:1029A00008950F931F93CF93DF93EC018C010C5F7D
:1029B0001F4FFC01E058FF4F0190F081E02DC8014E
:1029C00009958E3F2FEF920770F4FE01ED57FF4FF0
:1029D000CE57DF4F9C0140816881C8010E94B91029
:1029E0009881890F888381E090E0DF91CF911F91DA
:1029F0000F910895089590E080E00895CF93DF93BC
:102A000020918804309189048217930798F4C0912B
:102A10008404D091850460919504709196048C0F84
:102A20009D1F0E94AA32009729F08C1B9D0BDF91FD
:102A3000CF9108958FEF9FEFFACFCF93DF93EC0103
:102A400088819981009711F00E944D311982188276
:102A50001D821C821B821A82DF91CF910895FC0196
:102A600080819181009711F00C944D310895CF929F
:102A7000DF92EF92FF920F931F93CF93DF93CDB727
:102A8000DEB7A1970FB6F894DEBF0FBECDBF9B0196
:102A9000AC0119A28E010F5D1F4F8AE0C82ED12C08
:102AA000E12CF12CCA01B901A70196010E94563010
:102AB000605DF80162938F012115310541055105D3
:102AC00089F790E080E0309761F001900020E9F70D
:102AD0003197AF01401B510BB80180E595E00E9492
:102AE000A914A1960FB6F894DEBF0FBECDBFDF913B
:102AF000CF911F910F91FF90EF90DF90CF900895AD
:102B0000009769F0FC0101900020E9F73197AF01CF
:102B1000481B590BBC0180E595E00C94A91490E08A
:102B200080E00895FC01A081B18150962C9183AD85
:102B300038E0839FC0011124289FA001299F500DD8
:102B4000112470E060E081AD92AD0C949C321F9333
:102B5000CF93DF93EC010E94A2121CAD8BAD180F36
:102B6000E881F9818189181768F0EC81FD8130E0F6
:102B700020E040E060E1CE01099580E0DF91CF9157
:102B80001F910895FE01E558FF4F8081882319F0B9
:102B9000CE010E949215612FCE010E948F1281E01A
:102BA000EDCFCF93DF93EC01FC01E558FF4F80811F
:102BB000882319F0CE010E94921560E0CE01DF91CA
:102BC000CF910C948F120F931F93CF93DF93EC014F
:102BD00088819981009759F02A813B812617370710
:102BE00030F081E0DF91CF911F910F9108958B011B
:102BF0006F5F7F4F0E94D631009759F09983888389
:102C00001B830A832C813D81232B59F7FC01108201
:102C1000E8CF80E0E7CFEF92FF920F931F93CF931F
:102C2000DF936115710541F480E0DF91CF911F9131
:102C30000F91FF90EF90089541155105B1F07B0180
:102C4000EC010C811D81040F151FB8010E94E315D2
:102C5000882351F3288139818C819D81B701820FAE
:102C6000931F0E94A3321D830C8381E0DECFCF939C
:102C7000DF93EC01FB0144815581608171810E94E9
:102C80000B16811103C0CE010E941D15CE01DF91EC
:102C9000CF910895CF93DF9300D0CDB7DEB769838E
:102CA0001A8241E050E0BE016F5F7F4F0E940B1619
:102CB0000F900F90DF91CF910895EF92FF920F93B5
:102CC0001F93CF93DF93EC017B018A01BA010E942D
:102CD000E31581110BC0CE010E941D15CE01DF91BD
:102CE000CF911F910F91FF90EF9008951D830C835A
:102CF000B701888199810E94A332F0CFFB01019036
:102D00000020E9F73197AF01461B570B0C945D1675
:102D10000F931F93CF93DF93CDB7DEB729970FB6ED
:102D2000F894DEBF0FBECDBF8C01862FF801118253
:102D3000108213821282158214824AE0BE016F5FF4
:102D40007F4F90E00E94A12FBE016F5F7F4FC801AF
:102D50000E947E1629960FB6F894DEBF0FBECDBF37
:102D6000DF91CF911F910F9108950F931F93CF93F0
:102D7000DF93CDB7DEB7A1970FB6F894DEBF0FBED5
:102D8000CDBF8C01CB01BA01F801118210821382F0
:102D90001282158214822AE0AE014F5F5F4F0E94BB
:102DA0007F2FBE016F5F7F4FC8010E947E16A196E4
:102DB0000FB6F894DEBF0FBECDBFDF91CF911F914C
:102DC0000F910895FC0111821082138212821582E4
:102DD00014826115710551F0FB0101900020E9F7A3
:102DE0003197AF01461B570B0C945D160895CF9297
:102DF000DF92EF92FF920F931F93CF93DF9300D058
:102E000000D000D0CDB7DEB78C0166EB71E0CE010B
:102E100001960E94E2161092B3048091B304282F09
:102E200030E0F8018481958128173907D0F480813A
:102E3000918160E0009721F0820F931FFC01608177
:102E4000862F062E000C990BC0970A9720F4CE010E
:102E500001960E944A168091B3048F5F8093B30459
:102E6000DCCF89819A81C12CD12C7601009721F089
:102E70000E943C2F6B017C01CE0101960E942F1510
:102E8000C701B60126960FB6F894DEBF0FBECDBFC0
:102E9000DF91CF911F910F91FF90EF90DF90CF9036
:102EA0000895CF92DF92EF92FF920F931F93CF93EB
:102EB000DF936C017B018A014617570720F48F2DA1
:102EC0007A01062F182F66EB71E0C6010E94E21608
:102ED000C0918804D0918904EC16FD06F8F40C1713
:102EE0001D0708F4E801E0918404F0918504EC0FDB
:102EF000FD1F1081108260918404709185046E0D15
:102F00007F1DC6016115710599F00E947E168091A2
:102F1000840490918504C80FD91F1883C601DF91DE
:102F2000CF911F910F91FF90EF90DF90CF90089578
:102F30000E941D15ECCF8F929F92AF92BF92CF92BD
:102F4000DF92EF92FF920F931F93CF93DF938C0149
:102F50006A017B01CFEFD3E084E1FE0111928A95F3
:102F6000E9F78CE3882E912CA12CB12CCB01BA016E
:102F7000A50194010E9456307F936F93CA01B90155
:102F8000A50194010E9456307F936F93C701B6014B
:102F900020E13EE040E050E00E9456301F922F9327
:102FA00082E991E09F938F93DF93CF930E94C43285
:102FB000BE01C8010E94E216EDB7FEB73A960FB601
:102FC000F894FEBF0FBEEDBFC801DF91CF911F91F6
:102FD0000F91FF90EF90DF90CF90BF90AF909F90B8
:102FE0008F900895CF93DF93EC01EFEFF3E084E14E
:102FF000DF011D928A95E9F77F936F935F934F935B
:1030000081EA91E09F938F93FF93EF930E94C432E4
:103010006FEF73E0CE010E94E2168DB79EB708965F
:103020000FB6F8949EBF0FBE8DBFCE01DF91CF913A
:1030300008951F93CF93DF9385ED8093BC0080911B
:103040004E0290914F02A0915002B091510207960A
:10305000A11DB11D23E0B695A795979587952A9553
:10306000D1F72091BC0024FD03C01092960252C0FB
:1030700040914E0250914F02609150027091510266
:10308000452B462B472B69F30097A105B10541F06D
:1030900025E32A95F1F700000197A109B109E1CFD5
:1030A00080914D02C1E0C0934C02882399F1D091E8
:1030B000B8001091BA008091BC008A7B8093BC005C
:1030C00060E082E10E948B0660E083E10E948B0653
:1030D00010929602C09398021092970261E082E1EA
:1030E0000E948B0661E083E10E948B068091B9000B
:1030F0008E7F8093B9008091B9008D7F8093B90055
:1031000088E48093B80085E48093BC001093BA00F3
:10311000D093B800DF91CF911F910895E1EDF4E0D5
:10312000659174918FE392E00E94632F8FE392E0A8
:103130000895EDECF4E0659174918FE392E00E94C4
:10314000632F8FE392E00895E9ECF4E065917491C8
:103150008FE392E00E94632F8FE392E00895E5EC05
:10316000F4E0659174918FE392E00E94632F8FE306
:1031700092E00895CF92DF92EF92FF920F931F9308
:10318000CF93DF93EB017B0124E0E20EF11C8B0176
:103190006C01C61AD70AC601800F911F0E94CB2F5F
:1031A000F80181938F01EE15FF05A9F7CE01DF919C
:1031B000CF911F910F91FF90EF90DF90CF900895E6
:1031C0002F923F924F925F926F927F928F929F9237
:1031D000AF92BF92CF92DF92EF92FF920F931F9325
:1031E000CF93DF9300D000D000D0CDB7DEB784E519
:1031F00095E00E94D11566E3A62E65E0B62E7DE32C
:10320000872E75E0972EEEE36E2EE5E07E2E809100
:10321000A0059091A1058653954009F492C0B09203
:10322000A105A092A005F50184918093B105E7E383
:10323000F5E084918093B205E8E3F5E08491809312
:10324000B305E9E3F5E084918093B405EAE3F5E0A2
:1032500084918093B505EBE3F5E084918093B60506
:10326000ECE3F5E084918093B705F40184918093B9
:10327000B805F30184918093B905EFE3F5E0E4919B
:10328000E093BA05E0E4F5E0E491E093BB05E1E406
:10329000F5E0E491E093BC05E2E4F5E0E491E0932D
:1032A000BD05E3E4F5E0E491E093BE05E4E4F5E078
:1032B000E491E093BF05E5E4F5E0E491E093C00517
:1032C000E6E4F5E0E491E093C10561E186E395E091
:1032D0000E94AD109093C3058093C20563E186E31D
:1032E00095E00E94AD109093C5058093C40565E1FB
:1032F00086E395E00E94AD109093C7058093C605C4
:103300008091A0059091A105892BD9F08091BE05EF
:103310008093CA054091BF054093CB059091C905A4
:10332000992379F0913009F078C09091C005891700
:1033300014F49093CA058091C105841714F4809306
:10334000CB050E941D0B633071058105910508F0C6
:1033500089C000E420E840E060E084E595E00E9458
:10336000130F882309F43AC051ECE52E50E0F52EF6
:1033700010E022242394210E022D20E8412F60E04A
:1033800084E595E00E94130F882311F13090CE055B
:103390006701512C44244394F6018491842109F45B
:1033A00057C03092CE0500E021E0412F652D84E525
:1033B00095E00E94A50F5394440C29F4FFEFCF1A17
:1033C000DF0A4424439420E85212E6CF3092CE051F
:1033D00080E1E80EF11C122D103459F684E595E0D9
:1033E0000E94A715811113CF26960FB6F894DEBF61
:1033F0000FBECDBFDF91CF911F910F91FF90EF9046
:10340000DF90CF90BF90AF909F908F907F906F9004
:103410005F904F903F902F9008953091BB05209181
:10342000BD05082E000C990B622F022E000C770BA5
:10343000630F711D37FD7A95861797071CF4320FBD
:103440003093CA0524170CF07CCF2093CB0579CF9D
:103450008091CD058111AFCF81E0311080E0809364
:10346000CE05A1CF0E941D0B63307105810591052A
:1034700008F4F7C00E941D0B6C30710581059105A1
:1034800008F0EFC098E0E92EE092D2051AE0109320
:10349000D3050E948E180E94801587EA91E00E9451
:1034A000801528E3F22EF092D2051093D305BE01C9
:1034B0006F5F7F4F80E390E00E94BA1869817A8144
:1034C0008B819C810E943715E3EDF4E06591749146
:1034D0008FE392E00E94632F02E81EE010935705ED
:1034E000009356054FE352E064E188E00E945212D7
:1034F000F092D20584E18093D305BE016F5F7F4FC8
:1035000084E390E00E94BA1849815A816B817C81E2
:10351000CE0101960E94F217BE016F5F7F4F80E5DA
:1035200095E00E942805CE0101960E942F15E09299
:10353000D2053EE1D32ED092D3050E948E180E9470
:10354000801589EA91E00E948015F092D205D09210
:10355000D305BE016F5F7F4F88E390E00E94BA18E9
:1035600069817A818B819C810E943715E5EDF4E0B9
:10357000659174918FE392E00E94632F1093570539
:10358000009356054FE352E068E288E00E94521231
:10359000F092D20588E28093D305BE016F5F7F4F22
:1035A0008CE390E00E94BA1849815A816B817C813A
:1035B000CE0101960E94F217BE016F5F7F4F80E53A
:1035C00095E00E942805CE0101960E942F15E092F9
:1035D000D20542E3E42EE092D3050E948E180E94A9
:1035E00080158BEA91E00E948015F092D205E0925E
:1035F000D305BE016F5F7F4F80E490E00E94BA1850
:1036000069817A818B819C810E9437150E9499186B
:103610001093570500935605AC016CE388E00E94B7
:103620005212F092D2058CE38093D305BE016F5FF6
:103630007F4F84E490E00E94BA1849815A816B81DF
:103640007C81CE0101960E94F217BE016F5F7F4F11
:1036500080E595E00E942805CE0101960E942F1575
:10366000BDCE88E08093D20589E08093D305E7EC56
:10367000F4E0659174918FE392E00E94632F8FE3F1
:1036800092E00E9480158091E6018823C1F00E949B
:103690001D0B60FF14C0EFECF4E0659174918FE3B3
:1036A00092E00E94632F82E89EE0909357058093FA
:1036B00056054FE352E069E086E20E9452121AE496
:1036C0001093D20589E08093D3054091C8045091AE
:1036D000C90470E060E0CE0101960E94F217BE01BD
:1036E0006F5F7F4F80E595E00E942805CE0101962F
:1036F0000E942F1588E0582E5092D20503E10093C6
:10370000D305EBECF4E0659174918FE392E00E94B5
:10371000632F8FE392E00E9480151093D2050093EF
:10372000D305C090C804D090C904F12CE12CBE018F
:103730006F5F7F4F84E190E00E94BA1869817A81BF
:103740008B819C81A70196010E943230AB01BC01A4
:10375000CE0101960E949B17BE016F5F7F4F80E5EF
:1037600095E00E942805CE0101960E942F1500E0E9
:1037700020E846E160E084E595E00E94A50F5092C4
:10378000D20500E20093D3050E94AF180E94801575
:103790008DEA91E00E9480151093D2050093D30525
:1037A0004091E0045091E1046091E2047091E304DF
:1037B000411551056105710509F495C0CE010196C9
:1037C0000E949B17BE016F5F7F4F80E595E00E94CE
:1037D0002805CE0101960E942F1588E08093D2051E
:1037E0001AE21093D3050E94AF180E9480158FEA49
:1037F00091E00E9480158AE48093D2051093D3054E
:103800004091F0045091F1046091F2047091F3043E
:10381000411551056105710509F47CC0CE01019681
:103820000E949B17BE016F5F7F4F80E595E00E946D
:103830002805CE0101960E942F1588E08093D205BD
:1038400014E31093D3050E94AF180E94801581EBFA
:1038500091E00E9480158AE48093D2051093D305ED
:10386000409100055091010560910205709103059A
:10387000411551056105710509F463C0CE0101963A
:103880000E949B17BE016F5F7F4F80E595E00E940D
:103890002805CE0101960E942F1588E08093D2055D
:1038A0001EE31093D3050E94AF180E94801583EB8E
:1038B00091E00E9480158AE48093D2051093D3058D
:1038C00040911005509111056091120570911305FA
:1038D000411551056105710509F44AC0CE010196F3
:1038E0000E949B17B2CEBE016F5F7F4F8CE090E0CD
:1038F0000E94BA1889819A81AB81BC81892B8A2B5D
:103900008B2B29F40E94A4180E94801566CF0E9478
:103910009918FACFBE016F5F7F4F8CE090E00E9454
:10392000BA1889819A81AB81BC81892B8A2B8B2B18
:1039300029F40E94A4180E9480157FCF0E94991834
:10394000FACFBE016F5F7F4F8CE090E00E94BA1803
:1039500089819A81AB81BC81892B8A2B8B2B29F49D
:103960000E94A4180E94801598CF0E949918FACF3F
:10397000BE016F5F7F4F8CE090E00E94BA18898192
:103980009A81AB81BC81892B8A2B8B2B29F40E94D5
:10399000A4180E94801522CD0E949918FACFCF92C8
:1039A000DF92EF92FF92CF93DF9300D000D0CDB79C
:1039B000DEB7BE016F5F7F4F84E390E00E94BA18CC
:1039C000C980DA80EB80FC80BE016F5F7F4F8CE1A5
:1039D00090E00E94BA1889819A81AB81BC81C81697
:1039E000D906EA06FB0670F081E08093E6010F90AD
:1039F0000F900F900F90DF91CF91FF90EF90DF909D
:103A0000CF9008951092E601F2CF9F92AF92BF92AD
:103A1000CF92DF92EF92FF920F931F93CF93DF939A
:103A20005C017B018B01D0E0C0E0F80191908F0137
:103A30006501CC0EDD1EC6010E94CB2F981621F029
:103A4000692DC6010E94D32F2196C430D10569F794
:103A5000C701DF91CF911F910F91FF90EF90DF9001
:103A6000CF90BF90AF909F900895CF92DF92EF924A
:103A7000FF92CF93DF9300D000D0CDB7DEB76C01BB
:103A8000BE016F5F7F4F88E490E00E94BA18F12C6E
:103A9000E12C89819A81AB81BC818C0D9D1DAE1D6D
:103AA000BF1D89839A83AB83BC83BE016F5F7F4F49
:103AB00088E490E00E94051DBE016F5F7F4F8CE699
:103AC00090E00E94BA1889819A81AB81BC818C0DEB
:103AD0009D1DAE1DBF1D89839A83AB83BC83BE0130
:103AE0006F5F7F4F8CE690E00E94051D0F900F9056
:103AF0000F900F90DF91CF91FF90EF90DF90CF90DC
:103B00000895CF92DF92EF92FF92CF93DF9300D090
:103B100000D0CDB7DEB76C01BE016F5F7F4F8CE484
:103B200090E00E94BA18F12CE12C89819A81AB8136
:103B3000BC818C0D9D1DAE1DBF1D89839A83AB83F7
:103B4000BC83BE016F5F7F4F8CE490E00E94051D37
:103B5000BE016F5F7F4F80E790E00E94BA188981B5
:103B60009A81AB81BC818C0D9D1DAE1DBF1D8983CB
:103B70009A83AB83BC83BE016F5F7F4F80E790E089
:103B80000E94051D0F900F900F900F90DF91CF9125
:103B9000FF90EF90DF90CF900895EF92FF920F93F8
:103BA0001F93CF93DF9300D000D0CDB7DEB77C0159
:103BB00049835A836B837C838C01045F1F4FB80158
:103BC0008CE090E00E94051DB70180E190E00E942A
:103BD000051DB7016C5F7F4F84E190E00E94051DD9
:103BE000B80188E190E00E94051DB701685F7F4F32
:103BF0008CE190E00E94051DB701605F7F4F80E27D
:103C000090E00E94051DB80180E390E00E94051D30
:103C1000B80184E390E00E94051DB80188E390E0BC
:103C20000E94051DB8018CE390E00E94051DB801BB
:103C300080E490E00E94051DB80184E490E00E94B9
:103C4000051DB8018CE490E00E94051DB80180E5D7
:103C500090E00E94051DB80188E490E00E94051DD7
:103C6000B80184E590E00E94051DB80188E590E068
:103C70000E94051DB8018CE590E00E94051DB80169
:103C800080E690E00E94051DB80184E690E00E9465
:103C9000051DB80188E690E00E94051DB80180E787
:103CA00090E00E94051DB80184E790E00E94051D88
:103CB000B8018CE690E00E94051DBE016F5F7F4F4A
:103CC00084E290E00E94051DBE016F5F7F4F88E295
:103CD00090E00E94051DBE016F5F7F4F8CE290E077
:103CE0000E94051D0F900F900F900F90DF91CF91C4
:103CF0001F910F91FF90EF9008954F925F926F92F6
:103D00007F928F929F92AF92BF92CF92DF92EF926B
:103D1000FF920F931F93CF93DF93CDB7DEB7C454B9
:103D2000D1090FB6F894DEBF0FBECDBF90E080E0A2
:103D30000E94FE143C01772443018FEF881A980AF1
:103D4000C4010E94FE147C01FF245701EFEFAE1A5C
:103D5000BE0AC5010E94FE148C0111276801FFEF05
:103D6000CF1ADF0AC6010E94FE142C01A30170E0E5
:103D700060E0CE0101960E945117CE0101960E948B
:103D8000F71660938A04CE0101960E942F15A701B1
:103D9000B401CE0101960E945117CE0101960E94F6
:103DA000F71660938B04CE0101960E942F15A8018F
:103DB000B501CE0101960E945117CE0101960E94D5
:103DC000F71660938C0470938D0480938E04909307
:103DD0008F04CE0101960E942F155524A201B60131
:103DE000CE0101960E945117CE0101960E94F7164E
:103DF0006093900470939104809392049093930441
:103E0000CE0101960E942F1540918804509189049B
:103E1000B2016F5F7F4FCE0101960E945117CE0114
:103E200001960E94F71660939404CE0101960E94B9
:103E30002F15E0918A04E150E33308F0E4C4F0E088
:103E4000EC5DF04E0C9497308D1FA51F571F032477
:103E500003240324032403240324C71F0B202A2044
:103E600049206820032403240324032403248720F7
:103E7000AB20C920E720DE21FC21032403240324F6
:103E800003241A22F62214230324032403240324E4
:103E900003240324032432238723CA230324032473
:103EA00003240324032403240324E423EA2380912A
:103EB0008B048130C9F40E941D0B60938C047093B5
:103EC0008D0480938E0490938F0480919E0490E0E3
:103ED000B0E0A0E08093900490939104A0939204AA
:103EE000B09393048AE016C080919E0490E0B0E005
:103EF000A0E080938C0490938D04A0938E04B093E3
:103F00008F048093900490939104A0939204B093B3
:103F1000930484E380939404BBC280918B0481302A
:103F200019F7BE016F5F7F4F88E090E00E94BA18DA
:103F300089819A81AB81BC8180938C0490938D049C
:103F4000A0938E04B0938F04C0CF80918B048130F6
:103F500031F4BE016F5F7F4F8CE090E0E7CF82309D
:103F600019F680918C0490918D04A0918E04B091EB
:103F70008F0425968CAF9DAFAEAFBFAF2597BE0126
:103F80006F5B7F4F8CE090E00E94051DF7C1809130
:103F90008B04813031F4BE016F5F7F4F80E190E090
:103FA000C5CF8230A1F480918C0490918D04A091B2
:103FB0008E04B0918F0421968CAF9DAFAEAFBFAF92
:103FC0002197BE01635C7F4F80E190E0DDCF8430BC
:103FD00009F08ACFC0908C04D0908D04E0908E04BC
:103FE000F0908F04BE016F5F7F4F80E190E00E94F0
:103FF000BA1849815A816B817C8181E090E0A0E010
:10400000B0E0C416D506E606F70609F095CF80E0C5
:1040100090E0DC0191CF80918B04813031F4BE01BE
:104020006F5F7F4F84E190E081CF823009F05CCFF9
:1040300080918C0490918D04A0918E04B0918F0496
:1040400089AF9AAFABAFBCAFBE01675C7F4F84E175
:1040500090E09ACF80918B04813031F4BE016F5F84
:104060007F4F88E190E062CF823009F03DCF8091B0
:104070008C0490918D04A0918E04B0918F048DAB2F
:104080009EABAFABB8AFBE016B5C7F4F88E190E0F9
:104090007BCF80918B04813031F4BE016F5F7F4F05
:1040A0008CE190E043CF823009F01ECF80918C04E8
:1040B00090918D04A0918E04B0918F0489AB9AAB3E
:1040C000ABABBCABBE016F5C7F4F8CE190E05CCFD3
:1040D00080918B04813031F4BE016F5F7F4F80E2AD
:1040E00090E024CF823009F0FFCE80918C04909133
:1040F0008D04A0918E04B0918F048DA79EA7AFA7C9
:10410000B8ABBE01635D7F4F80E290E03DCF809110
:104110008B04813009F0E8CEBE016F5F7F4F80E3F2
:1041200090E00E94BA1889819A81AB81BC8180930A
:104130008C0490938D04A0938E04B0938F04BE01E1
:104140006F5F7F4F84E590E00E94BA1889819A8161
:10415000AB81BC81BFCE80918B04813009F0C4CE8D
:10416000BE016F5F7F4F84E390E00E94BA1889819F
:104170009A81AB81BC8180938C0490938D04A09331
:104180008E04B0938F04BE016F5F7F4F88E590E08F
:10419000DBCF80918B04813009F0A6CEBE016F5F2A
:1041A0007F4F88E390E00E94BA1889819A81AB81A1
:1041B000BC8180938C0490938D04A0938E04B09363
:1041C0008F04BE016F5F7F4F8CE590E0BDCF809183
:1041D0008B048130C9F4BE016F5F7F4F8CE390E0A8
:1041E0000E94BA1889819A81AB81BC8180938C042A
:1041F00090938D04A0938E04B0938F04BE016F5FE3
:104200007F4F80E690E0A0CF833009F06DCEC09064
:104210009004D0909104E0909204F0909304C11423
:10422000D104E104F10409F4B7C0BE01695F7F4F16
:104230008CE390E00E94BA1846015701AA24BB24DF
:104240008F819885A985BA85880D991DAA1DBB1DEA
:104250008F839887A987BA87BE01695F7F4F8CE3F8
:1042600090E00E94051DBE01695F7F4F80E690E0EF
:104270000E94BA188F819885A985BA85880D991DE5
:10428000AA1DBB1D8F839887A987BA87BE01695F66
:104290007F4F80E690E00E94051DBE016F5F7F4F5B
:1042A00088E390E00E94BA1889819A81AB81BC8131
:1042B0000196A11DB11D89839A83AB83BC83BE0186
:1042C0006F5F7F4F88E390E00E94051DBE016F5F26
:1042D0007F4F8CE590E00E94BA1889819A81AB816A
:1042E000BC810196A11DB11D89839A83AB83BC83D8
:1042F000BE016F5F7F4F8CE590E00E94051DBE01FF
:104300006F5F7F4F84E190E00E94BA1849815A8123
:104310006B817C81C49EC001C59E900DD49E900D82
:1043200011240E94811D00918C0410918D0444E0A1
:10433000000F111F4A95E1F7809182049091830448
:10434000080F191FC0909004D0909104E09092043F
:10435000F0909304BE016F5F7F4F84E190E00E9474
:10436000BA1869817A818B819C81A70196010E948C
:104370003230AB01BC01C8010E94310B80919E0418
:1043800090E0B0E0A0E080938C0490938D04A09323
:104390008E04B0938F049ECD80918C0490918D04F7
:1043A00034E0880F991F3A95E1F72091820430910B
:1043B0008304820F931F0E94030BE0CF80918B0434
:1043C000813009F091CDBE016F5F7F4F80E490E0B6
:1043D0000E94BA1889819A81AB81BC8180938C0438
:1043E00090938D04A0938E04B0938F04BE016F5FF1
:1043F0007F4F84E690E0A8CE80918B04813009F055
:1044000073CDBE016F5F7F4F84E490E00E94BA18C5
:1044100089819A81AB81BC8180938C0490938D04B7
:10442000A0938E04B0938F04BE016F5F7F4F88E628
:1044300090E08ACE80918B04813009F055CD8AE0DE
:1044400080939404BE016F5F7F4F8CE490E00E94E4
:10445000BA1889819A81AB81BC8180938C04909336
:104460008D04A0938E04B0938F04BE016F5F7F4FC5
:1044700080E790E00E94BA1889819A81AB81BC8163
:104480008093900490939104A0939204B09393042A
:1044900060919404CE014F960E948816409190043A
:1044A000509191046091920470919304CE014996C9
:1044B0000E94B51640918C0450918D0460918E0439
:1044C00070918F04CE0143960E94B51660918B04C3
:1044D000CE010D960E94881660918A04CE01019645
:1044E0000E94881618861F821A8619861C861B86CB
:1044F00069817A816115710531F04D815E81CE014E
:1045000007960E945D1665E974E0CE0107960E9449
:104510003716BE01635F7F4F0E94371665E974E06E
:104520000E943716BE016D5E7F4F0E94371665E907
:1045300074E00E943716BE01675E7F4F0E943716F7
:1045400065E974E00E943716BE01615E7F4F0E94EC
:1045500037168C0141E050E065EB71E00E940B16CC
:10456000811103C0C8010E941D1584E0043818079A
:1045700069F0F801608171816115710509F45CC110
:104580004481558184E894E00E945D16CE0107962F
:104590000E942F15CE0101960E942F15CE010D9677
:1045A0000E942F15CE0143960E942F15CE014996E9
:1045B0000E942F15CE014F960E942F15CC5BDF4F26
:1045C0000FB6F894DEBF0FBECDBFDF91CF911F9124
:1045D0000F91FF90EF90DF90CF90BF90AF909F90A2
:1045E0008F907F906F905F904F90089580918B0493
:1045F000813009F079CCBE016F5F7F4F80E590E09C
:104600000E94BA1889819A81AB81BC8180938C0405
:1046100090938D04A0938E04B0938F04BE016F5FBE
:104620007F4F84E790E090CD80918B04813009F03A
:104630005BCCBE016F5F7F4F88E490E00E94BA18A8
:1046400089819A81AB81BC8180938C0490938D0485
:10465000A0938E04B0938F04BE016F5F7F4F8CE6F2
:1046600090E072CD80918B04813031F4BE016F5F98
:104670007F4F84E290E05ACC833009F035CC8091B2
:104680008C0490918D04A0918E04B0918F0489A721
:104690009AA7ABA7BCA76BEA74E080E390E00E9406
:1046A000051D6BEA74E084E390E00E94051D6BEA4F
:1046B00074E088E390E00E94051D6BEA74E08CE3EF
:1046C00090E00E94051D6BEA74E080E490E00E9497
:1046D000051D6BEA74E084E490E00E94051D6BEA1E
:1046E00074E08CE490E00E94051D6BEA74E080E5C4
:1046F00090E00E94051D6BEA74E088E490E00E945F
:10470000051DBE01675D7F4F84E290E03DCC809146
:104710008B04813031F4BE016F5F7F4F88E290E0FF
:1047200005CC833009F0E0CB80918C0490918D040E
:10473000A0918E04B0918F048DA39EA3AFA3B8A7C0
:104740006BEA74E08CE090E00E94051D6FE974E074
:1047500080E190E00E94051D63EA74E084E190E04E
:104760000E94051D6BEA74E088E190E00E94051D3F
:1047700067EA74E08CE190E00E94051D6FEA74E046
:1047800080E290E00E94051DBE016B5D7F4F88E2D4
:1047900090E0FACB80918B04813031F4BE016F5FE1
:1047A0007F4F8CE290E0C2CB833009F09DCB4091EB
:1047B0008C0450918D0460918E0470918F048FE968
:1047C00094E00E94CD1DDACD80918B04833009F0F6
:1047D0008BCBFFCF80918B04813009F085CB80910A
:1047E0008C0490918D0424E0880F991F2A95E1F79D
:1047F000E0918204F0918304E80FF91F8085918590
:10480000A285B38567CB80919E0480938B0490E052
:10481000B0E0A0E080938C0490938D04A0938E046C
:10482000B0938F048093900490939104A09392048A
:10483000B093930483E36ECB84E894E00E941D154B
:10484000A5CECF93DF9300D000D000D0CDB7DEB798
:1048500067EB71E0CE0101960E94E21664E874E015
:10486000CE0101960E943716BC018BED92E00E94AA
:104870002805CE0101960E942F150E947D1E6AEB2D
:1048800071E0CE0101960E94E21664E874E0CE0168
:1048900001960E943716BC018BED92E00E9428051C
:1048A000CE0101960E942F1564E874E083E694E03F
:1048B0000E94280566EB71E084E894E00E947E1671
:1048C00026960FB6F894DEBF0FBECDBFDF91CF9115
:1048D00008951F93CF93DF9300D000D000D0CDB7C1
:1048E000DEB78BED92E00E949405892BF1F18BED00
:1048F00092E00E947205182F682F84E894E00E94CD
:104900004A161A3091F567EB71E0CE0101960E94CC
:10491000E21664E874E0CE0101960E943716BC01ED
:104920008BED92E00E942805CE0101960E942F1582
:104930000E947D1E6AEB71E0CE0101960E94E21694
:1049400064E874E0CE0101960E943716BC018BED3D
:1049500092E00E942805CE0101960E942F1566EB79
:1049600071E084E894E00E947E1626960FB6F894D3
:10497000DEBF0FBECDBFDF91CF911F9108950E9482
:10498000A00581110C94692408954F925F926F9253
:104990007F928F929F92AF92BF92CF92DF92FF92BF
:1049A0000F931F93CF93DF93CDB7DEB728970FB642
:1049B000F894DEBF0FBECDBF182F1092C90204E1DC
:1049C00036E0F32E8091C902843008F093C190E064
:1049D000089FF001099FF00D1124ED5EFB4F24812B
:1049E000121300C124E0880F991F2A95E1F7FC01FA
:1049F000E852FB4F8785882309F4CCC0C090C804D7
:104A0000D090C9042601712C612CBE016F5F7F4FCD
:104A100084E190E00E94BA1869817A818B819C813F
:104A2000A30196010E9432304B015C01BE016F5F11
:104A30007F4F8CE090E00E94BA1889819A81AB8107
:104A4000BC81892B8A2B8B2B09F4D2C0BE016F5FEE
:104A50007F4F8CE090E00E94BA1889819A81AB81E7
:104A6000BC810197A105B10509F07AC0BE016B5F59
:104A70007F4F84E490E00E94BA188D819E81AF81BF
:104A8000B8850196A11DB11D8D839E83AF83B88724
:104A9000BE016B5F7F4F84E490E00E94051DBE0164
:104AA0006B5F7F4F88E690E00E94BA188D819E81EF
:104AB000AF81B8850196A11DB11D8D839E83AF8303
:104AC000B887BE016B5F7F4F88E690E00E94051DAE
:104AD000BE016F5F7F4F80E490E00E94BA18898129
:104AE0009A81AB81BC810196A11DB11D89839A83F6
:104AF000AB83BC83BE016F5F7F4F80E490E00E9478
:104B0000051DBE016F5F7F4F84E690E00E94BA18DA
:104B100089819A81AB81BC810196A11DB11D8983D8
:104B20009A83AB83BC83BE016F5F7F4F84E690E0C6
:104B30000E94051DBE016F5F7F4F84E190E00E94DF
:104B4000BA1889819A810E94811DBE016F5F7F4FD3
:104B500084E190E00E94BA1889809A80AB80BC8082
:104B60000E94F506F89CC001F99C900D11240E944A
:104B7000351D8091C90220E1829FC0011124B50139
:104B8000A40188529B4F0E94310B1092C9041092CD
:104B9000C80428C0C090C804D090C904BE016F5F8B
:104BA0007F4F88E190E00E94BA1849815A816B8159
:104BB0007C81C601B0E0A0E084179507A607B7077F
:104BC00008F01CCFBE016F5F7F4F8CE090E00E9429
:104BD000BA1889819A81AB81BC81892B8A2B8B2B56
:104BE00009F00CCF8091C9028F5F8093C902EACE91
:104BF0008091C8049091C904892B09F47BC0BE013F
:104C00006B5F7F4F84E390E00E94BA188D819E8194
:104C1000AF81B885840D951DA61DB71D8D839E831C
:104C2000AF83B887BE016B5F7F4F84E390E00E9443
:104C3000051DBE016B5F7F4F88E590E00E94BA18AA
:104C40008D819E81AF81B885840D951DA61DB71DF0
:104C50008D839E83AF83B887BE016B5F7F4F88E5EE
:104C600090E00E94051DBE016F5F7F4F80E390E0E2
:104C70000E94BA1889819A81AB81BC810196A11DDD
:104C8000B11D89839A83AB83BC83BE016F5F7F4F65
:104C900080E390E00E94051DBE016F5F7F4F84E5B9
:104CA00090E00E94BA1889819A81AB81BC810196FB
:104CB000A11DB11D89839A83AB83BC83BE016F5F45
:104CC0007F4F84E590E00E94051DBE016F5F7F4F1E
:104CD00084E190E00E94BA1849815A816B817C81FD
:104CE000C49EC001C59E900DD49E900D11240E94BB
:104CF000811DACCE28960FB6F894DEBF0FBECDBF97
:104D0000DF91CF911F910F91FF90DF90CF90BF90D7
:104D1000AF909F908F907F906F905F904F9008958D
:104D2000CF93DF9300D000D0CDB7DEB788EB9BE008
:104D30000E94351DBE016F5F7F4F80E590E00E94AD
:104D4000BA1889819A81AB81BC81805F914FAF4F46
:104D5000BF4F89839A83AB83BC83BE016F5F7F4F54
:104D600080E590E00E94051DBE016F5F7F4F84E7E4
:104D700090E00E94BA1889819A81AB81BC81805FE2
:104D8000914FAF4FBF4F89839A83AB83BC83BE01E2
:104D90006F5F7F4F84E790E00E94051D0F900F909A
:104DA0000F900F90DF91CF9108951F920F920FB641
:104DB0000F9211242F933F934F935F936F937F93A1
:104DC0008F939F93AF93BF93EF93FF938091CF0205
:104DD0009091D002A091D102B091D202892B8A2B5E
:104DE0008B2BD1F19091CA02E091CB02F091CC02D1
:104DF0008081892780838091CF029091D002A091F9
:104E0000D102B091D202181619061A061B069CF49C
:104E10008091CF029091D002A091D102B091D202A4
:104E20000197A109B1098093CF029093D002A0937A
:104E3000D102B093D202FF91EF91BF91AF919F91B8
:104E40008F917F916F915F914F913F912F910F9033
:104E50000FBE0F901F90189580910401E9EFF4E0C8
:104E6000E4919FEF90930401E13051F030F0E23093
:104E700069F060E00E948B06DECF10926E00F9CFE1
:104E800090916F009D7F90936F00F3CF9091700091
:104E90009D7F9093700091E09093B0009091B1004D
:104EA000987F94609093B1001092B300E2CF1F926C
:104EB0000F920FB60F9211242F933F934F935F934E
:104EC0006F937F938F939F93AF93BF93EF93FF93D2
:104ED0008BED92E00E94AA05FF91EF91BF91AF91F7
:104EE0009F918F917F916F915F914F913F912F9102
:104EF0000F900FBE0F901F9018951F920F920FB634
:104F00000F9211242F938F939F93EF93FF93E09130
:104F1000EB02F091EC028081E091F102F091F2025B
:104F200082FD1BC090818091F4028F5F8F7320916E
:104F3000F502821741F0E091F402F0E0E552FD4FF6
:104F4000958F8093F402FF91EF919F918F912F9114
:104F50000F900FBE0F901F9018958081F4CF1F9275
:104F60000F920FB60F9211242F933F938F939F931D
:104F7000AF93BF938091BD029091BE02A091BF02FA
:104F8000B091C0023091BC0223E0230F2D3758F5B9
:104F90000196A11DB11D2093BC028093BD02909388
:104FA000BE02A093BF02B093C0028091C102909153
:104FB000C202A091C302B091C4020196A11DB11D0D
:104FC0008093C1029093C202A093C302B093C40223
:104FD000BF91AF919F918F913F912F910F900FBEF5
:104FE0000F901F90189526E8230F0296A11DB11D62
:104FF000D2CF1F920F920FB60F9211242F933F938F
:105000004F935F936F937F938F939F93AF93BF93D0
:10501000EF93FF93E0910201F09103010995FF9155
:10502000EF91BF91AF919F918F917F916F915F9120
:105030004F913F912F910F900FBE0F901F90189599
:105040001F920F920FB60F9211242F933F934F93FD
:105050005F936F937F938F939F93AF93BF93EF93E0
:10506000FF93E0910001F09101010995FF91EF910B
:10507000BF91AF919F918F917F916F915F914F9170
:105080003F912F910F900FBE0F901F9018951F9278
:105090000F920FB60F9211242F933F934F935F936C
:1050A0006F937F938F939F93AF93BF93EF93FF93F0
:1050B0008091B900887F803609F44AC0F0F58832C3
:1050C00009F4A5C018F5803109F499C0B8F4882313
:1050D00009F4F5C0883009F492C0FF91EF91BF91B7
:1050E000AF919F918F917F916F915F914F913F9180
:1050F0002F910F900FBE0F901F901895883109F4D3
:1051000086C0803251F78093950214C0803409F430
:105110009BC040F48033B9F38833F9F6809395024D
:1051200085ECAEC0803509F483C0883509F494C09D
:10513000883499F60E941918D0CF883909F48AC0AA
:1051400038F5883729F050F4883611F0803729F681
:1051500083E0809396021092940255C0883809F437
:1051600079C0803919F0803809F0B7CF8091940266
:10517000803208F06FC0E091940281E08E0F80933E
:1051800094028091BB00F0E0EC58FD4F80833BC05F
:10519000803B39F0D0F4803A09F477C0883A09F0BE
:1051A0009CCF84E080939602109273021092720258
:1051B000F0E0E0E009958091720281110FC081E07A
:1051C000809372021092520209C0803C09F4A8CF69
:1051D000883C09F4A5CF883B09F07FCFE0917302AA
:1051E00081E08E0F80937302F0E0EE5AFD4F8081D4
:1051F0008093BB00909173028091720229C08091CC
:10520000BB028093BB0085EC8093BC0066CF90917D
:10521000BA028091B902981758F5E091BA0281E07C
:105220008E0F8093BA02F0E0E756FD4F8081E9CF00
:10523000E091BA0281E08E0F8093BA028091BB00A8
:10524000F0E0E756FD4F80839091BA028091B90259
:105250009817C8F285E8D8CFE091BA0281E08E0FA6
:105260008093BA028091BB00F0E0E756FD4F808347
:105270008091980281115ECF81E08093970284EA49
:105280008093BC001092960228CF85EC8093BC00DE
:105290001092960280919402803230F4E091940250
:1052A000F0E0EC58FD4F10826091940270E084E7CA
:1052B00092E0F0E0E0E00995109294020ECF109297
:1052C000950238CF1F920F920FB60F9211242F9391
:1052D0003F934F935F936F937F938F939F93AF937E
:1052E000BF93EF93FF93E091C702F091C80230970C
:1052F00049F0A685B7858585968D91FF14C09C9150
:105300008923A1F4FF91EF91BF91AF919F918F916C
:105310007F916F915F914F913F912F910F900FBEB1
:105320000F901F9018959C91892361F7A389B489E8
:105330009C918589809589238C938689978901978B
:10534000F1F7608D718DA685B785558538E020E031
:10535000CB010197F1F7822F90E095958795282F43
:105360004C91452309F02068315091F7868D81FDDD
:1053700020958091C60290E001968F739927309115
:10538000C502381799F0A091C602B0E0A150BE4FF7
:105390002C938093C602828D938D0197F1F7A38998
:1053A000B4898C919589892B8C93ACCF868D816043
:1053B000868FF1CFFC01862F158216821782108608
:1053C00011861286138614861586168617864CED6E
:1053D00055E060E070E0408B518B628B738B84836F
:1053E00062E00C94B906CF93DF93EC01862F18820C
:1053F00019821A821B821C821D821E821F821886BD
:1054000019861A861B861D861E861F866C8761E09C
:105410000E94B9066D8581E068278C850E948B0605
:105420001F86DF91CF9108950F931F93CF93DF9342
:10543000CDB7DEB764970FB6F894DEBF0FBECDBF11
:105440001092DE021092DD0288EE93E0A0E0B0E060
:105450008093DF029093E002A093E102B093E20216
:1054600080E691E09093DC028093DB0285EC90E093
:105470009093E8028093E70284EC90E09093EA0234
:105480008093E90280EC90E09093EC028093EB0231
:1054900081EC90E09093EE028093ED0282EC90E03C
:1054A0009093F0028093EF0286EC90E09093F202EA
:1054B0008093F1021092F4021092F5021092F6021B
:1054C0001092F70210925305109252058BEA94E065
:1054D0009093D1058093D0051092D2051092D305F8
:1054E00010926D0584E891E09093510580935005EA
:1054F00010925505109254051092690510926C0592
:105500001092600510926105109262051092630579
:105510008FEF80936A0580936F05E3E7F5E00FEF67
:10552000019385E0E938F807D9F782E29DE090938E
:1055300059058093580589ED9DE090935B05809314
:105540005A058FEB9BE090935D0580935C058EEF91
:1055500092E190935F0580935E0530E020E040E0AB
:1055600069E084E595E00E94220D1092A105109259
:10557000A00585EB94E090938A058093890588E7E0
:1055800093E090938E0580938D0511E010938F0525
:10559000109290051092AD051092CD051093CE0596
:1055A0001093CF058CE891E090938C0580938B0548
:1055B00084E595E00E94CF0E10929C0510929E0506
:1055C00000939D0500939F05E0918B05F0918C055C
:1055D0000280F381E02D84E595E0099584E095E073
:1055E0009093A3058093A2051092B0058CE0809360
:1055F00073058BE0809374058AE080937C0584E6D4
:1056000080937E0510924305109244051092450543
:1056100010924605109247051092480510924905D0
:1056200010924A0510924B0510924C0510924D05B0
:1056300010924F0510924E051093420510923505B9
:1056400010923605109237051092380510923905E0
:1056500010923A0510923B0510923C0510923D05C0
:1056600010923E0510923F051092410510924005A0
:1056700010933405109227051092280510922905E1
:1056800010922A0510922B0510922C0510922D05D0
:1056900010922E0510922F051092300510923105B0
:1056A00010923305109232051093260510921905B9
:1056B00010921A0510921B0510921C0510921D05E0
:1056C00010921E0510921F051092200510922105C0
:1056D00010922205109223051092250510922405A0
:1056E00002E0009318056EE088ED94E00E94F32933
:1056F0006FE088EE94E00E94F32960E188EF94E087
:105700000E94F32961E188E095E00E94F32983E596
:1057100097E09093D5048093D40482E390E0909333
:10572000D7048093D6048DE08093D2041093D304E1
:1057300061E00E94B9061092C9041092C804109248
:10574000CB041092CA048FE090E09093CD04809334
:10575000CC041092D1040093CF041093CE04109285
:10576000D00462E082E00E94B906109266041092B2
:10577000650488EE93E0A0E0B0E080936704909326
:105780006804A0936904B0936A0482E791E090935F
:1057900064048093630410927A0410927904109246
:1057A0007C0410927B0410927E0410927D0410926F
:1057B000800410927F04809181048E7F8D7F80937E
:1057C000810481FB662760F9612788E00E948B06CF
:1057D00061E088E00E94B906EAE2F5E0E491E09336
:1057E0007304E6E1F5E0E491F0E0EE0FFF1FEC5FFB
:1057F000FA4F85919491909375048093740460E0BE
:1058000089E00E94B9068091810481FD04C061E0B5
:1058100089E00E948B0689E080936F04EBE2F5E05B
:10582000E491E0937004E7E1F5E0E491F0E0EE0F3D
:10583000FF1FE650FB4F85919491909372048093E3
:10584000710482E791E0909364048093630466EBB3
:1058500071E084E894E00E94E21610928A041092AB
:105860008B0410928C0410928D0410928E0410926E
:105870008F0410929004109291041092920410924E
:105880009304109294046DEB71E085E994E00E941A
:10589000E21610929D0410929E041D861E861F869D
:1058A000188A80E492EEA1E0B0E089839A83AB830A
:1058B000BC8384EB90E0A0E0B0E08D839E83AF8357
:1058C000B88788E893E1A0E0B0E089879A87AB8742
:1058D000BC878CED95E0A0E0B0E0898B9A8BAB8B18
:1058E000BC8B84E1FE013196AFE9B4E001900D92EA
:1058F0008A95E1F715E1E3EBF4E0DF01812F1D92DA
:105900008A95E9F760E270E084E894E00E94E3158C
:105910006DEB71E085E994E00E947E1664E083E11E
:1059200094E00E94DA2965E087E294E00E94DA2997
:1059300066E08BE394E00E94DA2967E08FE494E06C
:105940000E94DA29EEEFF3E0DF011D921A95E9F7E4
:105950006FEB71E088EF93E064960FB6F894DEBFCA
:105960000FBECDBFDF91CF911F910F910C94E21626
:10597000CF93DF93CDB7DEB728970FB6F894DEBF8D
:105980000FBECDBF789484B5826084BD84B581603C
:1059900084BD85B5826085BD85B5816085BD8091FA
:1059A0006E00816080936E00109281008091810072
:1059B000826080938100809181008160809381006A
:1059C000809180008160809380008091B10084602C
:1059D0008093B1008091B00081608093B00080918D
:1059E0007A00846080937A0080917A00826080934C
:1059F0007A0080917A00816080937A0080917A00A9
:105A0000806880937A001092C100BE016F5F7F4F63
:105A100084E090E00E94BA1889819A81AB81BC81B0
:105A20000197A105B10531F147E559EE62E070E05B
:105A300085E091E00E94CD1D89E190E0A0E0B0E01A
:105A400089839A83AB83BC83BE016F5F7F4F88E0FD
:105A500090E00E94051D81E090E0A0E0B0E08D8321
:105A60009E83AF83B887BE016B5F7F4F84E090E079
:105A70000E94051D0E94F506E091EB02F091EC02F8
:105A800082E08083E091E702F091E8021082E091E9
:105A9000E902F091EA028FEC80831092F302E09128
:105AA000EF02F091F00286E08083E091ED02F09148
:105AB000EE02808180618083E091ED02F091EE0240
:105AC000808188608083E091ED02F091EE02808118
:105AD00080688083E091ED02F091EE0280818F7DFD
