:100000000C94B4040C947F0D0C94580D0C94F50FC3
:100010000C94F50F0C94F50F0C94DC040C94A60DC5
:100020000C94DC040C94DC040C94DC040C94DC04D0
:100030000C94DC040C94DC040C94DC040C94DC04C0
:100040000C941A170C94DC040C945C0E0C94360E71
:100050000C94DC040C94DC040C94DC040C94DC04A0
:100060000C948E0E0C94DC04B105CE058805B809FD
:10007000B809B809B809B809B809EF05310650063A
:100080006F068E06B809B809B809B809B809AD06EF
:10009000CB06E906070721084508B809B809B809D9
:1000A000B80963089208B008B809B809B809B809CE
:1000B000B809B809B809CE0823096809B809B80908
:1000C000B809B809B809B809B8098F099509506F76
:1000D0007765720053657276650043726564697472
:1000E00000416D6F756E74005472616E73004C69DF
:1000F0006D697400467265650054696D65005661EE
:1001000063616E7400436F696E005465726D696E51
:10011000616C005068696C697070696E657300414C
:100120002E522E542E53001F0113010A010501FE09
:1001300000F900F400EE00E800E100DA00D400CE9F
:100140000000000000240027002A00000000080032
:10015000020100000304070000000000000000028C
:10016000000000000000000000000000000000008F
:10017000000000000000000000000000000000007F
:10018000000000000000000000000000000000006F
:10019000000000000000000000000000000000005F
:1001A00000002000000000000000000000F88100B6
:1001B0000000700080FFFF07C0FFFFFF01FE8F00FF
:1001C0000000700000FCFF3FC0FFFFFF010FFE00BA
:1001D0000000780000F8037FC0077FF08107F80077
:1001E0000000F80000F803FEC0017FC0C103F0006A
:1001F0000000FC0000F803FCC1007F80C103E000A8
:100200000000FC0100F803F8C3007F80E103C00098
:100210000000FC0100F803F843007F00E103C00088
:100220000000FE0100F803F843007F00E1078000B2
:100230000000FE0300F803F803007F00E00F8000D9
:100240000000FB0300F803F803007F00E01F00003C
:100250000000FB0700F803F803007F00E07F0000C8
:100260000080F10700F803F801007F00C0FF0100E3
:100270000080F10F00F803FC01007F00C0FF0700C1
:100280000080F00F00F803FE00007F0080FF0F00E9
:1002900000C0E00F00F8037F00007F0000FF3F0078
:1002A00000C0E01F00F8FF1F00007F0000FE7F007D
:1002B0000060C01F00F8FF0F00007F0000FCFF007F
:1002C0000060C03F00F8F31F00007F0000F0FF0156
:1002D0000030803F00F8E31F00007F0000C0FF01F6
:1002E00000F0FF3F00F8C33F00007F000000FF0365
:1002F00000F8FF7F00F8C37F00007F000000FC03D0
:100300000018007F00F8837F00007F002000F803C2
:10031000001800FF00F803FF00007F002000F0033A
:10032000000C00FE00F803FF01007F006000E00306
:10033000000C00FE01F803FE01007F006000E003F6
:10034000000600FE01F803FC03007F00E000E0016E
:10035000000600FC01F803FC07007F00E001E0015B
:10036000000700FC03F803F807007F00E003F0003B
:10037000000700FC03F803F00F007F00E007F00027
:10038000800F00FC07FC07F01F80FF00E01F7C00CF
:10039000E07F80FF9FFF3FE07FF0FF0760FC1F00D2
:1003A00000000000000000000000000020F0070036
:1003B000000000000000000000000000000000003D
:1003C000000000000000000000000000000000002D
:1003D000000000000000000000000000000000001D
:1003E000F08173E0C1033CF0810F7870077E8003D9
:1003F000600333C080011860031B3060024CC002F0
:10040000600333C080011860031B30E0022CC00081
:10041000E0013FC0800118E0010F30A0023C8001E4
:10042000600033C080011860000330A0032C00037B
:10043000600033C08009186000033020034C400383
:10044000F08073E0C10F3CF080077870037EC0013C
:10045000000000000000000000000000000000009C
:10046000000000000000000000000000000000008C
:10047000000000000000000000000000000000007C
:10048000000000000000000000000000000000006C
:10049000C005CF8107C0837F00F00778C005F80052
:1004A000600686000380814C00600C3060068C0181
:1004B000600486000380010C00600C3060040603B9
:1004C000E00086000380010C00600C30E0000603B1
:1004D000C00186000380010C00600C30C0010603DF
:1004E000800386000380010C00E0073080030603D0
:1004F000000786004380010C0060003000070603FF
:10050000200686004380010C0060003020060603B0
:10051000600686006380010C0060003060068C017C
:10052000A0037C807FC0031E00F00078A003F800C9
:1005300000000000000000000000000000000000BB
:1005400000000000000000000000000000000000AB
:10055000000000000000000000000000000000009B
:10056000600003020304030404060B00FE07FE08F8
:10057000FF013E028103AA200500A203210739A33F
:1005800063500222079BB623B104230B2DAAA73286
:10059000289541A900240E4D9E2B5B2A4AB6254A78
:1005A000658B00250E3DA26750125312294A222561
:1005B00000260C3DA247AAD42A891429012705192F
:1005C000B7632808CB9E2B29752B2909CB9E232B9B
:1005D0007529012A0A2DAAAB52599A22002B0A2DFD
:1005E000A62B8C06298C002C08A29A634814002D97
:1005F000058BAE632E0612A363082F0C559AB31613
:10060000666116666108300C3DA267C9A42599B4DD
:10061000640131093DA22B1A3B0D02320A3DA2674B
:10062000C9C2AC6D10330B3DA267C9C248D5920553
:10063000340C3DA22F9392523268D900350B3DA263
:10064000E338A4A1962C00360C3DA267098724B399
:10065000250B00370A3DA263106BC51200380C3D14
:10066000A267C9B464C9B46401390C3DA267C96CFE
:10067000C910260B003A082AA3638886003B09BAF2
:100680009A63888644013C07BCA22F6A6C3D081D12
:10069000AA635007013E08BCA2236C6A033F0B3DCE
:1006A000A267C9C2AC0E4500400D3DA267C99421A6
:1006B0004994211D02410C3DA22B4BA2A4360C995A
:1006C00016420D3DA26348326D50326D5000430A10
:1006D0003DA267C9C4B66401440A3DA26348326FB3
:1006E0008302450B3DA2E3180E49180E02460A3D4F
:1006F000A2E3180E495804470B3DA267C9C468D34A
:100700009205480A3DA223B30D43660B490A3DA258
:100710006390C24E83004A093DA2B351D392054B68
:100720000C3DA2239392929644952C4C083DA22313
:10073000EC71104D0C3DA2235B964449345B004E96
:100740000B3DA2239B9444DA6C014F0A3DA267C97A
:10075000BC250B00500C3DA26348326D50C22200F4
:10076000510A459E67C9BC54D600520C3DA263484D
:10077000326D50325B00530B3DA267C9D4554B1606
:100780000054093DA26390C29E0055093DA223F387
:100790002D5900560C3DA223B325A5240B23005749
:1007A0000A3DA223734994E416580B3DA223D39229
:1007B0005AA5A605590A3DA223B325B5B0045A0A85
:1007C0003DA26310B38E83005B084A9F63E98B00F0
:1007D0005C0CD59A234CC3344CC3340C5D08CA9EC0
:1007E00043E9CB005E081DB22B4B6A015F060E9AEF
:1007F000E300600692BA230A61092DA267D04C8AF1
:1008000012620C3DA2230C8724B30D0A0063092D4C
:10081000A267C9C47408640A3DA2B33268B664080A
:10082000650A2DA267C986211D026609BCA24B89F3
:10083000A6AC09670C3D9A67D06CC910260B0068FE
:100840000A3DA2230C8724730B6908BBA227945A84
:10085000066A094B9A2B943A2D006B0B3DA2232C70
:1008600025A5A992056C07BBA243EA656D0C2DA2D4
:1008700063482A4AA2244A016E092DA2233169B68F
:10088000006F092DA267C96CC902700C3D9A6348BC
:1008900032DBA0842100710A3D9A67D06CC9101622
:1008A00072092DA2233189450073092DA267500FCB
:1008B0000A007409BCA2278BA6AC2875092DA223B7
:1008C00073529400760B2DA223D392529245007757
:1008D0000C2DA22349944449942E00780A2DA2237A
:1008E0004B6A955A00790B3D9A23734B8630590019
:1008F0007A092DA263D0DA06017B0ADB9A2B895A8A
:10090000B2A82D7C06499FE3017D0BDB9A238BDA8D
:1009100092A825027E0615AEC7057F0500A203003A
:10092000000004FFFF000000000000230026002953
:100930000000000000250028002B0004040404042B
:10094000040404020202020202030303030303017C
:100950000204081020408001020408102001020453
:10096000081020004D2C302C11241FBECFEFD8E0F2
:10097000DEBFCDBF25E0A4EDB1E001C01D92A73ED2
:10098000B207E1F711E0A0E0B1E0E6EAFAE602C062
:1009900005900D92A43DB107D9F714E0C3EBD4E064
:1009A00004C02197FE010E945C30C23BD107C9F709
:1009B0000E94DB290C9446350C9400004F925F9204
:1009C0006F927F928F929F92AF92BF92CF92DF925F
:1009D000EF92FF920F931F93CF93DF93CDB7DEB7C4
:1009E000C454D1090FB6F894DEBF0FBECDBF80E06E
:1009F00090E00E944B293C01772443018FEF881A35
:100A0000980AC4010E944B297C01FF245701EFEF93
:100A1000AE1ABE0AC5010E944B298C01112768013C
:100A2000FFEFCF1ADF0AC6010E944B292C01A30158
:100A300060E070E0CE0101960E946A29CE01019625
:100A40000E94E52860931604CE0101960E943E0D97
:100A5000A701B401CE0101960E946A29CE01019638
:100A60000E94E52860931704CE0101960E943E0D76
:100A7000A801B501CE0101960E946A29CE01019616
:100A80000E94E528609318047093190480931A0457
:100A900090931B04CE0101960E943E0D5524A201A5
:100AA000B601CE0101960E946A29CE0101960E94EC
:100AB000E52860931C0470931D0480931E0490939A
:100AC0001F04CE0101960E943E0D409114045091E6
:100AD0001504B2016F5F7F4FCE0101960E946A2913
:100AE000CE0101960E94E52860932004CE01019674
:100AF0000E943E0DE09116048E2F90E0FC0131978C
:100B0000E333F10508F034C4EC5CFF4F0C945C3027
:100B100080911704813071F40E94251F609318049E
:100B20007093190480931A0490931B0431C084308D
:100B300009F476C080912A0490E0A0E0B0E08093B0
:100B4000180490931904A0931A04B0931B04809383
:100B50001C0490931D04A0931E04B0931F0484E30F
:100B60001FC480911704813029F7BE016F5F7F4F4A
:100B700088E090E00E94851089819A81AB81BC81D8
:100B80008093180490931904A0931A04B0931B0443
:100B900080912A0490E0A0E0B0E0E0C380911704C7
:100BA000813031F4BE016F5F7F4F8CE090E0E2CF87
:100BB000823009F0BFCF8091180490911904A09160
:100BC0001A04B0911B0425968CAF9DAFAEAFBFAF9A
:100BD0002597BE016F5B7F4F8CE090E076C38091DC
:100BE0001704813031F4BE016F5F7F4F80E190E0E8
:100BF000C1CF823009F09BCF8091180490911904E5
:100C0000A0911A04B0911B0421968CAF9DAFAEAF9A
:100C1000BFAF2197BE01635C7F4F80E190E055C379
:100C2000C0901804D0901904E0901A04F0901B04AE
:100C3000BE016F5F7F4F80E190E00E948510498187
:100C40005A816B817C8181E090E0A0E0B0E0C41625
:100C5000D506E606F70609F093CF80E090E0DC01C8
:100C60008FCF80911704813031F4BE016F5F7F4FC9
:100C700084E190E07FCF823009F05CCF809118044E
:100C800090911904A0911A04B0911B0489AF9AAFF6
:100C9000ABAFBCAFBE01675C7F4F84E190E015C392
:100CA00080911704813031F4BE016F5F7F4F88E17E
:100CB00090E060CF823009F03DCF80911804909190
:100CC0001904A0911A04B0911B048DAB9EABAFAB7D
:100CD000B8AFBE016B5C7F4F88E190E0F6C28091B7
:100CE0001704813031F4BE016F5F7F4F8CE190E0DB
:100CF00041CF823009F01ECF8091180490911904E1
:100D0000A0911A04B0911B0489AB9AABABABBCABFE
:100D1000BE016F5C7F4F8CE190E0D7C280911704D9
:100D2000813031F4BE016F5F7F4F80E290E022CFCF
:100D3000823009F0FFCE8091180490911904A0919F
:100D40001A04B0911B048DA79EA7AFA7B8ABBE0134
:100D5000635D7F4F80E290E0B8C2809117048130DC
:100D600009F0E8CEBE016F5F7F4F80E390E00E9404
:100D7000851089819A81AB81BC81809318049093FE
:100D80001904A0931A04B0931B04BE016F5F7F4F38
:100D900084E590E073C180911704813009F0CACED8
:100DA000BE016F5F7F4F84E390E00E9485108981D0
:100DB0009A81AB81BC818093180490931904A0930D
:100DC0001A04B0931B04BE016F5F7F4F88E590E06B
:100DD00055C180911704813009F0ACCEBE016F5F20
:100DE0007F4F88E390E00E94851089819A81AB81D2
:100DF000BC818093180490931904A0931A04B093B3
:100E00001B04BE016F5F7F4F8CE590E037C180917E
:100E100017048130C9F4BE016F5F7F4F8CE390E00F
:100E20000E94851089819A81AB81BC8180931804CE
:100E300090931904A0931A04B0931B04BE016F5F32
:100E40007F4F80E690E01AC1833009F073CE809026
:100E50001C0490901D04A0901E04B0901F048114E7
:100E60009104A104B10409F4CEC0BE01695F7F4FB3
:100E70008CE390E00E94851075016401EE24FF244C
:100E80008F819885A985BA858C0D9D1DAE1DBF1DCE
:100E90008F839887A987BA87BE01695F7F4F8CE3EC
:100EA00090E00E94AB10BE01695F7F4F80E690E04A
:100EB0000E9485108F819885A985BA85C80ED91E94
:100EC000EA1EFB1ECF82D886E986FA86BE01695FDC
:100ED0007F4F80E690E00E94AB10BE016F5F7F4FB6
:100EE00088E390E00E94851089819A81AB81BC8162
:100EF0000196A11DB11D89839A83AB83BC83BE017A
:100F00006F5F7F4F88E390E00E94AB10BE016F5F80
:100F10007F4F8CE590E00E94851089819A81AB819A
:100F2000BC810196A11DB11D89839A83AB83BC83CB
:100F3000BE016F5F7F4F8CE590E00E94AB10BE0159
:100F40006F5F7F4F84E190E00E94851089819A81D4
:100F5000AB81BC81889EB001899E700D989E700DFA
:100F600011248BE294E00E94D610C0901C04D09013
:100F70001D04E0901E04F0901F04BE016F5F7F4FC0
:100F800084E190E00E94851069817A818B819C8147
:100F9000A70196010E94F72F6B017C012091180494
:100FA000309119044FE0429FC001439F900D1124DE
:100FB00000910E0410910F04080F191FF801868587
:100FC000882349F084819581A681B7818C0D9D1D70
:100FD000AE1DBF1D10C00E94251FF80160837183E4
:100FE000828393830E94251FDC01CB018C0D9D1D04
:100FF000AE1DBF1DF80184839583A683B78381E06E
:10100000F80186877EC120911804309119044FE0C1
:10101000429FC001439F900D1124E0910E04F09176
:101020000F04E80FF91F10861186128613861082AE
:1010300011821282138214821582168217821686FA
:1010400060C180911704813009F074CDBE016F5FDB
:101050007F4F80E490E00E94851089819A81AB8166
:10106000BC818093180490931904A0931A04B09340
:101070001B04BE016F5F7F4F84E690E00E948510E5
:1010800089819A81AB81BC8169C1809117048130CB
:1010900009F050CDBE016F5F7F4F84E490E00E9465
:1010A000851089819A81AB81BC81809318049093CB
:1010B0001904A0931A04B0931B04BE016F5F7F4F05
:1010C00088E690E0DBCF80911704813009F032CDC3
:1010D0008AE080932004BE016F5F7F4F8CE490E034
:1010E0000E94851089819A81AB81BC81809318040C
:1010F00090931904A0931A04B0931B04BE016F5F70
:101100007F4F80E790E00E94851089819A81AB81B2
:10111000BC8180931C0490931D04A0931E04B09383
:101120001F0440C180911704813009F003CDBE0136
:101130006F5F7F4F80E590E00E94851089819A81E2
:10114000AB81BC818093180490931904A0931A0476
:10115000B0931B04BE016F5F7F4F84E790E08ECF9A
:1011600080911704813009F0E5CCBE016F5F7F4F9D
:1011700088E490E00E94851089819A81AB81BC81CE
:101180008093180490931904A0931A04B0931B043D
:10119000BE016F5F7F4F8CE690E070CF80911704A7
:1011A000813031F4BE016F5F7F4F84E290E0E2CC8A
:1011B000833009F0BFCC8091180490911904A0915C
:1011C0001A04B0911B0489A79AA7ABA7BCA767E331
:1011D00074E080E390E00E94AB1067E374E084E386
:1011E00090E00E94AB1067E374E088E390E00E9417
:1011F000AB1067E374E08CE390E00E94AB1067E310
:1012000074E080E490E00E94AB1067E374E084E453
:1012100090E00E94AB1067E374E08CE490E00E94E1
:10122000AB1067E374E080E590E00E94AB1067E3E9
:1012300074E088E490E00E94AB10BE01675D7F4FD0
:1012400084E290E042C080911704813031F4BE0105
:101250006F5F7F4F88E290E08DCC833009F06ACCDD
:101260008091180490911904A0911A04B0911B0464
:101270008DA39EA3AFA3B8A767E374E08CE090E0D2
:101280000E94AB106BE274E080E190E00E94AB1032
:101290006FE274E084E190E00E94AB1067E374E0D9
:1012A00088E190E00E94AB1063E374E08CE190E091
:1012B0000E94AB106BE374E080E290E00E94AB1000
:1012C000BE016B5D7F4F88E290E00E94AB1019C0B9
:1012D00080911704813031F4BE016F5F7F4F8CE243
:1012E00090E048CC833009F025CC4091180450910F
:1012F000190460911A0470911B048BE294E00E941F
:10130000221180912A0490E0A0E0B0E080931804BC
:1013100090931904A0931A04B0931B041FC08091EA
:101320001704833009F006CCFFCF80911704813079
:1013300009F000CC20911804309119044FE0429F2D
:10134000C001439F900D1124E0910E04F0910F0411
:10135000E80FF91F80859185A285B38580931C04D1
:1013600090931D04A0931E04B0931F048AE018C03C
:1013700080912A048093170490E0A0E0B0E080936D
:10138000180490931904A0931A04B0931B0480933B
:101390001C0490931D04A0931E04B0931F0483E3C8
:1013A0008093200460912004CE014F960E948B28E8
:1013B00040911C0450911D0460911E0470911F0403
:1013C000CE0149960E94B828409118045091190402
:1013D00060911A0470911B04CE0143960E94B828B4
:1013E00060911704CE010D960E948B28609116041F
:1013F000CE0101960E948B2818861F821A861986B4
:101400001C861B8669817A816115710531F04D81D9
:101410005E81CE0107960E94060D61E274E0CE0166
:1014200007960E946417BE01635F7F4F0E94641796
:1014300061E274E00E946417BE016D5E7F4F0E94FE
:10144000641761E274E00E946417BE01675E7F4F1B
:101450000E94641761E274E00E946417BE01615E3D
:101460007F4F0E9464178C0141E050E064EA71E014
:101470000E94B30C882309F445C0F4E000311F0733
:1014800089F0F801608171816115710539F044813D
:10149000558180E194E00E94060D04C080E194E053
:1014A0000E94F40CCE0107960E943E0DCE010196DB
:1014B0000E943E0DCE010D960E943E0DCE01439638
:1014C0000E943E0DCE0149960E943E0DCE014F96E0
:1014D0000E943E0DCC5BDF4F0FB6F894DEBF0FBE0F
:1014E000CDBFDF91CF911F910F91FF90EF90DF90D3
:1014F000CF90BF90AF909F908F907F906F905F90B4
:101500004F900895C8010E94F40CB7CF0895CF9270
:10151000DF92EF92FF920F931F93CF93DF936C01B3
:101520007A018B01C0E0D0E0CE15DF0581F0D80153
:101530006D918D01D601ED91FC910190F081E02D2E
:10154000C6010995892B11F02196EECF7E01C701C6
:10155000DF91CF911F910F91FF90EF90DF90CF908F
:101560000895FC01538D448D252F30E0842F90E0A9
:10157000821B930B541710F0CF960895019708958E
:10158000FC01918D828D981761F0828DDF01A80F8B
:10159000B11D5D968C91928D9F5F9F73928F90E0AD
:1015A00008958FEF9FEF0895FC01918D828D98171C
:1015B00031F0828DE80FF11D858D90E008958FEF59
:1015C0009FEF0895FC01918D228D892F90E0805C22
:1015D0009F4F821B91098F739927089587EE92E0A0
:1015E0000E94E20A21E0892B09F420E0822F08956D
:1015F000FC01848DDF01A80FB11DA35ABF4F2C91B0
:10160000848D90E001968F739927848FA689B7897E
:101610002C93A089B1898C91837080648C93938D75
:10162000848D981306C00288F389E02D80818F7D18
:1016300080830895EF92FF920F931F93CF93DF93D0
:10164000EC0181E0888F9B8D8C8D981305C0E88913
:10165000F989808185FD26C0F62E0B8D10E00F5F85
:101660001F4F0F731127E02E8C8DE8120CC00FB6A0
:1016700007FCFACFE889F989808185FFF5CFCE0193
:101680000E94F80AF1CF8B8DFE01E80FF11DE35A9D
:10169000FF4FF0829FB7F8940B8FEA89FB89808116
:1016A00080620AC09FB7F894EE89FF896083E88959
:1016B000F98980818370806480839FBF81E090E09E
:1016C000DF91CF911F910F91FF90EF900895CF93ED
:1016D000DF93EC01888D8823C9F0EA89FB8980813A
:1016E00085FD05C0A889B9898C9186FD0FC00FB60C
:1016F00007FCF5CF808185FFF2CFA889B9898C914D
:1017000085FFEDCFCE010E94F80AE7CFDF91CF91A0
:1017100008950E94EE0A81110C949B1D089585ED99
:101720008093BC008091BC0084FDFCCF10926502C8
:10173000089540914102262F30E0240F311D2132BF
:101740003105DCF4209165022430C9F4FC0180E00D
:1017500090E0861758F4309141022191DC01AF5D91
:10176000BD4FA30FB11D2C930196F3CF8091410281
:10177000680F6093410280E0089581E0089582E05F
:10178000089508958FEF9FEF08958FEF9FEF0895CD
:101790008091200290E09195819591090895CF93D1
:1017A000DF93CB01EA01642F0E94990BCE01DF91F8
:1017B000CF910895CF93DF931F92CDB7DEB76983A2
:1017C00061E0CE0101960E94990B81E090E00F90BC
:1017D000DF91CF91089520918D0230918E022817CC
:1017E000390771F490918B0280918C02981741F027
:1017F000E0918B02F0E0E052FE4F808190E008958E
:101800008FEF9FEF08951F93CF93DF93DC015C96DA
:101810008D919C915D97009739F421E030E013960B
:101820003C932E9312973BC05196ED91FC915297A9
:1018300050962C915097322F30951FB75E964C9151
:101840005E97742F727041FD6095F8944081772304
:1018500011F0422B01C043234083EC012197F1F7A3
:1018600048E0508160FF02C0522B01C053235083D7
:10187000EC012197F1F76695415099F78081772324
:1018800019F08323808302C0282B20831FBF5C961E
:101890008D919C915D970197F1F781E090E0DF9148
:1018A000CF911F91089520918D0230918E022817BB
:1018B000390771F480918C0220918B0290E0805C5A
:1018C0009F4F821B910960E470E00E9407300895E9
:1018D00080E090E0089520918D0230918E022817CB
:1018E0003907B9F490918B0280918C02981789F096
:1018F000E0918B02F0E0E052FE4F808120918B025C
:1019000030E02F5F3F4F2F73332720938B0290E0FF
:1019100008958FEF9FEF08950F931F93CF93DF9359
:10192000EC0188819981009729F02A813B81261753
:10193000370788F48B016F5F7F4F0E9497310097C4
:1019400061F0998388831B830A832C813D81232B3B
:1019500011F4FC01108281E001C080E0DF91CF91A1
:101960001F910F910895EF92FF920F931F93CF93C2
:10197000DF936115710511F480E01CC0411551051C
:10198000C1F07B01EC018C819D818A01080F191F38
:10199000B801CE010E948C0C882371F32881398113
:1019A0008C819D81B701820F931F0E9472321D832B
:1019B0000C8381E0DF91CF911F910F91FF90EF9009
:1019C0000895CF93DF9300D0CDB7DEB769831A8235
:1019D00041E050E0BE016F5F7F4F0E94B30C0F905B
:1019E0000F90DF91CF910895CF93DF93EC01888121
:1019F0009981009711F00E940E31198218821D8280
:101A00001C821B821A82DF91CF910895EF92FF9280
:101A10000F931F93CF93DF93EC017B018A01BA01EF
:101A20000E948C0C811104C0CE010E94F40C07C0EE
:101A30001D830C83B701888199810E947232CE0187
:101A4000DF91CF911F910F91FF90EF900895CF9369
:101A5000DF93EC016115710559F0FB010190002045
:101A6000E9F73197AF01461B570B0E94060D02C0E4
:101A70000E94F40CCE01DF91CF910895FC0180818A
:101A800091810C940E31FC0111821082138212821A
:101A9000158214826115710551F0FB01019000203F
:101AA000E9F73197AF01461B570B0C94060D0895CB
:101AB0001F920F920FB60F9211242F933F934F93C3
:101AC0005F936F937F938F939F93AF93BF93EF93A6
:101AD000FF93E0910201F09103010995FF91EF91CD
:101AE000BF91AF919F918F917F916F915F914F9136
:101AF0003F912F910F900FBE0F901F9018951F923E
:101B00000F920FB60F9211242F933F934F935F9331
:101B10006F937F938F939F93AF93BF93EF93FF93B5
:101B2000E0910001F09101010995FF91EF91BF91C2
:101B3000AF919F918F917F916F915F914F913F9165
:101B40002F910F900FBE0F901F9018951F920F921C
:101B50000FB60F9211242F933F934F935F936F9380
:101B60007F938F939F93AF93BF93EF93FF93809156
:101B7000970290919802A0919902B0919A02892BB4
:101B80008A2B8B2B59F190919402E0919502F09160
:101B90009602808189278083809197029091980294
:101BA000A0919902B0919A02181619061A061B06FE
:101BB0000CF03DC08091970290919802A0919902FB
:101BC000B0919A020197A109B1098093970290936D
:101BD0009802A0939902B0939A0229C080910401BF
:101BE000EFE5F1E0E4919FEF90930401E130B9F06B
:101BF00098F0E230C9F4909170009D7F909370004E
:101C000091E09093B0009091B100987F9460909390
:101C1000B1001092B30008C010926E0005C0909100
:101C20006F009D7F90936F0060E00E94D613FF913C
:101C3000EF91BF91AF919F918F917F916F915F9144
:101C40004F913F912F910F900FBE0F901F901895BD
:101C5000DB0114964D915C9115976D917C91DC019F
:101C6000ED91FC910280F381E02D09941F920F9277
:101C70000FB60F9211242F933F934F935F936F935F
:101C80007F938F939F93AF93BF93EF93FF9387EED1
:101C900092E00E94F80AFF91EF91BF91AF919F915E
:101CA0008F917F916F915F914F913F912F910F9005
:101CB0000FBE0F901F9018951F920F920FB60F92A4
:101CC00011242F938F939F93EF93FF93E091F7024B
:101CD000F091F8028081E091FD02F091FE0282FD18
:101CE00012C09081809100038F5F8F732091010358
:101CF000821751F0E0910003F0E0E951FD4F958F1C
:101D00008093000301C08081FF91EF919F918F919B
:101D10002F910F900FBE0F901F9018951F920F924A
:101D20000FB60F9211242F933F934F935F936F93AE
:101D30007F938F939F93AF93BF93EF93FF93809184
:101D4000B900887F803609F49CC068F5883209F4B0
:101D50005BC090F4803109F454C038F4882309F44E
:101D6000F2C0883009F44DC0F2C0883109F44CC08B
:101D7000803209F45DC0EBC0803409F468C048F4D7
:101D8000803309F455C0883309F0E1C080936402C0
:101D9000D4C0803509F44FC0883509F45DC088345B
:101DA00009F0D5C0D2C0883909F4C3C0A8F4883777
:101DB00009F467C038F4883609F463C0803709F441
:101DC00060C0C5C0883809F4B4C0803909F45FC068
:101DD000803809F0BCC05BC0803B09F484C038F493
:101DE000803A09F466C0883A09F47DC0B0C0803CEE
:101DF00009F4A3C0883C09F4A0C0883B09F486C05C
:101E0000A6C080918A0210C09091890280918802B8
:101E1000981770F5E091890281E08E0F8093890216
:101E2000F0E0E859FD4F80818093BB0085EC82C0D3
:101E3000809364028AC0E091890281E08E0F8093D2
:101E400089028091BB00F0E0E859FD4F80839091BA
:101E50008902809188026AC0E091890281E08E0F38
:101E6000809389028091BB00F0E0E859FD4F8083A8
:101E700080916702811169C081E08093660284EAE3
:101E80005DC083E08093650210926302CFCF8091A2
:101E90006302803208F04DC0E091630281E08E0F52
:101EA000809363028091BB00F0E0ED5BFD4F808387
:101EB000BDCF85EC8093BC001092650280916302D7
:101EC000803230F4E0916302F0E0ED5BFD4F108270
:101ED0006091630270E083E492E0E0E0F0E0099555
:101EE0001092630234C084E0809365021092420233
:101EF00010924102E0E0F0E00995809141028111E9
:101F000005C081E08093410210922102E0914202DB
:101F100081E08E0F80934202F0E0EF5DFD4F808103
:101F20008093BB009091420280914102981708F47F
:101F30007DCF85E88093BC000AC085EC8093BC000F
:101F40001092650204C0109264020E948F0BFF91F0
:101F5000EF91BF91AF919F918F917F916F915F9121
:101F60004F913F912F910F900FBE0F901F9018959A
:101F7000E7E3F1E06591749184ED91E00E94282FF0
:101F800084ED91E00895E3E3F1E06591749184EDCF
:101F900091E00E94282F84ED91E00895EFE2F1E0B6
:101FA0006591749184ED91E00E94282F84ED91E079
:101FB0000895EBE2F1E06591749184ED91E00E9467
:101FC000282F84ED91E00895CF93DF93EC018C816D
:101FD0000E94AD132E8130E041E02817390709F047
:101FE00040E0842FDF91CF9108951F920F920FB69A
:101FF0000F9211242F933F934F935F936F937F938F
:102000008F939F93AF93BF93EF93FF93E0918D02D4
:10201000F0918E02309709F451C0968DA685B78550
:10202000858591FF04C09C91892329F447C09C9128
:10203000892309F043C0A389B4899C91858980953F
:1020400089238C93868997890197F1F7608D718D2B
:10205000A685B785558538E020E0CB010197F1F7DB
:10206000822F90E095958795282F4C91452309F074
:102070002068315091F7868D81FD209580918C02EA
:1020800090E001968F73992730918B02381749F0B1
:10209000A0918C02B0E0A052BE4F2C9380938C0292
:1020A00003C0868D8160868F828D938D0197F1F7B5
:1020B000A389B4899C918589892B8C93FF91EF9199
:1020C000BF91AF919F918F917F916F915F914F9150
:1020D0003F912F910F900FBE0F901F901895E09198
:1020E0008D02F0918E02E817F90769F4A389B4898B
:1020F0009C918589809589238C9310928E021092F1
:102100008D0281E0089580E00895CF92DF92EF92F2
:10211000FF920F931F93CF93DF93EB017B0124E09A
:10212000E20EF11C8B016C01C61AD70AC601800FA2
:10213000911F0E94902FF80181938F01EE15FF05EA
:10214000A9F7CE01DF91CF911F910F91FF90EF90F2
:10215000DF90CF900895AF92BF92DF92EF92FF92FF
:102160000F931F93CF93DF93EC017B018B015C01F5
:1021700084E0A80EB11CF801D1908F01CE010E941D
:10218000902FD81621F06D2DCE010E94982F219608
:10219000CA15DB0581F7C701DF91CF911F910F9120
:1021A000FF90EF90DF90BF90AF900895CF92DF92B5
:1021B000EF92FF92CF93DF9300D000D0CDB7DEB780
:1021C0006B01BE016F5F7F4F8CE490E00E94851031
:1021D000E12CF12C89819A81AB81BC818C0D9D1DF4
:1021E000AE1DBF1D89839A83AB83BC83BE016F5F25
:1021F0007F4F8CE490E00E94AB10BE016F5F7F4F79
:1022000080E790E00E94851089819A81AB81BC8132
:10221000C80ED91EEA1EFB1EC982DA82EB82FC823E
:10222000BE016F5F7F4F80E790E00E94AB100F9080
:102230000F900F900F90DF91CF91FF90EF90DF9074
:10224000CF900895EF92FF920F931F93CF93DF9358
:1022500000D000D0CDB7DEB77C0149835A836B83B1
:102260007C838C01045F1F4FB8018CE090E00E94DA
:10227000AB10B70180E190E00E94AB10B7016C5F3A
:102280007F4F84E190E00E94AB10B80188E190E0BC
:102290000E94AB10B701685F7F4F8CE190E00E9415
:1022A000AB10B701605F7F4F80E290E00E94AB10FF
:1022B000B80180E390E00E94AB10B80184E390E0A5
:1022C0000E94AB10B80188E390E00E94AB10B80107
:1022D0008CE390E00E94AB10B80180E490E00E9493
:1022E000AB10B80184E490E00E94AB10B8018CE41C
:1022F00090E00E94AB10B80180E590E00E94AB1026
:10230000B80188E490E00E94AB10B80184E590E049
:102310000E94AB10B80188E590E00E94AB10B801B4
:102320008CE590E00E94AB10B80180E690E00E943E
:10233000AB10B80184E690E00E94AB10B80188E6CB
:1023400090E00E94AB10B80180E790E00E94AB10D3
:10235000B80184E790E00E94AB10B8018CE690E0F1
:102360000E94AB10BE016F5F7F4F84E290E00E943D
:10237000AB10BE016F5F7F4F88E290E00E94AB1010
:10238000BE016F5F7F4F8CE290E00E94AB100F9018
:102390000F900F900F90DF91CF911F910F91FF90B1
:1023A000EF9008950F931F93CF93DF93EC010E945A
:1023B000391F0C811D812E813F81DC01CB01801BE7
:1023C000910BA20BB30B088519852A853B858017D5
:1023D0009107A207B307D8F0CE010E94391F6C8382
:1023E0007D838E839F838981882389F09A819923B5
:1023F00071F09F3F29F08B81891748F48F5F8B83A1
:10240000EC85FD85DF91CF911F910F910994DF91AC
:10241000CF911F910F910895CF93DF93EC016CAF93
:10242000EFA9F8AD0190F081E02D0995EFA9F8AD85
:102430000280F381E02DCE01DF91CF910994AF921C
:10244000BF92CF92DF92EF92FF920F931F93CF93A1
:10245000DF9300D000D01F92CDB7DEB78C01DC0136
:10246000DB96AC90DB97DC96EC90DC97ED91FC91E1
:10247000B188FE2CC12CD12CD801ED91FC91119783
:102480008089D9964D915C91DA971C82FD828B836D
:10249000B8E08B9FC00111248C9D90018D9D300D63
:1024A0009C9D300D1124CA01820F931F9A8389834A
:1024B000D8011496ED91FC9115979E012F5F3F4F27
:1024C00041E06FE0C8010995F3948F2D8E198A15AC
:1024D00028F4BFEFCB1ADB0AFB1470F20F900F90B9
:1024E0000F900F900F90DF91CF911F910F91FF9060
:1024F000EF90DF90CF90BF90AF9008958230F8F4C6
:10250000E82FF0E0EE0FFF1FE050FF4F20E939E128
:1025100031832083813041F0809169008C7F682B6A
:1025200060936900E89A089580916900837F660F3F
:10253000771F660F771F682B60936900E99A0895EB
:10254000833081F028F4813099F08230A1F0089531
:102550008730A9F08830B9F08430D1F480918000C0
:102560008F7D03C0809180008F77809380000895D5
:1025700084B58F7702C084B58F7D84BD0895809126
:10258000B0008F7703C08091B0008F7D8093B00042
:102590000895FC01A081B18150969C9143AD949F18
:1025A000A001112483E0440F551F8A95E1F760E0F4
:1025B00070E081AD92AD0C946B32009769F0FC0134
:1025C00001900020E9F73197AF01481B590BBC017E
:1025D00083ED94E00C947E2380E090E008950E94C7
:1025E0005D321F93CF93DF93EC010E941F121CAD4D
:1025F0008BAD180FE881F9818189181750F0EC81B3
:10260000FD8120E030E040E060E1CE01099580E00E
:102610000EC0FE01E558FF4F8081882319F0CE01DE
:102620000E94C912612FCE010E940C1281E0DF913D
:10263000CF911F910895CF93DF93EC01FC01E558F2
:10264000FF4F8081882319F0CE010E94C91260E0FB
:10265000CE01DF91CF910C940C12FF920F931F9338
:10266000CF93DF93C82FD62F1092F0048A01F12C5C
:10267000F80161918F01E091D904F091DA0487EDBE
:1026800094E009958F3FFFEF9F07E9F08E3F2FEF12
:10269000920771F39C014D2F6C2F87ED94E00E94FF
:1026A000F12190913305913049F030F0923041F0B2
:1026B000933039F4D81B05C0C80F03C0D80F01C030
:1026C000C81BF80ED5CF8F2DDF91CF911F910F91A1
:1026D000FF9008950C94DD128F929F92AF92BF925B
:1026E0000F931F93CF93DF93CDB7DEB7A1970FB6AC
:1026F000F894DEBF0FBECDBF19A2423008F44AE005
:102700008E010F5D1F4F842E912CA12CB12CA501A1
:1027100094010E941B30E62FB901CA010150110932
:10272000EA3014F4E05D01C0E95CD801EC93232B9E
:10273000242B252B61F7C8010E94DD12A1960FB64C
:10274000F894DEBF0FBECDBFDF91CF911F910F91E7
:10275000BF90AF909F908F900895CF93DF93282FD5
:1027600030E0F901E55BFE4F8491F901E15BF64F42
:10277000D491F901E55CF64FC491CC2391F081111D
:102780000E94A012EC2FF0E0EE0FFF1FE95DF64F64
:10279000A591B491EC91ED2381E090E021F480E0EB
:1027A00002C080E090E0DF91CF9108951F93CF9316
:1027B000DF93282F30E0F901E55BFE4F8491F901AA
:1027C000E15BF64FD491F901E55CF64FC491CC235F
:1027D000C1F0162F81110E94A012EC2FF0E0EE0F35
:1027E000FF1FEF5CF64FA591B4919FB7F8941111BC
:1027F00004C08C91D095D82302C0EC91DE2BDC93E1
:102800009FBFDF91CF911F910895CF93DF9390E009
:10281000FC01E15BF64F2491FC01E55CF64F8491ED
:10282000882361F190E0880F991FFC01EF5BFE4F58
:10283000C591D491FC01EF5CF64FA591B491611163
:1028400009C09FB7F8948881209582238883EC91F2
:102850002E230BC0623061F49FB7F8948881322F29
:10286000309583238883EC912E2B2C939FBF06C039
:102870008FB7F894E8812E2B28838FBFDF91CF91FB
:1028800008952F923F924F925F926F927F928F9214
:102890009F92AF92BF92CF92DF92EF92FF920F93EF
:1028A0001F93CF93DF9300D000D01F92CDB7DEB738
:1028B00020905D0430905E04C101A0E0B0E0898307
:1028C0009A83AB83BC8300915B0410915C0480917C
:1028D0005A0490910401891721F09F3F09F033C2F7
:1028E00005C0EFE5F1E094919D837CC080930401E5
:1028F000EFE5F1E0A491AD83AF3F09F424C2A1302C
:1029000009F449C058F1A23009F06CC01092B0002F
:102910001092B1009091B00092609093B0009091AD
:10292000B10091609093B100282F30E0F901E55C8F
:10293000F64FE491F0E0EE0FFF1FEF5CF64F45918C
:1029400054915093960240939502F901E15BF64F42
:10295000E491E093940222E02D83F1C114BC15BCF4
:1029600094B5926094BD95B5916095BD282F30E0E7
:10297000F901E55CF64FE491F0E0EE0FFF1FEF5C2C
:10298000F64F45915491F901E15BF64FE491E093E4
:10299000A1021D82D4C110928000109281009091FA
:1029A0008100986090938100909181009160909354
:1029B0008100282F30E0F901E55CF64FE491F0E06A
:1029C000EE0FFF1FEF5CF64F45915491F901E15B6B
:1029D000F64FE491E093A00261E00E940514B1E09B
:1029E000BD83B4C09D8197FDAEC161E00E94051416
:1029F0008D818D7F09F0AAC04801A12CB12C60E027
:102A000072E18AE790E0A50194010E943D3029011E
:102A10003A0169017A01A1E0CA1AD108E108F10876
:102A2000BFEFCB16D104E104F10409F008F44DC066
:102A300060E472E48FE090E0A50194010E943D30D3
:102A400069017A0181E0C81AD108E108F1089D8185
:102A5000923001F5AFEFCA16D104E104F10409F098
:102A600008F405C160E970ED83E090E0A5019401F0
:102A70000E943D3069017A01B1E0CB1AD108E1082A
:102A8000F1082FEFC216D104E104F10409F040F57A
:102A900083E055C08FEFC816D104E104F104B9F00A
:102AA000B0F068E478EE81E090E0A50194010E9426
:102AB0003D3069017A0191E0C91AD108E108F108B5
:102AC000AD81AA2309F4D5C031C181E001C082E003
:102AD0009D81911134C095B5987F892B85BD75C0B6
:102AE00068E478EE81E090E0A50194010E943D3019
:102AF00069017A01A1E0CA1AD108E108F108BFEF23
:102B0000CB16D104E104F10409F008F4AEC064E28C
:102B100074EF80E090E0A50194010E943D306901CE
:102B20007A01B1E0CB1AD108E108F1082FEFC21603
:102B3000D104E104F10411F008F0CEC085E09091D9
:102B4000B100987F892B8093B1003FC04801A12C30
:102B5000B12C60E072E18AE790E0A50194010E9447
:102B60003D3069017A01A1E0CA1AD108E108F108F3
:102B7000C114D104B1E0EB06F10488F068E478EE0A
:102B800081E090E0A50194010E943D3069017A0145
:102B900081E0C81AD108E108F10883E001C081E0B2
:102BA0009D81913091F490918100987F892B809341
:102BB000810089819A81AB81BC81892B8A2B8B2BE7
:102BC00061F42FEF3FEFA9012EC089819A81AB817B
:102BD000BC81892B8A2B8B2B69F0D801AA0FBB1FD4
:102BE00091010E94E82F28EE33E040E050E00E947F
:102BF0001B3003C02FEF3FEFA9019D81913099F069
:102C0000923019F191119FC0C7BC2093A602309356
:102C1000A7024093A8025093A90280916E0082609F
:102C200080936E0090C0D0928900C092880020935B
:102C3000A2023093A3024093A4025093A502809174
:102C40006F00826080936F007EC0C092B3002093BB
:102C50009702309398024093990250939A02809180
:102C600070008260809370006EC084E068CF82E064
:102C700066CFBFEFCB16D104E104F10459F150F156
:102C800062E17AE780E090E0A50194010E943D3086
:102C900069017A0191E0C91AD108E108F108AFEFA2
:102CA000CA16D104E104F10499F090F0D301C201F5
:102CB0003AE0B595A795979587953A95D1F76C0128
:102CC0007D0121E0C21AD108E108F10885E003CFB7
:102CD00084E001CF83E0FFCE62E17AE780E090E01C
:102CE000A50194010E943D3069017A0181E0C81A72
:102CF000D108E108F1088FEFC816D104E104F1040E
:102D000099F090F0D301C2012AE0B595A795979567
:102D100087952A95D1F76C017D0121E0C21AD1086F
:102D2000E108F10887E00BCF86E009CF9FEFC916D5
:102D3000D104E104F10409F078F684E0C9CE61E041
:102D40000E94051459CE0F900F900F900F900F9086
:102D5000DF91CF911F910F91FF90EF90DF90CF9077
:102D6000BF90AF909F908F907F906F905F904F90AB
:102D70003F902F9008953FB7F89480919C029091D6
:102D80009D02A0919E02B0919F0226B5A89B05C00E
:102D90002F3F19F00196A11DB11D3FBFBA2FA92FDA
:102DA000982F8827820F911DA11DB11DBC01CD0157
:102DB00042E0660F771F881F991F4A95D1F7089543
:102DC0008F929F92AF92BF92CF92DF92EF92FF923B
:102DD0006B017C010E94BB164B015C01C114D10444
:102DE000E104F104F1F00E94BB16DC01CB0188196B
:102DF0009909AA09BB09883E9340A105B10570F362
:102E000021E0C21AD108E108F10888EE880E83E0BB
:102E1000981EA11CB11CC114D104E104F10419F7DE
:102E2000DDCFFF90EF90DF90CF90BF90AF909F905D
:102E30008F9008951F920F920FB60F9211242F9327
:102E40003F938F939F93AF93BF9380919002909104
:102E50009102A0919202B091930230919B0223E0E3
:102E6000230F2D3720F40196A11DB11D05C026E8C2
:102E7000230F0296A11DB11D20939B028093900207
:102E800090939102A0939202B093930280919C023E
:102E900090919D02A0919E02B0919F020196A11D6A
:102EA000B11D80939C0290939D02A0939E02B093CB
:102EB0009F02BF91AF919F918F913F912F910F9062
:102EC0000FBE0F901F901895CF93DF93EC01FB017D
:102ED00044815581608171810E94B30C811103C0CE
:102EE000CE010E94F40CCE01DF91CF9108958F9214
:102EF0009F92AF92BF92CF92DF92EF92FF920F9389
:102F00001F93CF93DF938C016A017B01CBE8D3E061
:102F100084E1FE0111928A95E9F78CE3882E912CC9
:102F2000A12CB12CCB01BA01A50194010E941B3048
:102F30007F936F93CA01B901A50194010E941B30D0
:102F40007F936F93C701B60120E13EE040E050E07F
:102F50000E941B301F922F9386EA91E09F938F93DC
:102F6000DF93CF930E949332BE01C8010E94430DAC
:102F7000EDB7FEB73A960FB6F894FEBF0FBEEDBFA1
:102F8000C801DF91CF911F910F91FF90EF90DF90DB
:102F9000CF90BF90AF909F908F900895CF93DF9385
:102FA000EC01EBE8F3E084E1DF011D928A95E9F79B
:102FB0007F936F935F934F9385EB91E09F938F93F4
:102FC000FF93EF930E9493326BE873E0CE010E946F
:102FD000430D8DB79EB708960FB6F8949EBF0FBEEF
:102FE0008DBFCE01DF91CF9108951F93CF93DF93D3
:102FF000EC01A881B981683109F493C030F46431DF
:1030000009F484C0673149F0E1C0693109F4CDC0E9
:10301000603209F0DBC06AE4D4C01C968C9180FD5C
:103020005EC0442309F4D0C0F90181919F01415051
:10303000DFB7F894A091B002B091B1029091AF02C5
:10304000E091AD02F091AE02C091AC027091AB0282
:1030500081110EC08C9198239C9388E090819C2BC9
:1030600090839081972390838150C1F7DFBFD9CFA0
:103070001091AA0258E06C9187FF02C0612B01C039
:1030800069236C9360816C2B6083880F6081672358
:103090006083515081F7EACFF90181919F0141503E
:1030A000DFB7F894A091B002B091B1029091AF0255
:1030B000E091AD02F091AE027091AC02C091AB0212
:1030C000811110C08C9198239C9388E090819C235F
:1030D00090839081972B90838150C1F7DFBF41117E
:1030E000DBCF72C01091AA0258E06C9187FF02C03A
:1030F000612B01C069236C9360816C236083880F0E
:103100006081672B6083515081F7E8CF11964C9115
:1031100069E40E94571FE881F9814485417060E4A9
:1031200050C04C9169E40E94571FA881B981EA857B
:10313000FB8520E030E012964C916CE2CE010995BF
:103140008F8D90E0FC01E55CF64FE491F0E0EE0F2E
:10315000FF1FEF5CF64F259134913093AE02209320
:10316000AD02FC01E15BF64FE491E093AC02E09527
:10317000E093AB0288A190E0FC01E55CF64FE4919E
:10318000F0E0EE0FFF1FEF5CF64F25913491309386
:10319000B1022093B002FC01E15BF64FE491E093B1
:1031A000AA02E095E093AF020FC0EA85FB8520E01C
:1031B00030E013964C916CE20995E881F9814181E8
:1031C00069E4CE010E94571F81E001C080E0DF91D9
:1031D000CF911F9108950F931F93CF93DF93EC012D
:1031E000862F642F8C3270F48A3208F05DC08832EA
:1031F00089F0893209F042C070E080E090E00E94DE
:10320000E01652C08D32D1F0C8F194EB980F923095
:1032100020F134C08E01015E1F4FD0E0F801819192
:103220008F018F3F39F0D03110F461E001C062E0CE
:103230000E940514DF5FD63189F736C0433018F09D
:1032400082E090E002C085E090E0880F991F880F2F
:10325000991F05970197F1F727C08F73C80FD11DEC
:10326000411107C061E08F8D0E94051460E08F8DD1
:1032700011C062E08F8D0E94051416C08034B0F03A
:10328000982F9F73FE01E90FF11D878D8F3F61F02D
:10329000903118F40E94D61307C00E94AD1321E0AC
:1032A000892B09F420E02A8F81E001C080E0DF91C2
:1032B000CF911F910F9108951F93CF93DF93C82F44
:1032C00010928F02D4E11FE0E0918F02E43020F5EC
:1032D000DE9FF0011124E156FC4F8481C81316C013
:1032E0000E944114E0918F021E9FF0011124E15AC7
:1032F000FB4F10861186128613861082118212826D
:1033000013821482158216821782168680918F028C
:103310008F5F80938F02D8CFDF91CF911F91089557
:103320000E94411410925904809159048A30B0F4DB
:10333000809157040E94AD132091580430E0821709
:103340009307C1F461E070E080E090E00E94E01635
:10335000809159048F5F80935904E6CF20915604E1
:103360008091540490915504820F911D90935504BF
:103370008093540408952F923F924F925F926F92E0
:103380007F928F929F92AF92BF92CF92DF92EF92F5
:10339000FF920F931F93CF93DF93CDB7DEB728979C
:1033A0000FB6F894DEBF0FBECDBFC82E10928F02AD
:1033B00084E1382E9FE0D92E26E0222E80918F02C4
:1033C000843008F0ABC190E0389EF001399EF00DDA
:1033D0001124E156FC4F2481C2129AC1D89EF001FB
:1033E000D99EF00D1124E15AFB4F8685882341F1C7
:1033F00000915404109155042801612C712CBE01D8
:103400006F5F7F4F84E190E00E94851069817A812F
:103410008B819C81A30192010E94F72F4B015C01DB
:10342000BE016F5F7F4F8CE090E00E948510898124
:103430009A81AB81BC81892B8A2B8B2BC9F09BC0D5
:103440008090540490905504A12CB12CBE016F5F64
:103450007F4F88E190E00E94851089819A81AB813D
:10346000BC8188169906AA06BB0608F451C1C0CFD4
:103470008091540490915504892B09F44FC1BE01E9
:103480006B5F7F4F84E390E00E9485108D819E8169
:10349000AF81B885840D951DA61DB71D8D839E83B4
:1034A000AF83B887BE016B5F7F4F84E390E00E94DB
:1034B000AB10BE016B5F7F4F88E590E00E948510E6
:1034C0008D819E81AF81B885840D951DA61DB71D88
:1034D0008D839E83AF83B887BE016B5F7F4F88E586
:1034E00090E00E94AB10BE016F5F7F4F80E390E0E1
:1034F0000E94851089819A81AB81BC810196A11DB2
:10350000B11D89839A83AB83BC83BE016F5F7F4FFC
:1035100080E390E00E94AB10BE016F5F7F4F84E5B7
:1035200090E00E94851089819A81AB81BC810196CF
:10353000A11DB11D89839A83AB83BC83BE016F5FDC
:103540007F4F84E590E00E94AB10BE016F5F7F4F1C
:1035500084E190E00E94851089819A81AB81BC81D1
:10356000089FB001099F700D189F700D112485E010
:1035700091E00E94D610BE016F5F7F4F8CE090E01B
:103580000E94851089819A81AB81BC810197A10538
:10359000B10509F07EC0BE016B5F7F4F84E490E00F
:1035A0000E9485108D819E81AF81B8850196A11DF5
:1035B000B11D8D839E83AF83B887BE016B5F7F4F44
:1035C00084E490E00E94AB10BE016B5F7F4F88E601
:1035D00090E00E9485108D819E81AF81B885019613
:1035E000A11DB11D8D839E83AF83B887BE016B5F24
:1035F0007F4F88E690E00E94AB10BE016F5F7F4F67
:1036000080E490E00E94851089819A81AB81BC8121
:103610000196A11DB11D89839A83AB83BC83BE0132
:103620006F5F7F4F80E490E00E94AB10BE016F5F40
:103630007F4F84E690E00E94851089819A81AB815A
:10364000BC810196A11DB11D89839A83AB83BC8384
:10365000BE016F5F7F4F84E690E00E94AB10BE0119
:103660006F5F7F4F84E190E00E94851069817A81CD
:103670008B819C8185E091E00E94D610BE016F5F36
:103680007F4F84E190E00E94851089809A80AB8012
:10369000BC800E944114289CC001299C900D1124DB
:1036A0000E943F28E0908F02F12CDE9C8001DF9C7D
:1036B000100D1124015A1B4FF8018685882349F00B
:1036C00084819581A681B781880E991EAA1EBB1E92
:1036D0000EC00E94251FF80160837183828393834B
:1036E0000E94251F860E971EA81EB91EF80184820F
:1036F0009582A682B782DE9CF001DF9CF00D11243A
:10370000E15AFB4F81E086871092550410925404D1
:1037100080918F028F5F80938F0250CE28960FB6D4
:10372000F894DEBF0FBECDBFDF91CF911F910F91F7
:10373000FF90EF90DF90CF90BF90AF909F908F90D1
:103740007F906F905F904F903F902F9008954F9291
:103750005F926F927F92BF92CF92DF92EF92FF9231
:103760000F931F93CF93DF9310928F0284E1D82E93
:103770009FE0C92EBB24B39480918F02843008F05F
:10378000D8C0E82EF12CDE9CE001DF9CD00D112486
:10379000C156DC4FCE010E94E40F9F81891709F4C6
:1037A00068C0CE010E94E40F882309F462C02FB7DD
:1037B000F8948091900290919102A0919202B09120
:1037C00093022FBF88879987AA87BB87CE010E9463
:1037D000E40FDE9CF001DF9CF00D1124E156FC4F5C
:1037E000878300918F0210E0C09EF001C19EF00D12
:1037F0001124E15AFB4F86856585811101C06B2537
:1038000084850E94D613C09EE001C19ED00D112474
:10381000C15ADB4F8E85882331F14C805D806E80EC
:103820007F800E94251F461A570A680A790A48862F
:1038300059866A867B860E94251F0C811D812E81F8
:103840003F81601771078207930768F01886198611
:103850001A861B86188219821A821B821C821D827C
:103860001E821F821E8680918F028F5F80938F023F
:1038700083CFCE010E94E40FDE9C8001DF9C100DFF
:10388000112401561C4FF8019781891709F49ECF26
:10389000CE010E94E40F811199CF2FB7F894809147
:1038A000900290919102A0919202B09193022FBF49
:1038B000F8014085518562857385841B950BA60BA5
:1038C000B70B4485558566857785481759076A077C
:1038D0007B0790F4F80140895189628973898417C4
:1038E0009507A607B70740F40190F081E02D3097C7
:1038F00009F46CCFD80119C0DE9C9001DF9C300D1B
:10390000112421563C4FF9014089518962897389FC
:10391000481759076A077B0708F058CF0280F381E0
:10392000E02D309709F452CFD90114968C91099566
:103930004DCFDF91CF911F910F91FF90EF90DF90CE
:10394000CF90BF907F906F905F904F9008952130FF
:1039500039F020F0223031F4861B0895860F089547
:10396000841B0895840F0895213039F020F022300F
:1039700031F4841B0895840F0895860F0895861BE3
:1039800008955F926F927F928F929F92AF92BF92B3
:10399000CF92DF92EF92FF920F931F93CF93DF931B
:1039A0005C01F62E642EEC01C05BDF4F1C81DD80D4
:1039B0004C018AE7880E911CEE80E11ACF2CEF149F
:1039C00008F4CE2C5B800C85202F4D2D612F8A8131
:1039D0000E94A71C782E202F4D2D612F852D0E942F
:1039E000B41C482F662011F08A8504C08985811196
:1039F00008C08B85F40180832C2D672DC5010E94A2
:103A00008221FE1420F0FE18D39410E0D5CF1F0DB4
:103A10001C83DD82DF91CF911F910F91FF90EF907A
:103A2000DF90CF90BF90AF909F908F907F906F90DE
:103A30005F900895DC0118964C911897ED91FC91D8
:103A40001197249130E0042E02C0359527950A94F1
:103A5000E2F7842F860F883010F4E22F0DC03196E4
:103A60001196FC93EE93E49198E0941B01C0EE0F45
:103A70009A95EAF7E22B885018968C9381E090E0B3
:103A800001C0880F6A95EAF781508E230895FC01E2
:103A9000E60FF11D849190E0982F88273196E491EC
:103AA0008E0F911D0895CF93DF9300D000D000D0EA
:103AB000CDB7DEB76BEB71E0CE0101960E94430DEE
:103AC00060E174E0CE0101960E946417BC0187EEAC
:103AD00092E00E94280ECE0101960E943E0D0E94A7
:103AE000DE046EEB71E0CE0101960E94430D60E1B1
:103AF00074E0CE0101960E946417BC0187EE92E04B
:103B00000E94280ECE0101960E943E0D60E174E0F5
:103B10008FEE93E00E94280E65EA71E080E194E068
:103B20000E94270D26960FB6F894DEBF0FBECDBFBC
:103B3000DF91CF9108951F93CF93DF9300D000D0F2
:103B400000D0CDB7DEB787EE92E00E94E20A892B63
:103B5000F1F187EE92E00E94C00A182F682F80E1F1
:103B600094E00E94E10C1A3091F56BEB71E0CE010C
:103B700001960E94430D60E174E0CE0101960E941F
:103B80006417BC0187EE92E00E94280ECE010196D8
:103B90000E943E0D0E94DE046EEB71E0CE010196A4
:103BA0000E94430D60E174E0CE0101960E9464170B
:103BB000BC0187EE92E00E94280ECE0101960E9481
:103BC0003E0D65EA71E080E194E00E94270D2696A3
:103BD0000FB6F894DEBF0FBECDBFDF91CF911F911E
:103BE000089580E00895DC011696ED91FC911797F9
:103BF00020E030E040E069E10994DC011696ED91A7
:103C0000FC91179720E030E040E068E109949A01C8
:103C1000DC011696ED91FC911797462F67E1099408
:103C2000462FDC011696ED91FC91179720E030E0CD
:103C300065E109949A01DC011896ED91FC911997C0
:103C4000462F67E10994CF93DF931F92CDB7DEB77C
:103C50006983AE014F5F5F4F61E00E941A1E0F90B3
:103C6000DF91CF910895FC016623D9F16A30C9F143
:103C7000818D811124C06C3F20F085E0818F6170BF
:103C80001AC0683F20F084E0818F637014C0603FE9
:103C900020F083E0818F67700EC0603E20F082E0EC
:103CA000818F6F7008C0603C20F081E0818F6F7160
:103CB00002C070E01BC070E0738B628B15C0815036
:103CC000818F2289338996E0220F331F9A95E1F77D
:103CD0006F73A901462BBA01738B628B811104C0EB
:103CE00005C06FEF7FEF02C06EEF7FEFCB0108954D
:103CF000662329F06A3019F0862F90E008958FEF3F
:103D00009FEF08950F93DC01DF963C91DF97431BF3
:103D1000D596ED91FC91D69709950F910895CF9383
:103D2000DF93FC01A081B18193AD892F880F880FAB
:103D3000880F86AF50968C915097803208F08FE1B3
:103D4000880F880F880F85AF24AD822F880F880FCA
:103D5000880F87AF51963C915197422F50E0490F01
:103D6000511D632F70E06417750714F4932F921B95
:103D7000EF01C05CDF4F8883219628E0929F800D81
:103D800011248883219680EF888354968D919C918D
:103D90005597813F910508F48883ED5BFF4F569658
:103DA0008C918083DF91CF9108950F93CF93DF9310
:103DB000DC01ED91FC915089362F3770E0E8F0E09E
:103DC00002C0F595E7953A95E2F73E2FA52FB0E0B2
:103DD000FC01C1ADD2AD669566956695E62FF0E023
:103DE000459FE00DF11D1124EC0FFD1FEC01C6589D
:103DF000DF4F01111DC08881823018F49081932B10
:103E000090838881813019F0908193279083369533
:103E100011F4319630E8215071F711C0888181305A
:103E200019F0908193279083EA0FFB1F215039F0FE
:103E30008881823098F79081932B9083EFCFDF9128
:103E4000CF910F91089580E008952FB7F894609175
:103E500090027091910280919202909193022FBFF3
:103E600028EE33E040E050E00E941B30CA01B90167
:103E70000895FC018081811102C00C94BB16813031
:103E800079F48FB7F894409190025091910260912B
:103E90009202709193028FBF342F252FCB0104C063
:103EA000823011F40C94251F632F722F0895DC01CA
:103EB0001A96ED91FC911B9720E030E00994CF9287
:103EC000DF92EF92FF920F931F93CF93DF93EC015A
:103ED000142F7901663131F1F8F4643109F47BC0B3
:103EE000653109F086C068EF0E94231E41E06CE254
:103EF000CE010E94571F612F607FCE010E94231EBA
:103F000041E06CE2CE010E94571F612F6295607FF5
:103F1000CE010E94231E58C0673199F06A3108F023
:103F200068C059C068EF0E94231E612F607FCE01D8
:103F30000E94231E612F6295607FCE010E94231E86
:103F400048C06AEF0E94231E41E06CE2CE010E944D
:103F5000571F6701012F083058F4812F86958695E9
:103F600086951770E8E08E9FE00CF11C11241AC0B2
:103F7000E2EBF2E0D6018D91982F907F90838295AD
:103F8000807F8183329682E0E23CF807A1F798E0D7
:103F9000C90ED11C085042EB52E060E1CE010E94F4
:103FA0001A1ED9CF112381F0F70101917F01602FF3
:103FB000607FCE010E94231E602F6295607FCE013C
:103FC0000E94231E1150EECF41E06CE2CE010E9410
:103FD000571F81E00FC0E885F9859701412FCE0179
:103FE000DF91CF911F910F91FF90EF90DF90CF90D5
:103FF000099480E0DF91CF911F910F91FF90EF9096
:10400000DF90CF900895EF92FF920F931F93CF937D
:10401000DF931F92CDB7DEB77C018B01D8016C9185
:104020006731E1F078F46531A0F1F801418149830D
:10403000D7011696ED91FC91179720E030E0C7016B
:10404000099524C06A31A8F06E3F19F5F801418145
:10405000498369E2C7010E94571F18C0F801818196
:104060008983AE014F5F5F4F61E0C7010E94071E69
:104070000DC00F5F1F4FD7011696ED91FC9117975A
:1040800020E030E040E0C7010995C8CF0E5F1F4F28
:10409000C5CF0F90DF91CF911F910F91FF90EF90BF
:1040A0000895AF92BF92CF92DF92EF92FF920F935B
:1040B0001F93CF93DF93EC01693031F484E491E0F6
:1040C000998388831C8A7FC079016B30E1F16F305E
:1040D00009F444C06A3009F078C0EA85FB8520E025
:1040E00030E040E068E20995EE81FF8120E030E0B9
:1040F00040E064E1CE01099541E06BE4CE010E940D
:10410000571FE881F981448169E2CE010E94571F5F
:1041100040E06BE4CE010E94571FE881F9814481A1
:1041200069E2CE010E94571F41E06BE4CE010E947C
:10413000571FE881F981458169E2CE010E94571F2E
:1041400061E371E007C0411103C06AE271E002C09F
:104150006FE171E0CE010E94032035C0F9010481B6
:10416000000F000F000F13811695003210F000525F
:10417000185FCE010E94FD1DF701A080B1806EE3A3
:10418000CE010E94101E6EE3CE010E94101ED12CA3
:1041900010686D2D600F6068CE010E94101E612FA7
:1041A000CE010E94101EF701C280A5016C2DCE0128
:1041B0000E94071EAC0CB11CD394F8E0DF12E9CFCB
:1041C000CE010E94F31D81E001C080E0DF91CF911C
:1041D0001F910F91FF90EF90DF90CF90BF90AF9025
:1041E00008950F93FC01EA5BFF4F308131965081B7
:1041F000451728F4301730F0041720F010C030179E
:10420000D8F30DC0FC01EC5BFF4F3081319680810B
:10421000681738F4321740F081E0261730F080E05C
:1042200004C03217C8F3FBCF81E00F9108952F929D
:104230003F924F925F926F927F928F929F92AF9236
:10424000BF92CF92DF92EF92FF920F931F93CF9383
:10425000DF93EC014C0184E4880E911CF401108280
:10426000329720805E01F5E4AF0EB11CF50120828B
:10427000359730806E01F6E4CF0ED11CF601308206
:10428000359740807E01F7E4EF0EF11CF701408284
:1042900034961081329760803196708032975080CA
:1042A000012F262D472D652DCE010E94F120CC58DF
:1042B000DF4F811102C0188212C081E0888355202F
:1042C00011F0F4015082621410F4F5016082371489
:1042D00010F4F6017082141510F4F7011083DF91C9
:1042E000CF911F910F91FF90EF90DF90CF90BF90F3
:1042F000AF909F908F907F906F905F904F903F9086
:104300002F9008950F93DC01802FFD01EC58FF4F93
:104310009081992309F463C0222309F460C02230FC
:1043200048F0023019F46F5F621B04C0033011F4CF
:104330004F5F421B082F0170FD0180FD25C0EA5B25
:10434000FF4F8081481708F44AC031968081481792
:1043500008F045C03297908131978081260F26174B
:1043600030F4691718F42FEF290F03C0682F69176D
:10437000B0F58217A0F5681708F4682F291708F41C
:10438000922F292F261B22C0EC5BFF4F80816817DC
:1043900030F131968081681710F53296908131970F
:1043A0008081240F241730F4491718F42FEF290FB8
:1043B00003C0482F491798F4821788F4481708F467
:1043C000482F291708F4922F292F241BD796ED91F7
:1043D000FC91D8970480F581E02DCD0109950F91CE
:1043E00008956F927F928F929F92AF92BF92CF92D9
:1043F000DF92EF92FF920F931F93CF93DF93EC0125
:10440000062F142F7901FC01E45AFF4F808181307F
:10441000C9F070F0823001F1833039F5FE01E25BC2
:10442000FF4F0190F081E02DCE010995080F1DC0CE
:10443000FE01E25BFF4F0190F081E02DCE01099576
:10444000180F13C0FE01E25BFF4F0190F081E02DD9
:10445000CE010995081B09C0FE01E25BFF4F0190E8
:10446000F081E02DCE010995181BFE01EE5AFF4F99
:1044700000833196108337978081918147962FEF83
:10448000E216F10409F040F5E1E6EE16F10420F041
:10449000FE01E059FF4F07C0F1E4EF16F10438F0D8
:1044A000FE01E259FF4F20813181820F931F9C0151
:1044B0002F5F3F4FF9014491442309F40EC1FC01E1
:1044C000449150E0E416F50611F4029634C0F90167
:1044D0002491820F911DEBCFFE01EE58FF4FC0805B
:1044E000D180C80ED91E860160E0C6010E94471D1A
:1044F000080F191F62E0C6010E94471DF4E0CF0EAD
:10450000D11C8E159F0580F3F801849190E0982FBF
:1045100088273196E4918E2B009709F4DEC0E816C7
:10452000F90619F4C801039606C0F8013296E49121
:104530000E0F111DE9CF009709F4CFC07E01F0E501
:10454000EF0EF11CF70191838083108671966081D4
:10455000C7010E941A1DF701868372966081C70108
:104560000E941A1DD82EF70187835E01FAE7AF0E6D
:10457000B11CF5019081F701928781E0911180E0F3
:10458000F7018387FE01ED59FF4F1081612FC701AD
:104590000E941A1D9FEF910F01E010E0980101C0E9
:1045A000220F9A95EAF7782E721AFE01EC59FF4F06
:1045B000C0806C2DC7010E941A1DCA94480101C019
:1045C000880CCA94EAF7682E6D0CFE01EB59FF4F78
:1045D000C0806C2DC7010E941A1DCA9401C0000F33
:1045E000CA94EAF7C82EC01AF701068110160CF01B
:1045F00075C094848618292D482D672D82810E94CC
:10460000A71C182FF7018283292D482D672D838140
:104610000E94B41CF7018383F1E09F16B1F09F164E
:1046200078F022E09216B9F093E099121FC0212F82
:104630002D0D982F901B01E0080F81E0890F18C005
:10464000202F210F082F0D0D13C09D1821E0210FE1
:10465000080F190D0DC091E0392F301B21E0210FFB
:104660009D1901E0080F890F130F02C0082F212F99
:10467000482F612FCE010E94F120882379F1F701A4
:10468000148215828E01015A1F4F4E01F0E68F0EE3
:10469000911CF8016081C7010E941A1D682EF40167
:1046A0006081C7010E941A1D782E40E0662DCE0160
:1046B0000E94C11C41E0672DCE010E94C11C61E037
:1046C000C7010E941A1D8111F0CFF70185818D1558
:1046D00004F38285F501808301C0C12C8C2DDF910C
:1046E000CF911F910F91FF90EF90DF90CF90BF90EF
:1046F000AF909F908F907F906F900895CF92DF92B0
:10470000EF92FF920F931F93CF93DF936C01EB0116
:104710007B01E40EF51E00E010E0CE15DF0561F030
:104720006991D601ED91FC910190F081E02DC601D7
:104730000995080F191FF1CFC801DF91CF911F9183
:104740000F91FF90EF90DF90CF900895089580E053
:1047500090E00895CF92DF92EF92FF92CF93DF9394
:1047600000D000D0CDB7DEB7BE016F5F7F4F84E3CE
:1047700090E00E948510C980DA80EB80FC80BE0149
:104780006F5F7F4F8CE190E00E94851089819A8154
:10479000AB81BC81C816D906EA06FB0620F081E091
:1047A0008093E60202C01092E6020F900F900F90E5
:1047B0000F90DF91CF91FF90EF90DF90CF90089511
:1047C000CF93DF9300D000D0CDB7DEB788EB9BE06E
:1047D0000E943F28BE016F5F7F4F80E590E00E94FE
:1047E000851089819A81AB81BC81805F914FAF4FE9
:1047F000BF4F89839A83AB83BC83BE016F5F7F4FBA
:1048000080E590E00E94AB10BE016F5F7F4F84E7B0
:1048100090E00E94851089819A81AB81BC81805F84
:10482000914FAF4FBF4F89839A83AB83BC83BE0147
:104830006F5F7F4F84E790E00E94AB100F900F9066
:104840000F900F90DF91CF9108950F931F93CF9307
:10485000DF93EC018C010C5F1F4FFC01E058FF4F10
:104860000190F081E02DC80109958E3F2FEF92074E
:1048700070F4FE01ED57FF4FCE57DF4F9C01408192
:104880006881C8010E94F1219881890F888381E0A5
:1048900090E0DF91CF911F910F9108952F923F9259
:1048A0004F925F926F927F928F929F92AF92BF9240
:1048B000CF92DF92EF92FF920F931F93CF93DF93EC
:1048C00000D000D000D0CDB7DEB787ED94E00E94D5
:1048D0001B1360E6A62E65E0B62E77E6872E75E000
:1048E000972EE8E66E2EE5E07E2E809123059091CE
:1048F00024058056954009F4ABC0B0922405A092DF
:104900002305F501849180933405E1E6F5E0849177
:1049100080933505E2E6F5E0849180933605E3E681
:10492000F5E0849180933705E4E6F5E08491809387
:104930003805E5E6F5E0849180933905E6E6F5E093
:10494000849180933A05F401849180933B05F301AF
:10495000849180933C05E9E6F5E0E491E0933D0520
:10496000EAE6F5E0E491E0933E05EBE6F5E0E4915C
:10497000E0933F05ECE6F5E0E491E0934005EDE6D9
:10498000F5E0E491E0934105EEE6F5E0E491E09393
:104990004205EFE6F5E0E491E0934305E0E7F5E05A
:1049A000E491E093440561E180E695E00E94471DB3
:1049B000909346058093450563E180E695E00E946B
:1049C000471D909348058093470565E180E695E093
:1049D0000E94471D90934A058093490580912305C5
:1049E00090912405892BA1F18091410580934D057B
:1049F0004091420540934E0590914C05992341F119
:104A0000913069F490914305891714F490934D0502
:104A1000809144058417E4F480934E0519C03091C9
:104A20003E0520914005082E000C990B622F022EA6
:104A3000000C770B630F711D37FD7A95861797076A
:104A40001CF4320F30934D05241714F420934E05B7
:104A50000E94251F633071058105910508F050C043
:104A600000E420E840E060E087ED94E00E94F1205F
:104A7000882309F450C150E6E52E51E0F52E10E0F0
:104A800022242394210E022D20E8412F60E087ED9F
:104A900094E00E94F120882359F13090510567017C
:104AA000512C44244394F6018491842119F03092CE
:104AB000510509C08091500581110DC081E0311070
:104AC00080E08093510500E021E0412F652D87EDC6
:104AD00094E00E9482215394440C29F4FFEFCF1AF2
:104AE000DF0A4424439420E85212DDCF309251056E
:104AF00080E1E80EF11C122D103409F0C1CF0BC17A
:104B00000E94251F633071058105910508F422C1BB
:104B10000E94251F6C3071058105910508F01AC1AE
:104B200088E0E82EE09255051AE0109356050E94A1
:104B3000B80F0E946A1389EC91E00E946A1398E30F
:104B4000F92EF092550510935605BE016F5F7F4F09
:104B500080E390E00E94851069817A818B819C813D
:104B60004AE00E946C13E9E3F1E06591749184EDF1
:104B700091E00E94282F03E31EE11093DA040093D2
:104B8000D90444ED51E064E188E00E942D13F092D5
:104B9000550584E180935605BE016F5F7F4F84E326
:104BA00090E00E94851049815A816B817C81CE0101
:104BB00001960E94CE17BE016F5F7F4F83ED94E098
:104BC0000E94280ECE0101960E943E0DE0925505EE
:104BD0002EE1D22ED09256050E94B80F0E946A1381
:104BE0008BEC91E00E946A13F0925505D092560525
:104BF000BE016F5F7F4F88E390E00E94851069815E
:104C00007A818B819C814AE00E946C13EBE3F1E096
:104C10006591749184ED91E00E94282F1093DA043D
:104C20000093D90444ED51E068E288E00E942D131E
:104C3000F092550588E280935605BE016F5F7F4F65
:104C40008CE390E00E94851049815A816B817C81C0
:104C5000CE0101960E94CE17BE016F5F7F4F83ED9C
:104C600094E00E94280ECE0101960E943E0DE09233
:104C7000550532E3E32EE09256050E94B80F0E94DC
:104C80006A138DEC91E00E946A13F0925505E09250
:104C90005605BE016F5F7F4F80E490E00E94851053
:104CA00069817A818B819C814AE00E946C130E9409
:104CB000C30F1093DA040093D904AC016CE388E0CD
:104CC0000E942D13F09255058CE380935605BE018A
:104CD0006F5F7F4F84E490E00E94851049815A8184
:104CE0006B817C81CE0101960E94CE1774C1BE01FA
:104CF0006F5F7F4F8CE090E00E94851089819A81E0
:104D0000AB81BC81892B8A2B8B2B09F0B5C10E940A
:104D1000CE0F0E946A1387ED94E00E94F112811178
:104D2000E4CD26960FB6F894DEBF0FBECDBFDF915F
:104D3000CF911F910F91FF90EF90DF90CF90BF9098
:104D4000AF909F908F907F906F905F904F903F902B
:104D50002F90089588E08093550589E0809356054B
:104D6000EDE2F1E06591749184ED91E00E94282FCD
:104D700084ED91E00E946A138091E6028823C1F0DD
:104D80000E94251F60FF14C0E5E3F1E06591749176
:104D900084ED91E00E94282F83E39EE19093DA0452
:104DA0008093D90444ED51E069E086E20E942D131E
:104DB0001AE41093550589E08093560540915404F8
:104DC0005091550460E070E0CE0101960E94CE172C
:104DD000BE016F5F7F4F83ED94E00E94280ECE01ED
:104DE00001960E943E0D48E0542E5092550503E175
:104DF00000935605E1E3F1E06591749184ED91E053
:104E00000E94282F84ED91E00E946A1310935505AB
:104E100000935605C0905404D0905504E12CF12C19
:104E2000BE016F5F7F4F84E190E00E948510698131
:104E30007A818B819C81A70196010E94F72FAB019B
:104E4000BC01CE0101960E947717BE016F5F7F4FB4
:104E500083ED94E00E94280ECE0101960E943E0D43
:104E600000E020E846E160E087ED94E00E948221C6
:104E70005092550500E2009356050E94D90F0E94FA
:104E80006A1381EC91E00E946A1310935505009318
:104E900056054091670450916804609169047091CF
:104EA0006A04411551056105710509F4A0C0CE01E0
:104EB00001960E947717BE016F5F7F4F83ED94E0EC
:104EC0000E94280ECE0101960E943E0D88E080933C
:104ED00055051AE2109356050E94D90F0E946A13D5
:104EE00083EC91E00E946A138AE480935505109345
:104EF0005605409176045091770460917804709142
:104F00007904411551056105710509F487C0CE0189
:104F100001960E947717BE016F5F7F4F83ED94E08B
:104F20000E94280ECE0101960E943E0D88E08093DB
:104F3000550514E3109356050E94D90F0E946A1379
:104F400085EC91E00E946A138AE4809355051093E2
:104F500056054091850450918604609187047091B4
:104F60008804411551056105710509F46EC0CE0133
:104F700001960E947717BE016F5F7F4F83ED94E02B
:104F80000E94280ECE0101960E943E0D88E080937B
:104F900055051EE3109356050E94D90F0E946A130F
:104FA00087EC91E00E946A138AE480935505109380
:104FB0005605409194045091950460919604709127
:104FC0009704411551056105710509F490CECE0194
:104FD00001960E947717BE016F5F7F4F83ED94E0CB
:104FE0000E94280ECE0101960E943E0D94CEBE0175
:104FF0006F5F7F4F8CE090E00E94851089819A81DD
:10500000AB81BC81892B8A2B8B2B19F40E94CE0F8C
:1050100002C00E94C30F0E946A1358CFBE016F5F87
:105020007F4F8CE090E00E94851089819A81AB814E
:10503000BC81892B8A2B8B2B19F40E94CE0F02C0C6
:105040000E94C30F0E946A1371CFBE016F5F7F4F32
:105050008CE090E00E94851089819A81AB81BC81AF
:10506000892B8A2B8B2B19F40E94CE0F02C00E9431
:10507000C30F0E946A138ACF0E94C30F4ACECF92F9
:10508000DF92EF92FF92CF93DF9300D000D0CDB7A5
:10509000DEB76C01BE016F5F7F4F88E490E00E9435
:1050A0008510E12CF12C89819A81AB81BC818C0D1A
:1050B0009D1DAE1DBF1D89839A83AB83BC83BE013A
:1050C0006F5F7F4F88E490E00E94AB10BE016F5F7E
:1050D0007F4F8CE690E00E94851089819A81AB8198
:1050E000BC81C80ED91EEA1EFB1EC982DA82EB8281
:1050F000FC82BE016F5F7F4F8CE690E00E94AB1098
:105100000F900F900F900F90DF91CF91FF90EF9045
:10511000DF90CF9008950F931F93CF93DF93CDB778
:10512000DEB729970FB6F894DEBF0FBECDBF8C0156
:10513000862FF80111821082138212821582148246
:105140004AE0BE016F5F7F4F90E00E94662FBE0174
:105150006F5F7F4FC8010E94270D29960FB6F89404
:10516000DEBF0FBECDBFDF91CF911F910F9108958C
:105170000F931F93CF93DF93CDB7DEB7A1970FB6F1
:10518000F894DEBF0FBECDBF8C01CB01BA01F80190
:105190001182108213821282158214822AE0AE01DB
:1051A0004F5F5F4F0E94442FBE016F5F7F4FC8016A
:1051B0000E94270DA1960FB6F894DEBF0FBECDBF9B
:1051C000DF91CF911F910F910895CF92DF92EF92CF
:1051D000FF920F931F93CF93DF9300D000D000D0A6
:1051E000CDB7DEB78C0165EA71E0CE0101960E9471
:1051F000430D10923F0480913F0490E0F801248118
:1052000035818217930730F5408151814115510551
:1052100029F0FA01E80FF91F208101C020E0022ED9
:10522000000C330B205331092A30310568F4411545
:10523000510529F0FA01E80FF91F608101C060E013
:10524000CE0101960E94E10C80913F048F5F809314
:105250003F04D1CF89819A81009729F00E94012FC4
:105260006B017C0103C0C12CD12C7601CE010196CB
:105270000E943E0DC701B60126960FB6F894DEBF18
:105280000FBECDBFDF91CF911F910F91FF90EF9097
:10529000DF90CF900895CF93DF9320911404309145
:1052A00015048217930788F4C0911004D09111045B
:1052B00060912104709122048C0F9D1F0E9479320D
:1052C000009719F08C1B9D0B02C08FEF9FEFDF91B1
:1052D000CF910895CF92DF92EF92FF920F931F9399
:1052E000CF93DF936C018B017A014617570720F4A7
:1052F000812F8A01E62EF82E65EA71E0C6010E9430
:10530000430DC0911404D09115040C171D07E0F44F
:10531000EC16FD0608F4E701E0911004F091110489
:10532000EC0FFD1FF0801082609110047091110449
:10533000600F711FC6010E94270D8091100490918B
:105340001104C80FD91FF882C601DF91CF911F91B8
:105350000F91FF90EF90DF90CF900895FC01862F82
:10536000158216821782108611861286138614867D
:105370001586168617864CED55E060E070E0408B90
:10538000518B628B738B848362E00C940514FC0157
:10539000862F108211821282138214821582168245
:1053A00017821086118612861386158616866487E4
:1053B00061E00C940514CF93DF93CDB7DEB7289747
:1053C0000FB6F894DEBF0FBECDBF789484B582606F
:1053D00084BD84B5816084BD85B5826085BD85B599
:1053E000816085BD80916E00816080936E00109217
:1053F0008100809181008260809381008091810092
:105400008160809381008091800081608093800022
:105410008091B10084608093B1008091B000816080
:105420008093B00080917A00846080937A008091AC
:105430007A00826080937A0080917A008160809304
:105440007A0080917A00806880937A001092C1007F
:10545000BE016F5F7F4F84E090E00E9485108981DC
:105460009A81AB81BC810197A105B10531F147E576
:1054700059EE62E070E085E091E00E94221189E13E
:1054800090E0A0E0B0E089839A83AB83BC83BE0147
:105490006F5F7F4F88E090E00E94AB1081E090E06A
:1054A000A0E0B0E08D839E83AF83B887BE016B5FC1
:1054B0007F4F84E090E00E94AB100E944114E09185
:1054C000F702F091F80282E08083E091F302F0911C
:1054D000F4021082E091F502F091F6028FEC8083E5
:1054E0001092FF02E091FB02F091FC0286E08083C3
:1054F000E091F902F091FA02808180618083E0916D
:10550000F902F091FA02808188608083E091F902CB
:10551000F091FA02808180688083E091F902F09135
:10552000FA0280818F7D808383E59DE1909328043A
:105530008093270410920A04109209041092080420
:105540001092070410920604109205048DE991E070
:1055500090930C0480930B049091FB03963108F018
:1055600058C02DEB30E030930604209305042BE95E
:1055700031E030930804209307042CE231E03093AB
:105580000A042093090440916800983058F031E0F3
:105590009E3008F430E021E0822F01C0880F3A9558
:1055A000EAF701C084E0842B80936800983038F0DB
:1055B0009E3040F0963148F020E030E008C02DE603
:1055C00030E005C02BE630E002C02CE630E030933E
:1055D000030420930204983030F481E001C0880F66
:1055E0009A95EAF70EC0292F30E09E3018F4285023
:1055F000310902C02E50310981E001C0880F2A957F
:10560000EAF78093040480910B0490910C040197B5
:10561000F1F78091090490910A04892B21F180917E
:105620008D0290918E0223E08F3E9207E1F0009769
:1056300011F00E946F1080910D048E7F80930D04F5
:1056400010928C0210928B028FEE93E090938E0258
:1056500080938D02E0910204F09103049081809187
:105660000404892B8083E091DB04F091DC0420E0CA
:1056700030E040E06AE087ED94E0099587ED94E042
:105680000E941B1387ED94E00E94F112182F8111E4
:10569000F9CF60E087ED94E00E940C12E091DB040A
:1056A000F091DC0420E030E040E06BE087ED94E036
:1056B000099583E39EE1909354058093530580916F
:1056C000580490915704882361F0923021F0933070
:1056D00021F08FEF03C080E001C081E063E070E063
:1056E00009C0923029F0933011F08FEF01C081E0B2
:1056F00062E070E00E947E128FE594E090930F04C8
:1057000080930E0488EE93E0A0E0B0E08093CD0497
:105710009093CE04A093CF04B093D0048FEF8093E6
:10572000C7042EE434E23093D2042093D10449E13B
:1057300050E060E070E04093BF045093C004609379
:10574000C1047093C2048093B90427EA3BE130930B
:10575000C4042093C30440E157E260E070E040934A
:10576000B1045093B2046093B3047093B404809373
:10577000AB042AEA33E23093B6042093B50440E147
:105780005EE060E070E04093A3045093A404609353
:10579000A5047093A60480939D0480EE93E29093F9
:1057A000A8048093A70481E08093C6048093B80482
:1057B0008093AA0480939C0444E12BEB39E18CE5AF
:1057C00099E1419FF0011124E156FC4F3183208380
:1057D000938382831F5F1430A1F710938F029FE0A1
:1057E00088E10FB6F894A895809360000FBE90935F
:1057F000600085EC94E00E94D21187EB94E00E9457
:10580000D21189EA94E00E94D2118BE994E00E94BF
:10581000D2118FEE93E00E94530C892BE9F08FEEAA
:1058200093E00E94530C892BB9F08FEE93E00E9415
:105830006B0C182F682F80E194E00E94E10C1A3065
:1058400059F4E0912704F0912804099565EA71E084
:1058500080E194E00E94270DA8950E94890BC9CF92
:10586000CF93DF9384E893E00E943E0DCFEED3E028
:1058700084E891E09983888381E294E00E943E0D60
:1058800080E194E00E943E0D84E891E09983888352
:10589000CE01DF91CF910C946F100F931F93CF9394
:1058A000DF93CDB7DEB765970FB6F894DEBF0FBEB6
:1058B000CDBF1092EA021092E90288EE93E0A0E0D8
:1058C000B0E08093EB029093EC02A093ED02B093D2
:1058D000EE0220E631E03093E8022093E70225EC67
:1058E00030E03093F4022093F30224EC30E0309364
:1058F000F6022093F50220EC30E03093F80220937A
:10590000F70221EC30E03093FA022093F90222EC06
:1059100030E03093FC022093FB0226EC30E0309321
:10592000FE022093FD0210920003109201031092D8
:1059300002031092030310925A05109259058093A6
:105940005B0590935C05A0935D05B0935E0582E7CF
:1059500091E090935805809357051092D6041092C9
:10596000D50488E79EE190935405809353051092E7
:105970005505109256051092F00486E991E0909337
:10598000D4048093D3041092D8041092D7041092B8
:10599000EC041092EF041092E3041092E4041092CD
:1059A000E5041092E6048FEF8093ED048093F204F7
:1059B000E6EFF4E08CE095E02FEF0FEF21938E17E8
:1059C0009F07D9F781E590E29093DC048093DB0494
:1059D0008FE59FE19093DE048093DD0485EF97E1EE
:1059E0009093E0048093DF048BEE98E19093E204BF
:1059F0008093E10420E030E040E069E087ED94E04E
:105A00000E945120109224051092230585ED9EE1FD
:105A100090930D0580930C0583E695E09093110516
:105A20008093100511E01093120510921305109247
:105A300030051092500510935105109352058EE9D0
:105A400091E090930F0580930E0587ED94E00E94FE
:105A50008F1E10921F0510922105009320050093C0
:105A60002205E0910E05F0910F050280F381E02DF3
:105A700087ED94E0099583E29FE19093260580935A
:105A80002505109233058CE08093F6048BE080931B
:105A9000F7048AE08093FF0484E680930105109266
:105AA000C6041092C7041092C8041092C904109240
:105AB000CA041092CB041092CC041092CD04109220
:105AC000CE041092CF041092D0041092D2041092FF
:105AD000D1041093C5041092B8041092B904109226
