:100000000C948C040C94391A0C94121A0C94A41CA1
:100010000C94A41C0C94A41C0C94B4040C94601AAE
:100020000C94B4040C94B4040C94B4040C94B40470
:100030000C94B4040C94B4040C94B4040C94B40460
:100040000C9402100C94B4040C94161B0C94F01A2B
:100050000C94B4040C94B4040C94B4040C94B40440
:100060000C94481B0C94B404000000000000000035
:100070000000000000000000000000000000000080
:100080000000000000000000000000000000000070
:100090000000000000000000000000000008000058
:1000A000000000000000000000000000000C0080C4
:1000B000FFFF07000000000000000000001C00001F
:1000C000F8FF1F000000000000000000001E0000FC
:1000D000F0037F000000000000000000003E000070
:1000E000F001FE000000000000000000003F0000E2
:1000F000F001FC010000000000000000003F0000D3
:10010000F001F8010000000000000000007F000086
:10011000F001F0030000000000000000807D0000FE
:10012000F001F0030000000000000000807D0000EE
:10013000F001F0030000000000000000C0F8000023
:10014000F001F0030000000000000000C0F8000013
:10015000F001F003000000000000000060F8010062
:10016000F001F003000000000000000060F001005A
:10017000F001F801000000000000000060F0010044
:10018000F001F801000000000000000030F0030062
:10019000F001FC00000000000000000030E003005F
:1001A000F0017E00000000000000000018E00300E5
:1001B000F0C11F00000000000000000018C0070090
:1001C000F0FF030000000000000000000CC007006A
:1001D000F0FF030000000000000000000CC00F0052
:1001E000F0E1070000000000000000000E800F009A
:1001F000F0C10F000000000000000000FEFF0F0033
:10020000F0810F000000000000000000FEFF1F0052
:10021000F0811F00000000000000000003001F002C
:10022000F0013F00000000000000000003003F005C
:10023000F0017E00000000000000008001003E0090
:10024000F0017C00000000000000008001003E0082
:10025000F001FC0000000000000000C001007E0072
:10026000F001F80100000000000000C000007C0068
:10027000F001F00300000000000000C00000FC00DE
:10028000F001E00300000000000000600000F80042
:10029000F001E00700000000000000700000F8011D
:1002A000F001C00F00000000000000700000F80125
:1002B000F001801F00000000000000FC0000FC07AF
:1002C000F80300FF00000000000000FF0780FF9F10
:1002D000FF3F00FF030000000000000000000000DE
:1002E000000000000000000000000000000000000E
:1002F00000000000000000000000000000000000FE
:100300000000000000000000000000FF67EFE69C16
:1003100083C3BA9F030000000000005594454422A7
:1003200041241351020000000000004411444C22FB
:100330004124104500000000000000C4117C54223C
:10034000412417870100000000000044114464228A
:10035000412412050200000000000044144544221C
:100360004924125102000000000000EEE7EE4E9C0E
:100370008FC3B9DF01000000000000000000000092
:10038000000000000000000000000000000000006D
:10039000000000000000000000000000000000005D
:1003A00000000000000000000000008F3BE7701E0E
:1003B0008F33E78703000000000000121142202461
:1003C00012214244020000000000001211422024C9
:1003D0001261424100000000000000121F42202470
:1003E00012A1C281010000000000000E1142201C79
:1003F0000E2143010200000000000002114222040D
:100400000221424402000000000000873BE7730E17
:100410008773E2C701000000000000000000000038
:1004200000000000000000000000000000000000CC
:1004300000000000000000000000000000000000BC
:1004400000000000000000000000000000000000AC
:10045000000000000000000000000000000000009C
:100460000000000000000000600003020304030419
:1004700004060B00FE07FE08FF013E028103AA20CE
:100480000500A203210739A363500222079BB6236C
:10049000B104230B2DAAA732289541A900240E4DA3
:1004A0009E2B5B2A4AB6254A658B00250E3DA26726
:1004B00050125312294A222500260C3DA247AAD4E5
:1004C0002A89142901270519B7632808CB9E2B29EF
:1004D000752B2909CB9E232B7529012A0A2DAAAB3E
:1004E00052599A22002B0A2DA62B8C06298C002CFF
:1004F00008A29A634814002D058BAE632E0612A342
:1005000063082F0C559AB316666116666108300CA5
:100510003DA267C9A42599B4640131093DA22B1AF3
:100520003B0D02320A3DA267C9C2AC6D10330B3DD0
:10053000A267C9C248D59205340C3DA22F939252AE
:100540003268D900350B3DA2E338A4A1962C0036C1
:100550000C3DA267098724B3250B00370A3DA2632F
:10056000106BC51200380C3DA267C9B464C9B464ED
:1005700001390C3DA267C96CC910260B003A082A44
:10058000A3638886003B09BA9A63888644013C07C6
:10059000BCA22F6A6C3D081DAA635007013E08BC2F
:1005A000A2236C6A033F0B3DA267C9C2AC0E450093
:1005B000400D3DA267C994214994211D02410C3D83
:1005C000A22B4BA2A4360C9916420D3DA2634832D1
:1005D0006D50326D5000430A3DA267C9C4B6640134
:1005E000440A3DA26348326F8302450B3DA2E318E3
:1005F0000E49180E02460A3DA2E3180E4958044758
:100600000B3DA267C9C468D39205480A3DA223B333
:100610000D43660B490A3DA26390C24E83004A090E
:100620003DA2B351D392054B0C3DA22393929296D7
:1006300044952C4C083DA223EC71104D0C3DA22397
:100640005B964449345B004E0B3DA2239B9444DAF5
:100650006C014F0A3DA267C9BC250B00500C3DA29E
:100660006348326D50C22200510A459E67C9BC548E
:10067000D600520C3DA26348326D50325B00530BE2
:100680003DA267C9D4554B160054093DA26390C2E0
:100690009E0055093DA223F32D5900560C3DA2237F
:1006A000B325A5240B2300570A3DA223734994E4E4
:1006B00016580B3DA223D3925AA5A605590A3DA26E
:1006C00023B325B5B0045A0A3DA26310B38E83004C
:1006D0005B084A9F63E98B005C0CD59A234CC334BA
:1006E0004CC3340C5D08CA9E43E9CB005E081DB2C2
:1006F0002B4B6A015F060E9AE300600692BA230A4A
:1007000061092DA267D04C8A12620C3DA2230C878E
:1007100024B30D0A0063092DA267C9C47408640AD2
:100720003DA2B33268B66408650A2DA267C9862166
:100730001D026609BCA24B89A6AC09670C3D9A67ED
:10074000D06CC910260B00680A3DA2230C872473C5
:100750000B6908BBA227945A066A094B9A2B943A54
:100760002D006B0B3DA2232C25A5A992056C07BB80
:10077000A243EA656D0C2DA263482A4AA2244A01CD
:100780006E092DA2233169B6006F092DA267C96CCD
:10079000C902700C3D9A634832DBA0842100710AC3
:1007A0003D9A67D06CC9101672092DA22331894574
:1007B0000073092DA267500F0A007409BCA2278B91
:1007C000A6AC2875092DA22373529400760B2DA296
:1007D00023D39252924500770C2DA2234994444989
:1007E000942E00780A2DA2234B6A955A00790B3D6E
:1007F0009A23734B863059007A092DA263D0DA060A
:10080000017B0ADB9A2B895AB2A82D7C06499FE30B
:10081000017D0BDB9A238BDA92A825027E0615AEAA
:10082000C7057F0500A20300000004FFFF000000D1
:10083000000000240027002A000000000800020138
:100840000000030407000000000000000002284C24
:10085000696D69742900506F776572004372656431
:10086000697400536572766500436F696E73005456
:1008700072616E73004C69666574696D65004375DD
:100880007272656E7400467265650054696D65002C
:10089000566163616E7400436F696E005465726DDA
:1008A000696E616C005068696C697070696E65731F
:1008B00000412E522E542E5300B108A5089C0897D3
:1008C0000890088B0886087E0875086F0869086319
:1008D000085C0856084E0800000000230026002986
:1008E0000000000000250028002B0004040404047C
:1008F00004040402020202020203030303030301CD
:1009000002040810204080010204081020010204A3
:1009100008102000252CDF2B11241FBECFEFD8E0BC
:10092000DEBFCDBF26E0ACEEB1E001C01D92A2302B
:10093000B207E1F711E0A0E0B1E0EEECFEE602C0A4
:1009400005900D92AC3EB107D9F714E0CBE8D4E0A6
:1009500004C02197FE010E947B32CA38D107C9F733
:100960000E9489290C945A370C940000CF92DF9290
:10097000EF92FF920F931F93CF93DF936C01EB01E4
:100980007B01E40EF51E00E010E0CE15DF0561F0FE
:100990006991D601ED91FC910190F081E02DC601A5
:1009A0000995080F191FF1CFC801DF91CF911F9151
:1009B0000F91FF90EF90DF90CF900895089580E021
:1009C00090E008954F925F926F927F92BF92CF9284
:1009D000DF92EF92FF920F931F93CF93DF931092CA
:1009E000150284E1D82E9FE0C92EBB24B3948091D8
:1009F0001502843008F0D8C0E82EF12CDE9CE0010E
:100A0000DF9CD00D1124C654DC4FCE010E94931CF4
:100A10009F81891709F468C0CE010E94931C882326
:100A200009F462C02FB7F8948091160290911702D2
:100A3000A0911802B09119022FBF88879987AA87C1
:100A4000BB87CE010E94931CDE9CF001DF9CF00D61
:100A50001124E654FC4F87830091150210E0C09EDC
:100A6000F001C19EF00D1124E658FB4F8685658587
:100A7000811101C06B2584850E94F80CC09EE001A5
:100A8000C19ED00D1124C658DB4F8E85882331F1CD
:100A90004C805D806E807F800E942625461A570A12
:100AA000680A790A488659866A867B860E942625C6
:100AB0000C811D812E813F8160177107820793078A
:100AC00068F0188619861A861B86188219821A827F
:100AD0001B821C821D821E821F821E86809115022F
:100AE0008F5F8093150283CFCE010E94931CDE9C02
:100AF0008001DF9C100D112406541C4FF8019781D2
:100B0000891709F49ECFCE010E94931C811199CFC1
:100B10002FB7F8948091160290911702A0911802B5
:100B2000B09119022FBFF801408551856285738508
:100B3000841B950BA60BB70B448555856685778579
:100B4000481759076A077B0790F4F80140895189D3
:100B50006289738984179507A607B70740F4019047
:100B6000F081E02D309709F46CCFD80119C0DE9CDC
:100B70009001DF9C300D112426543C4FF90140892F
:100B8000518962897389481759076A077B0708F0FA
:100B900058CF0280F381E02D309709F452CFD9016C
:100BA00014968C9109954DCFDF91CF911F910F91A4
:100BB000FF90EF90DF90CF90BF907F906F905F900D
:100BC0004F90089582E390E00C942C28CF92DF920E
:100BD000EF92FF92CF93DF9300D000D0CDB7DEB776
:100BE000BE016F5F7F4F80E290E00E94341DC9809C
:100BF000DA80EB80FC80BE016F5F7F4F88E190E080
:100C00000E94341D89819A81AB81BC81C816D906A6
:100C1000EA06FB0630F081E0809310020E94630D2B
:100C200002C0109210020F900F900F900F90DF9162
:100C3000CF91FF90EF90DF90CF9008950F931F9387
:100C4000CF93DF93EC018C010C5F1F4FFC01E05848
:100C5000FF4F0190F081E02DC80109958E3F2FEFE5
:100C6000920770F4FE01ED57FF4FCE57DF4F9C0106
:100C700040816881C8010E94E1149881890F8883AE
:100C800081E090E0DF91CF911F910F9108952F9215
:100C90003F924F925F926F927F928F929F92AF920C
:100CA000BF92CF92DF92EF92FF920F931F93CF9359
:100CB000DF9300D000D000D0CDB7DEB782EF94E054
:100CC0000E942B0CEFE62E2EE4E03E2E80913E0596
:100CD00090913F058856944009F4AEC088E694E0B0
:100CE00090933F0580933E05FC01849180934F05CE
:100CF000E9E6F4E0849180935005EAE6F4E084911B
:100D000080935105EBE6F4E0849180935205ECE684
:100D1000F4E0849180935305EDE6F4E084918093B0
:100D20005405EEE6F4E0849180935505F101849139
:100D300080935605E0E7F4E0849180935705E1E75E
:100D4000F4E0E491E0935805E2E7F4E0E491E09305
:100D50005905E3E7F4E0E491E0935A05E4E7F4E0B1
:100D6000E491E0935B05E5E7F4E0E491E0935C0552
:100D7000E6E7F4E0E491E0935D05E7E7F4E0E49171
:100D8000E0935E05E8E7F4E0E491E0935F0561E15C
:100D900088E694E00E94D5149093610580936005E5
:100DA00063E188E694E00E94D514909363058093F4
:100DB000620565E188E694E00E94D514909365058C
:100DC0008093640580913E0590913F05892BA1F1A8
:100DD00080915C058093680540915D0540936905AD
:100DE00090916705992341F1913069F490915E05E6
:100DF000891714F49093680580915F058417E4F4D3
:100E00008093690519C03091590520915B05082E22
:100E1000000C990B622F022E000C770B630F711DD3
:100E200037FD7A95861797071CF4320F30936805C3
:100E3000241714F4209369050E9426256330710558
:100E40008105910508F050C000E420E840E060E032
:100E500082EF94E00E942C27882309F492C178E65F
:100E6000E72E70E0F72E10E044244394410E042D49
:100E700020E8412F60E082EF94E00E942C27882335
:100E800059F150906C056701712C66246394F6014A
:100E90008491862119F050926C0509C080916B05F0
:100EA00081110DC081E0511080E080936C0500E05D
:100EB00021E0412F672D82EF94E00E94BD277394BB
:100EC000660C29F4FFEFCF1ADF0A6624639420E84A
:100ED0007212DDCF50926C0540E1E40EF11C142D2E
:100EE000103409F0C1CF4DC10E9426256330710531
:100EF0008105910508F464C10E9426256C307105B6
:100F00008105910508F05CC1E7ECF8E0659174910A
:100F100088E392E00E94112F8BE1E82E83E2F82E05
:100F2000F092F504E092F40448E352E06AE088E2CB
:100F30000E943D0C00E020E84CE060E082EF94E08D
:100F40000E94BD27EBECF8E06591749188E392E094
:100F50000E94112FF092F504E092F40448E352E06D
:100F600066E188E00E943D0C98E3792E709270054E
:100F700086E180937105BE016F5F7F4F8CE190E049
:100F80000E94341D69817A818B819C814AE00E9494
:100F90008E0CEDECF8E06591749188E392E00E948C
:100FA000112FF092F504E092F40448E352E060E27D
:100FB00088E00E943D0C7092700580E2809371057C
:100FC000BE016F5F7F4F80E290E00E94341D8981F7
:100FD0009A812B813C8106EA13E044E1642ED8011A
:100FE000E62D1D92EA95E9F73F932F939F938F93F8
:100FF0005CE9C52E51E0D52EDF92CF921F930F935F
:101000000E94A734B801CE0101960E94FD19BE01CD
:101010006F5F7F4F8EEE94E00E94E21ACE01019640
:101020000E94EF19EFECF8E06591749188E392E08B
:101030000E94112FF092F504E092F40448E352E08C
:101040006AE288E00E943D0C709270058AE280930B
:101050007105BE016F5F7F4F84E290E00E94341DF6
:1010600049815A816B817C81CE0101960E947E105C
:10107000BE016F5F7F4F8EEE94E00E94E21ACE01B8
:1010800001960E94EF19E1EDF8E06591749188E313
:1010900092E00E94112FF092F504E092F40448E3EC
:1010A00052E064E388E00E943D0C7092700584E396
:1010B00080937105BE016F5F7F4F80E490E00E94D6
:1010C000341D89819A812B813C81D8011D926A94BB
:1010D000E9F73F932F939F938F93DF92CF921F93C4
:1010E0000F930E94A734B801CE0101960E94FD190A
:1010F000BE016F5F7F4F8EEE94E00E94E21ACE0138
:1011000001960E94EF19E3EDF8E06591749188E390
:1011100092E00E94112FF092F504E092F40448E36B
:1011200052E06EE388E00E943D0C709270058EE301
:1011300080937105BE016F5F7F4F84E490E00E9451
:10114000341D69817A818B819C810E94642F20E00B
:1011500030E04AE754E40E9457316B017C012B01D7
:101160003C010FB6F894DEBF0FBECDBF9B01AC01B2
:101170000E94FD31882309F4DDC180E991E00E94DD
:101180007A0C82EF94E00E94010C81119FCD26968B
:101190000FB6F894DEBF0FBECDBFDF91CF911F9188
:1011A0000F91FF90EF90DF90CF90BF90AF909F9006
:1011B0008F907F906F905F904F903F902F90089509
:1011C00088E0809370058AE080937105EFEBF8E08A
:1011D0006591749188E392E00E94112F88E392E078
:1011E0000E948C0C809110028823A1F0E5EDF8E0BC
:1011F0006591749188E392E00E94112F8BE193E254
:101200009093F5048093F40448E352E06AE081E2AD
:101210000E943D0C1AE4109370058AE080937105DA
:1012200080916F0490917004AC01E6EAF3E004E170
:10123000DF01202F1D922A95E9F71F921F925F93DD
:101240008F938CE991E09F938F93FF93EF930E948C
:10125000A73466EA73E0CE0101960E94FD19BE0133
:101260006F5F7F4F8EEE94E00E94E21ACE010196EE
:101270000E94EF1968E0762E709270050093710558
:10128000E3ECF8E06591749188E392E00E94112FFD
:1012900088E392E00E948C0C109370050093710516
:1012A000C0906F04D0907004E12CF12CBE016F5FF0
:1012B0007F4F80E190E00E94341D69817A818B81AB
:1012C0009C81A70196010E940232AB01BC01CE01B4
:1012D00001960E947E10BE016F5F7F4F8EEE94E0FC
:1012E0000E94E21ACE0101960E94EF1900E020E868
:1012F00047E160E082EF94E00E94BD2770927005A4
:1013000002E2009371050E94881C0E948C0C89ECFB
:1013100091E00E948C0C1093700500937105409130
:1013200082045091830460918404709185040FB607
:10133000F894DEBF0FBECDBF4115510561057105A3
:1013400081F0CE0101960E947E10BE016F5F7F4F3B
:101350008EEE94E00E94E21ACE0101960E94EF19EF
:1013600016C0BE016F5F7F4F88E090E00E94341D81
:1013700089819A81AB81BC81892B8A2B8B2B19F4B3
:101380000E947D1C02C00E94721C0E948C0C88E08E
:10139000809370051CE2109371050E94881C0E94C6
:1013A0008C0C87EE91E00E948C0C8AE4809370058F
:1013B00010937105409191045091920460919304AF
:1013C00070919404411551056105710581F0CE01BC
:1013D00001960E947E10BE016F5F7F4F8EEE94E0FB
:1013E0000E94E21ACE0101960E94EF1916C0BE01BA
:1013F0006F5F7F4F88E090E00E94341D89819A8161
:10140000AB81BC81892B8A2B8B2B19F40E947D1C0C
:1014100002C00E94721C0E948C0C88E080937005B0
:1014200016E3109371050E94881C0E948C0C82EABE
:1014300091E00E948C0C8AE48093700510937105F2
:101440004091A0045091A1046091A2047091A30462
:10145000411551056105710581F0CE0101960E948B
:101460007E10BE016F5F7F4F8EEE94E00E94E21A05
:10147000CE0101960E94EF1916C0BE016F5F7F4F2B
:1014800088E090E00E94341D89819A81AB81BC8103
:10149000892B8A2B8B2B19F40E947D1C02C00E9481
:1014A000721C0E948C0C88E08093700510E41093ED
:1014B00071050E94881C0E948C0C84EA91E00E94B5
:1014C0008C0C8AE480937005109371054091AF04F1
:1014D0005091B0046091B1047091B204411551056E
:1014E0006105710581F0CE0101960E947E10BE015A
:1014F0006F5F7F4F8EEE94E00E94E21ACE0101965C
:101500000E94EF193ECEBE016F5F7F4F88E090E0F2
:101510000E94341D89819A81AB81BC81892B8A2BE1
:101520008B2B19F40E947D1C02C00E94721C0E9429
:101530008C0C27CE46015701E894B7F82FEF3FEF08
:101540004FE75FE7C501B4010E94FD3181110DC075
:101550002FEF3FEF4FE75FE7C501B4010E945F2F18
:1015600018161CF484E991E00ACE2FEF3FEF4FE705
:101570005FE4C701B6010E94F83118161CF488E92F
:1015800091E0FDCD2FEF3FEF4FE75FECC701B601D4
:101590000E945F2F87FDF3CF20E030E0A901C70153
:1015A000B6010E945F2F87FF0BC06DE28EEE94E0C4
:1015B0000E941E062601370177FA709477F870941E
:1015C0002AE037ED43EA5BE3C301B2010E94EB304E
:1015D0002B013C010E94C9316B017C010E94642FE8
:1015E0009B01AC01C301B2010E94EA302B013C0116
:1015F0004AE0C701B6010E948E0C6EE28EEE94E0C6
:101600000E941E0620E030E040E251E4C301B20136
:101610000E94C52F2B013C010E94C9316B01E12CB6
:10162000F12C4AE0C701B6010E948E0CC701B60139
:101630000E94642F9B01AC01C301B2010E94EA30F9
:1016400020E030E040E251E40E94C52F0E94C93101
:1016500080E090E04AE00E948E0C93CDCF93DF9320
:10166000EC016CAFEFA9F8AD0190F081E02D099588
:10167000EFA9F8AD0280F381E02DCE01DF91CF918B
:101680000994AF92BF92CF92DF92EF92FF920F93A5
:101690001F93CF93DF9300D000D01F92CDB7DEB75A
:1016A0008C01DC01DB96AC90DB97DC96EC90DC9750
:1016B000ED91FC91B188FE2CC12CD12CD801ED917B
:1016C000FC9111978089D9964D915C91DA971C8293
:1016D000FD828B83B8E08B9FC00111248C9D90010B
:1016E0008D9D300D9C9D300D1124CA01820F931FDA
:1016F0009A838983D8011496ED91FC9115979E01E8
:101700002F5F3F4F41E06FE0C8010995F3948F2DA3
:101710008E198A1528F4BFEFCB1ADB0AFB1470F27E
:101720000F900F900F900F900F90DF91CF911F911E
:101730000F91FF90EF90DF90CF90BF90AF90089502
:101740008230F8F4E82FF0E0EE0FFF1FE050FF4F7B
:1017500026E433E131832083813041F080916900B8
:101760008C7F682B60936900E89A089580916900E6
:10177000837F660F771F660F771F682B6093690062
:10178000E99A0895833081F028F4813099F082300D
:10179000A1F008958730A9F08830B9F08430D1F4F1
:1017A000809180008F7D03C0809180008F7780932F
:1017B0008000089584B58F7702C084B58F7D84BD85
:1017C00008958091B0008F7703C08091B0008F7D25
:1017D0008093B0000895FC01A081B18150969C9146
:1017E00043AD949FA001112483E0440F551F8A95B7
:1017F000E1F760E070E081AD92AD0C9476340E9428
:1018000068341F93CF93DF93EC010E94410B1CAD12
:101810008BAD180FE881F9818189181750F0EC81A0
:10182000FD8120E030E040E060E1CE01099580E0FC
:101830000EC0FE01E558FF4F8081882319F0CE01CC
:101840000E94EB0B612FCE010E942E0B81E0DF91F5
:10185000CF911F910895CF93DF93EC01FC01E558E0
:10186000FF4F8081882319F0CE010E94EB0B60E0CE
:10187000CE01DF91CF910C942E0BFF920F931F930B
:10188000CF93DF93C82FD62F10920B058A01F12C2E
:10189000F80161918F01E091F404F091F50482EF79
:1018A00094E009958F3FFFEF9F07E9F08E3F2FEF00
:1018B000920771F39C014D2F6C2F82EF94E00E94F0
:1018C000E11490914E05913049F030F0923041F0A2
:1018D000933039F4D81B05C0C80F03C0D80F01C01E
:1018E000C81BF80ED5CF8F2DDF91CF911F910F918F
:1018F000FF900895009769F0FC0101900020E9F73E
:101900003197AF01481B590BBC018EEE94E00C944B
:10191000B60480E090E008950C947A0C8F929F9228
:10192000AF92BF920F931F93CF93DF93CDB7DEB7E4
:10193000A1970FB6F894DEBF0FBECDBF19A24230FB
:1019400008F44AE08E010F5D1F4F842E912CA12CCC
:10195000B12CA50194010E942632E62FB901CA01DB
:1019600001501109EA3014F4E05D01C0E95CD801CE
:10197000EC93232B242B252B61F7C8010E947A0CB2
:10198000A1960FB6F894DEBF0FBECDBFDF91CF9109
:101990001F910F91BF90AF909F908F900895CF931C
:1019A000DF93282F30E0F901E75CF74F8491F901CC
:1019B000E150F74FD491F901E551F74FC491CC2391
:1019C00091F081110E94C20BEC2FF0E0EE0FFF1F8F
:1019D000E952F74FA591B491EC91ED2381E090E0AD
:1019E00021F480E002C080E090E0DF91CF91089583
:1019F0001F93CF93DF93282F30E0F901E75CF74F77
:101A00008491F901E150F74FD491F901E551F74F75
:101A1000C491CC23C1F0162F81110E94C20BEC2F70
:101A2000F0E0EE0FFF1FEF51F74FA591B4919FB774
:101A3000F894111104C08C91D095D82302C0EC9178
:101A4000DE2BDC939FBFDF91CF911F910895CF9341
:101A5000DF9390E0FC01E150F74F2491FC01E55148
:101A6000F74F8491882361F190E0880F991FFC0162
:101A7000E15DF74FC591D491FC01EF51F74FA5916E
:101A8000B491611109C09FB7F89488812095822391
:101A90008883EC912E230BC0623061F49FB7F894D9
:101AA0008881322F309583238883EC912E2B2C93C1
:101AB0009FBF06C08FB7F894E8812E2B28838FBF75
:101AC000DF91CF9108952F923F924F925F926F9244
:101AD0007F928F929F92AF92BF92CF92DF92EF92BE
:101AE000FF920F931F93CF93DF9300D000D01F92EC
:101AF000CDB7DEB72090780430907904C101A0E022
:101B0000B0E089839A83AB83BC8300917604109103
:101B100077048091750490910401891721F09F3F0B
:101B200009F033C205C0EDE4F8E094919D837CC0D8
:101B300080930401EDE4F8E0A491AD83AF3F09F494
:101B400024C2A13009F449C058F1A23009F06CC098
:101B50001092B0001092B1009091B00092609093FA
:101B6000B0009091B10091609093B100282F30E0C7
:101B7000F901E551F74FE491F0E0EE0FFF1FEF514F
:101B8000F74F4591549150931C0240931B02F90169
:101B9000E150F74FE491E0931A0222E02D83F1C166
:101BA00014BC15BC94B5926094BD95B5916095BD7B
:101BB000282F30E0F901E551F74FE491F0E0EE0F06
:101BC000FF1FEF51F74F45915491F901E150F74F45
:101BD000E491E09327021D82D4C1109280001092FC
:101BE0008100909181009860909381009091810094
:101BF000916090938100282F30E0F901E551F74F73
:101C0000E491F0E0EE0FFF1FEF51F74F4591549133
:101C1000F901E150F74FE491E093260261E00E9460
:101C2000270DB1E0BD83B4C09D8197FDAEC161E0D9
:101C30000E94270D8D818D7F09F0AAC04801A12C3B
:101C4000B12C60E072E18AE790E0A50194010E9466
:101C5000483229013A0169017A01A1E0CA1AD10882
:101C6000E108F108BFEFCB16D104E104F10409F05B
:101C700008F44DC060E472E48FE090E0A5019401A7
:101C80000E94483269017A0181E0C81AD108E1084E
:101C9000F1089D81923001F5AFEFCA16D104E1043D
:101CA000F10409F008F405C160E970ED83E090E00B
:101CB000A50194010E94483269017A01B1E0CB1A72
:101CC000D108E108F1082FEFC216D104E104F104B4
:101CD00009F040F583E055C08FEFC816D104E10448
:101CE000F104B9F0B0F068E478EE81E090E0A5018D
:101CF00094010E94483269017A0191E0C91AD10821
:101D0000E108F108AD81AA2309F4D5C031C181E011
:101D100001C082E09D81911134C095B5987F892BD7
:101D200085BD75C068E478EE81E090E0A50194017E
:101D30000E94483269017A01A1E0CA1AD108E1087B
:101D4000F108BFEFCB16D104E104F10409F008F467
:101D5000AEC064E274EF80E090E0A50194010E94BF
:101D6000483269017A01B1E0CB1AD108E108F108E3
:101D70002FEFC216D104E104F10411F008F0CEC037
:101D800085E09091B100987F892B8093B1003FC08E
:101D90004801A12CB12C60E072E18AE790E0A50136
:101DA00094010E94483269017A01A1E0CA1AD1085F
:101DB000E108F108C114D104B1E0EB06F10488F0A8
:101DC00068E478EE81E090E0A50194010E94483239
:101DD00069017A0181E0C81AD108E108F10883E0BD
:101DE00001C081E09D81913091F490918100987FB4
:101DF000892B8093810089819A81AB81BC81892B59
:101E00008A2B8B2B61F42FEF3FEFA9012EC0898124
:101E10009A81AB81BC81892B8A2B8B2B69F0D801ED
:101E2000AA0FBB1F91010E94DB3028EE33E040E097
:101E300050E00E94263203C02FEF3FEFA9019D81A1
:101E4000913099F0923019F191119FC0C7BC209345
:101E50002C0230932D0240932E0250932F0280913A
:101E60006E00826080936E0090C0D0928900C09214
:101E70008800209328023093290240932A0250932D
:101E80002B0280916F00826080936F007EC0C092B1
:101E9000B30020931D0230931E0240931F02509303
:101EA0002002809170008260809370006EC084E098
:101EB00068CF82E066CFBFEFCB16D104E104F10416
:101EC00059F150F162E17AE780E090E0A5019401D8
:101ED0000E94483269017A0191E0C91AD108E108EB
:101EE000F108AFEFCA16D104E104F10499F090F0C3
:101EF000D301C2013AE0B595A795979587953A9594
:101F0000D1F76C017D0121E0C21AD108E108F10886
:101F100085E003CF84E001CF83E0FFCE62E17AE782
:101F200080E090E0A50194010E94483269017A01A5
:101F300081E0C81AD108E108F1088FEFC816D10472
:101F4000E104F10499F090F0D301C2012AE0B595C3
:101F5000A795979587952A95D1F76C017D0121E08A
:101F6000C21AD108E108F10887E00BCF86E009CF5B
:101F70009FEFC916D104E104F10409F078F684E07A
:101F8000C9CE61E00E94270D59CE0F900F900F909F
:101F90000F900F90DF91CF911F910F91FF90EF90D5
:101FA000DF90CF90BF90AF909F908F907F906F9079
:101FB0005F904F903F902F9008953FB7F894809195
:101FC000220290912302A0912402B091250226B50D
:101FD000A89B05C02F3F19F00196A11DB11D3FBF61
:101FE000BA2FA92F982F8827820F911DA11DB11DEF
:101FF000BC01CD0142E0660F771F881F991F4A95EB
:10200000D1F708951F920F920FB60F9211242F93BC
:102010003F938F939F93AF93BF93809116029091BC
:102020001702A0911802B09119023091210223E009
:10203000230F2D3720F40196A11DB11D05C026E800
:10204000230F0296A11DB11D209321028093160239
:1020500090931702A0931802B09319028091220264
:1020600090912302A0912402B09125020196A11D16
:10207000B11D8093220290932302A0932402B09377
:102080002502BF91AF919F918F913F912F910F901A
:102090000FBE0F901F901895FC0124813581232BD2
:1020A00031F421E061157105A1F0FB0108C0FC01CC
:1020B000808191816115710531F421E0FC018081FD
:1020C000882339F005C00E947D3421E0892B09F076
:1020D00020E0822F0895CF93DF93EC01FB01448130
:1020E0005581608171810E944D19811103C0CE011B
:1020F0000E948E19CE01DF91CF9108958F929F9209
:10210000AF92BF92CF92DF92EF92FF920F931F9305
:10211000CF93DF938C016A017B01C6EAD3E084E1AF
:10212000FE0111928A95E9F78CE3882E912CA12C5F
:10213000B12CCB01BA01A50194010E9426327F93F4
:102140006F93CA01B901A50194010E9426327F93C1
:102150006F93C701B60120E13EE040E050E00E94ED
:1021600026321F922F9386EA91E09F938F93DF93FD
:10217000CF930E94A734BE01C8010E94FD19EDB79C
:10218000FEB73A960FB6F894FEBF0FBEEDBFC8017A
:10219000DF91CF911F910F91FF90EF90DF90CF9043
:1021A000BF90AF909F908F900895213039F020F02C
:1021B000223031F4861B0895860F0895841B0895FC
:1021C000840F0895213039F020F0223031F4841B3F
:1021D0000895840F0895860F0895861B0895DC01E5
:1021E00018964C911897ED91FC911197249130E03D
:1021F000042E02C0359527950A94E2F7842F860FA6
:10220000883010F4E22F0DC031961196FC93EE93B6
:10221000E49198E0941B01C0EE0F9A95EAF7E22B47
:10222000885018968C9381E090E001C0880F6A95E1
:10223000EAF781508E2308955F926F927F928F927A
:102240009F92AF92BF92CF92DF92EF92FF920F9345
:102250001F93CF93DF935C01F62E642EEC01C05BDD
:10226000DF4F1C81DD804C018AE7880E911CEE80D7
:10227000E11ACF2CEF1408F4CE2C5B800C85202FB4
:102280004D2D612F8A810E94D510782E202F4D2D43
:10229000612F852D0E94E210482F662011F08A855B
:1022A00004C08985811108C08B85F40180832C2DA1
:1022B000672DC5010E94BD27FE1420F0FE18D3949F
:1022C00010E0D5CF1F0D1C83DD82DF91CF911F91D0
:1022D0000F91FF90EF90DF90CF90BF90AF909F90C5
:1022E0008F907F906F905F9008951F93CF93DF93AF
:1022F000EC01A881B981683109F493C030F46431EC
:1023000009F484C0673149F0E1C0693109F4CDC0F6
:10231000603209F0DBC06AE4D4C01C968C9180FD69
:102320005EC0442309F4D0C0F90181919F0141505E
:10233000DFB7F894A0913602B09137029091350240
:10234000E0913302F0913402C09132027091310277
:1023500081110EC08C9198239C9388E090819C2BD6
:1023600090839081972390838150C1F7DFBFD9CFAD
:102370001091300258E06C9187FF02C0612B01C0C0
:1023800069236C9360816C2B6083880F6081672365
:102390006083515081F7EACFF90181919F0141504B
:1023A000DFB7F894A0913602B091370290913502D0
:1023B000E0913302F091340270913202C091310207
:1023C000811110C08C9198239C9388E090819C236C
:1023D00090839081972B90838150C1F7DFBF41118B
:1023E000DBCF72C01091300258E06C9187FF02C0C1
:1023F000612B01C069236C9360816C236083880F1B
:102400006081672B6083515081F7E8CF11964C9122
:1024100069E40E949225E881F9814485417060E475
:1024200050C04C9169E40E949225A881B981EA8547
:10243000FB8520E030E012964C916CE2CE010995CC
:102440008F8D90E0FC01E551F74FE491F0E0EE0F45
:10245000FF1FEF51F74F25913491309334022093B1
:102460003302FC01E150F74FE491E0933202E09532
:10247000E093310288A190E0FC01E551F74FE4912F
:10248000F0E0EE0FFF1FEF51F74F2591349130939D
:10249000370220933602FC01E150F74FE491E093BC
:1024A0003002E095E09335020FC0EA85FB8520E01D
:1024B00030E013964C916CE20995E881F9814181F5
:1024C00069E4CE010E94922581E001C080E0DF91A5
:1024D000CF911F9108958F929F92AF92BF92CF920A
:1024E000DF92EF92FF92CF93DF93EC016C3288F48E
:1024F0006A3208F089C06832B9F0693209F06DC0FB
:10250000C42ED12CE12CF12C0E94DD0F4B015C017B
:102510003DC06D3209F440C008F45FC084EB860F03
:10252000823008F448C059C07C012FE1E20EF11C52
:10253000D0E0F70181917F018F3F39F0D03110F465
:1025400061E001C062E00E94270DDF5FD63189F7AC
:102550005BC00E94DD0FDC01CB0188199909AA0933
:10256000BB09883E9340A105B10580F0F1E0CF1A88
:10257000D108E108F10828EE820E23E0921EA11C8A
:10258000B11CC114D104E104F10419F7C114D10440
:10259000E104F104F1F638C0433018F082E090E035
:1025A00002C085E090E0880F991F880F991F05975A
:1025B0000197F1F729C0862F8F73C80FD11D4111E4
:1025C00007C061E08F8D0E94270D60E08F8D12C0E3
:1025D00062E08F8D0E94270D17C06034B8F0962FEF
:1025E0009F73FE01E90FF11D878D8F3F69F09031D8
:1025F00020F4642F0E94F80C07C00E94CF0C21E049
:10260000892B09F420E02A8F81E001C080E0DF916E
:10261000CF91FF90EF90DF90CF90BF90AF909F90C1
:102620008F9008951F93CF93DF93C82F10921502B8
:10263000D4E11FE0E0911502E43020F5DE9FF001C7
:102640001124E654FC4F8481C81316C00E94630D08
:10265000E09115021E9FF0011124E658FB4F1086F1
:1026600011861286138610821182128213821482BE
:102670001582168217821686809115028F5F8093CD
:102680001502D8CFDF91CF911F9108950E94630D5D
:102690001092740480917404863960F480917204FD
:1026A0000E94CF0C892B91F4809174048F5F8093EA
:1026B0007404F0CF2091710480916F0490917004A4
:1026C000820F911D9093700480936F0408952F9250
:1026D0003F924F925F926F927F928F929F92AF92B2
:1026E000BF92CF92DF92EF92FF920F931F93CF93FF
:1026F000DF9300D000D0CDB7DEB7C82EBE016F5F2C
:102700007F4F88E090E00E94341D89819A81AB81DF
:10271000BC8120916F0430917004820F931F9093BD
:10272000700480936F04892B09F428C1109215025C
:1027300084E1382E9FE0D92E26E0222E80911502CA
:10274000843008F01BC190E0389EF001399EF00DF6
:102750001124E654FC4F2481C2120AC1D89EF00114
:10276000D99EF00D1124E658FB4F8685882309F485
:102770005FC00E94630D00916F04109170042801E6
:10278000612C712CBE016F5F7F4F80E190E00E9451
:10279000341D69817A818B819C81A30192010E9401
:1027A00002324B015C01BE016F5F7F4F88E090E019
:1027B0000E94341D89819A81AB81BC81892B8A2B2F
:1027C0008B2B09F04DC0BE016F5F7F4F80E290E020
:1027D0000E94341D89819A81AB81BC81840D951D35
:1027E000A61DB71D89839A83AB83BC83BE016F5F2F
:1027F0007F4F80E290E00E945A1DBE016F5F7F4FC5
:102800008CE490E00E94341D89819A81AB81BC8167
:10281000840D951DA61DB71D89839A83AB83BC8348
:10282000BE016F5F7F4F8CE490E00E945A1D18C07C
:1028300080906F0490907004A12CB12CBE016F5F4A
:102840007F4F84E190E00E94341D89819A81AB81A1
:10285000BC8188169906AA06BB0608F489C089CFF0
:10286000BE016F5F7F4F88E090E00E94341D898138
:102870009A81AB81BC81892B8A2B8B2B29F0B801E3
:102880008EE594E00E940D24BE016F5F7F4F8CE1C6
:1028900090E00E94341D89819A81AB81BC810196B0
:1028A000A11DB11D89839A83AB83BC83BE016F5F79
:1028B0007F4F8CE190E00E945A1DBE016F5F7F4FF9
:1028C00088E490E00E94341D89819A81AB81BC81AB
:1028D0000196A11DB11D89839A83AB83BC83BE0180
:1028E0006F5F7F4F88E490E00E945A1DB4018EE52F
:1028F00094E00E945924289CC001299C900D112429
:102900000E942C28E0901502F12CDE9C8001DF9CB7
:10291000100D112406581B4FF8018685882349F0B5
:1029200084819581A681B781880E991EAA1EBB1E3F
:102930000EC00E942625F8016083718382839383F1
:102940000E942625860E971EA81EB91EF8018482B5
:102950009582A682B782DE9CF001DF9CF00D1124E7
:10296000E658FB4F81E086871092700410926F0446
:10297000809115028F5F80931502E0CE0F900F902B
:102980000F900F90DF91CF911F910F91FF90EF90DB
:10299000DF90CF90BF90AF909F908F907F906F907F
:1029A0005F904F903F902F900895FC01E60FF11D2E
:1029B000849190E0982F88273196E4918E0F911D95
:1029C00008956F927F928F929F92AF92BF92CF9213
:1029D000DF92EF92FF920F931F93CF93DF93EC015F
:1029E000062F142F7901FC01E45AFF4F80818130BA
:1029F000C9F070F0823001F1833039F5FE01E25BFD
:102A0000FF4F0190F081E02DCE010995080F1DC008
:102A1000FE01E25BFF4F0190F081E02DCE010995B0
:102A2000180F13C0FE01E25BFF4F0190F081E02D13
:102A3000CE010995081B09C0FE01E25BFF4F019022
:102A4000F081E02DCE010995181BFE01EE5AFF4FD3
:102A500000833196108337978081918147962FEFBD
:102A6000E216F10409F040F5E1E6EE16F10420F07B
:102A7000FE01E059FF4F07C0F1E4EF16F10438F012
:102A8000FE01E259FF4F20813181820F931F9C018B
:102A90002F5F3F4FF9014491442309F40EC1FC011B
:102AA000449150E0E416F50611F4029634C0F901A1
:102AB0002491820F911DEBCFFE01EE58FF4FC08095
:102AC000D180C80ED91E860160E0C6010E94D514CF
:102AD000080F191F62E0C6010E94D514F4E0CF0E62
:102AE000D11C8E159F0580F3F801849190E0982FFA
:102AF00088273196E4918E2B009709F4DEC0E81602
:102B0000F90619F4C801039606C0F8013296E4915B
:102B10000E0F111DE9CF009709F4CFC07E01F0E53B
:102B2000EF0EF11CF701918380831086719660810E
:102B3000C7010E94EF10F701868372966081C7017A
:102B40000E94EF10D82EF70187835E01FAE7AF0EDF
:102B5000B11CF5019081F701928781E0911180E02D
:102B6000F7018387FE01ED59FF4F1081612FC701E7
:102B70000E94EF109FEF910F01E010E0980101C05B
:102B8000220F9A95EAF7782E721AFE01EC59FF4F40
:102B9000C0806C2DC7010E94EF10CA94480101C08B
:102BA000880CCA94EAF7682E6D0CFE01EB59FF4FB2
:102BB000C0806C2DC7010E94EF10CA9401C0000FA5
:102BC000CA94EAF7C82EC01AF701068110160CF055
:102BD00075C094848618292D482D672D82810E9406
:102BE000D510182FF7018283292D482D672D838159
:102BF0000E94E210F7018383F1E09F16B1F09F1667
:102C000078F022E09216B9F093E099121FC0212FBC
:102C10002D0D982F901B01E0080F81E0890F18C03F
:102C2000202F210F082F0D0D13C09D1821E0210F1B
:102C3000080F190D0DC091E0392F301B21E0210F35
:102C40009D1901E0080F890F130F02C0082F212FD3
:102C5000482F612FCE010E942C27882379F1F7019C
:102C6000148215828E01015A1F4F4E01F0E68F0E1D
:102C7000911CF8016081C7010E94EF10682EF401D9
:102C80006081C7010E94EF10782E40E0662DCE01D2
:102C90000E941C1141E0672DCE010E941C1161E0D1
:102CA000C7010E94EF108111F0CFF70185818D15CA
:102CB00004F38285F501808301C0C12C8C2DDF9146
:102CC000CF911F910F91FF90EF90DF90CF90BF9029
:102CD000AF909F908F907F906F900895CF93DF93E8
:102CE00000D000D000D0CDB7DEB765EB71E0CE01EB
:102CF00001960E94FD1969E274E0CE0101960E94DE
:102D00006B10BC0182E093E00E94E21ACE010196B2
:102D10000E94EF190E94851D69E274E0CE010196C0
:102D20000E94F41941E050E068EB71E0CE01019699
:102D30000E944D19882349F1BE016F5F7F4F8AE0E1
:102D400094E00E94E21ACE0101960E94EF196AEB0C
:102D500071E0CE0101960E94FD1969E274E0CE0196
:102D600001960E946B10BC0182E093E00E94E21A7F
:102D7000CE0101960E94EF1926960FB6F894DEBF99
:102D80000FBECDBFDF91CF910895CE0101960E9475
:102D90008E19D2CF1F93CF93DF9300D000D000D0F5
:102DA000CDB7DEB782E093E00E947C17892BF1F16A
:102DB00082E093E00E945A17182F682F89E294E06E
:102DC0000E947B191A3091F565EB71E0CE010196F6
:102DD0000E94FD1969E274E0CE0101960E946B1019
:102DE000BC0182E093E00E94E21ACE0101960E94AB
:102DF000EF190E94851D6AEB71E0CE0101960E94D9
:102E0000FD1969E274E0CE0101960E946B10BC01CD
:102E100082E093E00E94E21ACE0101960E94EF192F
:102E200069EB71E089E294E00E94C11926960FB621
:102E3000F894DEBF0FBECDBFDF91CF911F910895F3
:102E40000895CF92DF92EF92FF920F931F93CF934B
:102E5000DF936C017A018B01C0E0D0E0CE15DF0575
:102E600081F0D8016D918D01D601ED91FC91019019
:102E7000F081E02DC6010995892B11F02196EECF46
:102E80007E01C701DF91CF911F910F91FF90EF90CD
:102E9000DF90CF900895FC01538D448D252F30E0B5
:102EA000842F90E0821B930B541710F0CF96089557
:102EB00001970895FC01918D828D981761F0828DA4
:102EC000DF01A80FB11D5D968C91928D9F5F9F735E
:102ED000928F90E008958FEF9FEF0895FC01918D00
:102EE000828D981731F0828DE80FF11D858D90E06D
:102EF00008958FEF9FEF0895FC01918D228D892F0A
:102F000090E0805C9F4F821B91098F7399270895F1
:102F100082E093E00E947C1721E0892B09F420E0F5
:102F2000822F0895FC01848DDF01A80FB11DA35AE3
:102F3000BF4F2C91848D90E001968F739927848FD9
:102F4000A689B7892C93A089B1898C9183708064FC
:102F50008C93938D848D981306C00288F389E02D9D
:102F600080818F7D80830895EF92FF920F931F934E
:102F7000CF93DF93EC0181E0888F9B8D8C8D98132C
:102F800005C0E889F989808185FD26C0F62E0B8D64
:102F900010E00F5F1F4F0F731127E02E8C8DE8128A
:102FA0000CC00FB607FCFACFE889F989808185FF4C
:102FB000F5CFCE010E949217F1CF8B8DFE01E80F65
:102FC000F11DE35AFF4FF0829FB7F8940B8FEA8907
:102FD000FB89808180620AC09FB7F894EE89FF89DF
:102FE0006083E889F98980818370806480839FBFD2
:102FF00081E090E0DF91CF911F910F91FF90EF90D2
:103000000895CF93DF93EC01888D8823C9F0EA8976
:10301000FB89808185FD05C0A889B9898C9186FDD1
:103020000FC00FB607FCF5CF808185FFF2CFA889CE
:10303000B9898C9185FFEDCFCE010E949217E7CF21
:10304000DF91CF9108950E94881781110C94CA16C0
:10305000089585ED8093BC008091BC0084FDFCCF79
:103060001092CC0208954091A802262F30E0240F40
:10307000311D21323105DCF42091CC022430C9F419
:10308000FC0180E090E0861758F43091A80221916D
:10309000DC01A857BD4FA30FB11D2C930196F3CFB0
:1030A0008091A802680F6093A80280E0089581E0F3
:1030B000089582E0089508958FEF9FEF08958FEFB0
:1030C0009FEF08958091870290E0919581959109F5
:1030D0000895CF93DF93CB01EA01642F0E94331848
:1030E000CE01DF91CF910895CF93DF931F92CDB79B
:1030F000DEB7698361E0CE0101960E94331881E05A
:1031000090E00F90DF91CF910895209113023091BC
:1031100014022817390771F490911102809112025C
:10312000981741F0E0911102F0E0E95BFD4F8081DA
:1031300090E008958FEF9FEF08951F93CF93DF9353
:10314000DC015C968D919C915D97009739F421E0AC
:1031500030E013963C932E9312973BC05196ED911D
:10316000FC91529750962C915097322F30951FB763
:103170005E964C915E97742F727041FD6095F89445
:103180004081772311F0422B01C043234083EC019F
:103190002197F1F748E0508160FF02C0522B01C037
:1031A00053235083EC012197F1F76695415099F72D
:1031B0008081772319F08323808302C0282B20830A
:1031C0001FBF5C968D919C915D970197F1F781E00F
:1031D00090E0DF91CF911F910895209113023091DB
:1031E00014022817390771F48091120220911102FC
:1031F00090E0805C9F4F821B910960E470E00E9428
:103200001232089580E090E00895209113023091E9
:10321000140228173907B9F4909111028091120213
:10322000981789F0E0911102F0E0E95BFD4F808191
:103230002091110230E02F5F3F4F2F7333272093EF
:10324000110290E008958FEF9FEF08950F931F9361
:10325000CF93DF93EC0188819981009729F02A812F
:103260003B812617370788F48B016F5F7F4F0E94E1
:10327000A233009761F0998388831B830A832C8192
:103280003D81232B11F4FC01108281E001C080E01C
:10329000DF91CF911F910F910895EF92FF920F93BD
:1032A0001F93CF93DF936115710511F480E01CC06B
:1032B00041155105C1F07B01EC018C819D818A0192
:1032C000080F191FB801CE010E942619882371F337
:1032D000288139818C819D81B701820F931F0E94C3
:1032E00086341D830C8381E0DF91CF911F910F9174
:1032F000FF90EF900895CF93DF9300D0CDB7DEB766
:1033000069831A8241E050E0BE016F5F7F4F0E94E7
:103310004D190F900F90DF91CF910895CF93DF93C8
:10332000EC0188819981009711F00E94193319826C
:1033300018821D821C821B821A82DF91CF91089510
:10334000EF92FF920F931F93CF93DF93EC017B01DA
:103350008A01BA010E942619811104C0CE010E947F
:103360008E1907C01D830C83B701888199810E9443
:103370008634CE01DF91CF911F910F91FF90EF9096
:103380000895CF93DF93EC016115710559F0FB01AE
:1033900001900020E9F73197AF01461B570B0E94BF
:1033A000A01902C00E948E19CE01DF91CF9108951D
:1033B000CF93DF93EC01FB018617970761F06081E3
:1033C00071816115710529F0448155810E94A01910
:1033D00002C00E948E19CE01DF91CF910895FC01A9
:1033E000808191810C941933FC0111821082138227
:1033F0001282158214820C94D819FC011182108259
:1034000013821282158214826115710551F0FB013D
:1034100001900020E9F73197AF01461B570B0C9440
:10342000A01908951F920F920FB60F9211242F9397
:103430003F934F935F936F937F938F939F93AF933C
:10344000BF93EF93FF93E0910201F091030109957F
:10345000FF91EF91BF91AF919F918F917F916F916C
:103460005F914F913F912F910F900FBE0F901F9042
:1034700018951F920F920FB60F9211242F933F931E
:103480004F935F936F937F938F939F93AF93BF936C
:10349000EF93FF93E0910001F09101010995FF91F5
:1034A000EF91BF91AF919F918F917F916F915F91BC
:1034B0004F913F912F910F900FBE0F901F90189535
:1034C0001F920F920FB60F9211242F933F934F9399
:1034D0005F936F937F938F939F93AF93BF93EF937C
:1034E000FF9380911D0290911E02A0911F02B09146
:1034F0002002892B8A2B8B2B59F190911A02E09193
:103500001B02F0911C0280818927808380911D021B
:1035100090911E02A0911F02B09120021816190668
:103520001A061B060CF03DC080911D0290911E02F0
:10353000A0911F02B09120020197A109B1098093C7
:103540001D0290931E02A0931F02B093200229C077
:1035500080910401EDE4F8E0E4919FEF9093040181
:10356000E130B9F098F0E230C9F4909170009D7F9D
:103570009093700091E09093B0009091B100987F8B
:1035800094609093B1001092B30008C010926E0046
:1035900005C090916F009D7F90936F0060E00E9446
:1035A000F80CFF91EF91BF91AF919F918F917F9117
:1035B0006F915F914F913F912F910F900FBE0F90A0
:1035C0001F901895DB0114964D915C9115976D91A4
:1035D0007C91DC01ED91FC910280F381E02D099456
:1035E0001F920F920FB60F9211242F933F934F9378
:1035F0005F936F937F938F939F93AF93BF93EF935B
:10360000FF9382E093E00E949217FF91EF91BF91A8
:10361000AF919F918F917F916F915F914F913F916A
:103620002F910F900FBE0F901F9018951F920F9221
:103630000FB60F9211242F938F939F93EF93FF93C5
:10364000E0911203F09113038081E0911803F0914F
:10365000190382FD12C0908180911B038F5F8F73CD
:1036600020911C03821751F0E0911B03F0E0EE5F04
:10367000FC4F958F80931B0301C08081FF91EF91D8
:103680009F918F912F910F900FBE0F901F901895C3
:103690001F920F920FB60F9211242F933F934F93C7
:1036A0005F936F937F938F939F93AF93BF93EF93AA
:1036B000FF938091B900887F803609F49CC068F53B
:1036C000883209F45BC090F4803109F454C038F4B6
:1036D000882309F4F2C0883009F44DC0F2C0883163
:1036E00009F44CC0803209F45DC0EBC0803409F4A9
:1036F00068C048F4803309F455C0883309F0E1C04C
:103700008093CB02D4C0803509F44FC0883509F4CA
:103710005DC0883409F0D5C0D2C0883909F4C3C06F
:10372000A8F4883709F467C038F4883609F463C010
:10373000803709F460C0C5C0883809F4B4C0803946
:1037400009F45FC0803809F0BCC05BC0803B09F45D
:1037500084C038F4803A09F466C0883A09F47DC020
:10376000B0C0803C09F4A3C0883C09F4A0C0883BE9
:1037700009F486C0A6C08091F10210C09091F002B9
:103780008091EF02981770F5E091F00281E08E0FC2
:103790008093F002F0E0E153FD4F80818093BB0005
:1037A00085EC82C08093CB028AC0E091F00281E078
:1037B0008E0F8093F0028091BB00F0E0E153FD4F4B
:1037C00080839091F0028091EF026AC0E091F00254
:1037D00081E08E0F8093F0028091BB00F0E0E15316
:1037E000FD4F80838091CE02811169C081E080937A
:1037F000CD0284EA5DC083E08093CC021092CA02BD
:10380000CFCF8091CA02803208F04DC0E091CA0249
:1038100081E08E0F8093CA028091BB00F0E0E655F4
:10382000FD4F8083BDCF85EC8093BC001092CC020D
:103830008091CA02803230F4E091CA02F0E0E6558D
:10384000FD4F10826091CA0270E08AEA92E0E0E0E7
:10385000F0E009951092CA0234C084E08093CC0253
:103860001092A9021092A802E0E0F0E00995809180
:10387000A802811105C081E08093A80210928802FD
:10388000E091A90281E08E0F8093A902F0E0E85751
:10389000FD4F80818093BB009091A9028091A80286
:1038A000981708F47DCF85E88093BC000AC085ECAA
:1038B0008093BC001092CC0204C01092CB020E94F4
:1038C0002918FF91EF91BF91AF919F918F917F91B7
:1038D0006F915F914F913F912F910F900FBE0F907D
:1038E0001F901895E5ECF8E06591749188E392E0FB
:1038F0000E94112F88E392E00895E1ECF8E06591D1
:10390000749188E392E00E94112F88E392E0089579
:10391000EDEBF8E06591749188E392E00E94112F3D
:1039200088E392E00895CF93DF93EC018C810E94AD
:10393000CF0C2E8130E041E02817390709F040E034
:10394000842FDF91CF9108951F920F920FB60F929F
:1039500011242F933F934F935F936F937F938F9394
:103960009F93AF93BF93EF93FF93E0911302F09176
:103970001402309709F451C0968DA685B7858585C8
:1039800091FF04C09C91892329F447C09C9189230D
:1039900009F043C0A389B4899C91858980958923C6
:1039A0008C93868997890197F1F7608D718DA68533
:1039B000B785558538E020E0CB010197F1F7822FDC
:1039C00090E095958795282F4C91452309F0206824
:1039D000315091F7868D81FD20958091120290E003
:1039E00001968F73992730911102381749F0A091F1
:1039F0001202B0E0A95BBD4F2C938093120203C06A
:103A0000868D8160868F828D938D0197F1F7A389D2
:103A1000B4899C918589892B8C93FF91EF91BF91FB
:103A2000AF919F918F917F916F915F914F913F9156
:103A30002F910F900FBE0F901F901895E0911302D9
:103A4000F0911402E817F90769F4A389B4899C91ED
:103A50008589809589238C93109214021092130209
:103A600081E0089580E00895CF92DF92EF92FF9277
:103A70000F931F93CF93DF93EB017B0124E0E20EC2
:103A8000F11C8B016C01C61AD70AC601800F911F69
:103A90000E948330F80181938F01EE15FF05A9F78D
:103AA000CE01DF91CF911F910F91FF90EF90DF90AA
:103AB000CF900895AF92BF92DF92EF92FF920F9353
:103AC0001F93CF93DF93EC017B018B015C0184E0BA
:103AD000A80EB11CF801D1908F01CE010E94833055
:103AE000D81621F06D2DCE010E948B302196CA157B
:103AF000DB0581F7C701DF91CF911F910F91FF90F7
:103B0000EF90DF90BF90AF9008954F925F926F92C9
:103B10007F928F929F92AF92BF92CF92DF92EF925D
:103B2000FF920F931F93CF93DF93CDB7DEB7C055AE
:103B3000D1090FB6F894DEBF0FBECDBFBE016F5FD7
:103B40007F4F84E090E00E94341D49815A816B814F
:103B50007C81CE0101960E94922866E971E0CE0137
:103B600007960E94FD19BE016F5F7F4FCE01079639
:103B70000E946B10BC01CE018D5B9F4F0E94F41917
:103B8000CE0107960E94EF19CE0101960E94EF190F
:103B90006DEB71E0CE01CD960E94FD196FEB71E0E7
:103BA000CE01C7960E94FD1960E070E0CE01CD966F
:103BB0000E94BF285C01BB2485010F5F1F4FB80125
:103BC000CE01CD960E94BF286C01DD2446018FEF07
:103BD000881A980AB401CE01CD960E94BF287C01B4
:103BE000A50160E070E0CE01C1960E94DF28A60129
:103BF000B801CE018B960E94DF28FF24A701B401F3
:103C0000CE0185960E94DF2840912D0450912E040C
:103C1000B7016F5F7F4FCE014F960E94DF28BE0134
:103C20006F5C7F4FCE0101960E94F419CE01019680
:103C30000E9423294B015C01CE0101960E94EF19DD
:103C4000BE016B5D7F4FCE0101960E94F419CE013B
:103C500001960E9423296B017C01CE0101960E94EE
:103C6000EF19BE01615E7F4FCE0101960E94F419EB
:103C7000CE0101960E9423292B013C01CE01019621
:103C80000E94EF19BE016D5B7F4FCE0101960E942D
:103C9000F419BE01635C7F4FCE0101960E946B1048
:103CA000BE01655D7F4F0E946B10BE01635C7F4F5C
:103CB0000E946B10BC0189E294E00E94D819CE01E9
:103CC00001960E94EF1962EC71E0CE018B960E9482
:103CD0004C10882359F0B701A60188E394E00E94B4
:103CE000A524CE01C7960E948928F9C265EC71E02F
:103CF000CE018B960E944C10BE016F5F7F4F8823D0
:103D000009F4DCC288E090E00E94341D49815A81A8
:103D10006B817C81CE0107960E949228BE01695F6B
:103D20007F4FCE0101960E94F419BE01635C7F4F64
:103D3000CE0101960E946B100E948928CE01019647
:103D40000E94EF19CE0107960E94EF19BE016F5F26
:103D50007F4F80E890E00E94341D49815A816B8139
:103D60007C81CE0101960E949228BE01695F7F4F3F
:103D700084E890E00E94341D4F81588569857A85DA
:103D8000CE0107960E949228BE01635F7F4F88E8AC
:103D900090E00E94341D4D855E856F857889CE0147
:103DA00043960E949228BE016D5E7F4FCE010D9614
:103DB0000E94F419BE01635C7F4FCE010D960E94F4
:103DC0006B10BE01695F7F4F0E946B10BE01635C88
:103DD0007F4F0E946B10BE016F5F7F4F0E946B1080
:103DE000BE01635C7F4F0E946B100E948928CE0148
:103DF0000D960E94EF19CE0143960E94EF19CE0155
:103E000007960E94EF19CE0101960E94EF19BE019C
:103E10006F5F7F4F88E190E00E94341D49815A8195
:103E20006B817C81CE0101960E949228BE01695F60
:103E30007F4F84E190E00E94341D4F815885698551
:103E40007A85CE0107960E949228BE01635F7F4F5C
:103E500080E190E00E94341D4D855E856F857889F4
:103E6000CE010D960E9492280E942625AB01BC012E
:103E7000CE0149960E949228BE01675E7F4FCE0117
:103E800043960E94F419BE01635C7F4FCE014396B6
:103E90000E946B10BE01635F7F4F0E946B10BE01DA
:103EA000635C7F4F0E946B10BE01695F7F4F0E9471
:103EB0006B10BE01635C7F4F0E946B10BE016F5F91
:103EC0007F4F0E946B10BE01635C7F4F0E946B109E
:103ED0000E948928CE0143960E94EF19CE0149968F
:103EE0000E94EF19CE010D960E94EF19CE010796A0
:103EF0000E94EF19CE0101960E94EF19E0912F0464
:103F0000F09130044085518562857385CE01079616
:103F10000E949228BE01695F7F4FCE0101960E94E8
:103F2000F419BE01635C7F4FCE0101960E946B10B5
:103F30000E948928CE0101960E94EF19CE010796B2
:103F40000E94EF19E0912F04F09130044789508DC1
:103F5000618D728DCE0107960E949228BE01695F25
:103F60007F4FCE0101960E94F419BE01635C7F4F22
:103F7000CE0101960E946B100E948928CE01019605
:103F80000E94EF19CE0107960E94EF19E0912F04CD
:103F9000F091300446A157A160A571A5CE01079606
:103FA0000E949228BE01695F7F4FCE0101960E9458
:103FB000F419BE01635C7F4FCE0101960E946B1025
:103FC0000E948928CE0101960E94EF19CE01079622
:103FD0000E94EF19E0912F04F091300445A956A9F1
:103FE00067A970ADCE0107960E949228BE01695F55
:103FF0007F4FCE0101960E94F419BE01635C7F4F92
:10400000CE0101960E946B100E948928CE01019674
:104010000E94EF19CE0107960E94EF19BE016F5F53
:104020007F4F88E490E00E94341D49815A816B8162
:104030007C81CE0101960E949228BE01695F7F4F6C
:104040008CE190E00E94341D4F81588569857A8506
:10405000CE010D960E949228BE01635F7F4FCE0174
:1040600007960E94F419BE01635C7F4FCE0107964C
:104070000E946B10BE016F5F7F4F0E946B10BE01EC
:10408000635C7F4F0E946B100E948928CE010796C7
:104090000E94EF19CE010D960E94EF19CE010196F4
:1040A0000E94EF19BE016F5F7F4F8CE490E00E9489
:1040B000341D49815A816B817C81CE0101960E9419
:1040C0009228BE01695F7F4F80E290E00E94341D1C
:1040D0004F81588569857A85CE010D960E94922878
:1040E000BE01635F7F4FCE0107960E94F419BE01A7
:1040F000635C7F4FCE0107960E946B10BE016F5F1D
:104100007F4F0E946B10BE01635C7F4F0E946B105B
:104110000E948928CE0107960E94EF19CE010D96C4
:104120000E94EF19CE0101960E94EF19BE016F5F48
:104130007F4F80E590E00E94341D49815A816B8158
:104140007C81CE0101960E949228BE01695F7F4F5B
:1041500084E290E00E94341D4F81588569857A85FC
:10416000CE010D960E949228BE01635F7F4FCE0163
:1041700007960E94F419BE01635C7F4FCE0107963B
:104180000E946B10BE016F5F7F4F0E946B10BE01DB
:10419000635C7F4F0E946B100E948928CE010796B6
:1041A0000E94EF19CE010D960E94EF19CE010196E3
:1041B0000E94EF19BE016F5F7F4F84E590E00E947F
:1041C000341D49815A816B817C81CE0101960E9408
:1041D0009228BE01695F7F4F80E490E00E94341D09
:1041E0004F81588569857A85CE010D960E94922867
:1041F000BE01635F7F4FCE0107960E94F419BE0196
:10420000635C7F4FCE0107960E946B10BE016F5F0B
:104210007F4F0E946B10BE01635C7F4F0E946B104A
:104220000E948928CE0107960E94EF19CE010D96B3
:104230000E94EF19CE0101960E94EF19BE016F5F37
:104240007F4F88E590E00E94341D49815A816B813F
:104250007C81CE0101960E949228BE01695F7F4F4A
:1042600084E490E00E94341D4F81588569857A85E9
:10427000CE010D960E949228BE01635F7F4FCE0152
:1042800007960E94F419BE01635C7F4FCE0107962A
:104290000E946B10BE016F5F7F4F0E946B100E94E7
:1042A0008928CE0107960E94EF19CE010D960E9433
:1042B000EF19CE0101960E94EF1911C08CE090E039
:1042C0000E94341D89819A81AB81BC818816990630
:1042D000AA06BB0659F088EC91E00E94782888EB8A
:1042E00091E00E947828CE014F9630C16BEC71E0CE
:1042F000CE018B960E944C10882361F06196CCAE63
:10430000DDAEEEAEFFAE6197BE01635B7F4F88E02E
:1043100090E0A3C06EEC71E0CE018B960E944C1031
:10432000882309F451C0BE016F5F7F4F80E190E0A8
:104330000E94341D89819A81AB81BC81489E4001D5
:10434000499E900C589E900C1124B20188E394E091
:104350000E940D24B40188E394E00E945924A12C0A
:10436000B12C2FE02C9DC0012D9D900D1124E090CB
:104370002F04F0903004E80EF91EF701868588239B
:1043800049F084819581A681B781880E991EAA1E65
:10439000BB1E0EC00E942625F701608371838283B5
:1043A00093830E942625860E971EA81EB91EF7012C
:1043B00084829582A682B78281E0F7018687CE014A
:1043C000C7960E948928BCC061ED71E0CE018B9632
:1043D0000E944C10882361F02D96CCAEDDAEEEAE7F
:1043E000FFAE2D97BE01675B7F4F8CE090E035C03C
:1043F00064ED71E0CE018B960E944C10882351F041
:10440000C98EDA8EEB8EFC8EBE01675E7F4F80E137
:1044100090E023C067ED71E0CE018B960E944C10B6
:10442000882351F0CB8ADC8AED8AFE8ABE016D5E5C
:104430007F4F84E190E011C06AED71E0CE018B9670
:104440000E944C10882371F0CD86DE86EF86F88AB4
:10445000BE01635F7F4F88E190E00E945A1DCE014C
:10446000C796AFCF6DED71E0CE018B960E944C10D8
:10447000882341F1CF82D886E986FA8664E474E025
:1044800088E090E00E945A1D68E374E08CE090E0C0
:104490000E945A1D6CE374E080E190E00E945A1D76
:1044A00064E474E084E190E00E945A1D60E474E0EA
:1044B00088E190E00E945A1DBE01695F7F4F84E849
:1044C00090E02FC060EE71E0CE018B960E944C1000
:1044D000882351F1C982DA82EB82FC8264E474E0C1
:1044E0008CE190E00E945A1D64E474E080E290E068
:1044F0000E945A1D64E474E084E290E00E945A1D18
:1045000064E474E080E490E00E945A1D64E474E086
:1045100084E490E00E945A1DBE016F5F7F4F80E8E7
:1045200090E00E945A1D4BCF63EE71E0CE018B9656
:104530000E944C108111FFCF86EE91E00E947828F6
:1045400088EB91E00E947828CE014F960E94EF19E7
:10455000CE0185960E94EF19CE018B960E94EF192D
:10456000CE01C1960E94EF19CE01C7960E94EF19A5
:10457000CE01CD960E94EF19CE018D5B9F4F0E9418
:10458000EF19C05BDF4F0FB6F894DEBF0FBECDBF93
:10459000DF91CF911F910F91FF90EF90DF90CF901F
:1045A000BF90AF909F908F907F906F905F904F9053
:1045B000089580E00895DC011696ED91FC9117971F
:1045C00020E030E040E069E10994DC011696ED91CD
:1045D000FC91179720E030E040E068E109949A01EF
:1045E000DC011696ED91FC911797462F67E109942F
:1045F000462FDC011696ED91FC91179720E030E0F4
:1046000065E109949A01DC011896ED91FC911997E6
:10461000462F67E10994CF93DF931F92CDB7DEB7A2
:104620006983AE014F5F5F4F61E00E9402230F90EC
:10463000DF91CF910895FC016623D9F16A30C9F169
:10464000818D811124C06C3F20F085E0818F6170E5
:104650001AC0683F20F084E0818F637014C0603F0F
:1046600020F083E0818F67700EC0603E20F082E012
:10467000818F6F7008C0603C20F081E0818F6F7186
:1046800002C070E01BC070E0738B628B15C081505C
:10469000818F2289338996E0220F331F9A95E1F7A3
:1046A0006F73A901462BBA01738B628B811104C011
:1046B00005C06FEF7FEF02C06EEF7FEFCB01089573
:1046C000662329F06A3019F0862F90E008958FEF65
:1046D0009FEF08950F93DC01DF963C91DF97431B1A
:1046E000D596ED91FC91D69709950F910895CF93AA
:1046F000DF93FC01A081B18193AD892F880F880FD2
:10470000880F86AF50968C915097803208F08FE1D9
:10471000880F880F880F85AF24AD822F880F880FF0
:10472000880F87AF51963C915197422F50E0490F27
:10473000511D632F70E06417750714F4932F921BBB
:10474000EF01C05CDF4F8883219628E0929F800DA7
:1047500011248883219680EF888354968D919C91B3
:104760005597813F910508F48883ED5BFF4F56967E
:104770008C918083DF91CF9108950F93CF93DF9336
:10478000DC01ED91FC915089362F3770E0E8F0E0C4
:1047900002C0F595E7953A95E2F73E2FA52FB0E0D8
:1047A000FC01C1ADD2AD669566956695E62FF0E049
:1047B000459FE00DF11D1124EC0FFD1FEC01C658C3
:1047C000DF4F01111DC08881823018F49081932B36
:1047D00090838881813019F090819327908336955A
:1047E00011F4319630E8215071F711C08881813081
:1047F00019F0908193279083EA0FFB1F215039F025
:104800008881823098F79081932B9083EFCFDF914E
:10481000CF910F91089580E00895CF92DF92EF92AB
:10482000FF92CF93DF9300D000D0CDB7DEB76B01FE
:10483000BE016F5F7F4F80E490E00E94341DE12C49
:10484000F12C89819A81AB81BC818C0D9D1DAE1D9F
:10485000BF1D89839A83AB83BC83BE016F5F7F4F8B
:1048600080E490E00E945A1DBE016F5F7F4F84E597
:1048700090E00E94341D89819A81AB81BC81C80E71
:10488000D91EEA1EFB1EC982DA82EB82FC82BE01BF
:104890006F5F7F4F84E590E00E945A1D0F900F904C
:1048A0000F900F90DF91CF91FF90EF90DF90CF901E
:1048B0000895CF92DF92EF92FF92CF93DF9300D0D3
:1048C00000D0CDB7DEB76B01BE016F5F7F4F84E2D2
:1048D00090E00E94341DE12CF12C89819A81AB81FA
:1048E000BC818C0D9D1DAE1DBF1D89839A83AB833A
:1048F000BC83BE016F5F7F4F84E290E00E945A1D2F
:10490000BE016F5F7F4F80E590E00E94341D89817A
:104910009A81AB81BC81C80ED91EEA1EFB1EC982DA
:10492000DA82EB82FC82BE016F5F7F4F80E590E010
:104930000E945A1D0F900F900F900F90DF91CF9112
:10494000FF90EF90DF90CF900895EF92FF920F933A
:104950001F93CF93DF9300D000D0CDB7DEB77C019B
:1049600049835A836B837C838C01045F1F4FB8019A
:1049700088E090E00E945A1DB7018CE090E00E9410
:104980005A1DB7016C5F7F4F80E190E00E945A1D75
:10499000B80184E190E00E945A1DB701685F7F4F23
:1049A00088E190E00E945A1DB8018CE190E00E94DD
:1049B0005A1DB80180E290E00E945A1DB80184E2BD
:1049C00090E00E945A1DB80180E490E00E945A1DB8
:1049D000B80184E490E00E945A1DB80188E490E098
:1049E0000E945A1DB8018CE490E00E945A1DB80143
:1049F00080E590E00E945A1DB80184E590E00E9495
:104A00005A1DB80188E590E00E945A1DBE016F5FF3
:104A10007F4F80E890E00E945A1DBE016F5F7F4F7C
:104A200084E890E00E945A1DBE016F5F7F4F88E8C6
:104A300090E00E945A1D0F900F900F900F90DF9101
:104A4000CF911F910F91FF90EF9008952FB7F89499
:104A500060911602709117028091180290911902CC
:104A60002FBF28EE33E040E050E00E942632CA011A
:104A7000B9010895FC018081811102C00C94DD0F01
:104A8000813079F48FB7F894409116025091170253
:104A900060911802709119028FBF342F252FCB011E
:104AA00004C0823011F40C942625632F722F0895D0
:104AB0000F931F93CF93DF93EC010E943A250C8153
:104AC0001D812E813F81DC01CB01801B910BA20B4C
:104AD000B30B088519852A853B8580179107A207A6
:104AE000B307D8F0CE010E943A256C837D838E8374
:104AF0009F838981882389F09A81992371F09F3F50
:104B000029F08B81891748F48F5F8B83EC85FD85B5
:104B1000DF91CF911F910F910994DF91CF911F9158
:104B20000F910895DC011A96ED91FC911B9720E0FE
:104B300030E00994CF92DF92EF92FF920F931F9390
:104B4000CF93DF93EC01142F7901663131F1F8F442
:104B5000643109F47BC0653109F086C068EF0E94BA
:104B60000B2341E06CE2CE010E949225612F607F11
:104B7000CE010E940B2341E06CE2CE010E949225FF
:104B8000612F6295607FCE010E940B2358C0673170
:104B900099F06A3108F068C059C068EF0E940B2391
:104BA000612F607FCE010E940B23612F6295607F91
:104BB000CE010E940B2348C06AEF0E940B2341E004
:104BC0006CE2CE010E9492256701012F083058F453
:104BD000812F8695869586951770E8E08E9FE00C6C
:104BE000F11C11241AC0E2EFF2E0D6018D91982F4A
:104BF000907F90838295807F8183329683E0E2303C
:104C0000F807A1F798E0C90ED11C085042EF52E016
:104C100060E1CE010E940223D9CF112381F0F70178
:104C200001917F01602F607FCE010E940B23602FD6
:104C30006295607FCE010E940B231150EECF41E0C0
:104C40006CE2CE010E94922581E00FC0E885F985D3
:104C50009701412FCE01DF91CF911F910F91FF90CE
:104C6000EF90DF90CF90099480E0DF91CF911F917A
:104C70000F91FF90EF90DF90CF900895EF92FF9209
:104C80000F931F93CF93DF931F92CDB7DEB77C01B5
:104C90008B01D8016C916731E1F078F46531A0F1B6
:104CA000F80141814983D7011696ED91FC91179740
:104CB00020E030E0C701099524C06A31A8F06E3FBA
:104CC00019F5F8014181498369E2C7010E949225E3
:104CD00018C0F80181818983AE014F5F5F4F61E0A9
:104CE000C7010E94EF220DC00F5F1F4FD70116961C
:104CF000ED91FC91179720E030E040E0C701099565
:104D0000C8CF0E5F1F4FC5CF0F90DF91CF911F917E
:104D10000F91FF90EF900895AF92BF92CF92DF92E4
:104D2000EF92FF920F931F93CF93DF93EC016930C3
:104D300031F480E391E0998388831C8A7FC07901F4
:104D40006B30E1F16F3009F444C06A3009F078C08B
:104D5000EA85FB8520E030E040E068E20995EE81DD
:104D6000FF8120E030E040E064E1CE01099541E0C0
:104D70006BE4CE010E949225E881F981448169E2C9
:104D8000CE010E94922540E06BE4CE010E94922564
:104D9000E881F981448169E2CE010E94922541E0D7
:104DA0006BE4CE010E949225E881F981458169E298
:104DB000CE010E9492256DE171E007C0411103C050
:104DC00066E171E002C06BE071E0CE010E943E2618
:104DD00035C0F9010481000F000F000F13811695F3
:104DE000003210F00052185FCE010E94E522F70158
:104DF000A080B1806EE3CE010E94F8226EE3CE0166
:104E00000E94F822D12C10686D2D600F6068CE01D1
:104E10000E94F822612FCE010E94F822F701C28081
:104E2000A5016C2DCE010E94EF22AC0CB11CD394D5
:104E3000F8E0DF12E9CFCE010E94DB2281E001C061
:104E400080E0DF91CF911F910F91FF90EF90DF9065
:104E5000CF90BF90AF9008950F93FC01EA5BFF4F96
:104E6000308131965081451728F4301730F00417FF
:104E700020F010C03017D8F30DC0FC01EC5BFF4FE1
:104E8000308131968081681738F4321740F081E024
:104E9000261730F080E004C03217C8F3FBCF81E062
:104EA0000F9108952F923F924F925F926F927F924F
:104EB0008F929F92AF92BF92CF92DF92EF92FF922A
:104EC0000F931F93CF93DF93EC014C0184E4880E82
:104ED000911CF4011082329720805E01F5E4AF0E40
:104EE000B11CF5012082359730806E01F6E4CF0EBB
:104EF000D11CF6013082359740807E01F7E4EF0E39
:104F0000F11CF7014082349610813297608031960F
:104F1000708032975080012F262D472D652DCE01B0
:104F20000E942C27CC58DF4F811102C0188212C07A
:104F300081E08883552011F0F4015082621410F44E
:104F4000F5016082371410F4F6017082141510F424
:104F5000F7011083DF91CF911F910F91FF90EF9098
:104F6000DF90CF90BF90AF909F908F907F906F9089
:104F70005F904F903F902F9008950F93DC01802F0A
:104F8000FD01EC58FF4F9081992309F463C022235F
:104F900009F460C0223048F0023019F46F5F621BE0
:104FA00004C0033011F44F5F421B082F0170FD0154
:104FB00080FD25C0EA5BFF4F8081481708F44AC096
:104FC00031968081481708F045C03297908131971B
:104FD0008081260F261730F4691718F42FEF290F58
:104FE00003C0682F6917B0F58217A0F5681708F499
:104FF000682F291708F4922F292F261B22C0EC5B5B
:10500000FF4F8081681730F131968081681710F565
:105010003296908131978081240F241730F44917FC
:1050200018F42FEF290F03C0482F491798F482175F
:1050300088F4481708F4482F291708F4922F292FCD
:10504000241BD796ED91FC91D8970480F581E02D33
:10505000CD0109950F910895CF92DF92EF92FF92C3
:10506000CF93DF9300D000D0CDB7DEB76C01BE0187
:105070006F5F7F4F84E490E00E94341DE12CF12C9F
:1050800089819A81AB81BC818C0D9D1DAE1DBF1D98
:1050900089839A83AB83BC83BE016F5F7F4F84E4B7
:1050A00090E00E945A1DBE016F5F7F4F88E590E03F
:1050B0000E94341D89819A81AB81BC81C80ED91EA2
:1050C000EA1EFB1EC982DA82EB82FC82BE016F5FA0
:1050D0007F4F88E590E00E945A1D0F900F900F902F
:1050E0000F90DF91CF91FF90EF90DF90CF900895D8
:1050F000009769F0FC0101900020E9F73197AF01BA
:10510000481B590BBC0189E294E00C944D1980E0D6
:105110000895FC01448155816081718189E294E0A8
:105120000C944D190F931F93CF93DF93CDB7DEB738
:10513000A1970FB6F894DEBF0FBECDBF8C01CB0197
:10514000BA01F80111821082138212821582148230
:105150002AE0AE014F5F5F4F0E942D2FBE016F5FAF
:105160007F4FC8010E94C119A1960FB6F894DEBF07
:105170000FBECDBFDF91CF911F910F910895CF93B7
:10518000DF9320912D0430912E046217730790F461
:105190009B01FC01C0912904D0912A046081718196
:1051A000CE01820F931F0E948D34009719F08C1B43
:1051B0009D0B02C08FEF9FEFDF91CF910895CF92AB
:1051C000DF92EF92FF920F931F93CF93DF936C01C7
:1051D0008B017A014617570720F4812F8A01E62EAA
:1051E000F82E69EB71E0C6010E94FD19C0912D04F3
:1051F000D0912E040C171D07E0F4EC16FD0608F400
:10520000E701E0912904F0912A04EC0FFD1FF080E2
:1052100010826091290470912A04600F711FC601E9
:105220000E94C1198091290490912A04C80FD91FA6
:10523000F882C601DF91CF911F910F91FF90EF90FF
:10524000DF90CF900895CF92DF92EF92FF920F936D
:105250001F93CF93DF9300D000D000D0CDB7DEB73F
:105260008C0169EB71E0CE0101960E94FD1910924C
:1052700049048091490490E0F80124813581821726
:10528000930730F5408151814115510529F0FA010C
:10529000E80FF91F208101C020E0022E000C330B23
:1052A000205331092A30310568F44115510529F0A0
:1052B000FA01E80FF91F608101C060E0CE0101969C
:1052C0000E947B19809149048F5F80934904D1CF5C
:1052D00089819A81009729F00E94EA2E6B017C0156
:1052E00003C0C12CD12C7601CE0101960E94EF198A
:1052F000C701B60126960FB6F894DEBF0FBECDBF2C
:10530000DF91CF911F910F91FF90EF90DF90CF90A1
:105310000895CF93DF93CDB7DEB728970FB6F894F3
:10532000DEBF0FBECDBF789484B5826084BD84B5E6
:10533000816084BD85B5826085BD85B5816085BD90
:1053400080916E00816080936E0010928100809148
:1053500081008260809381008091810081608093D0
:105360008100809180008160809380008091B100F5
:1053700084608093B1008091B00081608093B00020
:1053800080917A00846080937A0080917A008260B4
:1053900080937A0080917A00816080937A00809176
:1053A0007A00806880937A001092C100BE016F5F1E
:1053B0007F4F80E090E00E94341D89819A81AB810B
:1053C000BC8181159440A105B10531F14BE355E154
:1053D00064E371E08EE594E00E94A5248AE090E009
:1053E000A0E0B0E089839A83AB83BC83BE016F5F8A
:1053F0007F4F84E090E00E945A1D80E094E0A0E09E
:10540000B0E08D839E83AF83B887BE016B5F7F4F13
:1054100080E090E00E945A1D0E94630DE09112030B
:10542000F091130382E08083E0910E03F0910F036B
:105430001082E0911003F09111038FEC80831092A1
:105440001A03E0911603F091170386E08083E09140
:105450001403F0911503808180618083E09114032F
:10546000F0911503808188608083E0911403F091AE
:105470001503808180688083E0911403F091150307
:1054800080818F7D80838EE696E1909336048093B1
:1054900035041092250410922404109223041092D3
:1054A000220410922104109220048DE991E090933F
:1054B00027048093260490911604963108F058C072
:1054C0002DEB30E030932104209320042BE931E0D0
:1054D00030932304209322042CE231E030932504FE
:1054E0002093240440916800983058F031E09E30B9
:1054F00008F430E021E0822F01C0880F3A95EAF7E6
:1055000001C084E0842B80936800983038F09E308E
:1055100040F0963148F020E030E008C02DE630E061
:1055200005C02BE630E002C02CE630E030931E04CC
:1055300020931D04983030F481E001C0880F9A95C3
:10554000EAF70EC0292F30E09E3018F428503109B8
:1055500002C02E50310981E001C0880F2A95EAF778
:1055600080931F0480912604909127040197F1F7FE
:105570008091240490912504892B21F180911302BC
:105580009091140224E08A309207E1F0009711F024
:105590000E941E1D809128048E7F80932804109203
:1055A0001202109211028AE094E090931402809308
:1055B0001302E0911D04F0911E04908180911F045C
:1055C000892B8083E091F604F091F70420E030E02D
:1055D00040E06AE082EF94E0099582EF94E00E9457
:1055E0002B0C82EF94E00E94010C182F8111F9CF4F
:1055F00060E082EF94E00E942E0BE091F604F091BF
:10560000F70420E030E040E06BE082EF94E00995A1
:105610008BE193E290936F0580936E058091730404
:1056200090917204882361F0923021F0933021F040
:105630008FEF03C080E001C081E063E070E009C04B
:10564000923029F0933011F08FEF01C081E062E0D9
:1056500070E00E94A00B8AE794E09093300480935E
:105660002F0488EE93E0A0E0B0E08093E8049093EC
:10567000E904A093EA04B093EB048FEF8093E20473
:1056800027E436E03093ED042093EC0449E150E048
:1056900060E070E04093DA045093DB046093DC0434
:1056A0007093DD048093D40422EE34E03093DF0461
:1056B0002093DE0440E157E260E070E04093CC04C8
:1056C0005093CD046093CE047093CF048093C604AE
:1056D00026EE35E03093D1042093D00440E65AEE14
:1056E00060E070E04093BE045093BF046093C00438
:1056F0007093C1048093B80482EE95E09093C30444
:105700008093C20481E08093E1048093D30480936A
:10571000C5048093B70444E127E633E182E193E1D5
:10572000419FF0011124E654FC4F31832083938381
:1057300082831F5F1430A1F7109315029FE088E168
:105740000FB6F894A895809360000FBE9093600008
:1057500080EE94E00E94582582ED94E00E94582546
:1057600084EC94E00E94582586EB94E00E94582532
:105770008AE094E00E94ED18892BE9F08AE094E039
:105780000E94ED18892BB9F08AE094E00E94051977
:10579000182F682F89E294E00E947B191A3059F47F
:1057A000E0913504F0913604099569EB71E089E2E6
:1057B00094E00E94C119A8950E942318C9CFCF93E5
:1057C000DF938FE993E00E94EF19CAE0D4E080E70D
:1057D00091E09983888389E294E00E94EF1980E741
:1057E00091E099838883CE01DF91CF910C941E1DA7
:1057F000FC01862F1582168217821086118612866A
:10580000138614861586168617864CED55E060E0E3
:1058100070E0408B518B628B738B848362E00C94BD
:10582000270DFC01862F10821182128213821482AE
:1058300015821682178210861186128613861586A7
:105840001686648761E00C94270D0F931F93CF9306
:10585000DF93CDB7DEB765970FB6F894DEBF0FBE06
:10586000CDBF109205031092040388EE93E0A0E0F0
:10587000B0E08093060390930703A0930803B093CE
:1058800009032CE431E0309303032093020325EC59
:1058900030E030930F0320930E0324EC30E030937C
:1058A00011032093100320EC30E030931303209376
:1058B000120321EC30E0309315032093140322EC03
:1058C00030E0309317032093160326EC30E030933A
:1058D00019032093180310921B0310921C031092BB
:1058E0001D0310921E03109275051092740580938B
:1058F000760590937705A0937805B09379058EE5AA
:1059000091E090937305809372051092F1041092C8
:10591000F00480E693E290936F0580936E051092F9
:1059200070051092710510920B0582E891E090933A
:10593000EF048093EE041092F3041092F20410929C
:10594000070510920A051092FE041092FF041092AF
:105950000005109201058FEF8093080580930D05D7
:10596000E1E1F5E087E295E02FEF0FEF21938E174D
:105970009F07D9F78CE896E29093F7048093F6049A
:105980008AE995E29093F9048093F80485E791E120
:105990009093FB048093FA048BE692E19093FD04CC
:1059A0008093FC0420E030E040E069E082EF94E086
:1059B0000E948C2610923F0510923E058DEB93E2DB
:1059C00090932805809327058EE795E090932C050A
:1059D00080932B0511E010932D0510922E05109247
:1059E0004B0510926B0510936C0510936D058AE8BA
:1059F00091E090932A058093290582EF94E00E941C
:105A0000772310923A0510923C0500933B050093D2
:105A10003D05E0912905F0912A050280F381E02DF2
:105A200082EF94E009958BE094E290934105809396
:105A3000400510924E058CE0809311058BE0809319
:105A400012058AE080931A0584E680931C05109263
:105A5000E1041092E2041092E3041092E404109224
:105A6000E5041092E6041092E7041092E804109204
:105A7000E9041092EA041092EB041092ED041092E3
:105A8000EC041093E0041092D3041092D40410920A
:105A9000D5041092D6041092D7041092D804109214
:105AA000D9041092DA041092DB041092DC041092F4
:105AB000DD041092DF041092DE041093D2041092E1
:105AC000C5041092C6041092C7041092C804109224
:105AD000C9041092CA041092CB041092CC04109204
