:100000000C94B4040C943C1F0C94151F0C94A72161
:100010000C94A7210C94A7210C94DC040C94631F6E
:100020000C94DC040C94DC040C94DC040C94DC04D0
:100030000C94DC040C94DC040C94DC040C94DC04C0
:100040000C9441150C94DC040C9419200C94F31FAF
:100050000C94DC040C94DC040C94DC040C94DC04A0
:100060000C944B200C94DC04800C9D0C570C9F0FBF
:100070009F0F9F0F9F0F9F0F9F0FBE0C000D1F0D17
:100080003E0D5D0D9F0F9F0F9F0F9F0F9F0F7C0DCC
:100090009A0DB80DDC0D9F0F9F0F9F0F9F0F9F0FA5
:1000A0009F0F7A0EA90E9F0F9F0F9F0F9F0F9F0FFD
:1000B0009F0F9F0F9F0FC70E0A0F4F0F9F0F9F0F8E
:1000C0009F0F9F0F9F0F9F0F9F0F760F7C0F0000BA
:1000D0000000000000000000000000000000000020
:1000E0000000000000000000000000000000000010
:1000F0000000000000000000000000000000000000
:1001000000000008000000000000000000000000E7
:100110000000000C0080FFFF07000000000000004E
:100120000000001C0000F8FF1F000000000000009D
:100130000000001E0000F0037F000000000000002F
:100140000000003E0000F001FE0000000000000082
:100150000000003F0000F001FC0100000000000072
:100160000000003F0000F001F80100000000000066
:100170000000007F0000F001F0030000000000001C
:100180000000807D0000F001F0030000000000008E
:100190000000807D0000F001F0030000000000007E
:1001A0000000C0F80000F001F003000000000000B3
:1001B0000000C0F80000F001F003000000000000A3
:1001C000000060F80100F001F003000000000000F2
:1001D000000060F00100F001F801000000000000E4
:1001E000000060F00100F001F801000000000000D4
:1001F000000030F00300F001FC00000000000000EF
:10020000000030E00300F0017E000000000000006C
:10021000000018E00300F0C11F0000000000000013
:10022000000018C00700F0FF0300000000000000FD
:1002300000000CC00700F0FF0300000000000000F9
:1002400000000CC00F00F0E10700000000000000FB
:1002500000000E800F00F0C10F0000000000000041
:100260000000FEFF0F00F0810F0000000000000002
:100270000000FEFF1F00F0811F00000000000000D2
:10028000000003001F00F0013F000000000000001C
:10029000000003003F00F0017E00000000000000AD
:1002A000008001003E00F0017C0000000000000022
:1002B000008001003E00F001FC0000000000000092
:1002C00000C001007E00F001F80100000000000005
:1002D00000C000007C00F001F003000000000000FE
:1002E00000C00000FC00F001E0030000000000007E
:1002F00000600000F800F001E007000000000000CE
:1003000000700000F801F001C00F000000000000C4
:1003100000700000F801F001801F000000000000E4
:1003200000FC0000FC07F80300FF000000000000D4
:1003300000FF0780FF9FFF3F00FF03000000000059
:1003400000000000000000000000000000000000AD
:10035000000000000000000000000000000000009D
:10036000000000000000000000000000000000008D
:1003700000FF67EFE69C83C3BA9F03000000000004
:10038000005594454422412413510200000000000E
:10039000004411444C22412410450000000000009C
:1003A00000C4117C54224124178701000000000082
:1003B00000441144642241241205020000000000A0
:1003C0000044144544224924125102000000000058
:1003D00000EEE7EE4E9C8FC3B9DF01000000000085
:1003E000000000000000000000000000000000000D
:1003F00000000000000000000000000000000000FD
:1004000000000000000000000000000000000000EC
:10041000008F3BE7701E8F33E7870300000000006A
:100420000012114220241221424402000000000068
:10043000001211422024126142410000000000001D
:1004400000121F42202412A1C281010000000000FE
:10045000000E1142201C0E2143010200000000008A
:100460000002114222040221424402000000000066
:1004700000873BE7730E8773E2C7010000000000AE
:10048000000000000000000000000000000000006C
:10049000000000000000000000000000000000005C
:1004A000000000000000000000000000000000004C
:1004B000000000000000000000000000000000003C
:1004C00000000000000000000000000000006000CC
:1004D00003020304030404060B00FE07FE08FF01E9
:1004E0003E028103AA200500A203210739A363501D
:1004F0000222079BB623B104230B2DAAA73228950D
:1005000041A900240E4D9E2B5B2A4AB6254A658BD5
:1005100000250E3DA26750125312294A22250026BB
:100520000C3DA247AAD42A89142901270519B763CB
:100530002808CB9E2B29752B2909CB9E232B7529A7
:10054000012A0A2DAAAB52599A22002B0A2DA62B5A
:100550008C06298C002C08A29A634814002D058B68
:10056000AE632E0612A363082F0C559AB31666616C
:1005700016666108300C3DA267C9A42599B46401D0
:1005800031093DA22B1A3B0D02320A3DA267C9C2B6
:10059000AC6D10330B3DA267C9C248D59205340C2F
:1005A0003DA22F9392523268D900350B3DA2E33819
:1005B000A4A1962C00360C3DA267098724B3250B15
:1005C00000370A3DA263106BC51200380C3DA267CC
:1005D000C9B464C9B46401390C3DA267C96CC910BF
:1005E000260B003A082AA3638886003B09BA9A635F
:1005F000888644013C07BCA22F6A6C3D081DAA6393
:100600005007013E08BCA2236C6A033F0B3DA26762
:10061000C9C2AC0E4500400D3DA267C99421499462
:10062000211D02410C3DA22B4BA2A4360C9916426F
:100630000D3DA26348326D50326D5000430A3DA219
:1006400067C9C4B66401440A3DA26348326F83029D
:10065000450B3DA2E3180E49180E02460A3DA2E3DF
:10066000180E495804470B3DA267C9C468D39205C8
:10067000480A3DA223B30D43660B490A3DA263908D
:10068000C24E83004A093DA2B351D392054B0C3DA3
:10069000A2239392929644952C4C083DA223EC7190
:1006A000104D0C3DA2235B964449345B004E0B3D3C
:1006B000A2239B9444DA6C014F0A3DA267C9BC2572
:1006C0000B00500C3DA26348326D50C22200510A0B
:1006D000459E67C9BC54D600520C3DA26348326D9A
:1006E00050325B00530B3DA267C9D4554B160054E2
:1006F000093DA26390C29E0055093DA223F32D59E6
:1007000000560C3DA223B325A5240B2300570A3D18
:10071000A223734994E416580B3DA223D3925AA501
:10072000A605590A3DA223B325B5B0045A0A3DA235
:100730006310B38E83005B084A9F63E98B005C0CF7
:10074000D59A234CC3344CC3340C5D08CA9E43E98C
:10075000CB005E081DB22B4B6A015F060E9AE300C8
:10076000600692BA230A61092DA267D04C8A1262F0
:100770000C3DA2230C8724B30D0A0063092DA26748
:10078000C9C47408640A3DA2B33268B66408650A35
:100790002DA267C986211D026609BCA24B89A6ACA1
:1007A00009670C3D9A67D06CC910260B00680A3D9A
:1007B000A2230C8724730B6908BBA227945A066AEC
:1007C000094B9A2B943A2D006B0B3DA2232C25A5A7
:1007D000A992056C07BBA243EA656D0C2DA2634884
:1007E0002A4AA2244A016E092DA2233169B6006F5C
:1007F000092DA267C96CC902700C3D9A634832DBAF
:10080000A0842100710A3D9A67D06CC91016720944
:100810002DA2233189450073092DA267500F0A00CC
:100820007409BCA2278BA6AC2875092DA22373528C
:100830009400760B2DA223D39252924500770C2D73
:10084000A22349944449942E00780A2DA2234B6A8E
:10085000955A00790B3D9A23734B863059007A09DB
:100860002DA263D0DA06017B0ADB9A2B895AB2A843
:100870002D7C06499FE3017D0BDB9A238BDA92A83E
:1008800025027E0615AEC7057F0500A20300000005
:1008900004FFFF000000000000240027002A0000E1
:1008A000000008000201000003040700000000002F
:1008B00000000002506F7765720053657276650024
:1008C00043726564697400416D6F756E7400547293
:1008D000616E73004C696D69740046726565005401
:1008E000696D6500566163616E7400436F696E00E7
:1008F0005465726D696E616C005068696C697070E6
:10090000696E657300412E522E542E53000509F96D
:1009100008F008EB08E408DF08DA08D408CE08C7B6
:1009200008C008BA08B40800000000230026002907
:100930000000000000250028002B0004040404042B
:10094000040404020202020202030303030303017C
:100950000204081020408001020408102001020453
:1009600008102000322CE82B11241FBECFEFD8E056
:10097000DEBFCDBF25E0AEEDB1E001C01D92A13FCD
:10098000B207E1F711E0A0E0B1E0E6EEFEE602C05A
:1009900005900D92AE3DB107D9F714E0C3EBD4E05A
:1009A00004C02197FE010E947C32C23BD107C9F7E7
:1009B0000E9493290C9466370C940000CF92DF922A
:1009C000EF92FF920F931F93CF93DF936C01EB0194
:1009D0007B01E40EF51E00E010E0CE15DF0561F0AE
:1009E0006991D601ED91FC910190F081E02DC60155
:1009F0000995080F191FF1CFC801DF91CF911F9101
:100A00000F91FF90EF90DF90CF900895089580E0D0
:100A100090E008954F925F926F927F92BF92CF9233
:100A2000DF92EF92FF920F931F93CF93DF93109279
:100A3000070284E1D82E9FE0C92EBB24B394809195
:100A40000702843008F0D8C0E82EF12CDE9CE001CB
:100A5000DF9CD00D1124C755DC4FCE010E9496219A
:100A60009F81891709F468C0CE010E9496218823CE
:100A700009F462C02FB7F89480910802909109029E
:100A8000A0910A02B0910B022FBF88879987AA878D
:100A9000BB87CE010E949621DE9CF001DF9CF00D09
:100AA0001124E755FC4F87830091070210E0C09E98
:100AB000F001C19EF00D1124E759FB4F8685658535
:100AC000811101C06B2584850E943712C09EE00110
:100AD000C19ED00D1124C759DB4F8E85882331F17B
:100AE0004C805D806E807F800E943D25461A570AAB
:100AF000680A790A488659866A867B860E943D255F
:100B00000C811D812E813F81601771078207930739
:100B100068F0188619861A861B86188219821A822E
:100B20001B821C821D821E821F821E8680910702EC
:100B30008F5F8093070283CFCE010E949621DE9CB7
:100B40008001DF9C100D112407551C4FF80197817F
:100B5000891709F49ECFCE010E949621811199CF69
:100B60002FB7F8948091080290910902A0910A028F
:100B7000B0910B022FBFF8014085518562857385C6
:100B8000841B950BA60BB70B448555856685778529
:100B9000481759076A077B0790F4F8014089518983
:100BA0006289738984179507A607B70740F40190F7
:100BB000F081E02D309709F46CCFD80119C0DE9C8C
:100BC0009001DF9C300D112427553C4FF9014089DD
:100BD000518962897389481759076A077B0708F0AA
:100BE00058CF0280F381E02D309709F452CFD9011C
:100BF00014968C9109954DCFDF91CF911F910F9154
:100C0000FF90EF90DF90CF90BF907F906F905F90BC
:100C10004F900895CF92DF92EF92FF92CF93DF93A0
:100C200000D000D0CDB7DEB7BE016F5F7F4F84E349
:100C300090E00E943722C980DA80EB80FC80BE0100
:100C40006F5F7F4F8CE190E00E94372289819A810B
:100C5000AB81BC81C816D906EA06FB0620F081E00C
:100C60008093020202C0109202020F900F900F9028
:100C70000F90DF91CF91FF90EF90DF90CF9008958C
:100C800082E390E00C9443280F931F93CF93DF935C
:100C9000EC018C010C5F1F4FFC01E058FF4F0190ED
:100CA000F081E02DC80109958E3F2FEF920770F477
:100CB000FE01ED57FF4FCE57DF4F9C014081688109
:100CC000C8010E94181A9881890F888381E090E0FA
:100CD000DF91CF911F910F9108952F923F924F92E4
:100CE0005F926F927F928F929F92AF92BF92CF92BC
:100CF000DF92EF92FF920F931F93CF93DF9300D079
:100D000000D000D0CDB7DEB781EE94E00E946A112A
:100D1000F6ED2F2EF4E03F2E80912D0590912E05BB
:100D20008E5C944009F4AEC08EEC94E090932E0556
:100D300080932D05FC01849180933E05EFECF4E057
:100D4000849180933F05E0EDF4E084918093400529
:100D5000E1EDF4E0849180934105E2EDF4E08491CB
:100D600080934205E3EDF4E0849180934305E4ED44
:100D7000F4E0849180934405E5EDF4E08491809360
:100D80004505F101849180934605E7EDF4E0E49197
:100D9000E0934705E8EDF4E0E491E0934805E9EDE0
:100DA000F4E0E491E0934905EAEDF4E0E491E093A6
:100DB0004A05EBEDF4E0E491E0934B05ECEDF4E053
:100DC000E491E0934C05EDEDF4E0E491E0934D0502
:100DD000EEEDF4E0E491E0934E0561E18EEC94E0F9
:100DE0000E940C1A9093500580934F0563E18EEC9E
:100DF00094E00E940C1A909352058093510565E18E
:100E00008EEC94E00E940C1A909354058093530545
:100E100080912D0590912E05892BA1F180914B0594
:100E20008093570540914C05409358059091560585
:100E3000992341F1913069F490914D05891714F48B
:100E40009093570580914E058417E4F480935805DC
:100E500019C03091480520914A05082E000C990BC5
:100E6000622F022E000C770B630F711D37FD7A95F0
:100E7000861797071CF4320F30935705241714F484
:100E8000209358050E943D25633071058105910529
:100E900008F050C000E420E840E060E081EE94E01B
:100EA0000E944327882309F4C8C1EEECEE2EE0E04F
:100EB000FE2E10E066246394610E062D20E8412F7B
:100EC00060E081EE94E00E944327882359F17090FE
:100ED0005B056701912C88248394F6018491882115
:100EE00019F070925B0509C080915A0581110DC0FF
:100EF00081E0711080E080935B0500E021E0412FEC
:100F0000692D81EE94E00E94D4279394880C29F4F3
:100F1000FFEFCF1ADF0A8824839420E89212DDCFF6
:100F200070925B0540E1E40EF11C162D103409F0BF
:100F3000C1CF83C10E943D256330710581059105B4
:100F400008F49AC10E943D256C3071058105910518
:100F500008F092C188E0582E50925F051AE0109375
:100F600060059DE1E92E99E0F92EF70165917491F4
:100F70008AE292E00E940C2F8AE292E00E94CB115A
:100F80008EEB91E00E94CB1128E3722E70925F05E8
:100F900010936005BE016F5F7F4F80E390E00E9479
:100FA000372269817A818B819C814AE00E94CD1130
:100FB000EFE1F9E0659174918AE292E00E940C2FD2
:100FC0003AECC32E32E2D32ED092E404C092E30472
:100FD0004AE252E064E188E00E947C1170925F0571
:100FE00044E1642E60926005BE016F5F7F4F84E331
:100FF00090E00E94372289819A812B813C8105E90A
:1010000013E0D801E62D1D92EA95E9F73F932F935F
:101010009F938F9350EB852E51E0952E9F928F9248
:101020001F930F930E94B334B801CE0101960E9422
:10103000001FBE016F5F7F4F8DED94E00E94E51FA2
:10104000CE0101960E94FB1E50925F056EE1562E66
:1010500050926005F701659174918AE292E00E94D6
:101060000C2F8AE292E00E94CB1180EC91E00E946A
:10107000CB1170925F0550926005BE016F5F7F4F8C
:1010800088E390E00E94372269817A818B819C817C
:101090004AE00E94CD11E1E2F9E0659174918AE2A3
:1010A00092E00E940C2FD092E404C092E3044AE242
:1010B00052E068E288E00E947C1170925F0588E24D
:1010C00080936005BE016F5F7F4F8CE390E00E94CC
:1010D000372289819A812B813C81D8011D926A94A3
:1010E000E9F73F932F939F938F939F928F921F9334
:1010F0000F930E94B334B801CE0101960E94001FE5
:10110000BE016F5F7F4F8DED94E00E94E51FCE0121
:1011100001960E94FB1EE3E2F9E0659174918AE278
:1011200092E00E940C2FD092E404C092E3044AE2C1
:1011300052E062E388E00E947C1170925F0582E3D6
:1011400080936005BE016F5F7F4F84E490E00E9452
:10115000372249815A816B817C81CE0101960E94A0
:101160009E15BE016F5F7F4F8DED94E00E94E51FDD
:10117000CE0101960E94FB1EE5E2F9E065917491B3
:101180008AE292E00E940C2FD092E404C092E30421
:101190004AE252E06CE388E00E947C1170925F05A5
:1011A0008CE380936005BE016F5F7F4F80E290E02B
:1011B0000E94372249805A806B807C80BE016F5F1D
:1011C0007F4F80E490E00E94372269817A818B8191
:1011D0009C810E94792F20E030E04AE754E40E948D
:1011E0006C3120E030E04AE754E40E946C316B013E
:1011F0007C01C301B2010E94792F20E030E048EC6D
:1012000052E40E946C319B01AC01C701B6010E94FF
:10121000DA2F6B017C012B013C010FB6F894DEBF85
:101220000FBECDBF9B01AC010E941232882309F48E
:10123000E1C184EA91E00E94B91181EE94E00E943C
:101240004011811169CD26960FB6F894DEBF0FBE0E
:10125000CDBFDF91CF911F910F91FF90EF90DF9065
:10126000CF90BF90AF909F908F907F906F905F9046
:101270004F903F902F90089588E080935F058AE01B
:1012800080936005E3E1F9E0659174918AE292E070
:101290000E940C2F8AE292E00E94CB118091020200
:1012A0008823C1F00E943D2560FF14C0EBE1F9E006
:1012B000659174918AE292E00E940C2F8AEC92E28E
:1012C0009093E4048093E3044AE252E06AE086E209
:1012D0000E947C111AE410935F058AE080936005F8
:1012E00080915E0490915F04AC01E5E9F3E004E1D4
:1012F000DF01202F1D922A95E9F71F921F925F931D
:101300008F9380EB91E09F938F93FF93EF930E94D5
:10131000B33465E973E0CE0101960E94001FBE015F
:101320006F5F7F4F8DED94E00E94E51FCE01019627
:101330000E94FB1E78E0972E90925F050093600557
:10134000E7E1F9E0659174918AE292E00E940C2F46
:101350008AE292E00E94CB1110935F050093600532
:10136000C0905E04D0905F04E12CF12CBE016F5F51
:101370007F4F84E190E00E94372269817A818B81DE
:101380009C81A70196010E941732AB01BC01CE01DE
:1013900001960E949E15BE016F5F7F4F8DED94E018
:1013A0000E94E51FCE0101960E94FB1E00E020E88E
:1013B00047E160E081EE94E00E94D42790925F05BF
:1013C00002E2009360050E948B210E94CB1186EB04
:1013D00091E00E94CB1110935F050093600540914E
:1013E00071045091720460917304709174040FB68B
:1013F000F894DEBF0FBECDBF4115510561057105E3
:1014000081F0CE0101960E949E15BE016F5F7F4F55
:101410008DED94E00E94E51FCE0101960E94FB1E17
:1014200016C0BE016F5F7F4F8CE090E00E943722B4
:1014300089819A81AB81BC81892B8A2B8B2B19F4F2
:101440000E94802102C00E9475210E94CB1188E079
:1014500080935F051CE2109360050E948B210E941F
:10146000CB1188EB91E00E94CB118AE480935F0559
:101470001093600540918004509181046091820432
:1014800070918304411551056105710581F0CE010C
:1014900001960E949E15BE016F5F7F4F8DED94E017
:1014A0000E94E51FCE0101960E94FB1E16C0BE01E0
:1014B0006F5F7F4F8CE090E00E94372289819A8194
:1014C000AB81BC81892B8A2B8B2B19F40E94802144
:1014D00002C00E9475210E94CB1188E080935F05B5
:1014E00016E3109360050E948B210E94CB118AEBBA
:1014F00091E00E94CB118AE480935F051093600510
:1015000040918F04509190046091910470919204E5
:10151000411551056105710581F0CE0101960E94CA
:101520009E15BE016F5F7F4F8DED94E00E94E51F19
:10153000CE0101960E94FB1E16C0BE016F5F7F4F59
:101540008CE090E00E94372289819A81AB81BC8136
:10155000892B8A2B8B2B19F40E94802102C00E94B8
:1015600075210E94CB1188E080935F0510E41093F1
:1015700060050E948B210E94CB118CEB91E00E94B0
:10158000CB118AE480935F051093600540919E041F
:1015900050919F046091A0047091A10441155105E0
:1015A0006105710581F0CE0101960E949E15BE0174
:1015B0006F5F7F4F8DED94E00E94E51FCE01019695
:1015C0000E94FB1E3ACEBE016F5F7F4F8CE090E021
:1015D0000E94372289819A81AB81BC81892B8A2B19
:1015E0008B2B19F40E94802102C00E9475210E9459
:1015F000CB1123CE46015701E894B7F82FEF3FEF08
:101600004FE75FE7C501B4010E94123281110DC09E
:101610002FEF3FEF4FE75FE7C501B4010E94742F42
:1016200018161CF488EA91E006CE2FEF3FEF4FE743
:101630005FE4C701B6010E940D3218161CF48CEA53
:1016400091E0F9CD2FEF3FEF4FE75FECC701B60117
:101650000E94742F87FDF3CF20E030E0A901C7017D
:10166000B6010E94742F87FF0BC06DE28DED94E0F0
:101670000E9444062601370177FA709477F8709437
:101680002AE037ED43EA5BE3C301B2010E94003177
:101690002B013C010E94DE316B017C010E94792FFD
:1016A0009B01AC01C301B2010E94FF302B013C0140
:1016B0004AE0C701B6010E94CD116EE28DED94E0C3
:1016C0000E94440620E030E040E251E4C301B20150
:1016D0000E94DA2F2B013C010E94DE316B01E12CCC
:1016E000F12C4AE0C701B6010E94CD11C701B60135
:1016F0000E94792F9B01AC01C301B2010E94FF300F
:1017000020E030E040E251E40E94DA2F0E94DE3116
:1017100080E090E04AE00E94CD118FCDCF93DF931F
:1017200020911E0430911F048217930788F4C09102
:101730001A04D0911B0460912B0470912C048C0F1F
:101740009D1F0E949934009719F08C1B9D0B02C0BD
:101750008FEF9FEFDF91CF9108954F925F926F923D
:101760007F928F929F92AF92BF92CF92DF92EF9231
:10177000FF920F931F93CF93DF93CDB7DEB7C4547F
:10178000D1090FB6F894DEBF0FBECDBF80E090E068
:101790000E948E0B3C01772443018FEF881A980A30
:1017A000C4010E948E0B7C01FF245701EFEFAE1A9B
:1017B000BE0AC5010E948E0B8C0111276801FFEF44
:1017C000CF1ADF0AC6010E948E0B2C01A30160E034
:1017D00070E0CE0101960E94E928CE0101960E9498
:1017E0002D2960932004CE0101960E94FB1EA701C3
:1017F000B401CE0101960E94E928CE0101960E9413
:101800002D2960932104CE0101960E94FB1EA801A0
:10181000B501CE0101960E94E928CE0101960E94F1
:101820002D296093220470932304809324049093C1
:101830002504CE0101960E94FB1E5524A201B6018B
:10184000CE0101960E94E928CE0101960E942D2921
:1018500060932604709327048093280490932904AE
:10186000CE0101960E94FB1E40911E0450911F0460
:10187000B2016F5F7F4FCE0101960E94E928CE0131
:1018800001960E942D2960932A04CE0101960E94A0
:10189000FB1EE09120048E2F90E0FC013197E33392
:1018A000F10508F04CC3EC5CFF4F0C947C32809146
:1018B0002104813071F40E943D25609322047093CD
:1018C0002304809324049093250431C0843009F4C8
:1018D00076C08091340490E0A0E0B0E080932204D0
:1018E00090932304A0932404B093250480932604AA
:1018F00090932704A0932804B093290484E337C36A
:1019000080912104813029F7BE016F5F7F4F88E00D
:1019100090E00E94372289819A81AB81BC818093BB
:10192000220490932304A0932404B093250480916F
:10193000340490E0A0E0B0E0F8C28091210481304E
:1019400031F4BE016F5F7F4F8CE090E0E2CF8230D8
:1019500009F0BFCF8091220490912304A091240428
:10196000B091250425968CAF9DAFAEAFBFAF259744
:10197000BE016F5B7F4F8CE090E08EC280912104AE
:10198000813031F4BE016F5F7F4F80E190E0C1CFC5
:10199000823009F09BCF8091220490912304A09182
:1019A0002404B091250421968CAF9DAFAEAFBFAF9C
:1019B0002197BE01635C7F4F80E190E06DC2C090D3
:1019C0002204D0902304E0902404F0902504BE016A
:1019D0006F5F7F4F80E190E00E94372249815A81FA
:1019E0006B817C8181E090E0A0E0B0E0C416D50678
:1019F000E606F70609F093CF80E090E0DC018FCF98
:101A000080912104813031F4BE016F5F7F4F84E10A
:101A100090E07FCF823009F05CCF809122049091DA
:101A20002304A0912404B091250489AF9AAFABAFF1
:101A3000BCAFBE01675C7F4F84E190E02DC2809116
:101A40002104813031F4BE016F5F7F4F88E190E067
:101A500060CF823009F03DCF809122049091230421
:101A6000A0912404B09125048DAB9EABAFABB8AF71
:101A7000BE016B5C7F4F88E190E00EC28091210433
:101A8000813031F4BE016F5F7F4F8CE190E041CF38
:101A9000823009F01ECF8091220490912304A091FE
:101AA0002404B091250489AB9AABABABBCABBE01AF
:101AB0006F5C7F4F8CE190E0EFC180912104813019
:101AC00031F4BE016F5F7F4F80E290E022CF823021
:101AD00009F0FFCE8091220490912304A091240468
:101AE000B09125048DA79EA7AFA7B8ABBE01635DDB
:101AF0007F4F80E290E0D0C180912104813009F0D5
:101B0000E8CEBE016F5F7F4F80E390E00E943722F6
:101B100089819A81AB81BC818093220490932304B4
:101B2000A0932404B0932504BE016F5F7F4F88E427
:101B300090E03BC080912104813009F0CACEBE0103
:101B40006F5F7F4F84E390E00E94372289819A8102
:101B5000AB81BC818093220490932304A09324043E
:101B6000B0932504BE016F5F7F4F8CE490E01DC0F1
:101B700080912104813009F0ACCEBE016F5F7F4FB0
:101B800088E390E00E94372289819A81AB81BC81F1
:101B90008093220490932304A0932404B0932504FB
:101BA000BE016F5F7F4F80E590E00E943722898100
:101BB0009A81AB81BC81B9C1809121048130C9F483
:101BC000BE016F5F7F4F8CE390E00E9437228981D6
:101BD0009A81AB81BC818093220490932304A093CB
:101BE0002404B0932504BE016F5F7F4F84E590E02D
:101BF000DCCF833009F06DCE60912604709127040C
:101C00008091280490912904611571058105910541
:101C100009F452C085E394E00E940824C090260491
:101C2000D0902704E0902804F0902904BE016F5F53
:101C30007F4F84E190E00E94372269817A818B8115
:101C40009C81A70196010E9417326B017C012091B3
:101C50002204309123044FE0429FC001439F900D26
:101C600011240091180410911904080F191FF8018C
:101C70008685882349F084819581A681B7818C0D62
:101C80009D1DAE1DBF1D10C00E943D25F801608343
:101C90007183828393830E943D25DC01CB018C0DEF
:101CA0009D1DAE1DBF1DF80184839583A683B78358
:101CB00081E0F80186870CC1209122043091230431
:101CC0004FE0429FC001439F900D1124E091180402
:101CD000F0911904E80FF91F1086118612861386F9
:101CE0001082118212821382148215821682178248
:101CF0001686EEC080912104813009F0EACD8AE099
:101D000080932A04BE016F5F7F4F84E490E00E94BD
:101D1000372289819A81AB81BC8180932204909380
:101D20002304A0932404B0932504BE016F5F7F4F6A
:101D30008CE590E00E94372289819A81AB81BC8139
:101D40008093260490932704A0932804B093290439
:101D500010C180912104813009F0BBCDBE016F5FBD
:101D60007F4F80E490E00E94372289819A81AB8185
:101D7000BC818093220490932304A0932404B09305
:101D80002504BE016F5F7F4F88E590E00ECF809104
:101D90002104813031F4BE016F5F7F4F84E290E017
:101DA000B8CD833009F095CD809122049091230421
:101DB000A0912404B091250489A79AA7ABA7BCA73A
:101DC00061E474E080E390E00E945D2261E474E0ED
:101DD00084E390E00E945D2261E474E088E390E097
:101DE0000E945D2261E474E08CE390E00E945D2239
:101DF00061E474E084E490E00E945D2261E474E0B8
:101E000080E490E00E945D22BE01675D7F4F84E226
:101E100090E042C080912104813031F4BE016F5FB7
:101E20007F4F88E290E075CD833009F052CD8091EC
:101E3000220490912304A0912404B09125048DA341
:101E40009EA3AFA3B8A761E474E08CE090E00E9489
:101E50005D2265E374E080E190E00E945D2269E329
:101E600074E084E190E00E945D2261E474E088E126
:101E700090E00E945D226DE374E08CE190E00E94AE
:101E80005D2265E474E080E290E00E945D22BE0184
:101E90006B5D7F4F88E290E00E945D2219C08091C7
:101EA0002104813031F4BE016F5F7F4F8CE290E0FE
:101EB00030CD833009F00DCD4091220450912304A0
:101EC000609124047091250485E394E00E94AB2482
:101ED0008091340490E0A0E0B0E0809322049093DD
:101EE0002304A0932404B09325041FC080912104EF
:101EF000833009F0EECCFFCF80912104813009F0CE
:101F0000E8CC20912204309123044FE0429FC0018D
:101F1000439F900D1124E0911804F0911904E80FEB
:101F2000F91F80859185A285B385809326049093BF
:101F30002704A0932804B09329048AE018C0809154
:101F400034048093210490E0A0E0B0E08093220468
:101F500090932304A0932404B09325048093260433
:101F600090932704A0932804B093290483E38093DB
:101F70002A0460912A04CE014F960E948F28409136
:101F80002604509127046091280470912904CE0101
:101F900049960E94BC2840912204509123046091EC
:101FA000240470912504CE0143960E94BC286091C0
:101FB0002104CE010D960E948F2860912004CE014D
:101FC00001960E948F2818861F821A8619861C8601
:101FD0001B8669817A816115710531F04D815E81C1
:101FE000CE0107960E94C31E6BE274E0CE010796F5
:101FF0000E948B15BE01635F7F4F0E948B156BE2C1
:1020000074E00E948B15BE016D5E7F4F0E948B15A0
:102010006BE274E00E948B15BE01675E7F4F0E94E9
:102020008B156BE274E00E948B15BE01615E7F4FE1
:102030000E948B158C0141E050E062EC71E00E943F
:10204000701E882309F445C0F4E00A311F0789F0A7
:10205000F801608171816115710539F04481558104
:102060008AE194E00E94C31E04C08AE194E00E94C9
:10207000B11ECE0107960E94FB1ECE0101960E9462
:10208000FB1ECE010D960E94FB1ECE0143960E94C0
:10209000FB1ECE0149960E94FB1ECE014F960E9468
:1020A000FB1ECC5BDF4F0FB6F894DEBF0FBECDBF7B
:1020B000DF91CF911F910F91FF90EF90DF90CF9024
:1020C000BF90AF909F908F907F906F905F904F9058
:1020D0000895C8010E94B11EB7CFCF93DF93EC01E2
:1020E0006CAFEFA9F8AD0190F081E02D0995EFA953
:1020F000F8AD0280F381E02DCE01DF91CF910994FC
:10210000AF92BF92CF92DF92EF92FF920F931F9305
:10211000CF93DF9300D000D01F92CDB7DEB78C01F4
:10212000DC01DB96AC90DB97DC96EC90DC97ED91D4
:10213000FC91B188FE2CC12CD12CD801ED91FC91E1
:1021400011978089D9964D915C91DA971C82FD8216
:102150008B83B8E08B9FC00111248C9D90018D9DD5
:10216000300D9C9D300D1124CA01820F931F9A835C
:102170008983D8011496ED91FC9115979E012F5FEC
:102180003F4F41E06FE0C8010995F3948F2D8E1900
:102190008A1528F4BFEFCB1ADB0AFB1470F20F90FC
:1021A0000F900F900F900F90DF91CF911F910F9193
:1021B000FF90EF90DF90CF90BF90AF900895823066
:1021C000F8F4E82FF0E0EE0FFF1FE050FF4F26E697
:1021D00038E131832083813041F0809169008C7F28
:1021E000682B60936900E89A089580916900837F65
:1021F000660F771F660F771F682B60936900E99A57
:102200000895833081F028F4813099F08230A1F074
:1022100008958730A9F08830B9F08430D1F48091E6
:1022200080008F7D03C0809180008F778093800035
:10223000089584B58F7702C084B58F7D84BD0895DD
:102240008091B0008F7703C08091B0008F7D809324
:10225000B0000895FC01A081B18150969C9143ADDE
:10226000949FA001112483E0440F551F8A95E1F744
:1022700060E070E081AD92AD0C948B340E947D34AF
:102280001F93CF93DF93EC010E9480101CAD8BADA8
:10229000180FE881F9818189181750F0EC81FD81D0
:1022A00020E030E040E060E1CE01099580E00EC022
:1022B000FE01E558FF4F8081882319F0CE010E946E
:1022C0002A11612FCE010E946D1081E0DF91CF9124
:1022D0001F910895CF93DF93EC01FC01E558FF4F68
:1022E0008081882319F0CE010E942A1160E0CE017E
:1022F000DF91CF910C946D10FF920F931F93CF93AA
:10230000DF93C82FD62F1092FA048A01F12CF8011E
:1023100061918F01E091E304F091E40481EE94E097
:1023200009958F3FFFEF9F07E9F08E3F2FEF920750
:1023300071F39C014D2F6C2F81EE94E00E94181ACE
:1023400090913D05913049F030F0923041F093305A
:1023500039F4D81B05C0C80F03C0D80F01C0C81B73
:10236000F80ED5CF8F2DDF91CF911F910F91FF9058
:102370000895009769F0FC0101900020E9F731977A
:10238000AF01481B590BBC018DED94E00C94DE04A9
:1023900080E090E008950C94B9118F929F92AF92D3
:1023A000BF920F931F93CF93DF93CDB7DEB7A19763
:1023B0000FB6F894DEBF0FBECDBF19A2423008F4AD
:1023C0004AE08E010F5D1F4F842E912CA12CB12C61
:1023D000A50194010E943B32E62FB901CA010150C8
:1023E0001109EA3014F4E05D01C0E95CD801EC9316
:1023F000232B242B252B61F7C8010E94B911A1962C
:102400000FB6F894DEBF0FBECDBFDF91CF911F9105
:102410000F91BF90AF909F908F900895CF93DF93CF
:10242000282F30E0F901E156F74F8491F901E15B83
:10243000F64FD491F901E55CF64FC491CC2391F0AD
:1024400081110E940111EC2FF0E0EE0FFF1FE95DFA
:10245000F64FA591B491EC91ED2381E090E021F449
:1024600080E002C080E090E0DF91CF9108951F935B
:10247000CF93DF93282F30E0F901E156F74F849195
:10248000F901E15BF64FD491F901E55CF64FC49197
:10249000CC23C1F0162F81110E940111EC2FF0E026
:1024A000EE0FFF1FEF5CF64FA591B4919FB7F89424
:1024B000111104C08C91D095D82302C0EC91DE2B71
:1024C000DC939FBFDF91CF911F910895CF93DF934E
:1024D00090E0FC01E15BF64F2491FC01E55CF64FD6
:1024E0008491882361F190E0880F991FFC01EB56DD
:1024F000F74FC591D491FC01EF5CF64FA591B491D3
:10250000611109C09FB7F894888120958223888340
:10251000EC912E230BC0623061F49FB7F894888150
:10252000322F309583238883EC912E2B2C939FBFE1
:1025300006C08FB7F894E8812E2B28838FBFDF91D8
:10254000CF9108952F923F924F925F926F927F9218
:102550008F929F92AF92BF92CF92DF92EF92FF92B3
:102560000F931F93CF93DF9300D000D01F92CDB76E
:10257000DEB72090670430906804C101A0E0B0E0AD
:1025800089839A83AB83BC830091650410916604B0
:102590008091640490910401891721F09F3F09F014
:1025A00033C205C0E3EBF8E094919D837CC0809337
:1025B0000401E3EBF8E0A491AD83AF3F09F424C23A
:1025C000A13009F449C058F1A23009F06CC0109252
:1025D000B0001092B1009091B00092609093B00062
:1025E0009091B10091609093B100282F30E0F901F3
:1025F000E55CF64FE491F0E0EE0FFF1FEF5CF64F65
:102600004591549150930E0240930D02F901E15B04
:10261000F64FE491E0930C0222E02D83F1C114BC4B
:1026200015BC94B5926094BD95B5916095BD282F69
:1026300030E0F901E55CF64FE491F0E0EE0FFF1FAA
:10264000EF5CF64F45915491F901E15BF64FE4914F
:10265000E09319021D82D4C1109280001092810073
:102660009091810098609093810090918100916099
:1026700090938100282F30E0F901E55CF64FE4915A
:10268000F0E0EE0FFF1FEF5CF64F45915491F9011A
:10269000E15BF64FE491E093180261E00E9466125C
:1026A000B1E0BD83B4C09D8197FDAEC161E00E94E1
:1026B00066128D818D7F09F0AAC04801A12CB12C32
:1026C00060E072E18AE790E0A50194010E945D322A
:1026D00029013A0169017A01A1E0CA1AD108E10889
:1026E000F108BFEFCB16D104E104F10409F008F4BE
:1026F0004DC060E472E48FE090E0A50194010E9477
:102700005D3269017A0181E0C81AD108E108F10857
:102710009D81923001F5AFEFCA16D104E104F104B6
:1027200009F008F405C160E970ED83E090E0A501CF
:1027300094010E945D3269017A01B1E0CB1AD1089F
:10274000E108F1082FEFC216D104E104F10409F009
:1027500040F583E055C08FEFC816D104E104F104C1
:10276000B9F0B0F068E478EE81E090E0A501940162
:102770000E945D3269017A0191E0C91AD108E1082D
:10278000F108AD81AA2309F4D5C031C181E001C0AF
:1027900082E09D81911134C095B5987F892B85BDCC
:1027A00075C068E478EE81E090E0A50194010E9494
:1027B0005D3269017A01A1E0CA1AD108E108F10885
:1027C000BFEFCB16D104E104F10409F008F4AEC068
:1027D00064E274EF80E090E0A50194010E945D3214
:1027E00069017A01B1E0CB1AD108E108F1082FEFB5
:1027F000C216D104E104F10411F008F0CEC085E066
:102800009091B100987F892B8093B1003FC048011F
:10281000A12CB12C60E072E18AE790E0A50194015F
:102820000E945D3269017A01A1E0CA1AD108E1086B
:10283000F108C114D104B1E0EB06F10488F068E4BA
:1028400078EE81E090E0A50194010E945D3269017B
:102850007A0181E0C81AD108E108F10883E001C0DB
:1028600081E09D81913091F490918100987F892B36
:102870008093810089819A81AB81BC81892B8A2BCD
:102880008B2B61F42FEF3FEFA9012EC089819A8134
:10289000AB81BC81892B8A2B8B2B69F0D801AA0FC5
:1028A000BB1F91010E94F03028EE33E040E050E081
:1028B0000E943B3203C02FEF3FEFA9019D81913071
:1028C00099F0923019F191119FC0C7BC20931E025C
:1028D00030931F02409320025093210280916E009A
:1028E000826080936E0090C0D0928900C092880070
:1028F00020931A0230931B0240931C0250931D0236
:1029000080916F00826080936F007EC0C092B300A0
:1029100020930F0230931002409311025093120241
:10292000809170008260809370006EC084E068CFF8
:1029300082E066CFBFEFCB16D104E104F10459F178
:1029400050F162E17AE780E090E0A50194010E94F5
:102950005D3269017A0191E0C91AD108E108F108F4
:10296000AFEFCA16D104E104F10499F090F0D3015D
:10297000C2013AE0B595A795979587953A95D1F715
:102980006C017D0121E0C21AD108E108F10885E05F
:1029900003CF84E001CF83E0FFCE62E17AE780E0FD
:1029A00090E0A50194010E945D3269017A0181E005
:1029B000C81AD108E108F1088FEFC816D104E10464
:1029C000F10499F090F0D301C2012AE0B595A795E2
:1029D000979587952A95D1F76C017D0121E0C21A60
:1029E000D108E108F10887E00BCF86E009CF9FEF1F
:1029F000C916D104E104F10409F078F684E0C9CEE7
:102A000061E00E94661259CE0F900F900F900F90C8
:102A10000F90DF91CF911F910F91FF90EF90DF907A
:102A2000CF90BF90AF909F908F907F906F905F906E
:102A30004F903F902F9008953FB7F89480911402E3
:102A400090911502A0911602B091170226B5A89B8D
:102A500005C02F3F19F00196A11DB11D3FBFBA2F30
:102A6000A92F982F8827820F911DA11DB11DBC0190
:102A7000CD0142E0660F771F881F991F4A95D1F755
:102A800008951F920F920FB60F9211242F933F9328
:102A90008F939F93AF93BF93809108029091090207
:102AA000A0910A02B0910B023091130223E0230F90
:102AB0002D3720F40196A11DB11D05C026E8230F76
:102AC0000296A11DB11D20931302809308029093DA
:102AD0000902A0930A02B0930B0280911402909114
:102AE0001502A0911602B09117020196A11DB11D09
:102AF0008093140290931502A0931602B0931702CC
:102B0000BF91AF919F918F913F912F910F900FBEE9
:102B10000F901F901895CF93DF93EC01FB01448138
:102B20005581608171810E94701E811103C0CE01A8
:102B30000E94B11ECE01DF91CF9108958F929F9296
:102B4000AF92BF92CF92DF92EF92FF920F931F93BB
:102B5000CF93DF938C016A017B01C5E9D3E084E167
:102B6000FE0111928A95E9F78CE3882E912CA12C15
:102B7000B12CCB01BA01A50194010E943B327F9395
:102B80006F93CA01B901A50194010E943B327F9362
:102B90006F93C701B60120E13EE040E050E00E94A3
:102BA0003B321F922F9384EC91E09F938F93DF939E
:102BB000CF930E94B334BE01C8010E94001FEDB73D
:102BC000FEB73A960FB6F894FEBF0FBEEDBFC80130
:102BD000DF91CF911F910F91FF90EF90DF90CF90F9
:102BE000BF90AF909F908F900895213039F020F0E2
:102BF000223031F4861B0895860F0895841B0895B2
:102C0000840F0895213039F020F0223031F4841BF4
:102C10000895840F0895860F0895861B0895DC019A
:102C200018964C911897ED91FC911197249130E0F2
:102C3000042E02C0359527950A94E2F7842F860F5B
:102C4000883010F4E22F0DC031961196FC93EE936C
:102C5000E49198E0941B01C0EE0F9A95EAF7E22BFD
:102C6000885018968C9381E090E001C0880F6A9597
:102C7000EAF781508E2308955F926F927F928F9230
:102C80009F92AF92BF92CF92DF92EF92FF920F93FB
:102C90001F93CF93DF935C01F62E642EEC01C05B93
:102CA000DF4F1C81DD804C018AE7880E911CEE808D
:102CB000E11ACF2CEF1408F4CE2C5B800C85202F6A
:102CC0004D2D612F8A810E94F515782E202F4D2DD4
:102CD000612F852D0E940216482F662011F08A85EB
:102CE00004C08985811108C08B85F40180832C2D57
:102CF000672DC5010E94D427FE1420F0FE18D3943E
:102D000010E0D5CF1F0D1C83DD82DF91CF911F9185
:102D10000F91FF90EF90DF90CF90BF90AF909F907A
:102D20008F907F906F905F9008951F93CF93DF9364
:102D3000EC01A881B981683109F493C030F46431A1
:102D400009F484C0673149F0E1C0693109F4CDC0AC
:102D5000603209F0DBC06AE4D4C01C968C9180FD1F
:102D60005EC0442309F4D0C0F90181919F01415014
:102D7000DFB7F894A0912802B09129029091270220
:102D8000E0912502F0912602C09124027091230265
:102D900081110EC08C9198239C9388E090819C2B8C
:102DA00090839081972390838150C1F7DFBFD9CF63
:102DB0001091220258E06C9187FF02C0612B01C084
:102DC00069236C9360816C2B6083880F608167231B
:102DD0006083515081F7EACFF90181919F01415001
:102DE000DFB7F894A0912802B091290290912702B0
:102DF000E0912502F091260270912402C0912302F5
:102E0000811110C08C9198239C9388E090819C2321
:102E100090839081972B90838150C1F7DFBF411140
:102E2000DBCF72C01091220258E06C9187FF02C084
:102E3000612B01C069236C9360816C236083880FD0
:102E40006081672B6083515081F7E8CF11964C91D8
:102E500069E40E94A925E881F9814485417060E414
:102E600050C04C9169E40E94A925A881B981EA85E6
:102E7000FB8520E030E012964C916CE2CE01099582
:102E80008F8D90E0FC01E55CF64FE491F0E0EE0FF1
:102E9000FF1FEF5CF64F259134913093260220936B
:102EA0002502FC01E15BF64FE491E0932402E095FA
:102EB000E093230288A190E0FC01E55CF64FE491E9
:102EC000F0E0EE0FFF1FEF5CF64F25913491309349
:102ED000290220932802FC01E15BF64FE491E09384
:102EE0002202E095E09327020FC0EA85FB8520E0EF
:102EF00030E013964C916CE20995E881F9814181AB
:102F000069E4CE010E94A92581E001C080E0DF9143
:102F1000CF911F9108958F929F92AF92BF92CF92BF
:102F2000DF92EF92FF92CF93DF93EC016C3288F443
:102F30006A3208F089C06832B9F0693209F06DC0B0
:102F4000C42ED12CE12CF12C0E941C154B015C01EC
:102F50003DC06D3209F440C008F45FC084EB860FB9
:102F6000823008F448C059C07C012FE1E20EF11C08
:102F7000D0E0F70181917F018F3F39F0D03110F41B
:102F800061E001C062E00E946612DF5FD63189F71E
:102F90005BC00E941C15DC01CB0188199909AA09A4
:102FA000BB09883E9340A105B10580F0F1E0CF1A3E
:102FB000D108E108F10828EE820E23E0921EA11C40
:102FC000B11CC114D104E104F10419F7C114D104F6
:102FD000E104F104F1F638C0433018F082E090E0EB
:102FE00002C085E090E0880F991F880F991F059710
:102FF0000197F1F729C0862F8F73C80FD11D41119A
:1030000007C061E08F8D0E94661260E08F8D12C054
:1030100062E08F8D0E94661217C06034B8F0962F60
:103020009F73FE01E90FF11D878D8F3F69F090318D
:1030300020F4642F0E94371207C00E940E1221E074
:10304000892B09F420E02A8F81E001C080E0DF9124
:10305000CF91FF90EF90DF90CF90BF90AF909F9077
:103060008F9008951F93CF93DF93C82F109207027C
:10307000D4E11FE0E0910702E43020F5DE9FF0018B
:103080001124E755FC4F8481C81316C00E94A21278
:10309000E09107021E9FF0011124E759FB4F1086B3
:1030A0001186128613861082118212821382148274
:1030B0001582168217821686809107028F5F809391
:1030C0000702D8CFDF91CF911F9108950E94A212DD
:1030D0001092630480916304863960F480916104E6
:1030E0000E940E12892B91F4809163048F5F80936C
:1030F0006304F0CF2091600480915E0490915F049E
:10310000820F911D90935F0480935E0408952F9227
:103110003F924F925F926F927F928F929F92AF9267
:10312000BF92CF92DF92EF92FF920F931F93CF93B4
:10313000DF93CDB7DEB728970FB6F894DEBF0FBE8A
:10314000CDBFC82EBE016F5F7F4F8CE090E00E9424
:10315000372289819A81AB81BC8120915E043091B4
:103160005F04820F931F90935F0480935E04892B0A
:1031700009F439C11092070284E1382E9FE0D92E5C
:1031800026E0222E80910702843008F02CC190E0C6
:10319000389EF001399EF00D1124E755FC4F248133
:1031A000C2121BC1D89EF001D99EF00D1124E7591F
:1031B000FB4F8685882309F4A7C00E94A2120091C4
:1031C0005E0410915F042801612C712CBE016F5FB9
:1031D0007F4F84E190E00E94372269817A818B8160
:1031E0009C81A30192010E9417324B015C01BE0138
:1031F0006F5F7F4F8CE090E00E94372289819A8137
:10320000AB81BC81892B8A2B8B2B09F095C0BE0129
:103210006B5F7F4F84E390E00E9437228D819E8117
:10322000AF81B885840D951DA61DB71D8D839E8326
:10323000AF83B887BE016B5F7F4F84E390E00E944D
:103240005D22BE016B5F7F4F8CE490E00E943722CD
:103250008D819E81AF81B885840D951DA61DB71DFA
:103260008D839E83AF83B887BE016B5F7F4F8CE4F5
:1032700090E00E945D22BE016F5F7F4F80E390E08F
:103280000E94372289819A81AB81BC810196A11D60
:10329000B11D89839A83AB83BC83BE016F5F7F4F6F
:1032A00080E390E00E945D22BE016F5F7F4F88E463
:1032B00090E00E94372289819A81AB81BC8101967E
:1032C000A11DB11D89839A83AB83BC83BE016F5F4F
:1032D0007F4F88E490E00E945D22BE016F5F7F4FC8
:1032E00084E190E00E94372289819A81AB81BC8180
:1032F000089FB001099F700D189F700D112485E083
:1033000091E00E94BC2318C080905E0490905F04FE
:10331000A12CB12CBE016F5F7F4F88E190E00E942D
:10332000372289819A81AB81BC8188169906AA06C9
:10333000BB0608F452C041CFBE016F5F7F4F8CE0E7
:1033400090E00E94372289819A81AB81BC81892BD0
:103350008A2B8B2B29F0B80185E091E00E9408248C
:10336000289CC001299C900D11240E944328E090C4
:103370000702F12CDE9C8001DF9C100D11240759FF
:103380001B4FF8018685882349F084819581A681A9
:10339000B781880E991EAA1EBB1E0EC00E943D2535
:1033A000F80160837183828393830E943D25860E9A
:1033B000971EA81EB91EF80184829582A682B78244
:1033C000DE9CF001DF9CF00D1124E759FB4F81E0FA
:1033D000868710925F0410925E04809107028F5FCF
:1033E00080930702CFCE28960FB6F894DEBF0FBEAB
:1033F000CDBFDF91CF911F910F91FF90EF90DF90A4
:10340000CF90BF90AF909F908F907F906F905F9084
:103410004F903F902F900895FC01E60FF11D84918D
:1034200090E0982F88273196E4918E0F911D089592
:103430006F927F928F929F92AF92BF92CF92DF92C4
:10344000EF92FF920F931F93CF93DF93EC01062F20
:10345000142F7901FC01E45AFF4F80818130C9F0BB
:1034600070F0823001F1833039F5FE01E25BFF4FED
:103470000190F081E02DCE010995080F1DC0FE01DD
:10348000E25BFF4F0190F081E02DCE010995180F0E
:1034900013C0FE01E25BFF4F0190F081E02DCE01F1
:1034A0000995081B09C0FE01E25BFF4F0190F08106
:1034B000E02DCE010995181BFE01EE5AFF4F008347
:1034C0003196108337978081918147962FEFE216CE
:1034D000F10409F040F5E1E6EE16F10420F0FE01FA
:1034E000E059FF4F07C0F1E4EF16F10438F0FE0198
:1034F000E259FF4F20813181820F931F9C012F5F82
:103500003F4FF9014491442309F40EC1FC01449159
:1035100050E0E416F50611F4029634C0F901249146
:10352000820F911DEBCFFE01EE58FF4FC080D1807E
:10353000C80ED91E860160E0C6010E940C1A080F51
:10354000191F62E0C6010E940C1AF4E0CF0ED11CD4
:103550008E159F0580F3F801849190E0982F8827BD
:103560003196E4918E2B009709F4DEC0E816F90637
:1035700019F4C801039606C0F8013296E4910E0FC3
:10358000111DE9CF009709F4CFC07E01F0E5EF0EE1
:10359000F11CF70191838083108671966081C701C9
:1035A0000E940F16F701868372966081C7010E9400
:1035B0000F16D82EF70187835E01FAE7AF0EB11C14
:1035C000F5019081F701928781E0911180E0F70188
:1035D0008387FE01ED59FF4F1081612FC7010E94C3
:1035E0000F169FEF910F01E010E0980101C0220F2C
:1035F0009A95EAF7782E721AFE01EC59FF4FC080B7
:103600006C2DC7010E940F16CA94480101C0880C96
:10361000CA94EAF7682E6D0CFE01EB59FF4FC0808B
:103620006C2DC7010E940F16CA9401C0000FCA94E6
:10363000EAF7C82EC01AF701068110160CF075C003
:1036400094848618292D482D672D82810E94F515B6
:10365000182FF7018283292D482D672D83810E9421
:103660000216F7018383F1E09F16B1F09F1678F000
:1036700022E09216B9F093E099121FC0212F2D0D70
:10368000982F901B01E0080F81E0890F18C0202FB0
:10369000210F082F0D0D13C09D1821E0210F080FD9
:1036A000190D0DC091E0392F301B21E0210F9D191C
:1036B00001E0080F890F130F02C0082F212F482F98
:1036C000612FCE010E944327882379F1F7011482EC
:1036D00015828E01015A1F4F4E01F0E68F0E911C8C
:1036E000F8016081C7010E940F16682EF401608105
:1036F000C7010E940F16782E40E0662DCE010E9471
:103700003C1641E0672DCE010E943C1661E0C701E6
:103710000E940F168111F0CFF70185818D1504F3FA
:103720008285F501808301C0C12C8C2DDF91CF9162
:103730001F910F91FF90EF90DF90CF90BF90AF90CF
:103740009F908F907F906F900895CF93DF9300D0DC
:1037500000D000D0CDB7DEB763ED71E0CE010196A9
:103760000E94001F6AE174E0CE0101960E948B1551
:10377000BC0181EF92E00E94E51FCE0101960E94FC
:10378000FB1E0E94AD0B66ED71E0CE0101960E941A
:10379000001F6AE174E0CE0101960E948B15BC0106
:1037A00081EF92E00E94E51FCE0101960E94FB1E70
:1037B0006AE174E089EF93E00E94E51F63EC71E039
:1037C0008AE194E00E94E41E26960FB6F894DEBFCC
:1037D0000FBECDBFDF91CF9108951F93CF93DF939D
:1037E00000D000D000D0CDB7DEB781EF92E00E94CC
:1037F0009F1C892BF1F181EF92E00E947D1C182F14
:10380000682F8AE194E00E949E1E1A3091F563EDC4
:1038100071E0CE0101960E94001F6AE174E0CE01C2
:1038200001960E948B15BC0181EF92E00E94E51F7A
:10383000CE0101960E94FB1E0E94AD0B66ED71E069
:10384000CE0101960E94001F6AE174E0CE0101964C
:103850000E948B15BC0181EF92E00E94E51FCE0112
:1038600001960E94FB1E63EC71E08AE194E00E94E5
:10387000E41E26960FB6F894DEBF0FBECDBFDF91D3
:10388000CF911F9108950895CF92DF92EF92FF920A
:103890000F931F93CF93DF936C017A018B01C0E0EC
:1038A000D0E0CE15DF0581F0D8016D918D01D601F4
:1038B000ED91FC910190F081E02DC6010995892BD5
:1038C00011F02196EECF7E01C701DF91CF911F91BC
:1038D0000F91FF90EF90DF90CF900895FC01538DF2
:1038E000448D252F30E0842F90E0821B930B5417DA
:1038F00010F0CF96089501970895FC01918D828D67
:10390000981761F0828DDF01A80FB11D5D968C9133
:10391000928D9F5F9F73928F90E008958FEF9FEF3E
:103920000895FC01918D828D981731F0828DE80FFA
:10393000F11D858D90E008958FEF9FEF0895FC01B4
:10394000918D228D892F90E0805C9F4F821B910981
:103950008F739927089581EF92E00E949F1C21E0C8
:10396000892B09F420E0822F0895FC01848DDF016A
:10397000A80FB11DA35ABF4F2C91848D90E00196E2
:103980008F739927848FA689B7892C93A089B189D1
:103990008C91837080648C93938D848D981306C072
:1039A0000288F389E02D80818F7D80830895EF92D6
:1039B000FF920F931F93CF93DF93EC0181E0888FE9
:1039C0009B8D8C8D981305C0E889F989808185FDD0
:1039D00026C0F62E0B8D10E00F5F1F4F0F731127BF
:1039E000E02E8C8DE8120CC00FB607FCFACFE889E8
:1039F000F989808185FFF5CFCE010E94B51CF1CFFA
:103A00008B8DFE01E80FF11DE35AFF4FF0829FB747
:103A1000F8940B8FEA89FB89808180620AC09FB786
:103A2000F894EE89FF896083E889F9898081837041
:103A3000806480839FBF81E090E0DF91CF911F91F0
:103A40000F91FF90EF900895CF93DF93EC01888D55
:103A50008823C9F0EA89FB89808185FD05C0A88992
:103A6000B9898C9186FD0FC00FB607FCF5CF808118
:103A700085FFF2CFA889B9898C9185FFEDCFCE0162
:103A80000E94B51CE7CFDF91CF9108950E94AB1C37
:103A900081110C94ED1B089585ED8093BC008091FD
:103AA000BC0084FDFCCF1092BB02089540919702A8
:103AB000262F30E0240F311D21323105DCF4209116
:103AC000BB022430C9F4FC0180E090E0861758F472
:103AD000309197022191DC01A958BD4FA30FB11D70
:103AE0002C930196F3CF80919702680F6093970211
:103AF00080E0089581E0089582E0089508958FEFB1
:103B00009FEF08958FEF9FEF08958091760290E0E8
:103B10009195819591090895CF93DF93CB01EA01A7
:103B2000642F0E94561DCE01DF91CF910895CF934F
:103B3000DF931F92CDB7DEB7698361E0CE010196B6
:103B40000E94561D81E090E00F90DF91CF91089583
:103B500020910502309106022817390771F49091DF
:103B6000030280910402981741F0E0910302F0E013
:103B7000EA5CFD4F808190E008958FEF9FEF0895FC
:103B80001F93CF93DF93DC015C968D919C915D97A1
:103B9000009739F421E030E013963C932E9312976E
:103BA0003BC05196ED91FC91529750962C915097B5
:103BB000322F30951FB75E964C915E97742F7270BE
:103BC00041FD6095F8944081772311F0422B01C0AC
:103BD00043234083EC012197F1F748E0508160FFD7
:103BE00002C0522B01C053235083EC012197F1F7FF
:103BF0006695415099F78081772319F0832380835C
:103C000002C0282B20831FBF5C968D919C915D97ED
:103C10000197F1F781E090E0DF91CF911F91089536
:103C200020910502309106022817390771F480911E
:103C300004022091030290E0805C9F4F821B910957
:103C400060E470E00E942732089580E090E00895DB
:103C5000209105023091060228173907B9F4909196
:103C6000030280910402981789F0E0910302F0E0CA
:103C7000EA5CFD4F80812091030230E02F5F3F4FCF
:103C80002F7333272093030290E008958FEF9FEF67
:103C900008950F931F93CF93DF93EC01888199814F
:103CA000009729F02A813B812617370788F48B017A
:103CB0006F5F7F4F0E94B733009761F099838883CD
:103CC0001B830A832C813D81232B11F4FC0110827C
:103CD00081E001C080E0DF91CF911F910F910895A5
:103CE000EF92FF920F931F93CF93DF9361157105AE
:103CF00011F480E01CC041155105C1F07B01EC01BD
:103D00008C819D818A01080F191FB801CE010E9484
:103D1000491E882371F3288139818C819D81B701E7
:103D2000820F931F0E9492341D830C8381E0DF91E8
:103D3000CF911F910F91FF90EF900895CF93DF9354
:103D400000D0CDB7DEB769831A8241E050E0BE01F2
:103D50006F5F7F4F0E94701E0F900F90DF91CF9189
:103D60000895CF93DF93EC0188819981009711F03A
:103D70000E942E33198218821D821C821B821A8295
:103D8000DF91CF910895EF92FF920F931F93CF93FE
:103D9000DF93EC017B018A01BA010E94491E811167
:103DA00004C0CE010E94B11E07C01D830C83B70161
:103DB000888199810E949234CE01DF91CF911F9129
:103DC0000F91FF90EF900895CF93DF93EC01611571
:103DD000710559F0FB0101900020E9F73197AF011F
:103DE000461B570B0E94C31E02C00E94B11ECE018B
:103DF000DF91CF910895FC01808191810C942E3345
:103E0000FC011182108213821282158214826115C4
:103E1000710551F0FB0101900020E9F73197AF01E6
:103E2000461B570B0C94C31E08951F920F920FB69A
:103E30000F9211242F933F934F935F936F937F9330
:103E40008F939F93AF93BF93EF93FF93E091020102
:103E5000F09103010995FF91EF91BF91AF919F916F
:103E60008F917F916F915F914F913F912F910F9023
:103E70000FBE0F901F9018951F920F920FB60F92C2
:103E800011242F933F934F935F936F937F938F935F
:103E90009F93AF93BF93EF93FF93E0910001F09155
:103EA00001010995FF91EF91BF91AF919F918F9182
:103EB0007F916F915F914F913F912F910F900FBE26
:103EC0000F901F9018951F920F920FB60F9211240A
:103ED0002F933F934F935F936F937F938F939F9312
:103EE000AF93BF93EF93FF9380910F0290911002D5
:103EF000A0911102B0911202892B8A2B8B2B59F1C0
:103F000090910C02E0910D02F0910E0280818927C0
:103F1000808380910F0290911002A0911102B091C4
:103F20001202181619061A061B060CF03DC08091E5
:103F30000F0290911002A0911102B091120201970C
:103F4000A109B10980930F0290931002A09311026E
:103F5000B093120229C080910401E3EBF8E0E491F0
:103F60009FEF90930401E130B9F098F0E230C9F48A
:103F7000909170009D7F9093700091E09093B000BD
:103F80009091B100987F94609093B1001092B3002B
:103F900008C010926E0005C090916F009D7F9093B5
:103FA0006F0060E00E943712FF91EF91BF91AF91D7
:103FB0009F918F917F916F915F914F913F912F9141
:103FC0000F900FBE0F901F901895DB0114964D9126
:103FD0005C9115976D917C91DC01ED91FC910280D3
:103FE000F381E02D09941F920F920FB60F921124C6
:103FF0002F933F934F935F936F937F938F939F93F1
:10400000AF93BF93EF93FF9381EF92E00E94B51CB3
:10401000FF91EF91BF91AF919F918F917F916F91A0
:104020005F914F913F912F910F900FBE0F901F9076
:1040300018951F920F920FB60F9211242F938F9302
:104040009F93EF93FF93E0910103F091020380812E
:10405000E0910703F091080382FD12C090818091E6
:104060000A038F5F8F7320910B03821751F0E09149
:104070000A03F0E0EF50FD4F958F80930A0301C0D3
:104080008081FF91EF919F918F912F910F900FBEA3
:104090000F901F9018951F920F920FB60F92112438
:1040A0002F933F934F935F936F937F938F939F9340
:1040B000AF93BF93EF93FF938091B900887F8036D1
:1040C00009F49CC068F5883209F45BC090F4803133
:1040D00009F454C038F4882309F4F2C0883009F494
:1040E0004DC0F2C0883109F44CC0803209F45DC083
:1040F000EBC0803409F468C048F4803309F455C03B
:10410000883309F0E1C08093BA02D4C0803509F445
:104110004FC0883509F45DC0883409F0D5C0D2C0DD
:10412000883909F4C3C0A8F4883709F467C038F4A3
:10413000883609F463C0803709F460C0C5C0883888
:1041400009F4B4C0803909F45FC0803809F0BCC0FC
:104150005BC0803B09F484C038F4803A09F466C03F
:10416000883A09F47DC0B0C0803C09F4A3C0883C03
:1041700009F4A0C0883B09F486C0A6C08091E00283
:1041800010C09091DF028091DE02981770F5E091E7
:10419000DF0281E08E0F8093DF02F0E0E254FD4FFA
:1041A00080818093BB0085EC82C08093BA028AC074
:1041B000E091DF0281E08E0F8093DF028091BB00EF
:1041C000F0E0E254FD4F80839091DF028091DE02A7
:1041D0006AC0E091DF0281E08E0F8093DF02809160
:1041E000BB00F0E0E254FD4F80838091BD0281115D
:1041F00069C081E08093BC0284EA5DC083E0809363
:10420000BB021092B902CFCF8091B902803208F080
:104210004DC0E091B90281E08E0F8093B902809188
:10422000BB00F0E0E756FD4F8083BDCF85EC809367
:10423000BC001092BB028091B902803230F4E09150
:10424000B902F0E0E756FD4F10826091B90270E0CC
:1042500089E992E0E0E0F0E009951092B90234C0FB
:1042600084E08093BB021092980210929702E0E0E3
:10427000F0E0099580919702811105C081E080935B
:10428000970210927702E091980281E08E0F80935E
:104290009802F0E0E958FD4F80818093BB00909137
:1042A000980280919702981708F47DCF85E8809353
:1042B000BC000AC085EC8093BC001092BB0204C015
:1042C0001092BA020E944C1DFF91EF91BF91AF91E5
:1042D0009F918F917F916F915F914F913F912F911E
:1042E0000F900FBE0F901F901895E9E1F9E06591CE
:1042F00074918AE292E00E940C2F8AE292E0089583
:10430000E5E1F9E0659174918AE292E00E940C2F58
:104310008AE292E00895E1E1F9E0659174918AE220
:1043200092E00E940C2F8AE292E00895CF93DF93EF
:10433000EC018C810E940E122E8130E041E02817A2
:10434000390709F040E0842FDF91CF9108951F9243
:104350000F920FB60F9211242F933F934F935F93B9
:104360006F937F938F939F93AF93BF93EF93FF933D
:10437000E0910502F0910602309709F451C0968D44
:10438000A685B785858591FF04C09C91892329F472
:1043900047C09C91892309F043C0A389B4899C91AB
:1043A0008589809589238C93868997890197F1F770
:1043B000608D718DA685B785558538E020E0CB01ED
:1043C0000197F1F7822F90E095958795282F4C91D2
:1043D000452309F02068315091F7868D81FD2095A5
:1043E0008091040290E001968F7399273091030227
:1043F000381749F0A0910402B0E0AA5CBD4F2C939D
:104400008093040203C0868D8160868F828D938D98
:104410000197F1F7A389B4899C918589892B8C93A5
:10442000FF91EF91BF91AF919F918F917F916F918C
:104430005F914F913F912F910F900FBE0F901F9062
:104440001895E0910502F0910602E817F90769F462
:10445000A389B4899C918589809589238C93109236
:1044600006021092050281E0089580E00895CF923F
:10447000DF92EF92FF920F931F93CF93DF93EB01A5
:104480007B0124E0E20EF11C8B016C01C61AD70AF5
:10449000C601800F911F0E949830F80181938F010F
:1044A000EE15FF05A9F7CE01DF91CF911F910F9176
:1044B000FF90EF90DF90CF900895AF92BF92DF9280
:1044C000EF92FF920F931F93CF93DF93EC017B0149
:1044D0008B015C0184E0A80EB11CF801D1908F0122
:1044E000CE010E949830D81621F06D2DCE010E9489
:1044F000A0302196CA15DB0581F7C701DF91CF9166
:104500001F910F91FF90EF90DF90BF90AF900895B3
:1045100080E00895DC011696ED91FC91179720E05C
:1045200030E040E069E10994DC011696ED91FC91E0
:10453000179720E030E040E068E109949A01DC013F
:104540001696ED91FC911797462F67E10994462F37
:10455000DC011696ED91FC91179720E030E065E1C3
:1045600009949A01DC011896ED91FC911997462F58
:1045700067E10994CF93DF931F92CDB7DEB76983CC
:10458000AE014F5F5F4F61E00E94B1220F90DF915B
:10459000CF910895FC016623D9F16A30C9F1818D6C
:1045A000811124C06C3F20F085E0818F61701AC0BA
:1045B000683F20F084E0818F637014C0603F20F07A
:1045C00083E0818F67700EC0603E20F082E0818FB3
:1045D0006F7008C0603C20F081E0818F6F7102C075
:1045E00070E01BC070E0738B628B15C08150818FAF
:1045F0002289338996E0220F331F9A95E1F76F7372
:10460000A901462BBA01738B628B811104C005C0CE
:104610006FEF7FEF02C06EEF7FEFCB01089566234F
:1046200029F06A3019F0862F90E008958FEF9FEF00
:1046300008950F93DC01DF963C91DF97431BD596DD
:10464000ED91FC91D69709950F910895CF93DF9343
:10465000FC01A081B18193AD892F880F880F880F4D
:1046600086AF50968C915097803208F08FE1880F7A
:10467000880F880F85AF24AD822F880F880F880F91
:1046800087AF51963C915197422F50E0490F511DF1
:10469000632F70E06417750714F4932F921BEF01DA
:1046A000C05CDF4F8883219628E0929F800D112403
:1046B0008883219680EF888354968D919C9155979D
:1046C000813F910508F48883ED5BFF4F56968C91EE
:1046D0008083DF91CF9108950F93CF93DF93DC0117
:1046E000ED91FC915089362F3770E0E8F0E002C080
:1046F000F595E7953A95E2F73E2FA52FB0E0FC013E
:10470000C1ADD2AD669566956695E62FF0E0459F02
:10471000E00DF11D1124EC0FFD1FEC01C658DF4F19
:1047200001111DC08881823018F49081932B9083F1
:104730008881813019F0908193279083369511F408
:10474000319630E8215071F711C08881813019F01D
:10475000908193279083EA0FFB1F215039F08881C5
:10476000823098F79081932B9083EFCFDF91CF9198
:104770000F91089580E00895CF92DF92EF92FF921B
:10478000CF93DF9300D000D0CDB7DEB76B01BE0171
:104790006F5F7F4F84E490E00E943722E12CF12C80
:1047A00089819A81AB81BC818C0D9D1DAE1DBF1D81
:1047B00089839A83AB83BC83BE016F5F7F4F84E4A0
:1047C00090E00E945D22BE016F5F7F4F8CE590E01C
:1047D0000E94372289819A81AB81BC81C80ED91E83
:1047E000EA1EFB1EC982DA82EB82FC82BE016F5F89
:1047F0007F4F8CE590E00E945D220F900F900F900C
:104800000F90DF91CF91FF90EF90DF90CF900895C0
:10481000AF92BF92CF92DF92EF92FF920F931F93CE
:10482000CF93DF93CDB7DEB728970FB6F894DEBFEE
:104830000FBECDBF5C018B01BE016B5F7F4F8CE370
:1048400090E00E9437226801E12CF12C8D819E813D
:10485000AF81B8858C0D9D1DAE1DBF1D8D839E83C0
:10486000AF83B887BE016B5F7F4F8CE390E00E94FF
:104870005D22BE016B5F7F4F84E590E00E9437228E
:104880008D819E81AF81B885C80ED91EEA1EFB1EA0
:10489000CD82DE82EF82F886BE016B5F7F4F84E5BA
:1048A00090E00E945D22BE016F5F7F4F88E390E041
:1048B0000E94372289819A81AB81BC810196A11D1A
:1048C000B11D89839A83AB83BC83BE016F5F7F4F29
:1048D00088E390E00E945D22BE016F5F7F4F80E51C
:1048E00090E00E94372289819A81AB81BC81019638
:1048F000A11DB11D89839A83AB83BC83BE016F5F09
:104900007F4F80E590E00E945D22BE016F5F7F4F88
:1049100084E190E00E94372289819A81AB81BC8139
:10492000089FB001099F700D189F700D1124C501DB
:104930000E94BC2328960FB6F894DEBF0FBECDBFF1
:10494000DF91CF911F910F91FF90EF90DF90CF906B
:10495000BF90AF900895EF92FF920F931F93CF9364
:10496000DF9300D000D0CDB7DEB77C0149835A83F6
:104970006B837C838C01045F1F4FB8018CE090E057
:104980000E945D22B70180E190E00E945D22B701A4
:104990006C5F7F4F84E190E00E945D22B80188E166
:1049A00090E00E945D22B701685F7F4F8CE190E04C
:1049B0000E945D22B701605F7F4F80E290E00E941D
:1049C0005D22B80180E390E00E945D22B80184E39B
:1049D00090E00E945D22B80188E390E00E945D2291
:1049E000B8018CE390E00E945D22B80184E490E07D
:1049F0000E945D22B80180E490E00E945D22B8012F
:104A000088E490E00E945D22B8018CE490E00E946E
:104A10005D22B80180E590E00E945D22B80184E546
:104A200090E00E945D22B8018CE590E00E945D223A
:104A3000B80188E590E00E945D22BE016F5F7F4F64
:104A400084E290E00E945D22BE016F5F7F4F88E2AA
:104A500090E00E945D22BE016F5F7F4F8CE290E08C
:104A60000E945D220F900F900F900F90DF91CF91D9
:104A70001F910F91FF90EF9008952FB7F8946091D8
:104A800008027091090280910A0290910B022FBFD7
:104A900028EE33E040E050E00E943B32CA01B90109
:104AA0000895FC018081811102C00C941C15813095
:104AB00079F48FB7F89440910802509109026091FF
:104AC0000A0270910B028FBF342F252FCB0104C037
:104AD000823011F40C943D25632F722F08950F93AB
:104AE0001F93CF93DF93EC010E9451250C811D8110
:104AF0002E813F81DC01CB01801B910BA20BB30BFC
:104B0000088519852A853B8580179107A207B30779
:104B1000D8F0CE010E9451256C837D838E839F83C4
:104B20008981882389F09A81992371F09F3F29F028
:104B30008B81891748F48F5F8B83EC85FD85DF912E
:104B4000CF911F910F910994DF91CF911F910F91F8
:104B50000895DC011A96ED91FC911B9720E030E05E
:104B60000994CF92DF92EF92FF920F931F93CF930E
:104B7000DF93EC01142F7901663131F1F8F46431DF
:104B800009F47BC0653109F086C068EF0E94BA2243
:104B900041E06CE2CE010E94A925612F607FCE0129
:104BA0000E94BA2241E06CE2CE010E94A925612F49
:104BB0006295607FCE010E94BA2258C0673199F099
:104BC0006A3108F068C059C068EF0E94BA22612FAC
:104BD000607FCE010E94BA22612F6295607FCE0174
:104BE0000E94BA2248C06AEF0E94BA2241E06CE2F9
:104BF000CE010E94A9256701012F083058F4812FAA
:104C00008695869586951770E8E08E9FE00CF11CDE
:104C100011241AC0E1EEF2E0D6018D91982F907F19
:104C200090838295807F8183329682E0E13FF8070E
:104C3000A1F798E0C90ED11C085041EE52E060E1A6
:104C4000CE010E94B122D9CF112381F0F701019149
:104C50007F01602F607FCE010E94BA22602F629593
:104C6000607FCE010E94BA221150EECF41E06CE28B
:104C7000CE010E94A92581E00FC0E885F985970142
:104C8000412FCE01DF91CF911F910F91FF90EF90B7
:104C9000DF90CF90099480E0DF91CF911F910F9129
:104CA000FF90EF90DF90CF900895EF92FF920F93D7
:104CB0001F93CF93DF931F92CDB7DEB77C018B019B
:104CC000D8016C916731E1F078F46531A0F1F80119
:104CD00041814983D7011696ED91FC91179720E009
:104CE00030E0C701099524C06A31A8F06E3F19F57C
:104CF000F8014181498369E2C7010E94A92518C0D2
:104D0000F80181818983AE014F5F5F4F61E0C70188
:104D10000E949E220DC00F5F1F4FD7011696ED9186
:104D2000FC91179720E030E040E0C7010995C8CF1B
:104D30000E5F1F4FC5CF0F90DF91CF911F910F9145
:104D4000FF90EF900895AF92BF92CF92DF92EF92D3
:104D5000FF920F931F93CF93DF93EC01693031F4EF
:104D600084E491E0998388831C8A7FC079016B3049
:104D7000E1F16F3009F444C06A3009F078C0EA8587
:104D8000FB8520E030E040E068E20995EE81FF819C
:104D900020E030E040E064E1CE01099541E06BE4C1
:104DA000CE010E94A925E881F981448169E2CE0102
:104DB0000E94A92540E06BE4CE010E94A925E8816C
:104DC000F981448169E2CE010E94A92541E06BE4AA
:104DD000CE010E94A925E881F981458169E2CE01D1
:104DE0000E94A92561E371E007C0411103C06AE296
:104DF00071E002C06FE171E0CE010E94552635C01E
:104E0000F9010481000F000F000F13811695003285
:104E100010F00052185FCE010E949422F701A0808A
:104E2000B1806EE3CE010E94A7226EE3CE010E9404
:104E3000A722D12C10686D2D600F6068CE010E94F2
:104E4000A722612FCE010E94A722F701C280A501EF
:104E50006C2DCE010E949E22AC0CB11CD394F8E0C4
:104E6000DF12E9CFCE010E948A2281E001C080E0FA
:104E7000DF91CF911F910F91FF90EF90DF90CF9036
:104E8000BF90AF9008950F93FC01EA5BFF4F308114
:104E900031965081451728F4301730F0041720F070
:104EA00010C03017D8F30DC0FC01EC5BFF4F308110
:104EB00031968081681738F4321740F081E0261768
:104EC00030F080E004C03217C8F3FBCF81E00F91CF
:104ED00008952F923F924F925F926F927F928F929E
:104EE0009F92AF92BF92CF92DF92EF92FF920F9379
:104EF0001F93CF93DF93EC014C0184E4880E911C47
:104F0000F4011082329720805E01F5E4AF0EB11CEF
:104F1000F5012082359730806E01F6E4CF0ED11C6A
:104F2000F6013082359740807E01F7E4EF0EF11CE8
:104F3000F7014082349610813297608031967080FC
:104F400032975080012F262D472D652DCE010E94CE
:104F50004327CC58DF4F811102C0188212C081E074
:104F60008883552011F0F4015082621410F4F50189
:104F70006082371410F4F6017082141510F4F701F2
:104F80001083DF91CF911F910F91FF90EF90DF90F1
:104F9000CF90BF90AF909F908F907F906F905F90D9
:104FA0004F903F902F9008950F93DC01802FFD01CB
:104FB000EC58FF4F9081992309F463C0222309F430
:104FC00060C0223048F0023019F46F5F621B04C0E9
:104FD000033011F44F5F421B082F0170FD0180FD6B
:104FE00025C0EA5BFF4F8081481708F44AC031961C
:104FF0008081481708F045C03297908131978081B1
:10500000260F261730F4691718F42FEF290F03C065
:10501000682F6917B0F58217A0F5681708F4682F94
:10502000291708F4922F292F261B22C0EC5BFF4F73
:105030008081681730F131968081681710F53296BB
:10504000908131978081240F241730F4491718F488
:105050002FEF290F03C0482F491798F4821788F4BF
:10506000481708F4482F291708F4922F292F241BDA
:10507000D796ED91FC91D8970480F581E02DCD0174
:1050800009950F910895CF92DF92EF92FF92CF93FF
:10509000DF9300D000D0CDB7DEB76C01BE016F5FEB
:1050A0007F4F80E490E00E943722E12CF12C89812F
:1050B0009A81AB81BC818C0D9D1DAE1DBF1D898366
:1050C0009A83AB83BC83BE016F5F7F4F80E490E027
:1050D0000E945D22BE016F5F7F4F88E590E00E94D5
:1050E000372289819A81AB81BC81C80ED91EEA1E04
:1050F000FB1EC982DA82EB82FC82BE016F5F7F4FAA
:1051000088E590E00E945D220F900F900F900F9025
:10511000DF91CF91FF90EF90DF90CF9008950F93A4
:105120001F93CF93DF93CDB7DEB729970FB6F894CF
:10513000DEBF0FBECDBF8C01862FF8011182108219
:1051400013821282158214824AE0BE016F5F7F4F84
:1051500090E00E944A2FBE016F5F7F4FC8010E94FE
:10516000E41E29960FB6F894DEBF0FBECDBFDF91C7
:10517000CF911F910F9108950F931F93CF93DF93BA
:10518000CDB7DEB7A1970FB6F894DEBF0FBECDBF87
:105190008C01CB01BA01F8011182108213821282B4
:1051A000158214822AE0AE014F5F5F4F0E94282FC4
:1051B000BE016F5F7F4FC8010E94E41EA1960FB62B
:1051C000F894DEBF0FBECDBFDF91CF911F910F913D
:1051D0000895CF92DF92EF92FF920F931F93CF9398
:1051E000DF936C018B017A014617570720F4812F5A
:1051F0008A01E62EF82E63EC71E0C6010E94001FC2
:10520000C0911E04D0911F040C171D07E0F4EC168A
:10521000FD0608F4E701E0911A04F0911B04EC0F7D
:10522000FD1FF080108260911A0470911B04600FC2
:10523000711FC6010E94E41E80911A0490911B0404
:10524000C80FD91FF882C601DF91CF911F910F912E
:10525000FF90EF90DF90CF900895CF92DF92EF9282
:10526000FF920F931F93CF93DF9300D000D000D015
:10527000CDB7DEB78C0163EC71E0CE0101960E94E0
:10528000001F109249048091490490E0F8012481A4
:1052900035818217930730F54081518141155105C1
:1052A00029F0FA01E80FF91F208101C020E0022E49
:1052B000000C330B205331092A30310568F44115B5
:1052C000510529F0FA01E80FF91F608101C060E083
:1052D000CE0101960E949E1E809149048F5F8093AB
:1052E0004904D1CF89819A81009729F00E94E52E47
:1052F0006B017C0103C0C12CD12C7601CE0101963B
:105300000E94FB1EC701B60126960FB6F894DEBFB9
:105310000FBECDBFDF91CF911F910F91FF90EF9006
:10532000DF90CF900895CF93DF93CDB7DEB7289766
:105330000FB6F894DEBF0FBECDBF789484B58260FF
:1053400084BD84B5816084BD85B5826085BD85B529
:10535000816085BD80916E00816080936E001092A7
:105360008100809181008260809381008091810022
:1053700081608093810080918000816080938000B3
:105380008091B10084608093B1008091B000816011
:105390008093B00080917A00846080937A0080913D
:1053A0007A00826080937A0080917A008160809395
:1053B0007A0080917A00806880937A001092C10010
:1053C000BE016F5F7F4F84E090E00E9437228981A9
:1053D0009A81AB81BC810197A105B10531F140E40F
:1053E00058EE62E070E085E091E00E94AB2486E137
:1053F00090E0A0E0B0E089839A83AB83BC83BE01D8
:105400006F5F7F4F88E090E00E945D2281E090E036
:10541000A0E0B0E08D839E83AF83B887BE016B5F51
:105420007F4F84E090E00E945D220E94A212E091F2
:105430000103F091020382E08083E091FD02F0918C
:10544000FE021082E091FF02F09100038FEC808356
:1054500010920903E0910503F091060386E0808332
:10546000E0910303F0910403808180618083E091E7
:105470000303F0910403808188608083E09103033B
:10548000F0910403808180688083E0910303F091B0
:10549000040380818F7D808385EA9BE190933204B1
:1054A0008093310410921404109213041092120489
:1054B000109211041092100410920F048DE991E0E3
:1054C000909316048093150490910504963108F08A
:1054D00058C02DEB30E03093100420930F042BE9DB
:1054E00031E030931204209311042CE231E0309328
:1054F00014042093130440916800983058F031E070
:105500009E3008F430E021E0822F01C0880F3A95E8
:10551000EAF701C084E0842B80936800983038F06B
:105520009E3040F0963148F020E030E008C02DE693
:1055300030E005C02BE630E002C02CE630E03093CE
:105540000D0420930C04983030F481E001C0880FE2
:105550009A95EAF70EC0292F30E09E3018F42850B3
:10556000310902C02E50310981E001C0880F2A950F
:10557000EAF780930E048091150490911604019728
:10558000F1F78091130490911404892B21F18091FB
:1055900005029091060223E0893F9207E1F000970F
:1055A00011F00E942122809117048E7F80931704AE
:1055B000109204021092030289EF93E09093060286
:1055C00080930502E0910C04F0910D04908180918C
:1055D0000E04892B8083E091E504F091E60420E03D
:1055E00030E040E06AE081EE94E0099581EE94E0DD
:1055F0000E946A1181EE94E00E944011182F8111DF
:10560000F9CF60E081EE94E00E946D10E091E50436
:10561000F091E60420E030E040E06BE081EE94E0C1
:1056200009958AEC92E290935E0580935D058091E6
:10563000620490916104882361F0923021F09330EC
:1056400021F08FEF03C080E001C081E063E070E0F3
:1056500009C0923029F0933011F08FEF01C081E042
:1056600062E070E00E94DF1089E694E090931904F4
:105670008093180488EE93E0A0E0B0E08093D70414
:105680009093D804A093D904B093DA048FEF809359
:10569000D1042DE636E03093DC042093DB0449E1AD
:1056A00050E060E070E04093C9045093CA046093F6
:1056B000CB047093CC048093C3042AE035E030938C
:1056C000CE042093CD0440E157E260E070E04093C7
:1056D000BB045093BC046093BD047093BE048093DC
:1056E000B5042AE036E03093C0042093BF0440E6BE
:1056F0005AEE60E070E04093AD045093AE046093C6
:10570000AF047093B0048093A70480E496E0909374
:10571000B2048093B10481E08093D0048093C204EA
:105720008093B4048093A60444E127E838E182E33F
:1057300098E1419FF0011124E755FC4F318320830C
:10574000938382831F5F1430A1F7109307029FE0B9
:1057500088E10FB6F894A895809360000FBE9093EF
:1057600060008FEC94E00E946F2581EC94E00E9431
:105770006F2583EB94E00E946F2585EA94E00E94F8
:105780006F2589EF93E00E94101E892BE9F089EFC5
:1057900093E00E94101E892BB9F089EF93E00E94DC
:1057A000281E182F682F8AE194E00E949E1E1A304E
:1057B00059F4E0913104F0913204099563EC71E001
:1057C0008AE194E00E94E41EA8950E94461DC9CF7C
:1057D000CF93DF938EE893E00E94FB1EC9EFD3E0E6
:1057E00084E891E0998388838BE294E00E94FB1E19
:1057F0008AE194E00E94FB1E84E891E0998388830B
:10580000CE01DF91CF910C942122FC01862F1582CD
:1058100016821782108611861286138614861586C4
:10582000168617864CED55E060E070E0408B518B9A
:10583000628B738B848362E00C946612FC01862F6A
:1058400010821182128213821482158216821782AC
:10585000108611861286138615861686648761E087
:105860000C9466120F931F93CF93DF93CDB7DEB7DF
:1058700065970FB6F894DEBF0FBECDBF1092F4024D
:105880001092F30288EE93E0A0E0B0E08093F5027E
:105890009093F602A093F702B093F80220E631E06D
:1058A0003093F2022093F10225EC30E03093FE02B7
:1058B0002093FD0224EC30E0309300032093FF029C
:1058C00020EC30E0309302032093010321EC30E020
:1058D000309304032093030322EC30E0309306035B
:1058E0002093050326EC30E0309308032093070350
:1058F00010920A0310920B0310920C0310920D03E6
:105900001092640510926305809365059093660577
:10591000A0936705B093680582E791E090936205D4
:10592000809361051092E0041092DF048FE093E20F
:1059300090935E0580935D0510925F05109260055F
:105940001092FA0486E991E09093DE048093DD04DE
:105950001092E2041092E1041092F6041092F904FD
:105960001092ED041092EE041092EF041092F004E5
:105970008FEF8093F7048093FC04E0E0F5E086E18C
:1059800095E02FEF0FEF21938E179F07D9F783EA4A
:1059900096E29093E6048093E50481EB95E2909380
:1059A000E8048093E70485E996E19093EA04809304
:1059B000E9048BE897E19093EC048093EB0420E0FA
:1059C00030E040E069E081EE94E00E94A32610926E
:1059D0002E0510922D058CE693E290931705809387
:1059E00016058DE695E090931B0580931A0511E04E
:1059F00010931C0510921D0510923A0510925A053D
:105A000010935B0510935C058EE991E09093190566
:105A10008093180581EE94E00E94262310922905B8
:105A200010922B0500932A0500932C05E091180590
:105A3000F09119050280F381E02D81EE94E0099543
:105A40008AEB93E29093300580932F0510923D05E9
:105A50008CE0809300058BE0809301058AE08093C1
:105A6000090584E680930B051092D0041092D104AE
:105A70001092D2041092D3041092D4041092D50440
:105A80001092D6041092D7041092D8041092D90420
:105A90001092DA041092DC041092DB041093CF040D
:105AA0001092C2041092C3041092C4041092C50450
:105AB0001092C6041092C7041092C8041092C90430
:105AC0001092CA041092CB041092CC041092CE040F
:105AD0001092CD041093C1041092B4041092B50436
