:100000000C94B4040C94F11E0C94CA1E0C945C2144
:100010000C945C210C945C210C94DC040C94181F4F
:100020000C94DC040C94DC040C94DC040C94DC04D0
:100030000C94DC040C94DC040C94DC040C94DC04C0
:100040000C943F100C94DC040C94CE1F0C94A81F4D
:100050000C94DC040C94DC040C94DC040C94DC04A0
:100060000C9400200C94DC0433183D180A182A1B49
:100070002A1B2A1B2A1B2A1B2A1B5D189D18BC1829
:10008000DB182A1B2A1B2A1B2A1B2A1B2A1BFA18CD
:100090001819361954192A1B2A1B2A1B2A1B2A1B1A
:1000A0002A1BF819271A2A1B2A1B2A1B2A1B2A1B60
:1000B0002A1B2A1B2A1B451A881AC71A2A1B2A1B05
:1000C0002A1B2A1B2A1B2A1B2A1B011B071B000099
:1000D0000000000000000000000000000000000020
:1000E0000000000000000000000000000000000010
:1000F0000000000000000000000000000000000000
:1001000000000008000000000000000000000000E7
:100110000000000C0080FFFF07000000000000004E
:100120000000001C0000F8FF1F000000000000009D
:100130000000001E0000F0037F000000000000002F
:100140000000003E0000F001FE0000000000000082
:100150000000003F0000F001FC0100000000000072
:100160000000003F0000F001F80100000000000066
:100170000000007F0000F001F0030000000000001C
:100180000000807D0000F001F0030000000000008E
:100190000000807D0000F001F0030000000000007E
:1001A0000000C0F80000F001F003000000000000B3
:1001B0000000C0F80000F001F003000000000000A3
:1001C000000060F80100F001F003000000000000F2
:1001D000000060F00100F001F801000000000000E4
:1001E000000060F00100F001F801000000000000D4
:1001F000000030F00300F001FC00000000000000EF
:10020000000030E00300F0017E000000000000006C
:10021000000018E00300F0C11F0000000000000013
:10022000000018C00700F0FF0300000000000000FD
:1002300000000CC00700F0FF0300000000000000F9
:1002400000000CC00F00F0E10700000000000000FB
:1002500000000E800F00F0C10F0000000000000041
:100260000000FEFF0F00F0810F0000000000000002
:100270000000FEFF1F00F0811F00000000000000D2
:10028000000003001F00F0013F000000000000001C
:10029000000003003F00F0017E00000000000000AD
:1002A000008001003E00F0017C0000000000000022
:1002B000008001003E00F001FC0000000000000092
:1002C00000C001007E00F001F80100000000000005
:1002D00000C000007C00F001F003000000000000FE
:1002E00000C00000FC00F001E0030000000000007E
:1002F00000600000F800F001E007000000000000CE
:1003000000700000F801F001C00F000000000000C4
:1003100000700000F801F001801F000000000000E4
:1003200000FC0000FC07F80300FF000000000000D4
:1003300000FF0780FF9FFF3F00FF03000000000059
:1003400000000000000000000000000000000000AD
:10035000000000000000000000000000000000009D
:10036000000000000000000000000000000000008D
:1003700000FF67EFE69C83C3BA9F03000000000004
:10038000005594454422412413510200000000000E
:10039000004411444C22412410450000000000009C
:1003A00000C4117C54224124178701000000000082
:1003B00000441144642241241205020000000000A0
:1003C0000044144544224924125102000000000058
:1003D00000EEE7EE4E9C8FC3B9DF01000000000085
:1003E000000000000000000000000000000000000D
:1003F00000000000000000000000000000000000FD
:1004000000000000000000000000000000000000EC
:10041000008F3BE7701E8F33E7870300000000006A
:100420000012114220241221424402000000000068
:10043000001211422024126142410000000000001D
:1004400000121F42202412A1C281010000000000FE
:10045000000E1142201C0E2143010200000000008A
:100460000002114222040221424402000000000066
:1004700000873BE7730E8773E2C7010000000000AE
:10048000000000000000000000000000000000006C
:10049000000000000000000000000000000000005C
:1004A000000000000000000000000000000000004C
:1004B000000000000000000000000000000000003C
:1004C00000000000000000000000000000006000CC
:1004D00003020304030404060B00FE07FE08FF01E9
:1004E0003E028103AA200500A203210739A363501D
:1004F0000222079BB623B104230B2DAAA73228950D
:1005000041A900240E4D9E2B5B2A4AB6254A658BD5
:1005100000250E3DA26750125312294A22250026BB
:100520000C3DA247AAD42A89142901270519B763CB
:100530002808CB9E2B29752B2909CB9E232B7529A7
:10054000012A0A2DAAAB52599A22002B0A2DA62B5A
:100550008C06298C002C08A29A634814002D058B68
:10056000AE632E0612A363082F0C559AB31666616C
:1005700016666108300C3DA267C9A42599B46401D0
:1005800031093DA22B1A3B0D02320A3DA267C9C2B6
:10059000AC6D10330B3DA267C9C248D59205340C2F
:1005A0003DA22F9392523268D900350B3DA2E33819
:1005B000A4A1962C00360C3DA267098724B3250B15
:1005C00000370A3DA263106BC51200380C3DA267CC
:1005D000C9B464C9B46401390C3DA267C96CC910BF
:1005E000260B003A082AA3638886003B09BA9A635F
:1005F000888644013C07BCA22F6A6C3D081DAA6393
:100600005007013E08BCA2236C6A033F0B3DA26762
:10061000C9C2AC0E4500400D3DA267C99421499462
:10062000211D02410C3DA22B4BA2A4360C9916426F
:100630000D3DA26348326D50326D5000430A3DA219
:1006400067C9C4B66401440A3DA26348326F83029D
:10065000450B3DA2E3180E49180E02460A3DA2E3DF
:10066000180E495804470B3DA267C9C468D39205C8
:10067000480A3DA223B30D43660B490A3DA263908D
:10068000C24E83004A093DA2B351D392054B0C3DA3
:10069000A2239392929644952C4C083DA223EC7190
:1006A000104D0C3DA2235B964449345B004E0B3D3C
:1006B000A2239B9444DA6C014F0A3DA267C9BC2572
:1006C0000B00500C3DA26348326D50C22200510A0B
:1006D000459E67C9BC54D600520C3DA26348326D9A
:1006E00050325B00530B3DA267C9D4554B160054E2
:1006F000093DA26390C29E0055093DA223F32D59E6
:1007000000560C3DA223B325A5240B2300570A3D18
:10071000A223734994E416580B3DA223D3925AA501
:10072000A605590A3DA223B325B5B0045A0A3DA235
:100730006310B38E83005B084A9F63E98B005C0CF7
:10074000D59A234CC3344CC3340C5D08CA9E43E98C
:10075000CB005E081DB22B4B6A015F060E9AE300C8
:10076000600692BA230A61092DA267D04C8A1262F0
:100770000C3DA2230C8724B30D0A0063092DA26748
:10078000C9C47408640A3DA2B33268B66408650A35
:100790002DA267C986211D026609BCA24B89A6ACA1
:1007A00009670C3D9A67D06CC910260B00680A3D9A
:1007B000A2230C8724730B6908BBA227945A066AEC
:1007C000094B9A2B943A2D006B0B3DA2232C25A5A7
:1007D000A992056C07BBA243EA656D0C2DA2634884
:1007E0002A4AA2244A016E092DA2233169B6006F5C
:1007F000092DA267C96CC902700C3D9A634832DBAF
:10080000A0842100710A3D9A67D06CC91016720944
:100810002DA2233189450073092DA267500F0A00CC
:100820007409BCA2278BA6AC2875092DA22373528C
:100830009400760B2DA223D39252924500770C2D73
:10084000A22349944449942E00780A2DA2234B6A8E
:10085000955A00790B3D9A23734B863059007A09DB
:100860002DA263D0DA06017B0ADB9A2B895AB2A843
:100870002D7C06499FE3017D0BDB9A238BDA92A83E
:1008800025027E0615AEC7057F0500A20300000005
:1008900004FFFF000000000000240027002A0000E1
:1008A000000008000201000003040700000000002F
:1008B00000000002506F7765720053657276650024
:1008C00043726564697400416D6F756E7400547293
:1008D000616E73004C696D69740046726565005401
:1008E000696D6500566163616E7400436F696E00E7
:1008F0005465726D696E616C005068696C697070E6
:10090000696E657300412E522E542E53000509F96D
:1009100008F008EB08E408DF08DA08D408CE08C7B6
:1009200008C008BA08B40800000000230026002907
:100930000000000000250028002B0004040404042B
:10094000040404020202020202030303030303017C
:100950000204081020408001020408102001020453
:1009600008102000E02B962B11241FBECFEFD8E0FB
:10097000DEBFCDBF25E0AAEDB1E001C01D92A93ECA
:10098000B207E1F711E0A0E0B1E0EEE2FEE602C05E
:1009900005900D92AA3DB107D9F714E0C3EBD4E05E
:1009A00004C02197FE010E942032C23BD107C9F743
:1009B0000E9441290C940A370C940000CF92DF92D8
:1009C000EF92FF920F931F93CF93DF936C01EB0194
:1009D0007B01E40EF51E00E010E0CE15DF0561F0AE
:1009E0006991D601ED91FC910190F081E02DC60155
:1009F0000995080F191FF1CFC801DF91CF911F9101
:100A00000F91FF90EF90DF90CF900895089580E0D0
:100A100090E008954F925F926F927F92BF92CF9233
:100A2000DF92EF92FF920F931F93CF93DF93109279
:100A3000030284E1D82E9FE0C92EBB24B394809199
:100A40000302843008F0D8C0E82EF12CDE9CE001CF
:100A5000DF9CD00D1124CB55DC4FCE010E944B21E1
:100A60009F81891709F468C0CE010E944B21882319
:100A700009F462C02FB7F8948091040290910502A6
:100A8000A0910602B09107022FBF88879987AA8795
:100A9000BB87CE010E944B21DE9CF001DF9CF00D54
:100AA0001124EB55FC4F87830091030210E0C09E98
:100AB000F001C19EF00D1124EF59FB4F868565852D
:100AC000811101C06B2584850E94350DC09EE00117
:100AD000C19ED00D1124CF59DB4F8E85882331F173
:100AE0004C805D806E807F800E94EB24461A570AFE
:100AF000680A790A488659866A867B860E94EB24B2
:100B00000C811D812E813F81601771078207930739
:100B100068F0188619861A861B86188219821A822E
:100B20001B821C821D821E821F821E8680910302F0
:100B30008F5F8093030283CFCE010E944B21DE9C06
:100B40008001DF9C100D11240B551C4FF80197817B
:100B5000891709F49ECFCE010E944B21811199CFB4
:100B60002FB7F8948091040290910502A09106029B
:100B7000B09107022FBFF8014085518562857385CA
:100B8000841B950BA60BB70B448555856685778529
:100B9000481759076A077B0790F4F8014089518983
:100BA0006289738984179507A607B70740F40190F7
:100BB000F081E02D309709F46CCFD80119C0DE9C8C
:100BC0009001DF9C300D11242B553C4FF9014089D9
:100BD000518962897389481759076A077B0708F0AA
:100BE00058CF0280F381E02D309709F452CFD9011C
:100BF00014968C9109954DCFDF91CF911F910F9154
:100C0000FF90EF90DF90CF90BF907F906F905F90BC
:100C10004F900895CF92DF92EF92FF92CF93DF93A0
:100C200000D000D0CDB7DEB7BE016F5F7F4F80E34D
:100C300090E00E94EC21C980DA80EB80FC80BE014C
:100C40006F5F7F4F8CE190E00E94EC2189819A8157
:100C5000AB81BC81C816D906EA06FB0620F081E00C
:100C60008093FE0102C01092FE010F900F900F9032
:100C70000F90DF91CF91FF90EF90DF90CF9008958C
:100C800082E390E00C94F1270F931F93CF93DF93AF
:100C9000EC018C010C5F1F4FFC01E058FF4F0190ED
:100CA000F081E02DC80109958E3F2FEF920770F477
:100CB000FE01ED57FF4FCE57DF4F9C014081688109
:100CC000C8010E9416159881890F888381E090E001
:100CD000DF91CF911F910F9108952F923F924F92E4
:100CE0005F926F927F928F929F92AF92BF92CF92BC
:100CF000DF92EF92FF920F931F93CF93DF9300D079
:100D000000D000D0CDB7DEB789ED94E00E94680C2A
:100D1000F6ED2F2EF4E03F2E8091250590912605CB
:100D20008E5C944009F4AEC08EEC94E0909326055E
:100D300080932505FC01849180933605EFECF4E067
:100D4000849180933705E0EDF4E084918093380539
:100D5000E1EDF4E0849180933905E2EDF4E08491D3
:100D600080933A05E3EDF4E0849180933B05E4ED54
:100D7000F4E0849180933C05E5EDF4E08491809368
:100D80003D05F101849180933E05E7EDF4E0E491A7
:100D9000E0933F05E8EDF4E0E491E0934005E9EDF0
:100DA000F4E0E491E0934105EAEDF4E0E491E093AE
:100DB0004205EBEDF4E0E491E0934305ECEDF4E063
:100DC000E491E0934405EDEDF4E0E491E093450512
:100DD000EEEDF4E0E491E093460561E18EEC94E001
:100DE0000E940A15909348058093470563E18EECB5
:100DF00094E00E940A1590934A058093490565E1A5
:100E00008EEC94E00E940A1590934C0580934B055C
:100E10008091250590912605892BA1F180914305AC
:100E200080934F05409144054093500590914E05A5
:100E3000992341F1913069F490914505891714F493
:100E400090934F05809146058417E4F480935005F4
:100E500019C03091400520914205082E000C990BD5
:100E6000622F022E000C770B630F711D37FD7A95F0
:100E7000861797071CF4320F30934F05241714F48C
:100E8000209350050E94EB24633071058105910584
:100E900008F050C000E420E840E060E089ED94E014
:100EA0000E94F126882309F4A5C1EEECEE2EE0E0C5
:100EB000FE2E10E066246394610E062D20E8412F7B
:100EC00060E089ED94E00E94F126882359F170904A
:100ED00053056701912C88248394F601849188211D
:100EE00019F07092530509C08091520581110DC00F
:100EF00081E0711080E08093530500E021E0412FF4
:100F0000692D89ED94E00E9482279394880C29F43E
:100F1000FFEFCF1ADF0A8824839420E89212DDCFF6
:100F20007092530540E1E40EF11C162D103409F0C7
:100F3000C1CF60C10E94EB2463307105810591052A
:100F400008F477C10E94EB246C307105810591058E
:100F500008F06FC188E0582E509257051AE01093A0
:100F600058059DE1E92E99E0F92EF70165917491FC
:100F700086E292E00E94B02E86E292E00E94C90CC6
:100F80008AEB91E00E94C90C28E3722E70925705FB
:100F900010935805BE016F5F7F4F8CE290E00E9476
:100FA000EC2169817A818B819C814AE00E94CB0C83
:100FB000EFE1F9E06591749186E292E00E94B02E33
:100FC0003FE7C32E32E2D32ED092DC04C092DB0482
:100FD00046E252E064E188E00E947A0C7092570584
:100FE00044E1642E60925805BE016F5F7F4F80E33D
:100FF00090E00E94EC2189819A812B813C8101E95A
:1010000013E0D801E62D1D92EA95E9F73F932F935F
:101010009F938F935CEA852E51E0952E9F928F923D
:101020001F930F930E945734B801CE0101960E947E
:10103000B51EBE016F5F7F4F85ED94E00E949A1F41
:10104000CE0101960E94B01E509257056EE1562EB9
:1010500050925805F7016591749186E292E00E94E2
:10106000B02E86E292E00E94C90C8CEB91E00E94C7
:10107000C90C7092570550925805BE016F5F7F4FA3
:1010800084E390E00E94EC2169817A818B819C81CC
:101090004AE00E94CB0CE1E2F9E06591749186E2AE
:1010A00092E00E94B02ED092DC04C092DB0446E2B3
:1010B00052E068E288E00E947A0C7092570588E25C
:1010C00080935805BE016F5F7F4F88E390E00E94D8
:1010D000EC2189819A812B813C81D8011D926A94EF
:1010E000E9F73F932F939F938F939F928F921F9334
:1010F0000F930E945734B801CE0101960E94B51E8D
:10110000BE016F5F7F4F85ED94E00E949A1FCE0174
:1011100001960E94B01EE3E2F9E06591749186E2C7
:1011200092E00E94B02ED092DC04C092DB0446E232
:1011300052E062E388E00E947A0C7092570582E3E5
:1011400080935805BE016F5F7F4F80E490E00E945E
:10115000EC2149815A816B817C81CE0101960E94EC
:101160009C10BE016F5F7F4F85ED94E00E949A1F37
:10117000CE0101960E94B01EE5E2F9E065917491FE
:1011800086E292E00E94B02ED092DC04C092DB0492
:1011900046E252E06CE388E00E947A0C70925705B8
:1011A0008CE380935805BE016F5F7F4F8CE390E026
:1011B0000E94EC2169817A818B819C810E941D2F84
:1011C00020E030E04AE754E40E9410316B017C01DA
:1011D0002B013C010FB6F894DEBF0FBECDBF9B01C3
:1011E000AC010E94B631882309F4E1C180EA91E0A4
:1011F0000E94B70C89ED94E00E943E0C81118CCDC9
:1012000026960FB6F894DEBF0FBECDBFDF91CF910B
:101210001F910F91FF90EF90DF90CF90BF90AF9014
:101220009F908F907F906F905F904F903F902F9006
:10123000089588E0809357058AE080935805E3E19C
:10124000F9E06591749186E292E00E94B02E86E208
:1012500092E00E94C90C8091FE018823C1F00E9497
:10126000EB2460FF14C0EBE1F9E06591749186E234
:1012700092E00E94B02E8FE792E29093DC0480937C
:10128000DB0446E252E06AE086E20E947A0C1AE44D
:10129000109357058AE080935805809156049091E9
:1012A0005704AC01E1E9F3E004E1DF01202F1D92D6
:1012B0002A95E9F71F921F925F938F938CEA91E032
:1012C0009F938F93FF93EF930E94573461E973E0EC
:1012D000CE0101960E94B51EBE016F5F7F4F85ED66
:1012E00094E00E949A1FCE0101960E94B01E78E001
:1012F000972E9092570500935805E7E1F9E0659124
:10130000749186E292E00E94B02E86E292E00E9402
:10131000C90C1093570500935805C0905604D090FF
:101320005704E12CF12CBE016F5F7F4F84E190E008
:101330000E94EC2169817A818B819C81A7019601B1
:101340000E94BB31AB01BC01CE0101960E949C10F2
:10135000BE016F5F7F4F85ED94E00E949A1FCE0122
:1013600001960E94B01E00E020E847E160E089EDB0
:1013700094E00E9482279092570502E2009358055C
:101380000E9440210E94C90C82EB91E00E94C90C8E
:1013900010935705009358054091690450916A04D1
:1013A00060916B0470916C040FB6F894DEBF0FBEB1
:1013B000CDBF411551056105710581F0CE01019642
:1013C0000E949C10BE016F5F7F4F85ED94E00E94EC
:1013D0009A1FCE0101960E94B01E16C0BE016F5F1B
:1013E0007F4F8CE090E00E94EC2189819A81AB8153
:1013F000BC81892B8A2B8B2B19F40E94352102C0CA
:101400000E942A210E94C90C88E0809357051CE2A3
:10141000109358050E9440210E94C90C84EB91E072
:101420000E94C90C8AE48093570510935805409197
:1014300078045091790460917A0470917B0441158D
:1014400051056105710581F0CE0101960E949C1045
:10145000BE016F5F7F4F85ED94E00E949A1FCE0121
:1014600001960E94B01E16C0BE016F5F7F4F8CE0D8
:1014700090E00E94EC2189819A81AB81BC81892B0B
:101480008A2B8B2B19F40E94352102C00E942A213D
:101490000E94C90C88E08093570516E31093580505
:1014A0000E9440210E94C90C86EB91E00E94C90C69
:1014B0008AE4809357051093580540918704509112
:1014C00088046091890470918A0441155105610571
:1014D000710581F0CE0101960E949C10BE016F5FE4
:1014E0007F4F85ED94E00E949A1FCE0101960E94E5
:1014F000B01E16C0BE016F5F7F4F8CE090E00E946F
:10150000EC2189819A81AB81BC81892B8A2B8B2B21
:1015100019F40E94352102C00E942A210E94C90CA0
:1015200088E08093570510E4109358050E944021ED
:101530000E94C90C88EB91E00E94C90C8AE4809358
:101540005705109358054091960450919704609167
:10155000980470919904411551056105710581F058
:10156000CE0101960E949C10BE016F5F7F4F85EDFA
:1015700094E00E949A1FCE0101960E94B01E3ACEBE
:10158000BE016F5F7F4F8CE090E00E94EC2189816B
:101590009A81AB81BC81892B8A2B8B2B19F40E94F9
:1015A000352102C00E942A210E94C90C23CE460187
:1015B0005701E894B7F82FEF3FEF4FE75FE7C5011A
:1015C000B4010E94B63181110DC02FEF3FEF4FE7FC
:1015D0005FE7C501B4010E94182F18161CF484EAB5
:1015E00091E006CE2FEF3FEF4FE75FE4C701B60172
:1015F0000E94B13118161CF488EA91E0F9CD2FEF62
:101600003FEF4FE75FECC701B6010E94182F87FD3F
:10161000F3CF20E030E0A901C701B6010E94182FE6
:1016200087FF0BC06DE285ED94E00E944406260121
:10163000370177FA709477F870942AE037ED43EA2F
:101640005BE3C301B2010E94A4302B013C010E9464
:1016500082316B017C010E941D2F9B01AC01C301F3
:10166000B2010E94A3302B013C014AE0C701B60140
:101670000E94CB0C6EE285ED94E00E94440620E0CF
:1016800030E040E251E4C301B2010E947E2F2B0101
:101690003C010E9482316B01E12CF12C4AE0C70130
:1016A000B6010E94CB0CC701B6010E941D2F9B0101
:1016B000AC01C301B2010E94A33020E030E040E25F
:1016C00051E40E947E2F0E94823180E090E04AE047
:1016D0000E94CB0C8FCDCF93DF93EC016CAFEFA9C1
:1016E000F8AD0190F081E02D0995EFA9F8AD0280E9
:1016F000F381E02DCE01DF91CF910994AF92BF929B
:10170000CF92DF92EF92FF920F931F93CF93DF93CD
:1017100000D000D01F92CDB7DEB78C01DC01DB9684
:10172000AC90DB97DC96EC90DC97ED91FC91B18866
:10173000FE2CC12CD12CD801ED91FC911197808900
:10174000D9964D915C91DA971C82FD828B83B8E02B
:101750008B9FC00111248C9D90018D9D300D9C9D0F
:10176000300D1124CA01820F931F9A838983D801F7
:101770001496ED91FC9115979E012F5F3F4F41E02C
:101780006FE0C8010995F3948F2D8E198A1528F4FE
:10179000BFEFCB1ADB0AFB1470F20F900F900F9083
:1017A0000F900F90DF91CF911F910F91FF90EF90CD
:1017B000DF90CF90BF90AF9008958230F8F4E82F7B
:1017C000F0E0EE0FFF1FE050FF4F24E633E13183DE
:1017D0002083813041F0809169008C7F682B609379
:1017E0006900E89A089580916900837F660F771FEA
:1017F000660F771F682B60936900E99A089583301C
:1018000081F028F4813099F08230A1F0089587307A
:10181000A9F08830B9F08430D1F4809180008F7DB8
:1018200003C0809180008F7780938000089584B5F5
:101830008F7702C084B58F7D84BD08958091B000FC
:101840008F7703C08091B0008F7D8093B0000895A2
:10185000FC01A081B18150969C9143AD949FA00161
:10186000112483E0440F551F8A95E1F760E070E092
:1018700081AD92AD0C942F340E9421341F93CF93ED
:10188000DF93EC010E947E0B1CAD8BAD180FE8813D
:10189000F9818189181750F0EC81FD8120E030E05A
:1018A00040E060E1CE01099580E00EC0FE01E55800
:1018B000FF4F8081882319F0CE010E94280C612FF0
:1018C000CE010E946B0B81E0DF91CF911F910895B3
:1018D000CF93DF93EC01FC01E558FF4F8081882313
:1018E00019F0CE010E94280C60E0CE01DF91CF916B
:1018F0000C946B0BFF920F931F93CF93DF93C82F22
:10190000D62F1092F2048A01F12CF80161918F0117
:10191000E091DB04F091DC0489ED94E009958F3FC0
:10192000FFEF9F07E9F08E3F2FEF920771F39C01C5
:101930004D2F6C2F89ED94E00E941615909135057E
:10194000913049F030F0923041F0933039F4D81BA7
:1019500005C0C80F03C0D80F01C0C81BF80ED5CFF3
:101960008F2DDF91CF911F910F91FF9008950097D8
:1019700069F0FC0101900020E9F73197AF01481BA5
:10198000590BBC0185ED94E00C94DE0480E090E0FE
:1019900008950C94B70C8F929F92AF92BF920F93C1
:1019A0001F93CF93DF93CDB7DEB7A1970FB6F8940F
:1019B000DEBF0FBECDBF19A2423008F44AE08E014F
:1019C0000F5D1F4F842E912CA12CB12CA5019401E9
:1019D0000E94DF31E62FB901CA0101501109EA3036
:1019E00014F4E05D01C0E95CD801EC93232B242BB7
:1019F000252B61F7C8010E94B70CA1960FB6F89489
:101A0000DEBF0FBECDBFDF91CF911F910F91BF9071
:101A1000AF909F908F900895CF93DF93282F30E061
:101A2000F901E156F74F8491F901E15BF64FD4914A
:101A3000F901E55CF64FC491CC2391F081110E942D
:101A4000FF0BEC2FF0E0EE0FFF1FE95DF64FA591C5
:101A5000B491EC91ED2381E090E021F480E002C0AC
:101A600080E090E0DF91CF9108951F93CF93DF93B3
:101A7000282F30E0F901E156F74F8491F901E15B3D
:101A8000F64FD491F901E55CF64FC491CC23C1F037
:101A9000162F81110E94FF0BEC2FF0E0EE0FFF1FBD
:101AA000EF5CF64FA591B4919FB7F894111104C063
:101AB0008C91D095D82302C0EC91DE2BDC939FBF94
:101AC000DF91CF911F910895CF93DF9390E0FC01B8
:101AD000E15BF64F2491FC01E55CF64F849188238D
:101AE00061F190E0880F991FFC01EB56F74FC5910B
:101AF000D491FC01EF5CF64FA591B491611109C03E
:101B00009FB7F8948881209582238883EC912E23B7
:101B10000BC0623061F49FB7F8948881322F309502
:101B200083238883EC912E2B2C939FBF06C08FB705
:101B3000F894E8812E2B28838FBFDF91CF910895F1
:101B40002F923F924F925F926F927F928F929F92CD
:101B5000AF92BF92CF92DF92EF92FF920F931F93BB
:101B6000CF93DF9300D000D01F92CDB7DEB7209087
:101B70005F0430906004C101A0E0B0E089839A83E3
:101B8000AB83BC8300915D0410915E0480915C0482
:101B900090910401891721F09F3F09F033C205C0DD
:101BA000E3EBF8E094919D837CC080930401E3EB28
:101BB000F8E0A491AD83AF3F09F424C2A13009F449
:101BC00049C058F1A23009F06CC01092B0001092D8
:101BD000B1009091B00092609093B0009091B100EC
:101BE00091609093B100282F30E0F901E55CF64F49
:101BF000E491F0E0EE0FFF1FEF5CF64F459154913A
:101C000050930A0240930902F901E15BF64FE49117
:101C1000E093080222E02D83F1C114BC15BC94B5F9
:101C2000926094BD95B5916095BD282F30E0F90183
:101C3000E55CF64FE491F0E0EE0FFF1FEF5CF64F2E
:101C400045915491F901E15BF64FE491E09315025F
:101C50001D82D4C110928000109281009091810069
:101C600098609093810090918100916090938100A1
:101C7000282F30E0F901E55CF64FE491F0E0EE0F3B
:101C8000FF1FEF5CF64F45915491F901E15BF64F70
:101C9000E491E093140261E00E94640DB1E0BD8321
:101CA000B4C09D8197FDAEC161E00E94640D8D813D
:101CB0008D7F09F0AAC04801A12CB12C60E072E12F
:101CC0008AE790E0A50194010E94013229013A01BE
:101CD00069017A01A1E0CA1AD108E108F108BFEF51
:101CE000CB16D104E104F10409F008F44DC060E41E
:101CF00072E48FE090E0A50194010E940132690135
:101D00007A0181E0C81AD108E108F1089D8192307A
:101D100001F5AFEFCA16D104E104F10409F008F4AB
:101D200005C160E970ED83E090E0A50194010E9497
:101D3000013269017A01B1E0CB1AD108E108F1085A
:101D40002FEFC216D104E104F10409F040F583E05D
:101D500055C08FEFC816D104E104F104B9F0B0F01A
:101D600068E478EE81E090E0A50194010E940132E0
:101D700069017A0191E0C91AD108E108F108AD8141
:101D8000AA2309F4D5C031C181E001C082E09D8160
:101D9000911134C095B5987F892B85BD75C068E4D5
:101DA00078EE81E090E0A50194010E940132690182
:101DB0007A01A1E0CA1AD108E108F108BFEFCB16F9
:101DC000D104E104F10409F008F4AEC064E274EF58
:101DD00080E090E0A50194010E94013269017A013E
:101DE000B1E0CB1AD108E108F1082FEFC216D104F7
:101DF000E104F10411F008F0CEC085E09091B1004B
:101E0000987F892B8093B1003FC04801A12CB12C51
:101E100060E072E18AE790E0A50194010E9401323E
:101E200069017A01A1E0CA1AD108E108F108C114D8
:101E3000D104B1E0EB06F10488F068E478EE81E0CB
:101E400090E0A50194010E94013269017A0181E0CC
:101E5000C81AD108E108F10883E001C081E09D8142
:101E6000913091F490918100987F892B809381002B
:101E700089819A81AB81BC81892B8A2B8B2B61F460
:101E80002FEF3FEFA9012EC089819A81AB81BC81E0
:101E9000892B8A2B8B2B69F0D801AA0FBB1F9101CC
:101EA0000E94943028EE33E040E050E00E94DF31A1
:101EB00003C02FEF3FEFA9019D81913099F092303F
:101EC00019F191119FC0C7BC20931A0230931B02D5
:101ED00040931C0250931D0280916E00826080939B
:101EE0006E0090C0D0928900C092880020931602A4
:101EF00030931702409318025093190280916F009B
:101F0000826080936F007EC0C092B30020930B026A
:101F100030930C0240930D0250930E02809170009A
:101F20008260809370006EC084E068CF82E066CFEC
:101F3000BFEFCB16D104E104F10459F150F162E195
:101F40007AE780E090E0A50194010E9401326901E6
:101F50007A0191E0C91AD108E108F108AFEFCA1679
:101F6000D104E104F10499F090F0D301C2013AE008
:101F7000B595A795979587953A95D1F76C017D0111
:101F800021E0C21AD108E108F10885E003CF84E01E
:101F900001CF83E0FFCE62E17AE780E090E0A50127
:101FA00094010E94013269017A0181E0C81AD108C6
:101FB000E108F1088FEFC816D104E104F10499F0AB
:101FC00090F0D301C2012AE0B595A7959795879522
:101FD0002A95D1F76C017D0121E0C21AD108E108F0
:101FE000F10887E00BCF86E009CF9FEFC916D10437
:101FF000E104F10409F078F684E0C9CE61E00E94C2
:10200000640D59CE0F900F900F900F900F90DF91AD
:10201000CF911F910F91FF90EF90DF90CF90BF90E5
:10202000AF909F908F907F906F905F904F903F9078
:102030002F9008953FB7F89480911002909111026B
:10204000A0911202B091130226B5A89B05C02F3FA4
:1020500019F00196A11DB11D3FBFBA2FA92F982FCE
:102060008827820F911DA11DB11DBC01CD0142E049
:10207000660F771F881F991F4A95D1F708951F9201
:102080000F920FB60F9211242F933F938F939F932C
:10209000AF93BF938091040290910502A091060234
:1020A000B091070230910F0223E0230F2D3720F467
:1020B0000196A11DB11D05C026E8230F0296A11DA2
:1020C000B11D20930F028093040290930502A09308
:1020D0000602B09307028091100290911102A09124
:1020E0001202B09113020196A11DB11D809310023E
:1020F00090931102A0931202B0931302BF91AF917B
:102100009F918F913F912F910F900FBE0F901F9035
:102110001895CF93DF93EC01FB01448155816081D9
:1021200071810E94251E811103C0CE010E94661E8E
:10213000CE01DF91CF9108958F929F92AF92BF927F
:10214000CF92DF92EF92FF920F931F93CF93DF9383
:102150008C016A017B01C1E9D3E084E1FE011192A7
:102160008A95E9F78CE3882E912CA12CB12CCB0118
:10217000BA01A50194010E94DF317F936F93CA01D8
:10218000B901A50194010E94DF317F936F93C701CC
:10219000B60120E13EE040E050E00E94DF311F92B6
:1021A0002F938EEB91E09F938F93DF93CF930E94B9
:1021B0005734BE01C8010E94B51EEDB7FEB73A966E
:1021C0000FB6F894FEBF0FBEEDBFC801DF91CF91EF
:1021D0001F910F91FF90EF90DF90CF90BF90AF9045
:1021E0009F908F900895213039F020F0223031F403
:1021F000861B0895860F0895841B0895840F089503
:10220000213039F020F0223031F4841B0895840FFE
:102210000895860F0895861B0895DC0118964C9149
:102220001897ED91FC911197249130E0042E02C093
:10223000359527950A94E2F7842F860F883010F49D
:10224000E22F0DC031961196FC93EE93E49198E045
:10225000941B01C0EE0F9A95EAF7E22B885018966E
:102260008C9381E090E001C0880F6A95EAF7815075
:102270008E2308955F926F927F928F929F92AF927A
:10228000BF92CF92DF92EF92FF920F931F93CF9363
:10229000DF935C01F62E642EEC01C05BDF4F1C81E6
:1022A000DD804C018AE7880E911CEE80E11ACF2C6C
:1022B000EF1408F4CE2C5B800C85202F4D2D612F60
:1022C0008A810E94F310782E202F4D2D612F852DAD
:1022D0000E940011482F662011F08A8504C089856C
:1022E000811108C08B85F40180832C2D672DC501D9
:1022F0000E948227FE1420F0FE18D39410E0D5CF60
:102300001F0D1C83DD82DF91CF911F910F91FF90F4
:10231000EF90DF90CF90BF90AF909F908F907F9085
:102320006F905F9008951F93CF93DF93EC01A88186
:10233000B981683109F493C030F4643109F484C080
:10234000673149F0E1C0693109F4CDC0603209F06C
:10235000DBC06AE4D4C01C968C9180FD5EC044232F
:1023600009F4D0C0F90181919F014150DFB7F89481
:10237000A0912402B091250290912302E0912102C4
:10238000F0912202C091200270911F0281110EC0B3
:102390008C9198239C9388E090819C2B90839081D2
:1023A000972390838150C1F7DFBFD9CF10911E02D0
:1023B00058E06C9187FF02C0612B01C069236C93C8
:1023C00060816C2B6083880F60816723608351502C
:1023D00081F7EACFF90181919F014150DFB7F8946D
:1023E000A0912402B091250290912302E091210254
:1023F000F091220270912002C0911F02811110C041
:102400008C9198239C9388E090819C239083908169
:10241000972B90838150C1F7DFBF4111DBCF72C092
:1024200010911E0258E06C9187FF02C0612B01C021
:1024300069236C9360816C236083880F6081672BB4
:102440006083515081F7E8CF11964C9169E40E9466
:102450005725E881F9814485417060E450C04C9172
:1024600069E40E945725A881B981EA85FB8520E0AF
:1024700030E012964C916CE2CE0109958F8D90E080
:10248000FC01E55CF64FE491F0E0EE0FFF1FEF5C1E
:10249000F64F259134913093220220932102FC01C2
:1024A000E15BF64FE491E0932002E095E0931F0298
:1024B00088A190E0FC01E55CF64FE491F0E0EE0FBE
:1024C000FF1FEF5CF64F2591349130932502209346
:1024D0002402FC01E15BF64FE491E0931E02E095DB
:1024E000E09323020FC0EA85FB8520E030E01396DD
:1024F0004C916CE20995E881F981418169E4CE0152
:102500000E94572581E001C080E0DF91CF911F91AB
:1025100008958F929F92AF92BF92CF92DF92EF92E7
:10252000FF92CF93DF93EC016C3288F46A3208F0AB
:1025300089C06832B9F0693209F06DC0C42ED12C5F
:10254000E12CF12C0E941A104B015C013DC06D3250
:1025500009F440C008F45FC084EB860F823008F4B1
:1025600048C059C07C012FE1E20EF11CD0E0F70118
:1025700081917F018F3F39F0D03110F461E001C0CB
:1025800062E00E94640DDF5FD63189F75BC00E9474
:102590001A10DC01CB0188199909AA09BB09883EE8
:1025A0009340A105B10580F0F1E0CF1AD108E10810
:1025B000F10828EE820E23E0921EA11CB11CC1146A
:1025C000D104E104F10419F7C114D104E104F104C8
:1025D000F1F638C0433018F082E090E002C085E0A8
:1025E00090E0880F991F880F991F05970197F1F7C1
:1025F00029C0862F8F73C80FD11D411107C061E01C
:102600008F8D0E94640D60E08F8D12C062E08F8D0F
:102610000E94640D17C06034B8F0962F9F73FE01BE
:10262000E90FF11D878D8F3F69F0903120F4642F01
:102630000E94350D07C00E940C0D21E0892B09F482
:1026400020E02A8F81E001C080E0DF91CF91FF90F0
:10265000EF90DF90CF90BF90AF909F908F900895B4
:102660001F93CF93DF93C82F10920302D4E11FE092
:10267000E0910302E43020F5DE9FF0011124EB55D8
:10268000FC4F8481C81316C00E94A00DE091030284
:102690001E9FF0011124EF59FB4F10861186128600
:1026A000138610821182128213821482158216827E
:1026B00017821686809103028F5F80930302D8CF22
:1026C000DF91CF911F9108950E94A00D10925B049D
:1026D00080915B04863960F4809159040E940C0D4E
:1026E000892B91F480915B048F5F80935B04F0CF22
:1026F000209158048091560490915704820F911DA7
:10270000909357048093560408952F923F924F92CE
:102710005F926F927F928F929F92AF92BF92CF9271
:10272000DF92EF92FF920F931F93CF93DF93CDB77A
:10273000DEB728970FB6F894DEBF0FBECDBFC82E08
:10274000BE016F5F7F4F8CE090E00E94EC21898199
:102750009A81AB81BC812091560430915704820F3D
:10276000931F9093570480935604892B09F439C121
:102770001092030284E1382E9FE0D92E26E0222E0B
:1027800080910302843008F02CC190E0389EF00163
:10279000399EF00D1124EB55FC4F2481C2121BC150
:1027A000D89EF001D99EF00D1124EF59FB4F86857C
:1027B000882309F4A7C00E94A00D0091560410912F
:1027C00057042801612C712CBE016F5F7F4F84E19B
:1027D00090E00E94EC2169817A818B819C81A30128
:1027E00092010E94BB314B015C01BE016F5F7F4FC4
:1027F0008CE090E00E94EC2189819A81AB81BC81C0
:10280000892B8A2B8B2B09F095C0BE016B5F7F4F04
:1028100080E390E00E94EC218D819E81AF81B8859C
:10282000840D951DA61DB71D8D839E83AF83B8872C
:10283000BE016B5F7F4F80E390E00E941222BE01D9
:102840006B5F7F4F88E490E00E94EC218D819E8138
:10285000AF81B885840D951DA61DB71D8D839E8300
:10286000AF83B887BE016B5F7F4F88E490E00E9422
:102870001222BE016F5F7F4F8CE290E00E94EC213C
:1028800089819A81AB81BC810196A11DB11D89838B
:102890009A83AB83BC83BE016F5F7F4F8CE290E075
:1028A0000E941222BE016F5F7F4F84E490E00E947D
:1028B000EC2189819A81AB81BC810196A11DB11D5A
:1028C00089839A83AB83BC83BE016F5F7F4F84E4AF
:1028D00090E00E941222BE016F5F7F4F84E190E082
:1028E0000E94EC2189819A81AB81BC81089FB00153
:1028F000099F700D189F700D112485E091E00E94D2
:10290000712318C08090560490905704A12CB12CCC
:10291000BE016F5F7F4F88E190E00E94EC218981CA
:102920009A81AB81BC8188169906AA06BB0608F479
:1029300052C041CFBE016F5F7F4F8CE090E00E949C
:10294000EC2189819A81AB81BC81892B8A2B8B2BCD
:1029500029F0B80185E091E00E94BD23289CC001C8
:10296000299C900D11240E94F127E0900302F12C84
:10297000DE9C8001DF9C100D11240F591B4FF801C4
:102980008685882349F084819581A681B781880E48
:10299000991EAA1EBB1E0EC00E94EB24F801608384
:1029A0007183828393830E94EB24860E971EA81E58
:1029B000B91EF80184829582A682B782DE9CF0015E
:1029C000DF9CF00D1124EF59FB4F81E086871092B8
:1029D000570410925604809103028F5F8093030284
:1029E000CFCE28960FB6F894DEBF0FBECDBFDF91D5
:1029F000CF911F910F91FF90EF90DF90CF90BF90FC
:102A0000AF909F908F907F906F905F904F903F908E
:102A10002F900895FC01E60FF11D849190E0982F0E
:102A200088273196E4918E0F911D08956F927F92C1
:102A30008F929F92AF92BF92CF92DF92EF92FF92CE
:102A40000F931F93CF93DF93EC01062F142F79017F
:102A5000FC01E45AFF4F80818130C9F070F0823070
:102A600001F1833039F5FE01E25BFF4F0190F08107
:102A7000E02DCE010995080F1DC0FE01E25BFF4F5E
:102A80000190F081E02DCE010995180F13C0FE01D1
:102A9000E25BFF4F0190F081E02DCE010995081B0C
:102AA00009C0FE01E25BFF4F0190F081E02DCE01F5
:102AB0000995181BFE01EE5AFF4F008331961083D3
:102AC00037978081918147962FEFE216F10409F044
:102AD00040F5E1E6EE16F10420F0FE01E059FF4F6B
:102AE00007C0F1E4EF16F10438F0FE01E259FF4FA0
:102AF00020813181820F931F9C012F5F3F4FF9018D
:102B00004491442309F40EC1FC01449150E0E416C1
:102B1000F50611F4029634C0F9012491820F911D3B
:102B2000EBCFFE01EE58FF4FC080D180C80ED91EFA
:102B3000860160E0C6010E940A15080F191F62E0B5
:102B4000C6010E940A15F4E0CF0ED11C8E159F0518
:102B500080F3F801849190E0982F88273196E491D2
:102B60008E2B009709F4DEC0E816F90619F4C801A7
:102B7000039606C0F8013296E4910E0F111DE9CFBD
:102B8000009709F4CFC07E01F0E5EF0EF11CF701CC
:102B900091838083108671966081C7010E940D1118
:102BA000F701868372966081C7010E940D11D82EAD
:102BB000F70187835E01FAE7AF0EB11CF501908142
:102BC000F701928781E0911180E0F7018387FE0190
:102BD000ED59FF4F1081612FC7010E940D119FEF2A
:102BE000910F01E010E0980101C0220F9A95EAF7D9
:102BF000782E721AFE01EC59FF4FC0806C2DC70170
:102C00000E940D11CA94480101C0880CCA94EAF7C9
:102C1000682E6D0CFE01EB59FF4FC0806C2DC70173
:102C20000E940D11CA9401C0000FCA94EAF7C82E81
:102C3000C01AF701068110160CF075C0948486182E
:102C4000292D482D672D82810E94F310182FF7013E
:102C50008283292D482D672D83810E940011F70161
:102C60008383F1E09F16B1F09F1678F022E0921670
:102C7000B9F093E099121FC0212F2D0D982F901BB2
:102C800001E0080F81E0890F18C0202F210F082FC5
:102C90000D0D13C09D1821E0210F080F190D0DC057
:102CA00091E0392F301B21E0210F9D1901E0080F21
:102CB000890F130F02C0082F212F482F612FCE013B
:102CC0000E94F126882379F1F701148215828E0182
:102CD000015A1F4F4E01F0E68F0E911CF8016081E2
:102CE000C7010E940D11682EF4016081C7010E9486
:102CF0000D11782E40E0662DCE010E943A1141E080
:102D0000672DCE010E943A1161E0C7010E940D11AA
:102D10008111F0CFF70185818D1504F38285F501CE
:102D2000808301C0C12C8C2DDF91CF911F910F9119
:102D3000FF90EF90DF90CF90BF90AF909F908F90DB
:102D40007F906F900895CF93DF9300D000D000D094
:102D5000CDB7DEB76DEC71E0CE0101960E94B51ED5
:102D600066E174E0CE0101960E948910BC018DEEEF
:102D700092E00E949A1FCE0101960E94B01E0E940E
:102D8000601760ED71E0CE0101960E94B51E66E10C
:102D900074E0CE0101960E948910BC018DEE92E094
:102DA0000E949A1FCE0101960E94B01E66E174E057
:102DB00085EF93E00E949A1F64ED71E086E194E054
:102DC0000E94991E26960FB6F894DEBF0FBECDBFA7
:102DD000DF91CF9108951F93CF93DF9300D000D060
:102DE00000D0CDB7DEB78DEE92E00E94541C892B47
:102DF000F1F18DEE92E00E94321C182F682F86E1CF
:102E000094E00E94531E1A3091F56DEC71E0CE01F2
:102E100001960E94B51E66E174E0CE0101960E9403
:102E20008910BC018DEE92E00E949A1FCE0101969E
:102E30000E94B01E0E94601760ED71E0CE01019605
:102E40000E94B51E66E174E0CE0101960E948910D1
:102E5000BC018DEE92E00E949A1FCE0101960E9465
:102E6000B01E64ED71E086E194E00E94991E269602
:102E70000FB6F894DEBF0FBECDBFDF91CF911F918B
:102E80000895CF93DF9320911A0430911B04821789
:102E9000930788F4C0911604D09117046091270419
:102EA000709128048C0F9D1F0E943D34009719F0EB
:102EB0008C1B9D0B02C08FEF9FEFDF91CF91089588
:102EC0004F925F926F927F928F929F92AF92BF923A
:102ED000CF92DF92EF92FF920F931F93CF93DF93E6
:102EE000CDB7DEB7C054D1090FB6F894DEBF0FBE20
:102EF000CDBF80E090E00E9441173C017724430160
:102F00008FEF881A980AC4010E9441177C01FF24A0
:102F10005701EFEFAE1ABE0AC5010E9441178C019E
:102F200011276801FFEFCF1ADF0AC6010E9441177F
:102F30002C01A30160E070E0CE0101960E94972869
:102F4000CE0101960E94DB2860931C04CE010196FD
:102F50000E94B01EA701B401CE0101960E949728DD
:102F6000CE0101960E94DB2860931D04CE010196DC
:102F70000E94B01EA801B501CE0101960E949728BB
:102F8000CE0101960E94DB2860931E0470931F04FB
:102F90008093200490932104CE0101960E94B01EDC
:102FA0005524A201B601CE0101960E949728CE01B8
:102FB00001960E94DB28609322047093230480937F
:102FC000240490932504CE0101960E94B01E4091E6
:102FD0001A0450911B04B2016F5F7F4FCE0101961E
:102FE0000E949728CE0101960E94DB286093260458
:102FF000CE0101960E94B01EE0911C048E2F90E03D
:10300000FC013197E333F10508F024C3EC5CFF4F7A
:103010000C94203280911D04813071F40E94EB24C5
:1030200060931E0470931F048093200490932104E6
:10303000C5C2843009F460C08091300490E0A0E003
:10304000B0E080931E0490931F04A0932004B093DB
:1030500021048093220490932304A0932404B0932A
:10306000250484E30FC380911D04813029F7BE013C
:103070006F5F7F4F88E090E093C280911D048130A4
:1030800031F4BE016F5F7F4F8CE090E089C28230E7
:1030900099F680911E0490911F04A0912004B09194
:1030A000210421968CAF9DAFAEAFBFAF2197BE017B
:1030B000635C7F4F8CE090E067C280911D0481309B
:1030C00031F4BE016F5F7F4F80E190E069C28230D2
:1030D00009F0AFCF80911E0490911F04A0912004AD
:1030E000B091210489AF9AAFABAFBCAFBE01675CB2
:1030F0007F4F80E190E048C2C0901E04D0901F0432
:10310000E0902004F0902104BE016F5F7F4F80E1CA
:1031100090E00E94EC2149815A816B817C8181E0A1
:1031200090E0A0E0B0E0C416D506E606F70609F088
:103130003DC280E090E0DC0139C280911D04813005
:1031400031F4BE016F5F7F4F84E190E029C282308D
:1031500009F072CF80911E0490911F04A091200469
:10316000B09121048DAB9EABAFABB8AFBE016B5C31
:103170007F4F84E190E008C280911D04813031F4DA
:10318000BE016F5F7F4F88E190E00AC2823009F094
:1031900053CF80911E0490911F04A0912004B09100
:1031A000210489AB9AABABABBCABBE016F5C7F4F6C
:1031B00088E190E0E9C180911D04813031F4BE01C5
:1031C0006F5F7F4F8CE190E0EBC1823009F034CF2C
:1031D00080911E0490911F04A0912004B0912104BD
:1031E0008DA79EA7AFA7B8ABBE01635D7F4F8CE1F3
:1031F00090E0CAC180911D04813009F01DCFBE014D
:103200006F5F7F4F8CE290E00E94EC2189819A8170
:10321000AB81BC8180931E0490931F04A093200473
:10322000B0932104BE016F5F7F4F84E490E058C0EB
:1032300080911D04813009F0FFCEBE016F5F7F4F8A
:1032400080E390E00E94EC2189819A81AB81BC816E
:1032500080931E0490931F04A0932004B093210434
:10326000BE016F5F7F4F88E490E03AC080911D04FB
:10327000813009F0E1CEBE016F5F7F4F84E390E0C3
:103280000E94EC2189819A81AB81BC8180931E04CC
:1032900090931F04A0932004B0932104BE016F5F9C
:1032A0007F4F8CE490E01CC080911D048130F9F4C4
:1032B000BE016F5F7F4F88E390E00E94EC2189811F
:1032C0009A81AB81BC8180931E0490931F04A093CC
:1032D0002004B0932104BE016F5F7F4F80E590E032
:1032E0000E94EC2189819A81AB81BC81A9C1833084
:1032F00009F0A2CE609122047091230480912404ED
:1033000090912504611571058105910509F452C05C
:1033100081E394E00E94BD23C0902204D090230456
:10332000E0902404F0902504BE016F5F7F4F84E19C
:1033300090E00E94EC2169817A818B819C81A701B8
:1033400096010E94BB316B017C0120911E043091DB
:103350001F044FE0429FC001439F900D1124009134
:10336000140410911504080F191FF801868588238D
:1033700049F084819581A681B7818C0D9D1DAE1D7C
:10338000BF1D10C00E94EB24F8016083718382830B
:1033900093830E94EB24DC01CB018C0D9D1DAE1D9F
:1033A000BF1DF80184839583A683B78381E0F8016C
:1033B000868719C120911E0430911F044FE0429F5F
:1033C000C001439F900D1124E0911404F091150465
:1033D000E80FF91F1086118612861386108211825B
:1033E0001282138214821582168217821686FBC0FF
:1033F00080911D04813009F01FCE8AE0809326045D
:10340000BE016F5F7F4F80E490E00E94EC218981D4
:103410009A81AB81BC8180931E0490931F04A0937A
:103420002004B0932104BE016F5F7F4F88E590E0D8
:103430000E94EC2189819A81AB81BC818093220416
:1034400090932304A0932404B09325041DC180917C
:103450001D04813009F0F0CDBE016F5F7F4F8CE31A
:1034600090E00E94EC2189819A81AB81BC8180939C
:103470001E0490931F04A0932004B0932104BE0166
:103480006F5F7F4F84E590E02BCF80911D048130EA
:1034900031F4BE016F5F7F4F80E290E081C08330E6
:1034A00009F0CACD80911E0490911F04A0912004C0
:1034B000B091210489A79AA7ABA7BCA76DE374E0DC
:1034C0008CE290E00E9412226DE374E080E390E0D1
:1034D0000E9412226DE374E084E390E00E941222C5
:1034E0006DE374E088E390E00E9412226DE374E0E3
:1034F00080E490E00E9412226DE374E08CE390E09F
:103500000E941222BE01675D7F4F80E290E03CC0C6
:1035100080911D04813031F4BE016F5F7F4F84E2E2
:1035200090E03EC0833009F087CD80911E049091D9
:103530001F04A0912004B09121048DA39EA3AFA3EA
:10354000B8A76DE374E08CE090E00E94122261E382
:1035500074E080E190E00E94122265E374E084E16F
:1035600090E00E9412226DE374E088E190E00E94F6
:10357000122269E374E08CE190E00E941222BE0105
:103580006B5D7F4F84E290E00E9412222CC08091FC
:103590001D048130C9F4BE016F5F7F4F88E290E067
:1035A0000E94EC2189819A81AB81BC8180931E04A9
:1035B00090931F04A0932004B093210480913004C1
:1035C00090E0A0E0B0E03CC0833009F035CD409100
:1035D0001E0450911F04609120047091210481E326
:1035E00094E00E9460248091300490E0A0E0B0E07C
:1035F00080931E0490931F04A0932004B093210491
:103600001FC080911D04833009F016CDFFCF80913B
:103610001D04813009F010CD20911E0430911F044B
:103620004FE0429FC001439F900D1124E09114048C
:10363000F0911504E80FF91F80859185A285B38567
:103640008093220490932304A0932404B093250430
:103650008AE018C08091300480931D0490E0A0E0BF
:10366000B0E080931E0490931F04A0932004B093B5
:1036700021048093220490932304A0932404B09304
:10368000250483E38093260460912604CE014F969F
:103690000E943D284091220450912304609124040B
:1036A00070912504CE0149960E946A2840911E041B
:1036B00050911F046091200470912104CE01439623
:1036C0000E946A2860911D04CE010D960E943D283B
:1036D00060911C04CE0101960E943D2818861F822D
:1036E0001A8619861C861B8669817A816115710587
:1036F00031F04D815E81CE0107960E94781E67E20F
:1037000074E0CE0107960E948910BE01635F7F4F6F
:103710000E94891067E274E00E948910BE016D5E0C
:103720007F4F0E94891067E274E00E948910BE01F9
:10373000675E7F4F0E94891067E274E00E948910E3
:10374000BE01615E7F4F0E9489108C0141E050E014
:1037500063ED71E00E94251E882309F445C0F4E062
:1037600006311F0789F0F8016081718161157105CB
:1037700039F04481558186E194E00E94781E04C0AE
:1037800086E194E00E94661ECE0107960E94B01E5C
:10379000CE0101960E94B01ECE010D960E94B01E71
:1037A000CE0143960E94B01ECE0149960E94B01EE3
:1037B000CE014F960E94B01EC05CDF4F0FB6F8944A
:1037C000DEBF0FBECDBFDF91CF911F910F91FF9054
:1037D000EF90DF90CF90BF90AF909F908F907F90B1
:1037E0006F905F904F900895C8010E94661EB7CFFA
:1037F0000895CF92DF92EF92FF920F931F93CF9392
:10380000DF936C017A018B01C0E0D0E0CE15DF05BB
:1038100081F0D8016D918D01D601ED91FC9101905F
:10382000F081E02DC6010995892B11F02196EECF8C
:103830007E01C701DF91CF911F910F91FF90EF9013
:10384000DF90CF900895FC01538D448D252F30E0FB
:10385000842F90E0821B930B541710F0CF9608959D
:1038600001970895FC01918D828D981761F0828DEA
:10387000DF01A80FB11D5D968C91928D9F5F9F73A4
:10388000928F90E008958FEF9FEF0895FC01918D46
:10389000828D981731F0828DE80FF11D858D90E0B3
:1038A00008958FEF9FEF0895FC01918D228D892F50
:1038B00090E0805C9F4F821B91098F739927089538
:1038C0008DEE92E00E94541C21E0892B09F420E047
:1038D000822F0895FC01848DDF01A80FB11DA35A2A
:1038E000BF4F2C91848D90E001968F739927848F20
:1038F000A689B7892C93A089B1898C918370806443
:103900008C93938D848D981306C00288F389E02DE3
:1039100080818F7D80830895EF92FF920F931F9394
:10392000CF93DF93EC0181E0888F9B8D8C8D981372
:1039300005C0E889F989808185FD26C0F62E0B8DAA
:1039400010E00F5F1F4F0F731127E02E8C8DE812D0
:103950000CC00FB607FCFACFE889F989808185FF92
:10396000F5CFCE010E946A1CF1CF8B8DFE01E80FCE
:10397000F11DE35AFF4FF0829FB7F8940B8FEA894D
:10398000FB89808180620AC09FB7F894EE89FF8925
:103990006083E889F98980818370806480839FBF18
:1039A00081E090E0DF91CF911F910F91FF90EF9018
:1039B0000895CF93DF93EC01888D8823C9F0EA89BD
:1039C000FB89808185FD05C0A889B9898C9186FD18
:1039D0000FC00FB607FCF5CF808185FFF2CFA88915
:1039E000B9898C9185FFEDCFCE010E946A1CE7CF8B
:1039F000DF91CF9108950E94601C81110C94EB1609
:103A0000089585ED8093BC008091BC0084FDFCCFBF
:103A10001092B702089540919302262F30E0240FB0
:103A2000311D21323105DCF42091B7022430C9F474
:103A3000FC0180E090E0861758F4309193022191C8
:103A4000DC01AD58BD4FA30FB11D2C930196F3CFF0
:103A500080919302680F6093930280E0089581E063
:103A6000089582E0089508958FEF9FEF08958FEFF6
:103A70009FEF08958091720290E091958195910950
:103A80000895CF93DF93CB01EA01642F0E940B1DB1
:103A9000CE01DF91CF910895CF93DF931F92CDB7E1
:103AA000DEB7698361E0CE0101960E940B1D81E0C3
:103AB00090E00F90DF91CF91089520910102309115
:103AC00002022817390771F49091FF0180910002DA
:103AD000981741F0E091FF01F0E0EE5CFD4F80812E
:103AE00090E008958FEF9FEF08951F93CF93DF939A
:103AF000DC015C968D919C915D97009739F421E0F3
:103B000030E013963C932E9312973BC05196ED9163
:103B1000FC91529750962C915097322F30951FB7A9
:103B20005E964C915E97742F727041FD6095F8948B
:103B30004081772311F0422B01C043234083EC01E5
:103B40002197F1F748E0508160FF02C0522B01C07D
:103B500053235083EC012197F1F76695415099F773
:103B60008081772319F08323808302C0282B208350
:103B70001FBF5C968D919C915D970197F1F781E055
:103B800090E0DF91CF911F91089520910102309133
:103B900002022817390771F4809100022091FF0179
:103BA00090E0805C9F4F821B910960E470E00E946E
:103BB000CB31089580E090E008952091010230918A
:103BC000020228173907B9F49091FF018091000291
:103BD000981789F0E091FF01F0E0EE5CFD4F8081E5
:103BE0002091FF0130E02F5F3F4F2F733327209349
:103BF000FF0190E008958FEF9FEF08950F931F93BB
:103C0000CF93DF93EC0188819981009729F02A8175
:103C10003B812617370788F48B016F5F7F4F0E9427
:103C20005B33009761F0998388831B830A832C811F
:103C30003D81232B11F4FC01108281E001C080E062
:103C4000DF91CF911F910F910895EF92FF920F9303
:103C50001F93CF93DF936115710511F480E01CC0B1
:103C600041155105C1F07B01EC018C819D818A01D8
:103C7000080F191FB801CE010E94FE1D882371F3A1
:103C8000288139818C819D81B701820F931F0E9409
:103C900036341D830C8381E0DF91CF911F910F910A
:103CA000FF90EF900895CF93DF9300D0CDB7DEB7AC
:103CB00069831A8241E050E0BE016F5F7F4F0E942E
:103CC000251E0F900F90DF91CF910895CF93DF9332
:103CD000EC0188819981009711F00E94D2321982FB
:103CE00018821D821C821B821A82DF91CF91089557
:103CF000EF92FF920F931F93CF93DF93EC017B0121
:103D00008A01BA010E94FE1D811104C0CE010E94E9
:103D1000661E07C01D830C83B701888199810E94AC
:103D20003634CE01DF91CF911F910F91FF90EF902C
:103D30000895CF93DF93EC016115710559F0FB01F4
:103D400001900020E9F73197AF01461B570B0E9405
:103D5000781E02C00E94661ECE01DF91CF910895A9
:103D6000FC01808191810C94D232FC01118210827D
:103D700013821282158214826115710551F0FB01C4
:103D800001900020E9F73197AF01461B570B0C94C7
:103D9000781E08951F920F920FB60F9211242F9341
:103DA0003F934F935F936F937F938F939F93AF93C3
:103DB000BF93EF93FF93E0910201F0910301099506
:103DC000FF91EF91BF91AF919F918F917F916F91F3
:103DD0005F914F913F912F910F900FBE0F901F90C9
:103DE00018951F920F920FB60F9211242F933F93A5
:103DF0004F935F936F937F938F939F93AF93BF93F3
:103E0000EF93FF93E0910001F09101010995FF917B
:103E1000EF91BF91AF919F918F917F916F915F9142
:103E20004F913F912F910F900FBE0F901F901895BB
:103E30001F920F920FB60F9211242F933F934F931F
:103E40005F936F937F938F939F93AF93BF93EF9302
:103E5000FF9380910B0290910C02A0910D02B09102
:103E60000E02892B8A2B8B2B59F190910802E0913D
:103E70000902F0910A0280818927808380910B02D8
:103E800090910C02A0910D02B0910E021816190625
:103E90001A061B060CF03DC080910B0290910C029B
:103EA000A0910D02B0910E020197A109B109809372
:103EB0000B0290930C02A0930D02B0930E0229C046
:103EC00080910401E3EBF8E0E4919FEF909304010B
:103ED000E130B9F098F0E230C9F4909170009D7F24
:103EE0009093700091E09093B0009091B100987F12
:103EF00094609093B1001092B30008C010926E00CD
:103F000005C090916F009D7F90936F0060E00E94CC
:103F1000350DFF91EF91BF91AF919F918F917F915F
:103F20006F915F914F913F912F910F900FBE0F9026
:103F30001F901895DB0114964D915C9115976D912A
:103F40007C91DC01ED91FC910280F381E02D0994DC
:103F50001F920F920FB60F9211242F933F934F93FE
:103F60005F936F937F938F939F93AF93BF93EF93E1
:103F7000FF938DEE92E00E946A1CFF91EF91BF913A
:103F8000AF919F918F917F916F915F914F913F91F1
:103F90002F910F900FBE0F901F9018951F920F92A8
:103FA0000FB60F9211242F938F939F93EF93FF934C
:103FB000E091FD02F091FE028081E0910303F09117
:103FC000040382FD12C09081809106038F5F8F737E
:103FD00020910703821751F0E0910603F0E0E351CE
:103FE000FD4F958F8093060301C08081FF91EF9173
:103FF0009F918F912F910F900FBE0F901F9018954A
:104000001F920F920FB60F9211242F933F934F934D
:104010005F936F937F938F939F93AF93BF93EF9330
:10402000FF938091B900887F803609F49CC068F5C1
:10403000883209F45BC090F4803109F454C038F43C
:10404000882309F4F2C0883009F44DC0F2C08831E9
:1040500009F44CC0803209F45DC0EBC0803409F42F
:1040600068C048F4803309F455C0883309F0E1C0D2
:104070008093B602D4C0803509F44FC0883509F466
:104080005DC0883409F0D5C0D2C0883909F4C3C0F6
:10409000A8F4883709F467C038F4883609F463C097
:1040A000803709F460C0C5C0883809F4B4C08039CD
:1040B00009F45FC0803809F0BCC05BC0803B09F4E4
:1040C00084C038F4803A09F466C0883A09F47DC0A7
:1040D000B0C0803C09F4A3C0883C09F4A0C0883B70
:1040E00009F486C0A6C08091DC0210C09091DB026A
:1040F0008091DA02981770F5E091DB0281E08E0F73
:104100008093DB02F0E0E654FD4F80818093BB009A
:1041100085EC82C08093B6028AC0E091DB0281E028
:104120008E0F8093DB028091BB00F0E0E654FD4FE0
:1041300080839091DB028091DA026AC0E091DB0219
:1041400081E08E0F8093DB028091BB00F0E0E654AB
:10415000FD4F80838091B902811169C081E0809315
:10416000B80284EA5DC083E08093B7021092B50282
:10417000CFCF8091B502803208F04DC0E091B502FA
:1041800081E08E0F8093B5028091BB00F0E0EB568A
:10419000FD4F8083BDCF85EC8093BC001092B702A9
:1041A0008091B502803230F4E091B502F0E0EB5638
:1041B000FD4F10826091B50270E085E992E0E0E089
:1041C000F0E009951092B50234C084E08093B70204
:1041D0001092940210929302E0E0F0E00995809131
:1041E0009302811105C081E08093930210927302C3
:1041F000E091940281E08E0F80939402F0E0ED58FC
:10420000FD4F80818093BB00909194028091930236
:10421000981708F47DCF85E88093BC000AC085EC30
:104220008093BC001092B70204C01092B6020E94A4
:10423000011DFF91EF91BF91AF919F918F917F9160
:104240006F915F914F913F912F910F900FBE0F9003
:104250001F901895E9E1F9E06591749186E292E08A
:104260000E94B02E86E292E00895E5E1F9E06591C2
:10427000749186E292E00E94B02E86E292E0089568
:10428000E1E1F9E06591749186E292E00E94B02E3E
:1042900086E292E00895CF93DF93EC018C810E9437
:1042A0000C0D2E8130E041E02817390709F040E07D
:1042B000842FDF91CF9108951F920F920FB60F9226
:1042C00011242F933F934F935F936F937F938F931B
:1042D0009F93AF93BF93EF93FF93E0910102F0910F
:1042E0000202309709F451C0968DA685B785858561
:1042F00091FF04C09C91892329F447C09C91892394
:1043000009F043C0A389B4899C918589809589234C
:104310008C93868997890197F1F7608D718DA685B9
:10432000B785558538E020E0CB010197F1F7822F62
:1043300090E095958795282F4C91452309F02068AA
:10434000315091F7868D81FD20958091000290E09B
:1043500001968F7399273091FF01381749F0A0918A
:104360000002B0E0AE5CBD4F2C938093000203C00E
:10437000868D8160868F828D938D0197F1F7A38959
:10438000B4899C918589892B8C93FF91EF91BF9182
:10439000AF919F918F917F916F915F914F913F91DD
:1043A0002F910F900FBE0F901F901895E091010272
:1043B000F0910202E817F90769F4A389B4899C9186
:1043C0008589809589238C931092020210920102B4
:1043D00081E0089580E00895CF92DF92EF92FF92FE
:1043E0000F931F93CF93DF93EB017B0124E0E20E49
:1043F000F11C8B016C01C61AD70AC601800F911FF0
:104400000E943C30F80181938F01EE15FF05A9F75A
:10441000CE01DF91CF911F910F91FF90EF90DF9030
:10442000CF900895AF92BF92DF92EF92FF920F93D9
:104430001F93CF93DF93EC017B018B015C0184E040
:10444000A80EB11CF801D1908F01CE010E943C3022
:10445000D81621F06D2DCE010E9444302196CA1548
:10446000DB0581F7C701DF91CF911F910F91FF907D
:10447000EF90DF90BF90AF90089580E00895DC0149
:104480001696ED91FC91179720E030E040E069E14D
:104490000994DC011696ED91FC91179720E030E02D
:1044A00040E068E109949A01DC011696ED91FC91D7
:1044B0001797462F67E10994462FDC011696ED9178
:1044C000FC91179720E030E065E109949A01DC0146
:1044D0001896ED91FC911997462F67E10994CF93B7
:1044E000DF931F92CDB7DEB76983AE014F5F5F4F99
:1044F00061E00E9466220F90DF91CF910895FC0148
:104500006623D9F16A30C9F1818D811124C06C3FD5
:1045100020F085E0818F61701AC0683F20F084E050
:10452000818F637014C0603F20F083E0818F6770DB
:104530000EC0603E20F082E0818F6F7008C0603C4A
:1045400020F081E0818F6F7102C070E01BC070E0CD
:10455000738B628B15C08150818F2289338996E0DD
:10456000220F331F9A95E1F76F73A901462BBA0109
:10457000738B628B811104C005C06FEF7FEF02C0A7
:104580006EEF7FEFCB010895662329F06A3019F0B2
:10459000862F90E008958FEF9FEF08950F93DC0131
:1045A000DF963C91DF97431BD596ED91FC91D69712
:1045B00009950F910895CF93DF93FC01A081B181FC
:1045C00093AD892F880F880F880F86AF50968C91F6
:1045D0005097803208F08FE1880F880F880F85AFE1
:1045E00024AD822F880F880F880F87AF51963C919A
:1045F0005197422F50E0490F511D632F70E064170F
:10460000750714F4932F921BEF01C05CDF4F888372
:10461000219628E0929F800D11248883219680EFB7
:10462000888354968D919C915597813F910508F40C
:104630008883ED5BFF4F56968C918083DF91CF91FD
:1046400008950F93CF93DF93DC01ED91FC91508996
:10465000362F3770E0E8F0E002C0F595E7953A951F
:10466000E2F73E2FA52FB0E0FC01C1ADD2AD6695BB
:1046700066956695E62FF0E0459FE00DF11D11244B
:10468000EC0FFD1FEC01C658DF4F01111DC08881E2
:10469000823018F49081932B90838881813019F0B7
:1046A000908193279083369511F4319630E821500C
:1046B00071F711C08881813019F090819327908320
:1046C000EA0FFB1F215039F08881823098F79081E2
:1046D000932B9083EFCFDF91CF910F91089580E0DE
:1046E0000895CF92DF92EF92FF92CF93DF9300D0A5
:1046F00000D0CDB7DEB76B01BE016F5F7F4F80E4A6
:1047000090E00E94EC21E12CF12C89819A81AB810F
:10471000BC818C0D9D1DAE1DBF1D89839A83AB830B
:10472000BC83BE016F5F7F4F80E490E00E94122245
:10473000BE016F5F7F4F88E590E00E94EC21898188
:104740009A81AB81BC81C80ED91EEA1EFB1EC982AC
:10475000DA82EB82FC82BE016F5F7F4F88E590E0DA
:104760000E9412220F900F900F900F90DF91CF9127
:10477000FF90EF90DF90CF900895AF92BF92CF92CD
:10478000DF92EF92FF920F931F93CF93DF93CDB7FA
:10479000DEB728970FB6F894DEBF0FBECDBF5C0121
:1047A0008B01BE016B5F7F4F88E390E00E94EC219C
:1047B0006801E12CF12C8D819E81AF81B8858C0D33
:1047C0009D1DAE1DBF1D8D839E83AF83B887BE0127
:1047D0006B5F7F4F88E390E00E941222BE016B5F07
:1047E0007F4F80E590E00E94EC218D819E81AF811A
:1047F000B885C80ED91EEA1EFB1ECD82DE82EF826E
:10480000F886BE016B5F7F4F80E590E00E94122228
:10481000BE016F5F7F4F84E390E00E94EC218981AD
:104820009A81AB81BC810196A11DB11D89839A83B8
:10483000AB83BC83BE016F5F7F4F84E390E00E9437
:104840001222BE016F5F7F4F8CE490E00E94EC214A
:1048500089819A81AB81BC810196A11DB11D89839B
:104860009A83AB83BC83BE016F5F7F4F8CE490E083
:104870000E941222BE016F5F7F4F84E190E00E9490
:10488000EC2189819A81AB81BC81089FB001099F8D
:10489000700D189F700D1124C5010E947123289678
:1048A0000FB6F894DEBF0FBECDBFDF91CF911F9141
:1048B0000F91FF90EF90DF90CF90BF90AF90089551
:1048C000EF92FF920F931F93CF93DF9300D000D00E
:1048D000CDB7DEB77C0149835A836B837C838C011F
:1048E000045F1F4FB8018CE090E00E941222B701D4
:1048F00080E190E00E941222B7016C5F7F4F84E15B
:1049000090E00E941222B80188E190E00E941222F9
:10491000B701685F7F4F8CE190E00E941222B801DE
:104920008CE290E00E941222B80180E390E00E94A5
:104930001222B80184E390E00E941222B80188E3B9
:1049400090E00E941222B80180E490E00E941222BE
:10495000B8018CE390E00E941222B80184E490E058
:104960000E941222B80188E490E00E941222B8014D
:104970008CE490E00E941222B80180E590E00E9451
:104980001222B80188E590E00E941222B80184E565
:1049900090E00E941222BE016F5F7F4F80E290E0A4
:1049A0000E941222BE016F5F7F4F84E290E00E945E
:1049B0001222BE016F5F7F4F88E290E00E941222B8
:1049C0000F900F900F900F90DF91CF911F910F914B
:1049D000FF90EF9008952FB7F894609104027091C2
:1049E000050280910602909107022FBF28EE33E066
:1049F00040E050E00E94DF31CA01B9010895FC0196
:104A00008081811102C00C941A10813079F48FB723
:104A1000F894409104025091050260910602709151
:104A200007028FBF342F252FCB0104C0823011F431
:104A30000C94EB24632F722F08950F931F93CF9341
:104A4000DF93EC010E94FF240C811D812E813F81A8
:104A5000DC01CB01801B910BA20BB30B08851985E0
:104A60002A853B8580179107A207B307D8F0CE01AE
:104A70000E94FF246C837D838E839F83898188239A
:104A800089F09A81992371F09F3F29F08B818917D2
:104A900048F48F5F8B83EC85FD85DF91CF911F916B
:104AA0000F910994DF91CF911F910F910895DC012F
:104AB0001A96ED91FC911B9720E030E00994CF927B
:104AC000DF92EF92FF920F931F93CF93DF93EC014E
:104AD000142F7901663131F1F8F4643109F47BC0A7
:104AE000653109F086C068EF0E946F2241E06CE2F8
:104AF000CE010E945725612F607FCE010E946F2258
:104B000041E06CE2CE010E945725612F6295607FE3
:104B1000CE010E946F2258C0673199F06A3108F0C7
:104B200068C059C068EF0E946F22612F607FCE017C
:104B30000E946F22612F6295607FCE010E946F22DA
:104B400048C06AEF0E946F2241E06CE2CE010E94F1
:104B500057256701012F083058F4812F86958695D7
:104B600086951770E8E08E9FE00CF11C11241AC0A6
:104B7000EDEDF2E0D6018D91982F907F9083829594
:104B8000807F8183329682E0ED3EF807A1F798E0BE
:104B9000C90ED11C08504DED52E060E1CE010E94DB
:104BA0006622D9CF112381F0F70101917F01602F97
:104BB000607FCE010E946F22602F6295607FCE01E0
:104BC0000E946F221150EECF41E06CE2CE010E94B4
:104BD000572581E00FC0E885F9859701412FCE0167
:104BE000DF91CF911F910F91FF90EF90DF90CF90C9
:104BF000099480E0DF91CF911F910F91FF90EF908A
:104C0000DF90CF900895EF92FF920F931F93CF9371
:104C1000DF931F92CDB7DEB77C018B01D8016C9179
:104C20006731E1F078F46531A0F1F8014181498301
:104C3000D7011696ED91FC91179720E030E0C7015F
:104C4000099524C06A31A8F06E3F19F5F801418139
:104C5000498369E2C7010E94572518C0F801818184
:104C60008983AE014F5F5F4F61E0C7010E9453220D
:104C70000DC00F5F1F4FD7011696ED91FC9117974E
:104C800020E030E040E0C7010995C8CF0E5F1F4F1C
:104C9000C5CF0F90DF91CF911F910F91FF90EF90B3
:104CA0000895AF92BF92CF92DF92EF92FF920F934F
:104CB0001F93CF93DF93EC01693031F480E491E0EE
:104CC000998388831C8A7FC079016B30E1F16F3052
:104CD00009F444C06A3009F078C0EA85FB8520E019
:104CE00030E040E068E20995EE81FF8120E030E0AD
:104CF00040E064E1CE01099541E06BE4CE010E9401
:104D00005725E881F981448169E2CE010E94572547
:104D100040E06BE4CE010E945725E881F98144818F
:104D200069E2CE010E94572541E06BE4CE010E946A
:104D30005725E881F981458169E2CE010E94572516
:104D40006DE271E007C0411103C066E271E002C08C
:104D50006BE171E0CE010E94032635C0F9010481A8
:104D6000000F000F000F13811695003210F0005253
:104D7000185FCE010E944922F701A080B1806EE346
:104D8000CE010E945C226EE3CE010E945C22D12CF7
:104D900010686D2D600F6068CE010E945C22612F4B
:104DA000CE010E945C22F701C280A5016C2DCE01CC
:104DB0000E945322AC0CB11CD394F8E0DF12E9CF6F
:104DC000CE010E943F2281E001C080E0DF91CF91BF
:104DD0001F910F91FF90EF90DF90CF90BF90AF9019
:104DE00008950F93FC01EA5BFF4F308131965081AB
:104DF000451728F4301730F0041720F010C0301792
:104E0000D8F30DC0FC01EC5BFF4F308131968081FF
:104E1000681738F4321740F081E0261730F080E050
:104E200004C03217C8F3FBCF81E00F9108952F9291
:104E30003F924F925F926F927F928F929F92AF922A
:104E4000BF92CF92DF92EF92FF920F931F93CF9377
:104E5000DF93EC014C0184E4880E911CF401108274
:104E6000329720805E01F5E4AF0EB11CF50120827F
:104E7000359730806E01F6E4CF0ED11CF6013082FA
:104E8000359740807E01F7E4EF0EF11CF701408278
:104E900034961081329760803196708032975080BE
:104EA000012F262D472D652DCE010E94F126CC58CD
:104EB000DF4F811102C0188212C081E08883552023
:104EC00011F0F4015082621410F4F501608237147D
:104ED00010F4F6017082141510F4F7011083DF91BD
:104EE000CF911F910F91FF90EF90DF90CF90BF90E7
:104EF000AF909F908F907F906F905F904F903F907A
:104F00002F9008950F93DC01802FFD01EC58FF4F87
:104F10009081992309F463C0222309F460C02230F0
:104F200048F0023019F46F5F621B04C0033011F4C3
:104F30004F5F421B082F0170FD0180FD25C0EA5B19
:104F4000FF4F8081481708F44AC031968081481786
:104F500008F045C03297908131978081260F26173F
:104F600030F4691718F42FEF290F03C0682F691761
:104F7000B0F58217A0F5681708F4682F291708F410
:104F8000922F292F261B22C0EC5BFF4F80816817D0
:104F900030F131968081681710F532969081319703
:104FA0008081240F241730F4491718F42FEF290FAC
:104FB00003C0482F491798F4821788F4481708F45B
:104FC000482F291708F4922F292F241BD796ED91EB
:104FD000FC91D8970480F581E02DCD0109950F91C2
:104FE0000895CF92DF92EF92FF92CF93DF9300D09C
:104FF00000D0CDB7DEB76C01BE016F5F7F4F8CE391
:1050000090E00E94EC21E12CF12C89819A81AB8106
:10501000BC818C0D9D1DAE1DBF1D89839A83AB8302
:10502000BC83BE016F5F7F4F8CE390E00E94122231
:10503000BE016F5F7F4F84E590E00E94EC21898183
:105040009A81AB81BC81C80ED91EEA1EFB1EC982A3
:10505000DA82EB82FC82BE016F5F7F4F84E590E0D5
:105060000E9412220F900F900F900F90DF91CF911E
:10507000FF90EF90DF90CF9008950F931F93CF9301
:10508000DF93CDB7DEB729970FB6F894DEBF0FBE1A
:10509000CDBF8C01862FF8011182108213821282FB
:1050A000158214824AE0BE016F5F7F4F90E00E943C
:1050B000EE2EBE016F5F7F4FC8010E94991E299698
:1050C0000FB6F894DEBF0FBECDBFDF91CF911F9119
:1050D0000F9108950F931F93CF93DF93CDB7DEB752
:1050E000A1970FB6F894DEBF0FBECDBF8C01CB01E8
:1050F000BA01F80111821082138212821582148281
:105100002AE0AE014F5F5F4F0E94CC2EBE016F5F61
:105110007F4FC8010E94991EA1960FB6F894DEBF7A
:105120000FBECDBFDF91CF911F910F910895CF9208
:10513000DF92EF92FF920F931F93CF93DF936C0157
:105140008B017A014617570720F4812F8A01E62E3A
:10515000F82E64ED71E0C6010E94B51EC0911A04DC
:10516000D0911B040C171D07E0F4EC16FD0608F4A3
:10517000E701E0911604F0911704EC0FFD1FF08099
:1051800010826091160470911704600F711FC601A0
:105190000E94991E8091160490911704C80FD91F80
:1051A000F882C601DF91CF911F910F91FF90EF9090
:1051B000DF90CF900895CF92DF92EF92FF920F93FE
:1051C0001F93CF93DF9300D000D000D0CDB7DEB7D0
:1051D0008C0164ED71E0CE0101960E94B51E109223
:1051E00041048091410490E0F801248135818217C7
:1051F000930730F5408151814115510529F0FA019D
:10520000E80FF91F208101C020E0022E000C330BB3
:10521000205331092A30310568F44115510529F030
:10522000FA01E80FF91F608101C060E0CE0101962C
:105230000E94531E809141048F5F80934104D1CF1F
:1052400089819A81009729F00E94892E6B017C0147
:1052500003C0C12CD12C7601CE0101960E94B01E54
:10526000C701B60126960FB6F894DEBF0FBECDBFBC
:10527000DF91CF911F910F91FF90EF90DF90CF9032
:105280000895CF93DF93CDB7DEB728970FB6F89484
:10529000DEBF0FBECDBF789484B5826084BD84B577
:1052A000816084BD85B5826085BD85B5816085BD21
:1052B00080916E00816080936E00109281008091D9
:1052C0008100826080938100809181008160809361
:1052D0008100809180008160809380008091B10086
:1052E00084608093B1008091B00081608093B000B1
:1052F00080917A00846080937A0080917A00826045
:1053000080937A0080917A00816080937A00809106
:105310007A00806880937A001092C100BE016F5FAE
:105320007F4F84E090E00E94EC2189819A81AB81DB
:10533000BC810197A105B10531F140E458EE62E06E
:1053400070E085E091E00E94602484E190E0A0E0BC
:10535000B0E089839A83AB83BC83BE016F5F7F4FCC
:1053600088E090E00E94122281E090E0A0E0B0E0AE
:105370008D839E83AF83B887BE016B5F7F4F84E0D0
:1053800090E00E9412220E94A00DE091FD02F09197
:10539000FE0282E08083E091F902F091FA0210822D
:1053A000E091FB02F091FC028FEC808310920503E8
:1053B000E0910103F091020386E08083E091FF0217
:1053C000F0910003808180618083E091FF02F09181
:1053D0000003808188608083E091FF02F0910003E8
:1053E000808180688083E091FF02F09100038081DA
:1053F0008F7D808383EA96E190932E0480932D0421
:105400001092100410920F0410920E0410920D04CA
:1054100010920C0410920B048DE991E09093120409
:105420008093110490910104963108F058C02DEB3F
:1054300030E030930C0420930B042BE931E03093DF
:105440000E0420930D042CE231E0309310042093DD
:105450000F0440916800983058F031E09E3008F415
:1054600030E021E0822F01C0880F3A95EAF701C0B1
:1054700084E0842B80936800983038F09E3040F0B0
:10548000963148F020E030E008C02DE630E005C05D
:105490002BE630E002C02CE630E030930904209384
:1054A0000804983030F481E001C0880F9A95EAF73B
:1054B0000EC0292F30E09E3018F42850310902C068
:1054C0002E50310981E001C0880F2A95EAF78093B8
:1054D0000A0480911104909112040197F1F78091D0
:1054E0000F0490911004892B21F180910102909179
:1054F000020223E0853F9207E1F0009711F00E943D
:10550000D621809113048E7F8093130410920002A1
:105510001092FF0185EF93E09093020280930102C5
:10552000E0910804F0910904908180910A04892B8C
:105530008083E091DD04F091DE0420E030E040E083
:105540006AE089ED94E0099589ED94E00E94680C89
:1055500089ED94E00E943E0C182F8111F9CF60E094
:1055600089ED94E00E946B0BE091DD04F091DE0484
:1055700020E030E040E06BE089ED94E009958FE7B2
:1055800092E2909356058093550580915A0490912C
:105590005904882361F0923021F0933021F08FEF8D
:1055A00003C080E001C081E063E070E009C0923098
:1055B00029F0933011F08FEF01C081E062E070E0DC
:1055C0000E94DD0B81E694E090931504809314040F
:1055D00088EE93E0A0E0B0E08093CF049093D004F5
:1055E000A093D104B093D2048FEF8093C9042DE629
:1055F00036E03093D4042093D30449E150E060E0D6
:1056000070E04093C1045093C2046093C30470934C
:10561000C4048093BB042AE035E03093C604209391
:10562000C50440E157E260E070E04093B30450935A
:10563000B4046093B5047093B6048093AD042AE07B
:1056400036E03093B8042093B70440E65AEE60E0A9
:1056500070E04093A5045093A6046093A704709350
:10566000A80480939F0480E496E09093AA0480931A
:10567000A90481E08093C8048093BA048093AC04A9
:1056800080939E0444E125E833E180E393E1419F68
:10569000F0011124EB55FC4F3183208393838283E7
:1056A0001F5F1430A1F7109303029FE088E10FB64B
:1056B000F894A895809360000FBE9093600087ECEB
:1056C00094E00E941D2589EB94E00E941D258BEA41
:1056D00094E00E941D258DE994E00E941D2585EF30
:1056E00093E00E94C51D892BE9F085EF93E00E94AD
:1056F000C51D892BB9F085EF93E00E94DD1D182FA1
:10570000682F86E194E00E94531E1A3059F4E0910C
:105710002D04F0912E04099564ED71E086E194E08A
:105720000E94991EA8950E94FB1CC9CFCF93DF93BE
:105730008AE893E00E94B01EC5EFD3E080E891E0D4
:105740009983888387E294E00E94B01E86E194E00A
:105750000E94B01E80E891E099838883CE01DF919A
:10576000CF910C94D621FC01862F158216821782C8
:10577000108611861286138614861586168617865D
:105780004CED55E060E070E0408B518B628B738B89
:10579000848362E00C94640DFC01862F10821182D8
:1057A0001282138214821582168217821086118645
:1057B0001286138615861686648761E00C94640D44
:1057C0000F931F93CF93DF93CDB7DEB765970FB6D7
:1057D000F894DEBF0FBECDBF1092F0021092EF0220
:1057E00088EE93E0A0E0B0E08093F1029093F202A3
:1057F000A093F302B093F4022CE531E03093EE0273
:105800002093ED0225EC30E03093FA022093F90268
:1058100024EC30E03093FC022093FB0220EC30E0DB
:105820003093FE022093FD0221EC30E03093000320
:105830002093FF0222EC30E0309302032093010317
:1058400026EC30E030930403209303031092060308
:1058500010920703109208031092090310925C053E
:1058600010925B0580935D0590935E05A0935F05A4
:10587000B09360058EE691E090935A0580935905A8
:105880001092D8041092D70484EC92E290935605BB
:105890008093550510925705109258051092F20406
:1058A00082E991E09093D6048093D5041092DA04B3
:1058B0001092D9041092EE041092F1041092E504B3
:1058C0001092E6041092E7041092E8048FEF8093A0
:1058D000EF048093F404E8EFF4E00FEF819325E008
:1058E000EE30F207D1F781E596E29093DE048093E3
:1058F000DD048FE595E29093E0048093DF0483E973
:1059000091E19093E2048093E10489E892E190931D
:10591000E4048093E30420E030E040E069E089EDB6
:1059200094E00E945126109226051092250581E2EE
:1059300093E290930F0580930E0585E695E0909392
:1059400013058093120511E01093140510921505AC
:10595000109232051092520510935305109354057E
:105960008AE991E0909311058093100589ED94E008
:105970000E94DB221092210510922305009322053C
:1059800000932405E0911005F09111050280F38148
:10599000E02D89ED94E009958FE693E29093280538
:1059A00080932705109235058CE08093F8048BE0F6
:1059B0008093F9048AE08093010584E680930305CF
:1059C0001092C8041092C9041092CA041092CB0419
:1059D0001092CC041092CD041092CE041092CF04F9
:1059E0001092D0041092D1041092D2041092D404D8
:1059F0001092D3041093C7041092BA041092BB04FF
:105A00001092BC041092BD041092BE041092BF0408
:105A10001092C0041092C1041092C2041092C304E8
:105A20001092C4041092C6041092C5041093B904D5
:105A30001092AC041092AD041092AE041092AF0418
:105A40001092B0041092B1041092B2041092B304F8
:105A50001092B4041092B5041092B6041092B804D7
:105A60001092B7041093AB0410929E0410929F04FE
:105A70001092A0041092A1041092A2041092A30408
:105A80001092A4041092A5041092A6041092A704E8
:105A90001092A8041092AA041092A90410939D04D5
:105AA0006EE081E694E00E94CC2B6FE080E794E00A
:105AB0000E94CC2B60E18FE794E00E94CC2B61E147
:105AC0008EE894E00E94CC2B8DE080935C0483E50B
:105AD00097E090935E0480935D0482E390E090935E
